{
  "contractName": "Art",
  "abi": [
    {
      "inputs": [],
      "stateMutability": "nonpayable",
      "type": "constructor"
    },
    {
      "anonymous": false,
      "inputs": [
        {
          "indexed": true,
          "internalType": "address",
          "name": "previousOwner",
          "type": "address"
        },
        {
          "indexed": true,
          "internalType": "address",
          "name": "newOwner",
          "type": "address"
        }
      ],
      "name": "OwnershipTransferred",
      "type": "event"
    },
    {
      "inputs": [],
      "name": "owner",
      "outputs": [
        {
          "internalType": "address",
          "name": "",
          "type": "address"
        }
      ],
      "stateMutability": "view",
      "type": "function",
      "constant": true
    },
    {
      "inputs": [],
      "name": "projectTokenAddress",
      "outputs": [
        {
          "internalType": "address",
          "name": "",
          "type": "address"
        }
      ],
      "stateMutability": "view",
      "type": "function",
      "constant": true
    },
    {
      "inputs": [],
      "name": "renounceOwnership",
      "outputs": [],
      "stateMutability": "nonpayable",
      "type": "function"
    },
    {
      "inputs": [
        {
          "internalType": "address",
          "name": "newOwner",
          "type": "address"
        }
      ],
      "name": "transferOwnership",
      "outputs": [],
      "stateMutability": "nonpayable",
      "type": "function"
    },
    {
      "inputs": [
        {
          "internalType": "string",
          "name": "_name",
          "type": "string"
        },
        {
          "internalType": "uint8",
          "name": "_age",
          "type": "uint8"
        },
        {
          "internalType": "uint8",
          "name": "_scope",
          "type": "uint8"
        }
      ],
      "name": "newProject",
      "outputs": [
        {
          "internalType": "uint256",
          "name": "",
          "type": "uint256"
        }
      ],
      "stateMutability": "nonpayable",
      "type": "function"
    }
  ],
  "bytecode": "0x6080604052606460025560ff600360006101000a81548160ff021916908360ff1602179055506001600360016101000a81548160ff021916908360ff1602179055506001600360026101000a81548160ff021916908360ff16021790555060026003806101000a81548160ff021916908360ff1602179055506001600360046101000a81548160ff021916908360ff1602179055503480156100a057600080fd5b5060006100b16101bd60201b60201c565b9050806000806101000a81548173ffffffffffffffffffffffffffffffffffffffff021916908373ffffffffffffffffffffffffffffffffffffffff1602179055508073ffffffffffffffffffffffffffffffffffffffff16600073ffffffffffffffffffffffffffffffffffffffff167f8be0079c531659141344cd1fd0a4f28419497f9722a3daafe3b4186f6b6457e060405160405180910390a35060405161015b906101c5565b604051809103906000f080158015610177573d6000803e3d6000fd5b50600160006101000a81548173ffffffffffffffffffffffffffffffffffffffff021916908373ffffffffffffffffffffffffffffffffffffffff1602179055506101d2565b600033905090565b6151e2806109fe83390190565b61081d806101e16000396000f3fe608060405234801561001057600080fd5b50600436106100575760003560e01c806344cea4e91461005c578063715018a6146100905780638da5cb5b1461009a5780638eb021fc146100ce578063f2fde38b146101b7575b600080fd5b6100646101fb565b604051808273ffffffffffffffffffffffffffffffffffffffff16815260200191505060405180910390f35b610098610221565b005b6100a26103a7565b604051808273ffffffffffffffffffffffffffffffffffffffff16815260200191505060405180910390f35b6101a1600480360360608110156100e457600080fd5b810190808035906020019064010000000081111561010157600080fd5b82018360208201111561011357600080fd5b8035906020019184600183028401116401000000008311171561013557600080fd5b91908080601f016020809104026020016040519081016040528093929190818152602001838380828437600081840152601f19601f820116905080830192505050505050509192919290803560ff169060200190929190803560ff1690602001909291905050506103d0565b6040518082815260200191505060405180910390f35b6101f9600480360360208110156101cd57600080fd5b81019080803573ffffffffffffffffffffffffffffffffffffffff1690602001909291905050506105ae565b005b600160009054906101000a900473ffffffffffffffffffffffffffffffffffffffff1681565b6102296107b9565b73ffffffffffffffffffffffffffffffffffffffff1660008054906101000a900473ffffffffffffffffffffffffffffffffffffffff1673ffffffffffffffffffffffffffffffffffffffff16146102e9576040517f08c379a00000000000000000000000000000000000000000000000000000000081526004018080602001828103825260208152602001807f4f776e61626c653a2063616c6c6572206973206e6f7420746865206f776e657281525060200191505060405180910390fd5b600073ffffffffffffffffffffffffffffffffffffffff1660008054906101000a900473ffffffffffffffffffffffffffffffffffffffff1673ffffffffffffffffffffffffffffffffffffffff167f8be0079c531659141344cd1fd0a4f28419497f9722a3daafe3b4186f6b6457e060405160405180910390a360008060006101000a81548173ffffffffffffffffffffffffffffffffffffffff021916908373ffffffffffffffffffffffffffffffffffffffff160217905550565b60008060009054906101000a900473ffffffffffffffffffffffffffffffffffffffff16905090565b6000600160009054906101000a900473ffffffffffffffffffffffffffffffffffffffff1673ffffffffffffffffffffffffffffffffffffffff1663ed9a1138600254868686600360009054906101000a900460ff16600360019054906101000a900460ff16600360029054906101000a900460ff1660038054906101000a900460ff16600360049054906101000a900460ff16336040518b63ffffffff1660e01b8152600401808b8152602001806020018a60ff1681526020018960ff1681526020018860ff1681526020018760ff1681526020018660ff1681526020018560ff1681526020018460ff1681526020018373ffffffffffffffffffffffffffffffffffffffff16815260200182810382528b818151815260200191508051906020019080838360005b838110156105155780820151818401526020810190506104fa565b50505050905090810190601f1680156105425780820380516001836020036101000a031916815260200191505b509b505050505050505050505050602060405180830381600087803b15801561056a57600080fd5b505af115801561057e573d6000803e3d6000fd5b505050506040513d602081101561059457600080fd5b810190808051906020019092919050505090509392505050565b6105b66107b9565b73ffffffffffffffffffffffffffffffffffffffff1660008054906101000a900473ffffffffffffffffffffffffffffffffffffffff1673ffffffffffffffffffffffffffffffffffffffff1614610676576040517f08c379a00000000000000000000000000000000000000000000000000000000081526004018080602001828103825260208152602001807f4f776e61626c653a2063616c6c6572206973206e6f7420746865206f776e657281525060200191505060405180910390fd5b600073ffffffffffffffffffffffffffffffffffffffff168173ffffffffffffffffffffffffffffffffffffffff1614156106fc576040517f08c379a00000000000000000000000000000000000000000000000000000000081526004018080602001828103825260268152602001806107c26026913960400191505060405180910390fd5b8073ffffffffffffffffffffffffffffffffffffffff1660008054906101000a900473ffffffffffffffffffffffffffffffffffffffff1673ffffffffffffffffffffffffffffffffffffffff167f8be0079c531659141344cd1fd0a4f28419497f9722a3daafe3b4186f6b6457e060405160405180910390a3806000806101000a81548173ffffffffffffffffffffffffffffffffffffffff021916908373ffffffffffffffffffffffffffffffffffffffff16021790555050565b60003390509056fe4f776e61626c653a206e6577206f776e657220697320746865207a65726f2061646472657373a2646970667358221220f7f429da6014e75fa3c3b5e2b75895a812b1a98ec03ca8ec96dab3e0f88b205364736f6c634300060c003360806040526014600c60006101000a81548160ff021916908360ff160217905550600a600c60016101000a81548160ff021916908360ff1602179055506005600c60026101000a81548160ff021916908360ff1602179055506005600e60006101000a81548160ff021916908360ff1602179055506008600e60016101000a81548160ff021916908360ff1602179055506001600e60026101000a81548160ff021916908360ff1602179055506006600e60036101000a81548160ff021916908360ff160217905550600f600e60046101000a81548160ff021916908360ff160217905550348015620000f157600080fd5b506040518060400160405280600681526020017f57334172747300000000000000000000000000000000000000000000000000008152506040518060400160405280600281526020017f3341000000000000000000000000000000000000000000000000000000000000815250620001766301ffc9a760e01b620002a960201b60201c565b81600690805190602001906200018e929190620003ba565b508060079080519060200190620001a7929190620003ba565b50620001c06380ac58cd60e01b620002a960201b60201c565b620001d8635b5e139f60e01b620002a960201b60201c565b620001f063780e9d6360e01b620002a960201b60201c565b5050600062000204620003b260201b60201c565b905080600a60006101000a81548173ffffffffffffffffffffffffffffffffffffffff021916908373ffffffffffffffffffffffffffffffffffffffff1602179055508073ffffffffffffffffffffffffffffffffffffffff16600073ffffffffffffffffffffffffffffffffffffffff167f8be0079c531659141344cd1fd0a4f28419497f9722a3daafe3b4186f6b6457e060405160405180910390a35062000460565b63ffffffff60e01b817bffffffffffffffffffffffffffffffffffffffffffffffffffffffff1916141562000346576040517f08c379a000000000000000000000000000000000000000000000000000000000815260040180806020018281038252601c8152602001807f4552433136353a20696e76616c696420696e746572666163652069640000000081525060200191505060405180910390fd5b6001600080837bffffffffffffffffffffffffffffffffffffffffffffffffffffffff19167bffffffffffffffffffffffffffffffffffffffffffffffffffffffff1916815260200190815260200160002060006101000a81548160ff02191690831515021790555050565b600033905090565b828054600181600116156101000203166002900490600052602060002090601f016020900481019282601f10620003fd57805160ff19168380011785556200042e565b828001600101855582156200042e579182015b828111156200042d57825182559160200191906001019062000410565b5b5090506200043d919062000441565b5090565b5b808211156200045c57600081600090555060010162000442565b5090565b614d7280620004706000396000f3fe608060405234801561001057600080fd5b50600436106102275760003560e01c80636e8eb22211610130578063ace53ce4116100b8578063dd3f055e1161007c578063dd3f055e14610c5f578063e985e9c514610c80578063ed9a113814610cfa578063f19ce39214610e4f578063f2fde38b14610e7057610227565b8063ace53ce414610a50578063b88d4fde14610a71578063c2902db614610b76578063c87b56dd14610b97578063cd68984514610c3e57610227565b80638da5cb5b116100ff5780638da5cb5b146108fd57806395d89b4114610931578063964bc33f146109b4578063966e4120146109e2578063a22cb46514610a0057610227565b80636e8eb2221461084c57806370a082311461087a578063715018a6146108d2578063811a6eae146108dc57610227565b80633cd1b518116101b35780634b2b7c0d116101825780634b2b7c0d146106d65780634f6ccce7146106f75780635989f046146107395780636352211e146107715780636c0360eb146107c957610227565b80633cd1b518146105d55780633d8b78941461061957806342842e0e14610647578063437f57e0146106b557610227565b8063107046bd116101fa578063107046bd146103b857806316354d04146104ac57806318160ddd146104e757806323b872dd146105055780632f745c591461057357610227565b806301ffc9a71461022c57806306fdde031461028f578063081812fc14610312578063095ea7b31461036a575b600080fd5b6102776004803603602081101561024257600080fd5b8101908080357bffffffffffffffffffffffffffffffffffffffffffffffffffffffff19169060200190929190505050610eb4565b60405180821515815260200191505060405180910390f35b610297610f1b565b6040518080602001828103825283818151815260200191508051906020019080838360005b838110156102d75780820151818401526020810190506102bc565b50505050905090810190601f1680156103045780820380516001836020036101000a031916815260200191505b509250505060405180910390f35b61033e6004803603602081101561032857600080fd5b8101908080359060200190929190505050610fbd565b604051808273ffffffffffffffffffffffffffffffffffffffff16815260200191505060405180910390f35b6103b66004803603604081101561038057600080fd5b81019080803573ffffffffffffffffffffffffffffffffffffffff16906020019092919080359060200190929190505050611058565b005b6103e4600480360360208110156103ce57600080fd5b810190808035906020019092919050505061119c565b604051808a8152602001806020018960ff1681526020018860ff1681526020018760ff1681526020018660ff1681526020018560ff1681526020018460ff1681526020018360ff16815260200182810382528a818151815260200191508051906020019080838360005b8381101561046957808201518184015260208101905061044e565b50505050905090810190601f1680156104965780820380516001836020036101000a031916815260200191505b509a505050505050505050505060405180910390f35b6104e5600480360360408110156104c257600080fd5b8101908080359060200190929190803560ff1690602001909291905050506112ea565b005b6104ef611706565b6040518082815260200191505060405180910390f35b6105716004803603606081101561051b57600080fd5b81019080803573ffffffffffffffffffffffffffffffffffffffff169060200190929190803573ffffffffffffffffffffffffffffffffffffffff16906020019092919080359060200190929190505050611717565b005b6105bf6004803603604081101561058957600080fd5b81019080803573ffffffffffffffffffffffffffffffffffffffff1690602001909291908035906020019092919050505061178d565b6040518082815260200191505060405180910390f35b610601600480360360208110156105eb57600080fd5b81019080803590602001909291905050506117e8565b60405180821515815260200191505060405180910390f35b6106456004803603602081101561062f57600080fd5b8101908080359060200190929190505050611808565b005b6106b36004803603606081101561065d57600080fd5b81019080803573ffffffffffffffffffffffffffffffffffffffff169060200190929190803573ffffffffffffffffffffffffffffffffffffffff16906020019092919080359060200190929190505050611a23565b005b6106bd611a43565b604051808260ff16815260200191505060405180910390f35b6106de611a56565b604051808260ff16815260200191505060405180910390f35b6107236004803603602081101561070d57600080fd5b8101908080359060200190929190505050611a69565b6040518082815260200191505060405180910390f35b61076f6004803603604081101561074f57600080fd5b810190808035906020019092919080359060200190929190505050611a8c565b005b61079d6004803603602081101561078757600080fd5b8101908080359060200190929190505050612100565b604051808273ffffffffffffffffffffffffffffffffffffffff16815260200191505060405180910390f35b6107d1612137565b6040518080602001828103825283818151815260200191508051906020019080838360005b838110156108115780820151818401526020810190506107f6565b50505050905090810190601f16801561083e5780820380516001836020036101000a031916815260200191505b509250505060405180910390f35b6108786004803603602081101561086257600080fd5b81019080803590602001909291905050506121d9565b005b6108bc6004803603602081101561089057600080fd5b81019080803573ffffffffffffffffffffffffffffffffffffffff169060200190929190505050612385565b6040518082815260200191505060405180910390f35b6108da61245a565b005b6108e46125e5565b604051808260ff16815260200191505060405180910390f35b6109056125f8565b604051808273ffffffffffffffffffffffffffffffffffffffff16815260200191505060405180910390f35b610939612622565b6040518080602001828103825283818151815260200191508051906020019080838360005b8381101561097957808201518184015260208101905061095e565b50505050905090810190601f1680156109a65780820380516001836020036101000a031916815260200191505b509250505060405180910390f35b6109e0600480360360208110156109ca57600080fd5b81019080803590602001909291905050506126c4565b005b6109ea6127f6565b6040518082815260200191505060405180910390f35b610a4e60048036036040811015610a1657600080fd5b81019080803573ffffffffffffffffffffffffffffffffffffffff169060200190929190803515159060200190929190505050612806565b005b610a586129bc565b604051808260ff16815260200191505060405180910390f35b610b7460048036036080811015610a8757600080fd5b81019080803573ffffffffffffffffffffffffffffffffffffffff169060200190929190803573ffffffffffffffffffffffffffffffffffffffff1690602001909291908035906020019092919080359060200190640100000000811115610aee57600080fd5b820183602082011115610b0057600080fd5b80359060200191846001830284011164010000000083111715610b2257600080fd5b91908080601f016020809104026020016040519081016040528093929190818152602001838380828437600081840152601f19601f8201169050808301925050505050505091929192905050506129cf565b005b610b7e612a47565b604051808260ff16815260200191505060405180910390f35b610bc360048036036020811015610bad57600080fd5b8101908080359060200190929190505050612a5a565b6040518080602001828103825283818151815260200191508051906020019080838360005b83811015610c03578082015181840152602081019050610be8565b50505050905090810190601f168015610c305780820380516001836020036101000a031916815260200191505b509250505060405180910390f35b610c46612d43565b604051808260ff16815260200191505060405180910390f35b610c67612d56565b604051808260ff16815260200191505060405180910390f35b610ce260048036036040811015610c9657600080fd5b81019080803573ffffffffffffffffffffffffffffffffffffffff169060200190929190803573ffffffffffffffffffffffffffffffffffffffff169060200190929190505050612d69565b60405180821515815260200191505060405180910390f35b610e396004803603610140811015610d1157600080fd5b810190808035906020019092919080359060200190640100000000811115610d3857600080fd5b820183602082011115610d4a57600080fd5b80359060200191846001830284011164010000000083111715610d6c57600080fd5b91908080601f016020809104026020016040519081016040528093929190818152602001838380828437600081840152601f19601f820116905080830192505050505050509192919290803560ff169060200190929190803560ff169060200190929190803560ff169060200190929190803560ff169060200190929190803560ff169060200190929190803560ff169060200190929190803560ff169060200190929190803573ffffffffffffffffffffffffffffffffffffffff169060200190929190505050612dfd565b6040518082815260200191505060405180910390f35b610e57613080565b604051808260ff16815260200191505060405180910390f35b610eb260048036036020811015610e8657600080fd5b81019080803573ffffffffffffffffffffffffffffffffffffffff169060200190929190505050613093565b005b6000806000837bffffffffffffffffffffffffffffffffffffffffffffffffffffffff19167bffffffffffffffffffffffffffffffffffffffffffffffffffffffff1916815260200190815260200160002060009054906101000a900460ff169050919050565b606060068054600181600116156101000203166002900480601f016020809104026020016040519081016040528092919081815260200182805460018160011615610100020316600290048015610fb35780601f10610f8857610100808354040283529160200191610fb3565b820191906000526020600020905b815481529060010190602001808311610f9657829003601f168201915b5050505050905090565b6000610fc8826132a3565b61101d576040517f08c379a000000000000000000000000000000000000000000000000000000000815260040180806020018281038252602c815260200180614bf6602c913960400191505060405180910390fd5b6004600083815260200190815260200160002060009054906101000a900473ffffffffffffffffffffffffffffffffffffffff169050919050565b600061106382612100565b90508073ffffffffffffffffffffffffffffffffffffffff168373ffffffffffffffffffffffffffffffffffffffff1614156110ea576040517f08c379a0000000000000000000000000000000000000000000000000000000008152600401808060200182810382526021815260200180614c7a6021913960400191505060405180910390fd5b8073ffffffffffffffffffffffffffffffffffffffff166111096132c0565b73ffffffffffffffffffffffffffffffffffffffff1614806111385750611137816111326132c0565b612d69565b5b61118d576040517f08c379a0000000000000000000000000000000000000000000000000000000008152600401808060200182810382526038815260200180614b056038913960400191505060405180910390fd5b61119783836132c8565b505050565b600b81815481106111a957fe5b9060005260206000209060030201600091509050806000015490806001018054600181600116156101000203166002900480601f01602080910402602001604051908101604052809291908181526020018280546001816001161561010002031660029004801561125b5780601f106112305761010080835404028352916020019161125b565b820191906000526020600020905b81548152906001019060200180831161123e57829003601f168201915b5050505050908060020160009054906101000a900460ff16908060020160019054906101000a900460ff16908060020160029054906101000a900460ff16908060020160039054906101000a900460ff16908060020160049054906101000a900460ff16908060020160059054906101000a900460ff16908060020160069054906101000a900460ff16905089565b3373ffffffffffffffffffffffffffffffffffffffff1661130a83612100565b73ffffffffffffffffffffffffffffffffffffffff1614611376576040517f08c379a0000000000000000000000000000000000000000000000000000000008152600401808060200182810382526023815260200180614cf16023913960400191505060405180910390fd5b6113ba600b838154811061138657fe5b906000526020600020906003020160020160029054906101000a900460ff16600e60009054906101000a900460ff16613381565b600b83815481106113c757fe5b906000526020600020906003020160020160026101000a81548160ff021916908360ff160217905550611427600b838154811061140057fe5b906000526020600020906003020160000154600e60019054906101000a900460ff166133ac565b600b838154811061143457fe5b9060005260206000209060030201600001819055506000600381111561145657fe5b81600381111561146257fe5b14156114e7576114ac600b838154811061147857fe5b906000526020600020906003020160020160039054906101000a900460ff16600e60029054906101000a900460ff166133cc565b600b83815481106114b957fe5b906000526020600020906003020160020160036101000a81548160ff021916908360ff1602179055506116bf565b600160038111156114f457fe5b81600381111561150057fe5b14156115855761154a600b838154811061151657fe5b906000526020600020906003020160020160049054906101000a900460ff16600e60029054906101000a900460ff166133cc565b600b838154811061155757fe5b906000526020600020906003020160020160046101000a81548160ff021916908360ff1602179055506116be565b6002600381111561159257fe5b81600381111561159e57fe5b1415611623576115e8600b83815481106115b457fe5b906000526020600020906003020160020160059054906101000a900460ff16600e60029054906101000a900460ff166133cc565b600b83815481106115f557fe5b906000526020600020906003020160020160056101000a81548160ff021916908360ff1602179055506116bd565b60038081111561162f57fe5b81600381111561163b57fe5b14156116bc57611685600b838154811061165157fe5b906000526020600020906003020160020160069054906101000a900460ff16600e60029054906101000a900460ff166133cc565b600b838154811061169257fe5b906000526020600020906003020160020160066101000a81548160ff021916908360ff1602179055505b5b5b5b817feeaaafec8320cd5943b8c412155edae16073cde48e70565d1ccd0f7755cb983d82604051808260038111156116f257fe5b815260200191505060405180910390a25050565b600061171260026133f7565b905090565b6117286117226132c0565b8261340c565b61177d576040517f08c379a0000000000000000000000000000000000000000000000000000000008152600401808060200182810382526031815260200180614cc06031913960400191505060405180910390fd5b611788838383613500565b505050565b60006117e082600160008673ffffffffffffffffffffffffffffffffffffffff1673ffffffffffffffffffffffffffffffffffffffff16815260200190815260200160002061374390919063ffffffff16565b905092915050565b600d6020528060005260406000206000915054906101000a900460ff1681565b3373ffffffffffffffffffffffffffffffffffffffff1661182882612100565b73ffffffffffffffffffffffffffffffffffffffff1614611894576040517f08c379a0000000000000000000000000000000000000000000000000000000008152600401808060200182810382526022815260200180614bb26022913960400191505060405180910390fd5b60001515600d600083815260200190815260200160002060009054906101000a900460ff1615151461192e576040517f08c379a000000000000000000000000000000000000000000000000000000000815260040180806020018281038252601c8152602001807f4d757374206e6f7420616c726561647920626520656e6c69737465640000000081525060200191505060405180910390fd5b600c60009054906101000a900460ff1660ff16600b828154811061194e57fe5b906000526020600020906003020160020160029054906101000a900460ff1660ff1610156119c7576040517f08c379a0000000000000000000000000000000000000000000000000000000008152600401808060200182810382526025815260200180614c9b6025913960400191505060405180910390fd5b6001600d600083815260200190815260200160002060006101000a81548160ff021916908315150217905550807ff2ffc74f2561385e2dda97fd2fed03df7841a8aa26fdf1f5fb28c6cc4950dc0160405160405180910390a250565b611a3e838383604051806020016040528060008152506129cf565b505050565b600c60029054906101000a900460ff1681565b600e60039054906101000a900460ff1681565b600080611a8083600261375d90919063ffffffff16565b50905080915050919050565b3373ffffffffffffffffffffffffffffffffffffffff16611aac83612100565b73ffffffffffffffffffffffffffffffffffffffff1614611b18576040517f08c379a0000000000000000000000000000000000000000000000000000000008152600401808060200182810382526029815260200180614d146029913960400191505060405180910390fd5b60011515600d600084815260200190815260200160002060009054906101000a900460ff16151514611bb2576040517f08c379a00000000000000000000000000000000000000000000000000000000081526004018080602001828103825260108152602001807f4d75737420626520656e6c69737465640000000000000000000000000000000081525060200191505060405180910390fd5b60011515600d600083815260200190815260200160002060009054906101000a900460ff16151514611c4c576040517f08c379a00000000000000000000000000000000000000000000000000000000081526004018080602001828103825260198152602001807f4f70706f6e656e74206d75737420626520656e6c69737465640000000000000081525060200191505060405180910390fd5b611c8b826040518060400160405280601f81526020017f50726f6a656374206e6f7420726561647920666f72206120636f6e7465737400815250613789565b611cca816040518060400160405280602081526020017f4f70706f6e656e74206e6f7420726561647920666f72206120636f6e74657374815250613789565b6000611dbb600b8481548110611cdc57fe5b906000526020600020906003020160020160069054906101000a900460ff1660ff16611dad600b8681548110611d0e57fe5b906000526020600020906003020160020160059054906101000a900460ff1660ff16611d9f600b8881548110611d4057fe5b906000526020600020906003020160020160049054906101000a900460ff1660ff16600b8981548110611d6f57fe5b906000526020600020906003020160020160039054906101000a900460ff1660ff1661383c90919063ffffffff16565b61383c90919063ffffffff16565b61383c90919063ffffffff16565b90506000611eae600b8481548110611dcf57fe5b906000526020600020906003020160020160069054906101000a900460ff1660ff16611ea0600b8681548110611e0157fe5b906000526020600020906003020160020160059054906101000a900460ff1660ff16611e92600b8881548110611e3357fe5b906000526020600020906003020160020160049054906101000a900460ff1660ff16600b8981548110611e6257fe5b906000526020600020906003020160020160039054906101000a900460ff1660ff1661383c90919063ffffffff16565b61383c90919063ffffffff16565b61383c90919063ffffffff16565b9050611f0b611f06600c60009054906101000a900460ff1660ff16600b8781548110611ed657fe5b906000526020600020906003020160020160029054906101000a900460ff1660ff166138c490919063ffffffff16565b61390e565b600b8581548110611f1857fe5b906000526020600020906003020160020160026101000a81548160ff021916908360ff160217905550611f9c611f97600c60009054906101000a900460ff1660ff16600b8681548110611f6757fe5b906000526020600020906003020160020160029054906101000a900460ff1660ff166138c490919063ffffffff16565b61390e565b600b8481548110611fa957fe5b906000526020600020906003020160020160026101000a81548160ff021916908360ff16021790555060008082841015611fe4578486611fe7565b85855b9150915061202e600c60019054906101000a900460ff1660ff16600b848154811061200e57fe5b90600052602060002090600302016000015461383c90919063ffffffff16565b600b838154811061203b57fe5b906000526020600020906003020160000181905550612093600c60029054906101000a900460ff1660ff16600b838154811061207357fe5b90600052602060002090600302016000015461383c90919063ffffffff16565b600b82815481106120a057fe5b9060005260206000209060030201600001819055508185877fc249a6171fd80d816a076fc4419bfea3db12dd9eb72fd9ea5702424fc68e5afe60405160405180910390a46120ed86613972565b506120f785613972565b50505050505050565b600061213082604051806060016040528060298152602001614b896029913960026139d79092919063ffffffff16565b9050919050565b606060098054600181600116156101000203166002900480601f0160208091040260200160405190810160405280929190818152602001828054600181600116156101000203166002900480156121cf5780601f106121a4576101008083540402835291602001916121cf565b820191906000526020600020905b8154815290600101906020018083116121b257829003601f168201915b5050505050905090565b3373ffffffffffffffffffffffffffffffffffffffff166121f982612100565b73ffffffffffffffffffffffffffffffffffffffff1614612282576040517f08c379a00000000000000000000000000000000000000000000000000000000081526004018080602001828103825260208152602001807f4d757374206265206f776e6572206f662070726f6a65637420746f207265737481525060200191505060405180910390fd5b6122b9600b828154811061229257fe5b906000526020600020906003020160000154600e60039054906101000a900460ff166133ac565b600b82815481106122c657fe5b90600052602060002090600302016000018190555061231f600b82815481106122eb57fe5b906000526020600020906003020160020160029054906101000a900460ff16600e60049054906101000a900460ff166133cc565b600b828154811061232c57fe5b906000526020600020906003020160020160026101000a81548160ff021916908360ff160217905550807f0594fec9b42ce38ee3c311c4bdd01add00de4138f3f35028275ed5ddcb0ccdf760405160405180910390a250565b60008073ffffffffffffffffffffffffffffffffffffffff168273ffffffffffffffffffffffffffffffffffffffff16141561240c576040517f08c379a000000000000000000000000000000000000000000000000000000000815260040180806020018281038252602a815260200180614b5f602a913960400191505060405180910390fd5b612453600160008473ffffffffffffffffffffffffffffffffffffffff1673ffffffffffffffffffffffffffffffffffffffff1681526020019081526020016000206139f6565b9050919050565b6124626132c0565b73ffffffffffffffffffffffffffffffffffffffff16600a60009054906101000a900473ffffffffffffffffffffffffffffffffffffffff1673ffffffffffffffffffffffffffffffffffffffff1614612524576040517f08c379a00000000000000000000000000000000000000000000000000000000081526004018080602001828103825260208152602001807f4f776e61626c653a2063616c6c6572206973206e6f7420746865206f776e657281525060200191505060405180910390fd5b600073ffffffffffffffffffffffffffffffffffffffff16600a60009054906101000a900473ffffffffffffffffffffffffffffffffffffffff1673ffffffffffffffffffffffffffffffffffffffff167f8be0079c531659141344cd1fd0a4f28419497f9722a3daafe3b4186f6b6457e060405160405180910390a36000600a60006101000a81548173ffffffffffffffffffffffffffffffffffffffff021916908373ffffffffffffffffffffffffffffffffffffffff160217905550565b600e60019054906101000a900460ff1681565b6000600a60009054906101000a900473ffffffffffffffffffffffffffffffffffffffff16905090565b606060078054600181600116156101000203166002900480601f0160208091040260200160405190810160405280929190818152602001828054600181600116156101000203166002900480156126ba5780601f1061268f576101008083540402835291602001916126ba565b820191906000526020600020905b81548152906001019060200180831161269d57829003601f168201915b5050505050905090565b3373ffffffffffffffffffffffffffffffffffffffff166126e482612100565b73ffffffffffffffffffffffffffffffffffffffff1614612750576040517f08c379a0000000000000000000000000000000000000000000000000000000008152600401808060200182810382526022815260200180614b3d6022913960400191505060405180910390fd5b60011515600d600083815260200190815260200160002060009054906101000a900460ff161515146127ea576040517f08c379a00000000000000000000000000000000000000000000000000000000081526004018080602001828103825260108152602001807f4d75737420626520656e6c69737465640000000000000000000000000000000081525060200191505060405180910390fd5b6127f381613a0b565b50565b600061280133612385565b905090565b61280e6132c0565b73ffffffffffffffffffffffffffffffffffffffff168273ffffffffffffffffffffffffffffffffffffffff1614156128af576040517f08c379a00000000000000000000000000000000000000000000000000000000081526004018080602001828103825260198152602001807f4552433732313a20617070726f766520746f2063616c6c65720000000000000081525060200191505060405180910390fd5b80600560006128bc6132c0565b73ffffffffffffffffffffffffffffffffffffffff1673ffffffffffffffffffffffffffffffffffffffff16815260200190815260200160002060008473ffffffffffffffffffffffffffffffffffffffff1673ffffffffffffffffffffffffffffffffffffffff16815260200190815260200160002060006101000a81548160ff0219169083151502179055508173ffffffffffffffffffffffffffffffffffffffff166129696132c0565b73ffffffffffffffffffffffffffffffffffffffff167f17307eab39ab6107e8899845ad3d59bd9653f200f220920489ca2b5937696c318360405180821515815260200191505060405180910390a35050565b600e60049054906101000a900460ff1681565b6129e06129da6132c0565b8361340c565b612a35576040517f08c379a0000000000000000000000000000000000000000000000000000000008152600401808060200182810382526031815260200180614cc06031913960400191505060405180910390fd5b612a4184848484613a67565b50505050565b600c60009054906101000a900460ff1681565b6060612a65826132a3565b612aba576040517f08c379a000000000000000000000000000000000000000000000000000000000815260040180806020018281038252602f815260200180614c4b602f913960400191505060405180910390fd5b6060600860008481526020019081526020016000208054600181600116156101000203166002900480601f016020809104026020016040519081016040528092919081815260200182805460018160011615610100020316600290048015612b635780601f10612b3857610100808354040283529160200191612b63565b820191906000526020600020905b815481529060010190602001808311612b4657829003601f168201915b50505050509050600060098054600181600116156101000203166002900490501415612b925780915050612d3e565b600081511115612c6b576009816040516020018083805460018160011615610100020316600290048015612bfd5780601f10612bdb576101008083540402835291820191612bfd565b820191906000526020600020905b815481529060010190602001808311612be9575b505082805190602001908083835b60208310612c2e5780518252602082019150602081019050602083039250612c0b565b6001836020036101000a03801982511681845116808217855250505050505090500192505050604051602081830303815290604052915050612d3e565b6009612c7684613ad9565b6040516020018083805460018160011615610100020316600290048015612cd45780601f10612cb2576101008083540402835291820191612cd4565b820191906000526020600020905b815481529060010190602001808311612cc0575b505082805190602001908083835b60208310612d055780518252602082019150602081019050602083039250612ce2565b6001836020036101000a038019825116818451168082178552505050505050905001925050506040516020818303038152906040529150505b919050565b600c60019054906101000a900460ff1681565b600e60029054906101000a900460ff1681565b6000600560008473ffffffffffffffffffffffffffffffffffffffff1673ffffffffffffffffffffffffffffffffffffffff16815260200190815260200160002060008373ffffffffffffffffffffffffffffffffffffffff1673ffffffffffffffffffffffffffffffffffffffff16815260200190815260200160002060009054906101000a900460ff16905092915050565b6000612e076132c0565b73ffffffffffffffffffffffffffffffffffffffff16600a60009054906101000a900473ffffffffffffffffffffffffffffffffffffffff1673ffffffffffffffffffffffffffffffffffffffff1614612ec9576040517f08c379a00000000000000000000000000000000000000000000000000000000081526004018080602001828103825260208152602001807f4f776e61626c653a2063616c6c6572206973206e6f7420746865206f776e657281525060200191505060405180910390fd5b6000600b805490509050600b6040518061012001604052808e81526020018d81526020018c60ff1681526020018b60ff1681526020018a60ff1681526020018960ff1681526020018860ff1681526020018760ff1681526020018660ff168152509080600181540180825580915050600190039060005260206000209060030201600090919091909150600082015181600001556020820151816001019080519060200190612f79929190614952565b5060408201518160020160006101000a81548160ff021916908360ff16021790555060608201518160020160016101000a81548160ff021916908360ff16021790555060808201518160020160026101000a81548160ff021916908360ff16021790555060a08201518160020160036101000a81548160ff021916908360ff16021790555060c08201518160020160046101000a81548160ff021916908360ff16021790555060e08201518160020160056101000a81548160ff021916908360ff1602179055506101008201518160020160066101000a81548160ff021916908360ff160217905550505061306e8382613c20565b809150509a9950505050505050505050565b600e60009054906101000a900460ff1681565b61309b6132c0565b73ffffffffffffffffffffffffffffffffffffffff16600a60009054906101000a900473ffffffffffffffffffffffffffffffffffffffff1673ffffffffffffffffffffffffffffffffffffffff161461315d576040517f08c379a00000000000000000000000000000000000000000000000000000000081526004018080602001828103825260208152602001807f4f776e61626c653a2063616c6c6572206973206e6f7420746865206f776e657281525060200191505060405180910390fd5b600073ffffffffffffffffffffffffffffffffffffffff168173ffffffffffffffffffffffffffffffffffffffff1614156131e3576040517f08c379a0000000000000000000000000000000000000000000000000000000008152600401808060200182810382526026815260200180614a446026913960400191505060405180910390fd5b8073ffffffffffffffffffffffffffffffffffffffff16600a60009054906101000a900473ffffffffffffffffffffffffffffffffffffffff1673ffffffffffffffffffffffffffffffffffffffff167f8be0079c531659141344cd1fd0a4f28419497f9722a3daafe3b4186f6b6457e060405160405180910390a380600a60006101000a81548173ffffffffffffffffffffffffffffffffffffffff021916908373ffffffffffffffffffffffffffffffffffffffff16021790555050565b60006132b9826002613c3e90919063ffffffff16565b9050919050565b600033905090565b816004600083815260200190815260200160002060006101000a81548173ffffffffffffffffffffffffffffffffffffffff021916908373ffffffffffffffffffffffffffffffffffffffff160217905550808273ffffffffffffffffffffffffffffffffffffffff1661333b83612100565b73ffffffffffffffffffffffffffffffffffffffff167f8c5be1e5ebec7d5bd14f71427d1e84f3dd0314c0f7b2291e5b200ac8c7c3b92560405160405180910390a45050565b60006133a461339f8360ff168560ff166138c490919063ffffffff16565b61390e565b905092915050565b60006133c48260ff16846138c490919063ffffffff16565b905092915050565b60006133ef6133ea8360ff168560ff1661383c90919063ffffffff16565b61390e565b905092915050565b600061340582600001613c58565b9050919050565b6000613417826132a3565b61346c576040517f08c379a000000000000000000000000000000000000000000000000000000000815260040180806020018281038252602c815260200180614ad9602c913960400191505060405180910390fd5b600061347783612100565b90508073ffffffffffffffffffffffffffffffffffffffff168473ffffffffffffffffffffffffffffffffffffffff1614806134e657508373ffffffffffffffffffffffffffffffffffffffff166134ce84610fbd565b73ffffffffffffffffffffffffffffffffffffffff16145b806134f757506134f68185612d69565b5b91505092915050565b8273ffffffffffffffffffffffffffffffffffffffff1661352082612100565b73ffffffffffffffffffffffffffffffffffffffff161461358c576040517f08c379a0000000000000000000000000000000000000000000000000000000008152600401808060200182810382526029815260200180614c226029913960400191505060405180910390fd5b600073ffffffffffffffffffffffffffffffffffffffff168273ffffffffffffffffffffffffffffffffffffffff161415613612576040517f08c379a0000000000000000000000000000000000000000000000000000000008152600401808060200182810382526024815260200180614a8f6024913960400191505060405180910390fd5b61361d838383613c69565b6136286000826132c8565b61367981600160008673ffffffffffffffffffffffffffffffffffffffff1673ffffffffffffffffffffffffffffffffffffffff168152602001908152602001600020613c6e90919063ffffffff16565b506136cb81600160008573ffffffffffffffffffffffffffffffffffffffff1673ffffffffffffffffffffffffffffffffffffffff168152602001908152602001600020613c8890919063ffffffff16565b506136e281836002613ca29092919063ffffffff16565b50808273ffffffffffffffffffffffffffffffffffffffff168473ffffffffffffffffffffffffffffffffffffffff167fddf252ad1be2c89b69c2b068fc378daa952ba7f163c4a11628f55a4df523b3ef60405160405180910390a4505050565b60006137528360000183613cd7565b60001c905092915050565b6000806000806137708660000186613d5a565b915091508160001c8160001c9350935050509250929050565b61379282613972565b61383857806040517f08c379a00000000000000000000000000000000000000000000000000000000081526004018080602001828103825283818151815260200191508051906020019080838360005b838110156137fd5780820151818401526020810190506137e2565b50505050905090810190601f16801561382a5780820380516001836020036101000a031916815260200191505b509250505060405180910390fd5b5050565b6000808284019050838110156138ba576040517f08c379a000000000000000000000000000000000000000000000000000000000815260040180806020018281038252601b8152602001807f536166654d6174683a206164646974696f6e206f766572666c6f77000000000081525060200191505060405180910390fd5b8091505092915050565b600061390683836040518060400160405280601e81526020017f536166654d6174683a207375627472616374696f6e206f766572666c6f770000815250613df3565b905092915050565b6000610100821061396a576040517f08c379a0000000000000000000000000000000000000000000000000000000008152600401808060200182810382526025815260200180614a6a6025913960400191505060405180910390fd5b819050919050565b6000600c60009054906101000a900460ff1660ff16600b838154811061399457fe5b906000526020600020906003020160020160029054906101000a900460ff1660ff16116139cd576139c482613a0b565b600090506139d2565b600190505b919050565b60006139ea846000018460001b84613eb3565b60001c90509392505050565b6000613a0482600001613fa9565b9050919050565b6000600d600083815260200190815260200160002060006101000a81548160ff021916908315150217905550807f2c525dc2c086b9a2f3b902d229853b5b838fcedc22933c40ed7ebe4890a53a8260405160405180910390a250565b613a72848484613500565b613a7e84848484613fba565b613ad3576040517f08c379a0000000000000000000000000000000000000000000000000000000008152600401808060200182810382526032815260200180614a126032913960400191505060405180910390fd5b50505050565b60606000821415613b21576040518060400160405280600181526020017f30000000000000000000000000000000000000000000000000000000000000008152509050613c1b565b600082905060005b60008214613b4b578080600101915050600a8281613b4357fe5b049150613b29565b60608167ffffffffffffffff81118015613b6457600080fd5b506040519080825280601f01601f191660200182016040528015613b975781602001600182028036833780820191505090505b50905060006001830390508593505b60008414613c1357600a8481613bb857fe5b0660300160f81b82828060019003935081518110613bd257fe5b60200101907effffffffffffffffffffffffffffffffffffffffffffffffffffffffffffff1916908160001a905350600a8481613c0b57fe5b049350613ba6565b819450505050505b919050565b613c3a8282604051806020016040528060008152506141d3565b5050565b6000613c50836000018360001b614244565b905092915050565b600081600001805490509050919050565b505050565b6000613c80836000018360001b614267565b905092915050565b6000613c9a836000018360001b61434f565b905092915050565b6000613cce846000018460001b8473ffffffffffffffffffffffffffffffffffffffff1660001b6143bf565b90509392505050565b600081836000018054905011613d38576040517f08c379a00000000000000000000000000000000000000000000000000000000081526004018080602001828103825260228152602001806149f06022913960400191505060405180910390fd5b826000018281548110613d4757fe5b9060005260206000200154905092915050565b60008082846000018054905011613dbc576040517f08c379a0000000000000000000000000000000000000000000000000000000008152600401808060200182810382526022815260200180614bd46022913960400191505060405180910390fd5b6000846000018481548110613dcd57fe5b906000526020600020906002020190508060000154816001015492509250509250929050565b6000838311158290613ea0576040517f08c379a00000000000000000000000000000000000000000000000000000000081526004018080602001828103825283818151815260200191508051906020019080838360005b83811015613e65578082015181840152602081019050613e4a565b50505050905090810190601f168015613e925780820380516001836020036101000a031916815260200191505b509250505060405180910390fd5b5060008385039050809150509392505050565b60008084600101600085815260200190815260200160002054905060008114158390613f7a576040517f08c379a00000000000000000000000000000000000000000000000000000000081526004018080602001828103825283818151815260200191508051906020019080838360005b83811015613f3f578082015181840152602081019050613f24565b50505050905090810190601f168015613f6c5780820380516001836020036101000a031916815260200191505b509250505060405180910390fd5b50846000016001820381548110613f8d57fe5b9060005260206000209060020201600101549150509392505050565b600081600001805490509050919050565b6000613fdb8473ffffffffffffffffffffffffffffffffffffffff1661449b565b613fe857600190506141cb565b606061415263150b7a0260e01b613ffd6132c0565b888787604051602401808573ffffffffffffffffffffffffffffffffffffffff1681526020018473ffffffffffffffffffffffffffffffffffffffff16815260200183815260200180602001828103825283818151815260200191508051906020019080838360005b83811015614081578082015181840152602081019050614066565b50505050905090810190601f1680156140ae5780820380516001836020036101000a031916815260200191505b5095505050505050604051602081830303815290604052907bffffffffffffffffffffffffffffffffffffffffffffffffffffffff19166020820180517bffffffffffffffffffffffffffffffffffffffffffffffffffffffff8381831617835250505050604051806060016040528060328152602001614a12603291398773ffffffffffffffffffffffffffffffffffffffff166144ae9092919063ffffffff16565b9050600081806020019051602081101561416b57600080fd5b8101908080519060200190929190505050905063150b7a0260e01b7bffffffffffffffffffffffffffffffffffffffffffffffffffffffff1916817bffffffffffffffffffffffffffffffffffffffffffffffffffffffff191614925050505b949350505050565b6141dd83836144c6565b6141ea6000848484613fba565b61423f576040517f08c379a0000000000000000000000000000000000000000000000000000000008152600401808060200182810382526032815260200180614a126032913960400191505060405180910390fd5b505050565b600080836001016000848152602001908152602001600020541415905092915050565b6000808360010160008481526020019081526020016000205490506000811461434357600060018203905060006001866000018054905003905060008660000182815481106142b257fe5b90600052602060002001549050808760000184815481106142cf57fe5b906000526020600020018190555060018301876001016000838152602001908152602001600020819055508660000180548061430757fe5b60019003818190600052602060002001600090559055866001016000878152602001908152602001600020600090556001945050505050614349565b60009150505b92915050565b600061435b83836146ba565b6143b45782600001829080600181540180825580915050600190039060005260206000200160009091909190915055826000018054905083600101600084815260200190815260200160002081905550600190506143b9565b600090505b92915050565b600080846001016000858152602001908152602001600020549050600081141561446657846000016040518060400160405280868152602001858152509080600181540180825580915050600190039060005260206000209060020201600090919091909150600082015181600001556020820151816001015550508460000180549050856001016000868152602001908152602001600020819055506001915050614494565b8285600001600183038154811061447957fe5b90600052602060002090600202016001018190555060009150505b9392505050565b600080823b905060008111915050919050565b60606144bd84846000856146dd565b90509392505050565b600073ffffffffffffffffffffffffffffffffffffffff168273ffffffffffffffffffffffffffffffffffffffff161415614569576040517f08c379a00000000000000000000000000000000000000000000000000000000081526004018080602001828103825260208152602001807f4552433732313a206d696e7420746f20746865207a65726f206164647265737381525060200191505060405180910390fd5b614572816132a3565b156145e5576040517f08c379a000000000000000000000000000000000000000000000000000000000815260040180806020018281038252601c8152602001807f4552433732313a20746f6b656e20616c7265616479206d696e7465640000000081525060200191505060405180910390fd5b6145f160008383613c69565b61464281600160008573ffffffffffffffffffffffffffffffffffffffff1673ffffffffffffffffffffffffffffffffffffffff168152602001908152602001600020613c8890919063ffffffff16565b5061465981836002613ca29092919063ffffffff16565b50808273ffffffffffffffffffffffffffffffffffffffff16600073ffffffffffffffffffffffffffffffffffffffff167fddf252ad1be2c89b69c2b068fc378daa952ba7f163c4a11628f55a4df523b3ef60405160405180910390a45050565b600080836001016000848152602001908152602001600020541415905092915050565b606082471015614738576040517f08c379a0000000000000000000000000000000000000000000000000000000008152600401808060200182810382526026815260200180614ab36026913960400191505060405180910390fd5b6147418561449b565b6147b3576040517f08c379a000000000000000000000000000000000000000000000000000000000815260040180806020018281038252601d8152602001807f416464726573733a2063616c6c20746f206e6f6e2d636f6e747261637400000081525060200191505060405180910390fd5b600060608673ffffffffffffffffffffffffffffffffffffffff1685876040518082805190602001908083835b6020831061480357805182526020820191506020810190506020830392506147e0565b6001836020036101000a03801982511681845116808217855250505050505090500191505060006040518083038185875af1925050503d8060008114614865576040519150601f19603f3d011682016040523d82523d6000602084013e61486a565b606091505b509150915061487a828286614886565b92505050949350505050565b606083156148965782905061494b565b6000835111156148a95782518084602001fd5b816040517f08c379a00000000000000000000000000000000000000000000000000000000081526004018080602001828103825283818151815260200191508051906020019080838360005b838110156149105780820151818401526020810190506148f5565b50505050905090810190601f16801561493d5780820380516001836020036101000a031916815260200191505b509250505060405180910390fd5b9392505050565b828054600181600116156101000203166002900490600052602060002090601f016020900481019282601f1061499357805160ff19168380011785556149c1565b828001600101855582156149c1579182015b828111156149c05782518255916020019190600101906149a5565b5b5090506149ce91906149d2565b5090565b5b808211156149eb5760008160009055506001016149d3565b509056fe456e756d657261626c655365743a20696e646578206f7574206f6620626f756e64734552433732313a207472616e7366657220746f206e6f6e20455243373231526563656976657220696d706c656d656e7465724f776e61626c653a206e6577206f776e657220697320746865207a65726f206164647265737353616665436173743a2076616c756520646f65736e27742066697420696e203820626974734552433732313a207472616e7366657220746f20746865207a65726f2061646472657373416464726573733a20696e73756666696369656e742062616c616e636520666f722063616c6c4552433732313a206f70657261746f7220717565727920666f72206e6f6e6578697374656e7420746f6b656e4552433732313a20617070726f76652063616c6c6572206973206e6f74206f776e6572206e6f7220617070726f76656420666f7220616c6c4d757374206265206f776e6572206f662070726f6a65637420746f2064656c6973744552433732313a2062616c616e636520717565727920666f7220746865207a65726f20616464726573734552433732313a206f776e657220717565727920666f72206e6f6e6578697374656e7420746f6b656e4d757374206265206f776e6572206f662070726f6a65637420746f20656e6c697374456e756d657261626c654d61703a20696e646578206f7574206f6620626f756e64734552433732313a20617070726f76656420717565727920666f72206e6f6e6578697374656e7420746f6b656e4552433732313a207472616e73666572206f6620746f6b656e2074686174206973206e6f74206f776e4552433732314d657461646174613a2055524920717565727920666f72206e6f6e6578697374656e7420746f6b656e4552433732313a20617070726f76616c20746f2063757272656e74206f776e65724d75737420626520696e20726571756972656420737461746520746f20636f6d706c6574654552433732313a207472616e736665722063616c6c6572206973206e6f74206f776e6572206e6f7220617070726f7665644d757374206265206f776e6572206f662070726f6a65637420746f2067726f772069744d757374206265206f776e6572206f662070726f6a65637420746f20656e74657220636f6e74657374a26469706673582212204b77be9bb7f489f69b5531b79204a16bc5487e2c62d26ae503b062cced0ea36d64736f6c634300060c0033",
  "immutableReferences": {},
  "source": "// SPDX-License-Identifier: MIT\n\npragma solidity >=0.5.0 <0.8.0;\n\nimport \"./ArtProject.sol\";\nimport \"@openzeppelin/contracts/access/Ownable.sol\";\n\ncontract Art is Ownable {\n\n    address public projectTokenAddress;\n\n    uint private lifecycle = 100;\n    uint8 private state = 255;\n    uint8 private technique = 1;\n    uint8 private aesthetics = 1;\n    uint8 private usage = 2;\n    uint8 private popularity = 1;\n\n    constructor() public {\n        projectTokenAddress = address(new ArtProject());\n    }\n\n    function newProject(string memory _name, uint8 _age, uint8 _scope) public returns (uint){\n        return ArtProject(projectTokenAddress).newProject(\n            lifecycle, _name, _age, _scope, state, technique, aesthetics, usage, popularity, msg.sender\n        );\n    }\n}",
  "sourcePath": "/Applications/Ampps/www/W3irds/artwork/src/contracts/Art.sol",
  "compiler": {
    "name": "solc",
    "version": "0.6.12+commit.27d51765.Emscripten.clang"
  },
  "schemaVersion": "3.3.3",
  "updatedAt": "2021-01-06T15:04:37.137Z",
  "networkType": "ethereum",
  "devdoc": {
    "kind": "dev",
    "methods": {
      "owner()": {
        "details": "Returns the address of the current owner."
      },
      "renounceOwnership()": {
        "details": "Leaves the contract without owner. It will not be possible to call `onlyOwner` functions anymore. Can only be called by the current owner. NOTE: Renouncing ownership will leave the contract without an owner, thereby removing any functionality that is only available to the owner."
      },
      "transferOwnership(address)": {
        "details": "Transfers ownership of the contract to a new account (`newOwner`). Can only be called by the current owner."
      }
    },
    "version": 1
  },
  "userdoc": {
    "kind": "user",
    "methods": {},
    "version": 1
  }
}