{
  "contractName": "CompletedProject",
  "abi": [
    {
      "anonymous": false,
      "inputs": [
        {
          "indexed": true,
          "internalType": "address",
          "name": "owner",
          "type": "address"
        },
        {
          "indexed": true,
          "internalType": "address",
          "name": "approved",
          "type": "address"
        },
        {
          "indexed": true,
          "internalType": "uint256",
          "name": "tokenId",
          "type": "uint256"
        }
      ],
      "name": "Approval",
      "type": "event"
    },
    {
      "anonymous": false,
      "inputs": [
        {
          "indexed": true,
          "internalType": "address",
          "name": "owner",
          "type": "address"
        },
        {
          "indexed": true,
          "internalType": "address",
          "name": "operator",
          "type": "address"
        },
        {
          "indexed": false,
          "internalType": "bool",
          "name": "approved",
          "type": "bool"
        }
      ],
      "name": "ApprovalForAll",
      "type": "event"
    },
    {
      "anonymous": false,
      "inputs": [
        {
          "indexed": true,
          "internalType": "uint256",
          "name": "projectId",
          "type": "uint256"
        },
        {
          "indexed": true,
          "internalType": "uint256",
          "name": "opponentId",
          "type": "uint256"
        },
        {
          "indexed": true,
          "internalType": "uint256",
          "name": "winner",
          "type": "uint256"
        }
      ],
      "name": "ContestEntered",
      "type": "event"
    },
    {
      "anonymous": false,
      "inputs": [
        {
          "indexed": true,
          "internalType": "uint256",
          "name": "projectId",
          "type": "uint256"
        }
      ],
      "name": "Delist",
      "type": "event"
    },
    {
      "anonymous": false,
      "inputs": [
        {
          "indexed": true,
          "internalType": "uint256",
          "name": "projectId",
          "type": "uint256"
        }
      ],
      "name": "Enlist",
      "type": "event"
    },
    {
      "anonymous": false,
      "inputs": [
        {
          "indexed": true,
          "internalType": "address",
          "name": "previousOwner",
          "type": "address"
        },
        {
          "indexed": true,
          "internalType": "address",
          "name": "newOwner",
          "type": "address"
        }
      ],
      "name": "OwnershipTransferred",
      "type": "event"
    },
    {
      "anonymous": false,
      "inputs": [
        {
          "indexed": true,
          "internalType": "address",
          "name": "from",
          "type": "address"
        },
        {
          "indexed": true,
          "internalType": "address",
          "name": "to",
          "type": "address"
        },
        {
          "indexed": true,
          "internalType": "uint256",
          "name": "tokenId",
          "type": "uint256"
        }
      ],
      "name": "Transfer",
      "type": "event"
    },
    {
      "inputs": [
        {
          "internalType": "address",
          "name": "to",
          "type": "address"
        },
        {
          "internalType": "uint256",
          "name": "tokenId",
          "type": "uint256"
        }
      ],
      "name": "approve",
      "outputs": [],
      "stateMutability": "nonpayable",
      "type": "function"
    },
    {
      "inputs": [
        {
          "internalType": "address",
          "name": "owner",
          "type": "address"
        }
      ],
      "name": "balanceOf",
      "outputs": [
        {
          "internalType": "uint256",
          "name": "",
          "type": "uint256"
        }
      ],
      "stateMutability": "view",
      "type": "function",
      "constant": true
    },
    {
      "inputs": [],
      "name": "baseURI",
      "outputs": [
        {
          "internalType": "string",
          "name": "",
          "type": "string"
        }
      ],
      "stateMutability": "view",
      "type": "function",
      "constant": true
    },
    {
      "inputs": [
        {
          "internalType": "uint256",
          "name": "",
          "type": "uint256"
        }
      ],
      "name": "enlistedProjects",
      "outputs": [
        {
          "internalType": "bool",
          "name": "",
          "type": "bool"
        }
      ],
      "stateMutability": "view",
      "type": "function",
      "constant": true
    },
    {
      "inputs": [
        {
          "internalType": "uint256",
          "name": "tokenId",
          "type": "uint256"
        }
      ],
      "name": "getApproved",
      "outputs": [
        {
          "internalType": "address",
          "name": "",
          "type": "address"
        }
      ],
      "stateMutability": "view",
      "type": "function",
      "constant": true
    },
    {
      "inputs": [
        {
          "internalType": "address",
          "name": "owner",
          "type": "address"
        },
        {
          "internalType": "address",
          "name": "operator",
          "type": "address"
        }
      ],
      "name": "isApprovedForAll",
      "outputs": [
        {
          "internalType": "bool",
          "name": "",
          "type": "bool"
        }
      ],
      "stateMutability": "view",
      "type": "function",
      "constant": true
    },
    {
      "inputs": [],
      "name": "lifecycleGainLose",
      "outputs": [
        {
          "internalType": "uint8",
          "name": "",
          "type": "uint8"
        }
      ],
      "stateMutability": "view",
      "type": "function",
      "constant": true
    },
    {
      "inputs": [],
      "name": "lifecycleGainWin",
      "outputs": [
        {
          "internalType": "uint8",
          "name": "",
          "type": "uint8"
        }
      ],
      "stateMutability": "view",
      "type": "function",
      "constant": true
    },
    {
      "inputs": [],
      "name": "name",
      "outputs": [
        {
          "internalType": "string",
          "name": "",
          "type": "string"
        }
      ],
      "stateMutability": "view",
      "type": "function",
      "constant": true
    },
    {
      "inputs": [
        {
          "internalType": "uint256",
          "name": "_lifecycle",
          "type": "uint256"
        },
        {
          "internalType": "string",
          "name": "_name",
          "type": "string"
        },
        {
          "internalType": "uint8",
          "name": "_age",
          "type": "uint8"
        },
        {
          "internalType": "uint8",
          "name": "_scope",
          "type": "uint8"
        },
        {
          "internalType": "uint8",
          "name": "_state",
          "type": "uint8"
        },
        {
          "internalType": "uint8",
          "name": "_technique",
          "type": "uint8"
        },
        {
          "internalType": "uint8",
          "name": "_aesthetics",
          "type": "uint8"
        },
        {
          "internalType": "uint8",
          "name": "_usage",
          "type": "uint8"
        },
        {
          "internalType": "uint8",
          "name": "_popularity",
          "type": "uint8"
        },
        {
          "internalType": "address",
          "name": "_to",
          "type": "address"
        }
      ],
      "name": "newProject",
      "outputs": [
        {
          "internalType": "uint256",
          "name": "",
          "type": "uint256"
        }
      ],
      "stateMutability": "nonpayable",
      "type": "function"
    },
    {
      "inputs": [],
      "name": "owner",
      "outputs": [
        {
          "internalType": "address",
          "name": "",
          "type": "address"
        }
      ],
      "stateMutability": "view",
      "type": "function",
      "constant": true
    },
    {
      "inputs": [
        {
          "internalType": "uint256",
          "name": "tokenId",
          "type": "uint256"
        }
      ],
      "name": "ownerOf",
      "outputs": [
        {
          "internalType": "address",
          "name": "",
          "type": "address"
        }
      ],
      "stateMutability": "view",
      "type": "function",
      "constant": true
    },
    {
      "inputs": [
        {
          "internalType": "uint256",
          "name": "",
          "type": "uint256"
        }
      ],
      "name": "projects",
      "outputs": [
        {
          "internalType": "uint256",
          "name": "lifecycle",
          "type": "uint256"
        },
        {
          "internalType": "string",
          "name": "name",
          "type": "string"
        },
        {
          "internalType": "uint8",
          "name": "age",
          "type": "uint8"
        },
        {
          "internalType": "uint8",
          "name": "scope",
          "type": "uint8"
        },
        {
          "internalType": "uint8",
          "name": "state",
          "type": "uint8"
        },
        {
          "internalType": "uint8",
          "name": "technique",
          "type": "uint8"
        },
        {
          "internalType": "uint8",
          "name": "aesthetics",
          "type": "uint8"
        },
        {
          "internalType": "uint8",
          "name": "usage",
          "type": "uint8"
        },
        {
          "internalType": "uint8",
          "name": "popularity",
          "type": "uint8"
        }
      ],
      "stateMutability": "view",
      "type": "function",
      "constant": true
    },
    {
      "inputs": [],
      "name": "renounceOwnership",
      "outputs": [],
      "stateMutability": "nonpayable",
      "type": "function"
    },
    {
      "inputs": [
        {
          "internalType": "address",
          "name": "from",
          "type": "address"
        },
        {
          "internalType": "address",
          "name": "to",
          "type": "address"
        },
        {
          "internalType": "uint256",
          "name": "tokenId",
          "type": "uint256"
        }
      ],
      "name": "safeTransferFrom",
      "outputs": [],
      "stateMutability": "nonpayable",
      "type": "function"
    },
    {
      "inputs": [
        {
          "internalType": "address",
          "name": "from",
          "type": "address"
        },
        {
          "internalType": "address",
          "name": "to",
          "type": "address"
        },
        {
          "internalType": "uint256",
          "name": "tokenId",
          "type": "uint256"
        },
        {
          "internalType": "bytes",
          "name": "_data",
          "type": "bytes"
        }
      ],
      "name": "safeTransferFrom",
      "outputs": [],
      "stateMutability": "nonpayable",
      "type": "function"
    },
    {
      "inputs": [
        {
          "internalType": "address",
          "name": "operator",
          "type": "address"
        },
        {
          "internalType": "bool",
          "name": "approved",
          "type": "bool"
        }
      ],
      "name": "setApprovalForAll",
      "outputs": [],
      "stateMutability": "nonpayable",
      "type": "function"
    },
    {
      "inputs": [],
      "name": "stateCostToComplete",
      "outputs": [
        {
          "internalType": "uint8",
          "name": "",
          "type": "uint8"
        }
      ],
      "stateMutability": "view",
      "type": "function",
      "constant": true
    },
    {
      "inputs": [
        {
          "internalType": "bytes4",
          "name": "interfaceId",
          "type": "bytes4"
        }
      ],
      "name": "supportsInterface",
      "outputs": [
        {
          "internalType": "bool",
          "name": "",
          "type": "bool"
        }
      ],
      "stateMutability": "view",
      "type": "function",
      "constant": true
    },
    {
      "inputs": [],
      "name": "symbol",
      "outputs": [
        {
          "internalType": "string",
          "name": "",
          "type": "string"
        }
      ],
      "stateMutability": "view",
      "type": "function",
      "constant": true
    },
    {
      "inputs": [
        {
          "internalType": "uint256",
          "name": "index",
          "type": "uint256"
        }
      ],
      "name": "tokenByIndex",
      "outputs": [
        {
          "internalType": "uint256",
          "name": "",
          "type": "uint256"
        }
      ],
      "stateMutability": "view",
      "type": "function",
      "constant": true
    },
    {
      "inputs": [
        {
          "internalType": "address",
          "name": "owner",
          "type": "address"
        },
        {
          "internalType": "uint256",
          "name": "index",
          "type": "uint256"
        }
      ],
      "name": "tokenOfOwnerByIndex",
      "outputs": [
        {
          "internalType": "uint256",
          "name": "",
          "type": "uint256"
        }
      ],
      "stateMutability": "view",
      "type": "function",
      "constant": true
    },
    {
      "inputs": [
        {
          "internalType": "uint256",
          "name": "tokenId",
          "type": "uint256"
        }
      ],
      "name": "tokenURI",
      "outputs": [
        {
          "internalType": "string",
          "name": "",
          "type": "string"
        }
      ],
      "stateMutability": "view",
      "type": "function",
      "constant": true
    },
    {
      "inputs": [],
      "name": "totalSupply",
      "outputs": [
        {
          "internalType": "uint256",
          "name": "",
          "type": "uint256"
        }
      ],
      "stateMutability": "view",
      "type": "function",
      "constant": true
    },
    {
      "inputs": [
        {
          "internalType": "address",
          "name": "from",
          "type": "address"
        },
        {
          "internalType": "address",
          "name": "to",
          "type": "address"
        },
        {
          "internalType": "uint256",
          "name": "tokenId",
          "type": "uint256"
        }
      ],
      "name": "transferFrom",
      "outputs": [],
      "stateMutability": "nonpayable",
      "type": "function"
    },
    {
      "inputs": [
        {
          "internalType": "address",
          "name": "newOwner",
          "type": "address"
        }
      ],
      "name": "transferOwnership",
      "outputs": [],
      "stateMutability": "nonpayable",
      "type": "function"
    },
    {
      "inputs": [
        {
          "internalType": "uint256",
          "name": "_id",
          "type": "uint256"
        }
      ],
      "name": "enlist",
      "outputs": [],
      "stateMutability": "nonpayable",
      "type": "function"
    },
    {
      "inputs": [
        {
          "internalType": "uint256",
          "name": "_id",
          "type": "uint256"
        }
      ],
      "name": "delist",
      "outputs": [],
      "stateMutability": "nonpayable",
      "type": "function"
    },
    {
      "inputs": [
        {
          "internalType": "uint256",
          "name": "_id",
          "type": "uint256"
        },
        {
          "internalType": "uint256",
          "name": "_opponentId",
          "type": "uint256"
        }
      ],
      "name": "enterContest",
      "outputs": [],
      "stateMutability": "nonpayable",
      "type": "function"
    }
  ],
  "bytecode": "0x60806040526014600c60006101000a81548160ff021916908360ff160217905550600a600c60016101000a81548160ff021916908360ff1602179055506005600c60026101000a81548160ff021916908360ff1602179055503480156200006557600080fd5b506040518060400160405280600681526020017f57334172747300000000000000000000000000000000000000000000000000008152506040518060400160405280600281526020017f3341000000000000000000000000000000000000000000000000000000000000815250620000ea6301ffc9a760e01b6200021d60201b60201c565b8160069080519060200190620001029291906200032e565b5080600790805190602001906200011b9291906200032e565b50620001346380ac58cd60e01b6200021d60201b60201c565b6200014c635b5e139f60e01b6200021d60201b60201c565b6200016463780e9d6360e01b6200021d60201b60201c565b50506000620001786200032660201b60201c565b905080600a60006101000a81548173ffffffffffffffffffffffffffffffffffffffff021916908373ffffffffffffffffffffffffffffffffffffffff1602179055508073ffffffffffffffffffffffffffffffffffffffff16600073ffffffffffffffffffffffffffffffffffffffff167f8be0079c531659141344cd1fd0a4f28419497f9722a3daafe3b4186f6b6457e060405160405180910390a350620003d4565b63ffffffff60e01b817bffffffffffffffffffffffffffffffffffffffffffffffffffffffff19161415620002ba576040517f08c379a000000000000000000000000000000000000000000000000000000000815260040180806020018281038252601c8152602001807f4552433136353a20696e76616c696420696e746572666163652069640000000081525060200191505060405180910390fd5b6001600080837bffffffffffffffffffffffffffffffffffffffffffffffffffffffff19167bffffffffffffffffffffffffffffffffffffffffffffffffffffffff1916815260200190815260200160002060006101000a81548160ff02191690831515021790555050565b600033905090565b828054600181600116156101000203166002900490600052602060002090601f016020900481019282601f106200037157805160ff1916838001178555620003a2565b82800160010185558215620003a2579182015b82811115620003a157825182559160200191906001019062000384565b5b509050620003b19190620003b5565b5090565b5b80821115620003d0576000816000905550600101620003b6565b5090565b61451e80620003e46000396000f3fe608060405234801561001057600080fd5b50600436106101cf5760003560e01c80636352211e11610104578063a22cb465116100a2578063cd68984511610071578063cd68984514610afc578063e985e9c514610b1d578063ed9a113814610b97578063f2fde38b14610cec576101cf565b8063a22cb465146108df578063b88d4fde1461092f578063c2902db614610a34578063c87b56dd14610a55576101cf565b8063715018a6116100de578063715018a6146107f05780638da5cb5b146107fa57806395d89b411461082e578063964bc33f146108b1576101cf565b80636352211e146106bd5780636c0360eb1461071557806370a0823114610798576101cf565b80632f745c591161017157806342842e0e1161014b57806342842e0e146105b4578063437f57e0146106225780634f6ccce7146106435780635989f04614610685576101cf565b80632f745c59146104e05780633cd1b518146105425780633d8b789414610586576101cf565b8063095ea7b3116101ad578063095ea7b314610312578063107046bd1461036057806318160ddd1461045457806323b872dd14610472576101cf565b806301ffc9a7146101d457806306fdde0314610237578063081812fc146102ba575b600080fd5b61021f600480360360208110156101ea57600080fd5b8101908080357bffffffffffffffffffffffffffffffffffffffffffffffffffffffff19169060200190929190505050610d30565b60405180821515815260200191505060405180910390f35b61023f610d97565b6040518080602001828103825283818151815260200191508051906020019080838360005b8381101561027f578082015181840152602081019050610264565b50505050905090810190601f1680156102ac5780820380516001836020036101000a031916815260200191505b509250505060405180910390f35b6102e6600480360360208110156102d057600080fd5b8101908080359060200190929190505050610e39565b604051808273ffffffffffffffffffffffffffffffffffffffff16815260200191505060405180910390f35b61035e6004803603604081101561032857600080fd5b81019080803573ffffffffffffffffffffffffffffffffffffffff16906020019092919080359060200190929190505050610ed4565b005b61038c6004803603602081101561037657600080fd5b8101908080359060200190929190505050611018565b604051808a8152602001806020018960ff1681526020018860ff1681526020018760ff1681526020018660ff1681526020018560ff1681526020018460ff1681526020018360ff16815260200182810382528a818151815260200191508051906020019080838360005b838110156104115780820151818401526020810190506103f6565b50505050905090810190601f16801561043e5780820380516001836020036101000a031916815260200191505b509a505050505050505050505060405180910390f35b61045c611166565b6040518082815260200191505060405180910390f35b6104de6004803603606081101561048857600080fd5b81019080803573ffffffffffffffffffffffffffffffffffffffff169060200190929190803573ffffffffffffffffffffffffffffffffffffffff16906020019092919080359060200190929190505050611177565b005b61052c600480360360408110156104f657600080fd5b81019080803573ffffffffffffffffffffffffffffffffffffffff169060200190929190803590602001909291905050506111ed565b6040518082815260200191505060405180910390f35b61056e6004803603602081101561055857600080fd5b8101908080359060200190929190505050611248565b60405180821515815260200191505060405180910390f35b6105b26004803603602081101561059c57600080fd5b8101908080359060200190929190505050611268565b005b610620600480360360608110156105ca57600080fd5b81019080803573ffffffffffffffffffffffffffffffffffffffff169060200190929190803573ffffffffffffffffffffffffffffffffffffffff16906020019092919080359060200190929190505050611483565b005b61062a6114a3565b604051808260ff16815260200191505060405180910390f35b61066f6004803603602081101561065957600080fd5b81019080803590602001909291905050506114b6565b6040518082815260200191505060405180910390f35b6106bb6004803603604081101561069b57600080fd5b8101908080359060200190929190803590602001909291905050506114d9565b005b6106e9600480360360208110156106d357600080fd5b8101908080359060200190929190505050611b4d565b604051808273ffffffffffffffffffffffffffffffffffffffff16815260200191505060405180910390f35b61071d611b84565b6040518080602001828103825283818151815260200191508051906020019080838360005b8381101561075d578082015181840152602081019050610742565b50505050905090810190601f16801561078a5780820380516001836020036101000a031916815260200191505b509250505060405180910390f35b6107da600480360360208110156107ae57600080fd5b81019080803573ffffffffffffffffffffffffffffffffffffffff169060200190929190505050611c26565b6040518082815260200191505060405180910390f35b6107f8611cfb565b005b610802611e86565b604051808273ffffffffffffffffffffffffffffffffffffffff16815260200191505060405180910390f35b610836611eb0565b6040518080602001828103825283818151815260200191508051906020019080838360005b8381101561087657808201518184015260208101905061085b565b50505050905090810190601f1680156108a35780820380516001836020036101000a031916815260200191505b509250505060405180910390f35b6108dd600480360360208110156108c757600080fd5b8101908080359060200190929190505050611f52565b005b61092d600480360360408110156108f557600080fd5b81019080803573ffffffffffffffffffffffffffffffffffffffff169060200190929190803515159060200190929190505050612084565b005b610a326004803603608081101561094557600080fd5b81019080803573ffffffffffffffffffffffffffffffffffffffff169060200190929190803573ffffffffffffffffffffffffffffffffffffffff16906020019092919080359060200190929190803590602001906401000000008111156109ac57600080fd5b8201836020820111156109be57600080fd5b803590602001918460018302840111640100000000831117156109e057600080fd5b91908080601f016020809104026020016040519081016040528093929190818152602001838380828437600081840152601f19601f82011690508083019250505050505050919291929050505061223a565b005b610a3c6122b2565b604051808260ff16815260200191505060405180910390f35b610a8160048036036020811015610a6b57600080fd5b81019080803590602001909291905050506122c5565b6040518080602001828103825283818151815260200191508051906020019080838360005b83811015610ac1578082015181840152602081019050610aa6565b50505050905090810190601f168015610aee5780820380516001836020036101000a031916815260200191505b509250505060405180910390f35b610b046125ae565b604051808260ff16815260200191505060405180910390f35b610b7f60048036036040811015610b3357600080fd5b81019080803573ffffffffffffffffffffffffffffffffffffffff169060200190929190803573ffffffffffffffffffffffffffffffffffffffff1690602001909291905050506125c1565b60405180821515815260200191505060405180910390f35b610cd66004803603610140811015610bae57600080fd5b810190808035906020019092919080359060200190640100000000811115610bd557600080fd5b820183602082011115610be757600080fd5b80359060200191846001830284011164010000000083111715610c0957600080fd5b91908080601f016020809104026020016040519081016040528093929190818152602001838380828437600081840152601f19601f820116905080830192505050505050509192919290803560ff169060200190929190803560ff169060200190929190803560ff169060200190929190803560ff169060200190929190803560ff169060200190929190803560ff169060200190929190803560ff169060200190929190803573ffffffffffffffffffffffffffffffffffffffff169060200190929190505050612655565b6040518082815260200191505060405180910390f35b610d2e60048036036020811015610d0257600080fd5b81019080803573ffffffffffffffffffffffffffffffffffffffff1690602001909291905050506128d8565b005b6000806000837bffffffffffffffffffffffffffffffffffffffffffffffffffffffff19167bffffffffffffffffffffffffffffffffffffffffffffffffffffffff1916815260200190815260200160002060009054906101000a900460ff169050919050565b606060068054600181600116156101000203166002900480601f016020809104026020016040519081016040528092919081815260200182805460018160011615610100020316600290048015610e2f5780601f10610e0457610100808354040283529160200191610e2f565b820191906000526020600020905b815481529060010190602001808311610e1257829003601f168201915b5050505050905090565b6000610e4482612ae8565b610e99576040517f08c379a000000000000000000000000000000000000000000000000000000000815260040180806020018281038252602c8152602001806143c5602c913960400191505060405180910390fd5b6004600083815260200190815260200160002060009054906101000a900473ffffffffffffffffffffffffffffffffffffffff169050919050565b6000610edf82611b4d565b90508073ffffffffffffffffffffffffffffffffffffffff168373ffffffffffffffffffffffffffffffffffffffff161415610f66576040517f08c379a00000000000000000000000000000000000000000000000000000000081526004018080602001828103825260218152602001806144496021913960400191505060405180910390fd5b8073ffffffffffffffffffffffffffffffffffffffff16610f85612b05565b73ffffffffffffffffffffffffffffffffffffffff161480610fb45750610fb381610fae612b05565b6125c1565b5b611009576040517f08c379a00000000000000000000000000000000000000000000000000000000081526004018080602001828103825260388152602001806142d46038913960400191505060405180910390fd5b6110138383612b0d565b505050565b600b818154811061102557fe5b9060005260206000209060030201600091509050806000015490806001018054600181600116156101000203166002900480601f0160208091040260200160405190810160405280929190818152602001828054600181600116156101000203166002900480156110d75780601f106110ac576101008083540402835291602001916110d7565b820191906000526020600020905b8154815290600101906020018083116110ba57829003601f168201915b5050505050908060020160009054906101000a900460ff16908060020160019054906101000a900460ff16908060020160029054906101000a900460ff16908060020160039054906101000a900460ff16908060020160049054906101000a900460ff16908060020160059054906101000a900460ff16908060020160069054906101000a900460ff16905089565b60006111726002612bc6565b905090565b611188611182612b05565b82612bdb565b6111dd576040517f08c379a000000000000000000000000000000000000000000000000000000000815260040180806020018281038252603181526020018061448f6031913960400191505060405180910390fd5b6111e8838383612ccf565b505050565b600061124082600160008673ffffffffffffffffffffffffffffffffffffffff1673ffffffffffffffffffffffffffffffffffffffff168152602001908152602001600020612f1290919063ffffffff16565b905092915050565b600d6020528060005260406000206000915054906101000a900460ff1681565b3373ffffffffffffffffffffffffffffffffffffffff1661128882611b4d565b73ffffffffffffffffffffffffffffffffffffffff16146112f4576040517f08c379a00000000000000000000000000000000000000000000000000000000081526004018080602001828103825260228152602001806143816022913960400191505060405180910390fd5b60001515600d600083815260200190815260200160002060009054906101000a900460ff1615151461138e576040517f08c379a000000000000000000000000000000000000000000000000000000000815260040180806020018281038252601c8152602001807f4d757374206e6f7420616c726561647920626520656e6c69737465640000000081525060200191505060405180910390fd5b600c60009054906101000a900460ff1660ff16600b82815481106113ae57fe5b906000526020600020906003020160020160029054906101000a900460ff1660ff161015611427576040517f08c379a000000000000000000000000000000000000000000000000000000000815260040180806020018281038252602581526020018061446a6025913960400191505060405180910390fd5b6001600d600083815260200190815260200160002060006101000a81548160ff021916908315150217905550807ff2ffc74f2561385e2dda97fd2fed03df7841a8aa26fdf1f5fb28c6cc4950dc0160405160405180910390a250565b61149e8383836040518060200160405280600081525061223a565b505050565b600c60029054906101000a900460ff1681565b6000806114cd836002612f2c90919063ffffffff16565b50905080915050919050565b3373ffffffffffffffffffffffffffffffffffffffff166114f983611b4d565b73ffffffffffffffffffffffffffffffffffffffff1614611565576040517f08c379a00000000000000000000000000000000000000000000000000000000081526004018080602001828103825260298152602001806144c06029913960400191505060405180910390fd5b60011515600d600084815260200190815260200160002060009054906101000a900460ff161515146115ff576040517f08c379a00000000000000000000000000000000000000000000000000000000081526004018080602001828103825260108152602001807f4d75737420626520656e6c69737465640000000000000000000000000000000081525060200191505060405180910390fd5b60011515600d600083815260200190815260200160002060009054906101000a900460ff16151514611699576040517f08c379a00000000000000000000000000000000000000000000000000000000081526004018080602001828103825260198152602001807f4f70706f6e656e74206d75737420626520656e6c69737465640000000000000081525060200191505060405180910390fd5b6116d8826040518060400160405280601f81526020017f50726f6a656374206e6f7420726561647920666f72206120636f6e7465737400815250612f58565b611717816040518060400160405280602081526020017f4f70706f6e656e74206e6f7420726561647920666f72206120636f6e74657374815250612f58565b6000611808600b848154811061172957fe5b906000526020600020906003020160020160069054906101000a900460ff1660ff166117fa600b868154811061175b57fe5b906000526020600020906003020160020160059054906101000a900460ff1660ff166117ec600b888154811061178d57fe5b906000526020600020906003020160020160049054906101000a900460ff1660ff16600b89815481106117bc57fe5b906000526020600020906003020160020160039054906101000a900460ff1660ff1661300b90919063ffffffff16565b61300b90919063ffffffff16565b61300b90919063ffffffff16565b905060006118fb600b848154811061181c57fe5b906000526020600020906003020160020160069054906101000a900460ff1660ff166118ed600b868154811061184e57fe5b906000526020600020906003020160020160059054906101000a900460ff1660ff166118df600b888154811061188057fe5b906000526020600020906003020160020160049054906101000a900460ff1660ff16600b89815481106118af57fe5b906000526020600020906003020160020160039054906101000a900460ff1660ff1661300b90919063ffffffff16565b61300b90919063ffffffff16565b61300b90919063ffffffff16565b9050611958611953600c60009054906101000a900460ff1660ff16600b878154811061192357fe5b906000526020600020906003020160020160029054906101000a900460ff1660ff1661309390919063ffffffff16565b6130dd565b600b858154811061196557fe5b906000526020600020906003020160020160026101000a81548160ff021916908360ff1602179055506119e96119e4600c60009054906101000a900460ff1660ff16600b86815481106119b457fe5b906000526020600020906003020160020160029054906101000a900460ff1660ff1661309390919063ffffffff16565b6130dd565b600b84815481106119f657fe5b906000526020600020906003020160020160026101000a81548160ff021916908360ff16021790555060008082841015611a31578486611a34565b85855b91509150611a7b600c60019054906101000a900460ff1660ff16600b8481548110611a5b57fe5b90600052602060002090600302016000015461300b90919063ffffffff16565b600b8381548110611a8857fe5b906000526020600020906003020160000181905550611ae0600c60029054906101000a900460ff1660ff16600b8381548110611ac057fe5b90600052602060002090600302016000015461300b90919063ffffffff16565b600b8281548110611aed57fe5b9060005260206000209060030201600001819055508185877fc249a6171fd80d816a076fc4419bfea3db12dd9eb72fd9ea5702424fc68e5afe60405160405180910390a4611b3a86613141565b50611b4485613141565b50505050505050565b6000611b7d826040518060600160405280602981526020016143586029913960026131a69092919063ffffffff16565b9050919050565b606060098054600181600116156101000203166002900480601f016020809104026020016040519081016040528092919081815260200182805460018160011615610100020316600290048015611c1c5780601f10611bf157610100808354040283529160200191611c1c565b820191906000526020600020905b815481529060010190602001808311611bff57829003601f168201915b5050505050905090565b60008073ffffffffffffffffffffffffffffffffffffffff168273ffffffffffffffffffffffffffffffffffffffff161415611cad576040517f08c379a000000000000000000000000000000000000000000000000000000000815260040180806020018281038252602a81526020018061432e602a913960400191505060405180910390fd5b611cf4600160008473ffffffffffffffffffffffffffffffffffffffff1673ffffffffffffffffffffffffffffffffffffffff1681526020019081526020016000206131c5565b9050919050565b611d03612b05565b73ffffffffffffffffffffffffffffffffffffffff16600a60009054906101000a900473ffffffffffffffffffffffffffffffffffffffff1673ffffffffffffffffffffffffffffffffffffffff1614611dc5576040517f08c379a00000000000000000000000000000000000000000000000000000000081526004018080602001828103825260208152602001807f4f776e61626c653a2063616c6c6572206973206e6f7420746865206f776e657281525060200191505060405180910390fd5b600073ffffffffffffffffffffffffffffffffffffffff16600a60009054906101000a900473ffffffffffffffffffffffffffffffffffffffff1673ffffffffffffffffffffffffffffffffffffffff167f8be0079c531659141344cd1fd0a4f28419497f9722a3daafe3b4186f6b6457e060405160405180910390a36000600a60006101000a81548173ffffffffffffffffffffffffffffffffffffffff021916908373ffffffffffffffffffffffffffffffffffffffff160217905550565b6000600a60009054906101000a900473ffffffffffffffffffffffffffffffffffffffff16905090565b606060078054600181600116156101000203166002900480601f016020809104026020016040519081016040528092919081815260200182805460018160011615610100020316600290048015611f485780601f10611f1d57610100808354040283529160200191611f48565b820191906000526020600020905b815481529060010190602001808311611f2b57829003601f168201915b5050505050905090565b3373ffffffffffffffffffffffffffffffffffffffff16611f7282611b4d565b73ffffffffffffffffffffffffffffffffffffffff1614611fde576040517f08c379a000000000000000000000000000000000000000000000000000000000815260040180806020018281038252602281526020018061430c6022913960400191505060405180910390fd5b60011515600d600083815260200190815260200160002060009054906101000a900460ff16151514612078576040517f08c379a00000000000000000000000000000000000000000000000000000000081526004018080602001828103825260108152602001807f4d75737420626520656e6c69737465640000000000000000000000000000000081525060200191505060405180910390fd5b612081816131da565b50565b61208c612b05565b73ffffffffffffffffffffffffffffffffffffffff168273ffffffffffffffffffffffffffffffffffffffff16141561212d576040517f08c379a00000000000000000000000000000000000000000000000000000000081526004018080602001828103825260198152602001807f4552433732313a20617070726f766520746f2063616c6c65720000000000000081525060200191505060405180910390fd5b806005600061213a612b05565b73ffffffffffffffffffffffffffffffffffffffff1673ffffffffffffffffffffffffffffffffffffffff16815260200190815260200160002060008473ffffffffffffffffffffffffffffffffffffffff1673ffffffffffffffffffffffffffffffffffffffff16815260200190815260200160002060006101000a81548160ff0219169083151502179055508173ffffffffffffffffffffffffffffffffffffffff166121e7612b05565b73ffffffffffffffffffffffffffffffffffffffff167f17307eab39ab6107e8899845ad3d59bd9653f200f220920489ca2b5937696c318360405180821515815260200191505060405180910390a35050565b61224b612245612b05565b83612bdb565b6122a0576040517f08c379a000000000000000000000000000000000000000000000000000000000815260040180806020018281038252603181526020018061448f6031913960400191505060405180910390fd5b6122ac84848484613236565b50505050565b600c60009054906101000a900460ff1681565b60606122d082612ae8565b612325576040517f08c379a000000000000000000000000000000000000000000000000000000000815260040180806020018281038252602f81526020018061441a602f913960400191505060405180910390fd5b6060600860008481526020019081526020016000208054600181600116156101000203166002900480601f0160208091040260200160405190810160405280929190818152602001828054600181600116156101000203166002900480156123ce5780601f106123a3576101008083540402835291602001916123ce565b820191906000526020600020905b8154815290600101906020018083116123b157829003601f168201915b505050505090506000600980546001816001161561010002031660029004905014156123fd57809150506125a9565b6000815111156124d65760098160405160200180838054600181600116156101000203166002900480156124685780601f10612446576101008083540402835291820191612468565b820191906000526020600020905b815481529060010190602001808311612454575b505082805190602001908083835b602083106124995780518252602082019150602081019050602083039250612476565b6001836020036101000a038019825116818451168082178552505050505050905001925050506040516020818303038152906040529150506125a9565b60096124e1846132a8565b604051602001808380546001816001161561010002031660029004801561253f5780601f1061251d57610100808354040283529182019161253f565b820191906000526020600020905b81548152906001019060200180831161252b575b505082805190602001908083835b60208310612570578051825260208201915060208101905060208303925061254d565b6001836020036101000a038019825116818451168082178552505050505050905001925050506040516020818303038152906040529150505b919050565b600c60019054906101000a900460ff1681565b6000600560008473ffffffffffffffffffffffffffffffffffffffff1673ffffffffffffffffffffffffffffffffffffffff16815260200190815260200160002060008373ffffffffffffffffffffffffffffffffffffffff1673ffffffffffffffffffffffffffffffffffffffff16815260200190815260200160002060009054906101000a900460ff16905092915050565b600061265f612b05565b73ffffffffffffffffffffffffffffffffffffffff16600a60009054906101000a900473ffffffffffffffffffffffffffffffffffffffff1673ffffffffffffffffffffffffffffffffffffffff1614612721576040517f08c379a00000000000000000000000000000000000000000000000000000000081526004018080602001828103825260208152602001807f4f776e61626c653a2063616c6c6572206973206e6f7420746865206f776e657281525060200191505060405180910390fd5b6000600b805490509050600b6040518061012001604052808e81526020018d81526020018c60ff1681526020018b60ff1681526020018a60ff1681526020018960ff1681526020018860ff1681526020018760ff1681526020018660ff1681525090806001815401808255809150506001900390600052602060002090600302016000909190919091506000820151816000015560208201518160010190805190602001906127d1929190614121565b5060408201518160020160006101000a81548160ff021916908360ff16021790555060608201518160020160016101000a81548160ff021916908360ff16021790555060808201518160020160026101000a81548160ff021916908360ff16021790555060a08201518160020160036101000a81548160ff021916908360ff16021790555060c08201518160020160046101000a81548160ff021916908360ff16021790555060e08201518160020160056101000a81548160ff021916908360ff1602179055506101008201518160020160066101000a81548160ff021916908360ff16021790555050506128c683826133ef565b809150509a9950505050505050505050565b6128e0612b05565b73ffffffffffffffffffffffffffffffffffffffff16600a60009054906101000a900473ffffffffffffffffffffffffffffffffffffffff1673ffffffffffffffffffffffffffffffffffffffff16146129a2576040517f08c379a00000000000000000000000000000000000000000000000000000000081526004018080602001828103825260208152602001807f4f776e61626c653a2063616c6c6572206973206e6f7420746865206f776e657281525060200191505060405180910390fd5b600073ffffffffffffffffffffffffffffffffffffffff168173ffffffffffffffffffffffffffffffffffffffff161415612a28576040517f08c379a00000000000000000000000000000000000000000000000000000000081526004018080602001828103825260268152602001806142136026913960400191505060405180910390fd5b8073ffffffffffffffffffffffffffffffffffffffff16600a60009054906101000a900473ffffffffffffffffffffffffffffffffffffffff1673ffffffffffffffffffffffffffffffffffffffff167f8be0079c531659141344cd1fd0a4f28419497f9722a3daafe3b4186f6b6457e060405160405180910390a380600a60006101000a81548173ffffffffffffffffffffffffffffffffffffffff021916908373ffffffffffffffffffffffffffffffffffffffff16021790555050565b6000612afe82600261340d90919063ffffffff16565b9050919050565b600033905090565b816004600083815260200190815260200160002060006101000a81548173ffffffffffffffffffffffffffffffffffffffff021916908373ffffffffffffffffffffffffffffffffffffffff160217905550808273ffffffffffffffffffffffffffffffffffffffff16612b8083611b4d565b73ffffffffffffffffffffffffffffffffffffffff167f8c5be1e5ebec7d5bd14f71427d1e84f3dd0314c0f7b2291e5b200ac8c7c3b92560405160405180910390a45050565b6000612bd482600001613427565b9050919050565b6000612be682612ae8565b612c3b576040517f08c379a000000000000000000000000000000000000000000000000000000000815260040180806020018281038252602c8152602001806142a8602c913960400191505060405180910390fd5b6000612c4683611b4d565b90508073ffffffffffffffffffffffffffffffffffffffff168473ffffffffffffffffffffffffffffffffffffffff161480612cb557508373ffffffffffffffffffffffffffffffffffffffff16612c9d84610e39565b73ffffffffffffffffffffffffffffffffffffffff16145b80612cc65750612cc581856125c1565b5b91505092915050565b8273ffffffffffffffffffffffffffffffffffffffff16612cef82611b4d565b73ffffffffffffffffffffffffffffffffffffffff1614612d5b576040517f08c379a00000000000000000000000000000000000000000000000000000000081526004018080602001828103825260298152602001806143f16029913960400191505060405180910390fd5b600073ffffffffffffffffffffffffffffffffffffffff168273ffffffffffffffffffffffffffffffffffffffff161415612de1576040517f08c379a000000000000000000000000000000000000000000000000000000000815260040180806020018281038252602481526020018061425e6024913960400191505060405180910390fd5b612dec838383613438565b612df7600082612b0d565b612e4881600160008673ffffffffffffffffffffffffffffffffffffffff1673ffffffffffffffffffffffffffffffffffffffff16815260200190815260200160002061343d90919063ffffffff16565b50612e9a81600160008573ffffffffffffffffffffffffffffffffffffffff1673ffffffffffffffffffffffffffffffffffffffff16815260200190815260200160002061345790919063ffffffff16565b50612eb1818360026134719092919063ffffffff16565b50808273ffffffffffffffffffffffffffffffffffffffff168473ffffffffffffffffffffffffffffffffffffffff167fddf252ad1be2c89b69c2b068fc378daa952ba7f163c4a11628f55a4df523b3ef60405160405180910390a4505050565b6000612f2183600001836134a6565b60001c905092915050565b600080600080612f3f8660000186613529565b915091508160001c8160001c9350935050509250929050565b612f6182613141565b61300757806040517f08c379a00000000000000000000000000000000000000000000000000000000081526004018080602001828103825283818151815260200191508051906020019080838360005b83811015612fcc578082015181840152602081019050612fb1565b50505050905090810190601f168015612ff95780820380516001836020036101000a031916815260200191505b509250505060405180910390fd5b5050565b600080828401905083811015613089576040517f08c379a000000000000000000000000000000000000000000000000000000000815260040180806020018281038252601b8152602001807f536166654d6174683a206164646974696f6e206f766572666c6f77000000000081525060200191505060405180910390fd5b8091505092915050565b60006130d583836040518060400160405280601e81526020017f536166654d6174683a207375627472616374696f6e206f766572666c6f7700008152506135c2565b905092915050565b60006101008210613139576040517f08c379a00000000000000000000000000000000000000000000000000000000081526004018080602001828103825260258152602001806142396025913960400191505060405180910390fd5b819050919050565b6000600c60009054906101000a900460ff1660ff16600b838154811061316357fe5b906000526020600020906003020160020160029054906101000a900460ff1660ff161161319c57613193826131da565b600090506131a1565b600190505b919050565b60006131b9846000018460001b84613682565b60001c90509392505050565b60006131d382600001613778565b9050919050565b6000600d600083815260200190815260200160002060006101000a81548160ff021916908315150217905550807f2c525dc2c086b9a2f3b902d229853b5b838fcedc22933c40ed7ebe4890a53a8260405160405180910390a250565b613241848484612ccf565b61324d84848484613789565b6132a2576040517f08c379a00000000000000000000000000000000000000000000000000000000081526004018080602001828103825260328152602001806141e16032913960400191505060405180910390fd5b50505050565b606060008214156132f0576040518060400160405280600181526020017f300000000000000000000000000000000000000000000000000000000000000081525090506133ea565b600082905060005b6000821461331a578080600101915050600a828161331257fe5b0491506132f8565b60608167ffffffffffffffff8111801561333357600080fd5b506040519080825280601f01601f1916602001820160405280156133665781602001600182028036833780820191505090505b50905060006001830390508593505b600084146133e257600a848161338757fe5b0660300160f81b828280600190039350815181106133a157fe5b60200101907effffffffffffffffffffffffffffffffffffffffffffffffffffffffffffff1916908160001a905350600a84816133da57fe5b049350613375565b819450505050505b919050565b6134098282604051806020016040528060008152506139a2565b5050565b600061341f836000018360001b613a13565b905092915050565b600081600001805490509050919050565b505050565b600061344f836000018360001b613a36565b905092915050565b6000613469836000018360001b613b1e565b905092915050565b600061349d846000018460001b8473ffffffffffffffffffffffffffffffffffffffff1660001b613b8e565b90509392505050565b600081836000018054905011613507576040517f08c379a00000000000000000000000000000000000000000000000000000000081526004018080602001828103825260228152602001806141bf6022913960400191505060405180910390fd5b82600001828154811061351657fe5b9060005260206000200154905092915050565b6000808284600001805490501161358b576040517f08c379a00000000000000000000000000000000000000000000000000000000081526004018080602001828103825260228152602001806143a36022913960400191505060405180910390fd5b600084600001848154811061359c57fe5b906000526020600020906002020190508060000154816001015492509250509250929050565b600083831115829061366f576040517f08c379a00000000000000000000000000000000000000000000000000000000081526004018080602001828103825283818151815260200191508051906020019080838360005b83811015613634578082015181840152602081019050613619565b50505050905090810190601f1680156136615780820380516001836020036101000a031916815260200191505b509250505060405180910390fd5b5060008385039050809150509392505050565b60008084600101600085815260200190815260200160002054905060008114158390613749576040517f08c379a00000000000000000000000000000000000000000000000000000000081526004018080602001828103825283818151815260200191508051906020019080838360005b8381101561370e5780820151818401526020810190506136f3565b50505050905090810190601f16801561373b5780820380516001836020036101000a031916815260200191505b509250505060405180910390fd5b5084600001600182038154811061375c57fe5b9060005260206000209060020201600101549150509392505050565b600081600001805490509050919050565b60006137aa8473ffffffffffffffffffffffffffffffffffffffff16613c6a565b6137b7576001905061399a565b606061392163150b7a0260e01b6137cc612b05565b888787604051602401808573ffffffffffffffffffffffffffffffffffffffff1681526020018473ffffffffffffffffffffffffffffffffffffffff16815260200183815260200180602001828103825283818151815260200191508051906020019080838360005b83811015613850578082015181840152602081019050613835565b50505050905090810190601f16801561387d5780820380516001836020036101000a031916815260200191505b5095505050505050604051602081830303815290604052907bffffffffffffffffffffffffffffffffffffffffffffffffffffffff19166020820180517bffffffffffffffffffffffffffffffffffffffffffffffffffffffff83818316178352505050506040518060600160405280603281526020016141e1603291398773ffffffffffffffffffffffffffffffffffffffff16613c7d9092919063ffffffff16565b9050600081806020019051602081101561393a57600080fd5b8101908080519060200190929190505050905063150b7a0260e01b7bffffffffffffffffffffffffffffffffffffffffffffffffffffffff1916817bffffffffffffffffffffffffffffffffffffffffffffffffffffffff191614925050505b949350505050565b6139ac8383613c95565b6139b96000848484613789565b613a0e576040517f08c379a00000000000000000000000000000000000000000000000000000000081526004018080602001828103825260328152602001806141e16032913960400191505060405180910390fd5b505050565b600080836001016000848152602001908152602001600020541415905092915050565b60008083600101600084815260200190815260200160002054905060008114613b125760006001820390506000600186600001805490500390506000866000018281548110613a8157fe5b9060005260206000200154905080876000018481548110613a9e57fe5b9060005260206000200181905550600183018760010160008381526020019081526020016000208190555086600001805480613ad657fe5b60019003818190600052602060002001600090559055866001016000878152602001908152602001600020600090556001945050505050613b18565b60009150505b92915050565b6000613b2a8383613e89565b613b83578260000182908060018154018082558091505060019003906000526020600020016000909190919091505582600001805490508360010160008481526020019081526020016000208190555060019050613b88565b600090505b92915050565b6000808460010160008581526020019081526020016000205490506000811415613c3557846000016040518060400160405280868152602001858152509080600181540180825580915050600190039060005260206000209060020201600090919091909150600082015181600001556020820151816001015550508460000180549050856001016000868152602001908152602001600020819055506001915050613c63565b82856000016001830381548110613c4857fe5b90600052602060002090600202016001018190555060009150505b9392505050565b600080823b905060008111915050919050565b6060613c8c8484600085613eac565b90509392505050565b600073ffffffffffffffffffffffffffffffffffffffff168273ffffffffffffffffffffffffffffffffffffffff161415613d38576040517f08c379a00000000000000000000000000000000000000000000000000000000081526004018080602001828103825260208152602001807f4552433732313a206d696e7420746f20746865207a65726f206164647265737381525060200191505060405180910390fd5b613d4181612ae8565b15613db4576040517f08c379a000000000000000000000000000000000000000000000000000000000815260040180806020018281038252601c8152602001807f4552433732313a20746f6b656e20616c7265616479206d696e7465640000000081525060200191505060405180910390fd5b613dc060008383613438565b613e1181600160008573ffffffffffffffffffffffffffffffffffffffff1673ffffffffffffffffffffffffffffffffffffffff16815260200190815260200160002061345790919063ffffffff16565b50613e28818360026134719092919063ffffffff16565b50808273ffffffffffffffffffffffffffffffffffffffff16600073ffffffffffffffffffffffffffffffffffffffff167fddf252ad1be2c89b69c2b068fc378daa952ba7f163c4a11628f55a4df523b3ef60405160405180910390a45050565b600080836001016000848152602001908152602001600020541415905092915050565b606082471015613f07576040517f08c379a00000000000000000000000000000000000000000000000000000000081526004018080602001828103825260268152602001806142826026913960400191505060405180910390fd5b613f1085613c6a565b613f82576040517f08c379a000000000000000000000000000000000000000000000000000000000815260040180806020018281038252601d8152602001807f416464726573733a2063616c6c20746f206e6f6e2d636f6e747261637400000081525060200191505060405180910390fd5b600060608673ffffffffffffffffffffffffffffffffffffffff1685876040518082805190602001908083835b60208310613fd25780518252602082019150602081019050602083039250613faf565b6001836020036101000a03801982511681845116808217855250505050505090500191505060006040518083038185875af1925050503d8060008114614034576040519150601f19603f3d011682016040523d82523d6000602084013e614039565b606091505b5091509150614049828286614055565b92505050949350505050565b606083156140655782905061411a565b6000835111156140785782518084602001fd5b816040517f08c379a00000000000000000000000000000000000000000000000000000000081526004018080602001828103825283818151815260200191508051906020019080838360005b838110156140df5780820151818401526020810190506140c4565b50505050905090810190601f16801561410c5780820380516001836020036101000a031916815260200191505b509250505060405180910390fd5b9392505050565b828054600181600116156101000203166002900490600052602060002090601f016020900481019282601f1061416257805160ff1916838001178555614190565b82800160010185558215614190579182015b8281111561418f578251825591602001919060010190614174565b5b50905061419d91906141a1565b5090565b5b808211156141ba5760008160009055506001016141a2565b509056fe456e756d657261626c655365743a20696e646578206f7574206f6620626f756e64734552433732313a207472616e7366657220746f206e6f6e20455243373231526563656976657220696d706c656d656e7465724f776e61626c653a206e6577206f776e657220697320746865207a65726f206164647265737353616665436173743a2076616c756520646f65736e27742066697420696e203820626974734552433732313a207472616e7366657220746f20746865207a65726f2061646472657373416464726573733a20696e73756666696369656e742062616c616e636520666f722063616c6c4552433732313a206f70657261746f7220717565727920666f72206e6f6e6578697374656e7420746f6b656e4552433732313a20617070726f76652063616c6c6572206973206e6f74206f776e6572206e6f7220617070726f76656420666f7220616c6c4d757374206265206f776e6572206f662070726f6a65637420746f2064656c6973744552433732313a2062616c616e636520717565727920666f7220746865207a65726f20616464726573734552433732313a206f776e657220717565727920666f72206e6f6e6578697374656e7420746f6b656e4d757374206265206f776e6572206f662070726f6a65637420746f20656e6c697374456e756d657261626c654d61703a20696e646578206f7574206f6620626f756e64734552433732313a20617070726f76656420717565727920666f72206e6f6e6578697374656e7420746f6b656e4552433732313a207472616e73666572206f6620746f6b656e2074686174206973206e6f74206f776e4552433732314d657461646174613a2055524920717565727920666f72206e6f6e6578697374656e7420746f6b656e4552433732313a20617070726f76616c20746f2063757272656e74206f776e65724d75737420626520696e20726571756972656420737461746520746f20636f6d706c6574654552433732313a207472616e736665722063616c6c6572206973206e6f74206f776e6572206e6f7220617070726f7665644d757374206265206f776e6572206f662070726f6a65637420746f20656e74657220636f6e74657374a26469706673582212200e0436d65e049998fdb4b1fb9467c52d6ba630e36314c44189e4894b0d7fac5d64736f6c634300060c0033",
  "immutableReferences": {},
  "source": "// SPDX-License-Identifier: MIT\npragma solidity >=0.5.0 <0.8.0;\n\nimport \"./ArtProjectBase.sol\";\nimport \"@openzeppelin/contracts/math/SafeMath.sol\";\nimport \"@openzeppelin/contracts/utils/SafeCast.sol\";\n\ncontract CompletedProject is ArtProjectBase {\n    using SafeMath for uint;\n    using SafeCast for uint;\n\n    //state cost to reach complete status\n    uint8 public stateCostToComplete = 20;\n    //lifecycleGainWin\n    uint8 public lifecycleGainWin = 10;\n    //lifecycleGainlose\n    uint8 public lifecycleGainLose = 5;\n\n    //enlistedProjects\n    mapping(uint => bool) public enlistedProjects;\n    //enlistEvent\n    event Enlist(uint indexed projectId);\n    //delistEvent\n    event Delist(uint indexed projectId);\n    \n    //contest\n    event ContestEntered(uint indexed projectId, uint indexed opponentId, uint indexed winner);\n     \n\n     //Enlist project to complete\n     function enlist(uint _id) public{\n         //only the owner of the project can enlist\n         require(ownerOf(_id) == msg.sender, \"Must be owner of project to enlist\");\n         //Must not be enlisted already\n         require(enlistedProjects[_id] == false, \"Must not already be enlisted\");\n         //Check state\n         require(projects[_id].state >= stateCostToComplete, \"Must be in required state to complete\");\n         //Enlist\n         enlistedProjects[_id] = true;\n         //Emit\n         emit Enlist(_id);\n\n     }\n     //Delist project \n     function delist(uint _id) public{\n         //Only owner can delist\n         require(ownerOf(_id) == msg.sender, \"Must be owner of project to delist\");\n         //Must be enlisted\n         require(enlistedProjects[_id] == true, \"Must be enlisted\");\n         //Run delist\n         _delist(_id);\n     }\n     function _delist(uint _id) private{\n         enlistedProjects[_id] = false;\n         emit Delist(_id);\n     }\n     \n     //Contest\n     function enterContest(uint _id, uint _opponentId) public{\n         //Only owner\n         require(ownerOf(_id) == msg.sender, \"Must be owner of project to enter contest\");\n         //Must be enlisted\n         require(enlistedProjects[_id] == true, \"Must be enlisted\");\n         //Opponent must be enlisted\n         require(enlistedProjects[_opponentId] == true, \"Opponent must be enlisted\");\n         //Project state\n         _requireContestState(_id, \"Project not ready for a contest\");\n         //Opponents state\n         _requireContestState(_opponentId, \"Opponent not ready for a contest\");\n         uint projectScore = uint(projects[_id].technique)\n            .add(uint(projects[_id].aesthetics))\n            .add(uint(projects[_id].usage))\n            .add(uint(projects[_id].popularity));\n         uint opponentScore = uint(projects[_opponentId].technique)\n            .add(uint(projects[_opponentId].aesthetics))\n            .add(uint(projects[_opponentId].usage))\n            .add(uint(projects[_opponentId].popularity));\n        //State changes\n        projects[_id].state = uint(projects[_id].state).sub(uint(stateCostToComplete)).toUint8();\n        projects[_opponentId].state = uint(projects[_opponentId].state).sub(uint(stateCostToComplete)).toUint8();\n        //Winner\n        (uint winner, uint loser) = (projectScore >= opponentScore ) ? (_id, _opponentId) : (_opponentId, _id);\n        //lifecycle changes\n        projects[winner].lifecycle = uint(projects[winner].lifecycle).add(uint(lifecycleGainWin));\n        projects[loser].lifecycle = uint(projects[loser].lifecycle).add(uint(lifecycleGainLose));\n        //emit contest \n        emit ContestEntered(_id, _opponentId, winner);\n        //check state again\n        _isContestState(_id);\n        _isContestState(_opponentId);\n     }\n\n     function _requireContestState(uint _id, string memory _message) private {\n         if(!_isContestState(_id)){\n             revert(_message);\n         }\n     }\n     //check contest condition\n     function _isContestState(uint _id) private returns (bool) {\n         //require state is high\n         //delist if not\n         if (projects[_id].state <= stateCostToComplete){\n             _delist(_id);\n             return false;\n         }\n         return true;\n     }\n     \n      \n}",
  "sourcePath": "/Applications/Ampps/www/W3irds/artwork/src/contracts/CompletedProject.sol",
  "compiler": {
    "name": "solc",
    "version": "0.6.12+commit.27d51765.Emscripten.clang"
  },
  "schemaVersion": "3.3.3",
  "updatedAt": "2021-01-03T12:20:12.554Z",
  "networkType": "ethereum",
  "devdoc": {
    "kind": "dev",
    "methods": {
      "approve(address,uint256)": {
        "details": "See {IERC721-approve}."
      },
      "balanceOf(address)": {
        "details": "See {IERC721-balanceOf}."
      },
      "baseURI()": {
        "details": "Returns the base URI set via {_setBaseURI}. This will be automatically added as a prefix in {tokenURI} to each token's URI, or to the token ID if no specific URI is set for that token ID."
      },
      "getApproved(uint256)": {
        "details": "See {IERC721-getApproved}."
      },
      "isApprovedForAll(address,address)": {
        "details": "See {IERC721-isApprovedForAll}."
      },
      "name()": {
        "details": "See {IERC721Metadata-name}."
      },
      "owner()": {
        "details": "Returns the address of the current owner."
      },
      "ownerOf(uint256)": {
        "details": "See {IERC721-ownerOf}."
      },
      "renounceOwnership()": {
        "details": "Leaves the contract without owner. It will not be possible to call `onlyOwner` functions anymore. Can only be called by the current owner. NOTE: Renouncing ownership will leave the contract without an owner, thereby removing any functionality that is only available to the owner."
      },
      "safeTransferFrom(address,address,uint256)": {
        "details": "See {IERC721-safeTransferFrom}."
      },
      "safeTransferFrom(address,address,uint256,bytes)": {
        "details": "See {IERC721-safeTransferFrom}."
      },
      "setApprovalForAll(address,bool)": {
        "details": "See {IERC721-setApprovalForAll}."
      },
      "supportsInterface(bytes4)": {
        "details": "See {IERC165-supportsInterface}. Time complexity O(1), guaranteed to always use less than 30 000 gas."
      },
      "symbol()": {
        "details": "See {IERC721Metadata-symbol}."
      },
      "tokenByIndex(uint256)": {
        "details": "See {IERC721Enumerable-tokenByIndex}."
      },
      "tokenOfOwnerByIndex(address,uint256)": {
        "details": "See {IERC721Enumerable-tokenOfOwnerByIndex}."
      },
      "tokenURI(uint256)": {
        "details": "See {IERC721Metadata-tokenURI}."
      },
      "totalSupply()": {
        "details": "See {IERC721Enumerable-totalSupply}."
      },
      "transferFrom(address,address,uint256)": {
        "details": "See {IERC721-transferFrom}."
      },
      "transferOwnership(address)": {
        "details": "Transfers ownership of the contract to a new account (`newOwner`). Can only be called by the current owner."
      }
    },
    "version": 1
  },
  "userdoc": {
    "kind": "user",
    "methods": {},
    "version": 1
  }
}