{
  "contractName": "ProgressiveProject",
  "abi": [
    {
      "anonymous": false,
      "inputs": [
        {
          "indexed": true,
          "internalType": "address",
          "name": "owner",
          "type": "address"
        },
        {
          "indexed": true,
          "internalType": "address",
          "name": "approved",
          "type": "address"
        },
        {
          "indexed": true,
          "internalType": "uint256",
          "name": "tokenId",
          "type": "uint256"
        }
      ],
      "name": "Approval",
      "type": "event"
    },
    {
      "anonymous": false,
      "inputs": [
        {
          "indexed": true,
          "internalType": "address",
          "name": "owner",
          "type": "address"
        },
        {
          "indexed": true,
          "internalType": "address",
          "name": "operator",
          "type": "address"
        },
        {
          "indexed": false,
          "internalType": "bool",
          "name": "approved",
          "type": "bool"
        }
      ],
      "name": "ApprovalForAll",
      "type": "event"
    },
    {
      "anonymous": false,
      "inputs": [
        {
          "indexed": true,
          "internalType": "uint256",
          "name": "playerId",
          "type": "uint256"
        },
        {
          "indexed": false,
          "internalType": "enum ProgressiveProject.Attribute",
          "name": "attribute",
          "type": "uint8"
        }
      ],
      "name": "Grow",
      "type": "event"
    },
    {
      "anonymous": false,
      "inputs": [
        {
          "indexed": true,
          "internalType": "address",
          "name": "previousOwner",
          "type": "address"
        },
        {
          "indexed": true,
          "internalType": "address",
          "name": "newOwner",
          "type": "address"
        }
      ],
      "name": "OwnershipTransferred",
      "type": "event"
    },
    {
      "anonymous": false,
      "inputs": [
        {
          "indexed": true,
          "internalType": "uint256",
          "name": "playerId",
          "type": "uint256"
        }
      ],
      "name": "Rest",
      "type": "event"
    },
    {
      "anonymous": false,
      "inputs": [
        {
          "indexed": true,
          "internalType": "address",
          "name": "from",
          "type": "address"
        },
        {
          "indexed": true,
          "internalType": "address",
          "name": "to",
          "type": "address"
        },
        {
          "indexed": true,
          "internalType": "uint256",
          "name": "tokenId",
          "type": "uint256"
        }
      ],
      "name": "Transfer",
      "type": "event"
    },
    {
      "inputs": [
        {
          "internalType": "address",
          "name": "to",
          "type": "address"
        },
        {
          "internalType": "uint256",
          "name": "tokenId",
          "type": "uint256"
        }
      ],
      "name": "approve",
      "outputs": [],
      "stateMutability": "nonpayable",
      "type": "function"
    },
    {
      "inputs": [],
      "name": "attributeGainOnGrow",
      "outputs": [
        {
          "internalType": "uint8",
          "name": "",
          "type": "uint8"
        }
      ],
      "stateMutability": "view",
      "type": "function"
    },
    {
      "inputs": [
        {
          "internalType": "address",
          "name": "owner",
          "type": "address"
        }
      ],
      "name": "balanceOf",
      "outputs": [
        {
          "internalType": "uint256",
          "name": "",
          "type": "uint256"
        }
      ],
      "stateMutability": "view",
      "type": "function"
    },
    {
      "inputs": [],
      "name": "baseURI",
      "outputs": [
        {
          "internalType": "string",
          "name": "",
          "type": "string"
        }
      ],
      "stateMutability": "view",
      "type": "function"
    },
    {
      "inputs": [
        {
          "internalType": "uint256",
          "name": "tokenId",
          "type": "uint256"
        }
      ],
      "name": "getApproved",
      "outputs": [
        {
          "internalType": "address",
          "name": "",
          "type": "address"
        }
      ],
      "stateMutability": "view",
      "type": "function"
    },
    {
      "inputs": [
        {
          "internalType": "address",
          "name": "owner",
          "type": "address"
        },
        {
          "internalType": "address",
          "name": "operator",
          "type": "address"
        }
      ],
      "name": "isApprovedForAll",
      "outputs": [
        {
          "internalType": "bool",
          "name": "",
          "type": "bool"
        }
      ],
      "stateMutability": "view",
      "type": "function"
    },
    {
      "inputs": [],
      "name": "lifecycleCostToGrow",
      "outputs": [
        {
          "internalType": "uint8",
          "name": "",
          "type": "uint8"
        }
      ],
      "stateMutability": "view",
      "type": "function"
    },
    {
      "inputs": [],
      "name": "lifecycleCostToRest",
      "outputs": [
        {
          "internalType": "uint8",
          "name": "",
          "type": "uint8"
        }
      ],
      "stateMutability": "view",
      "type": "function"
    },
    {
      "inputs": [],
      "name": "name",
      "outputs": [
        {
          "internalType": "string",
          "name": "",
          "type": "string"
        }
      ],
      "stateMutability": "view",
      "type": "function"
    },
    {
      "inputs": [
        {
          "internalType": "uint256",
          "name": "_lifecycle",
          "type": "uint256"
        },
        {
          "internalType": "string",
          "name": "_name",
          "type": "string"
        },
        {
          "internalType": "uint8",
          "name": "_age",
          "type": "uint8"
        },
        {
          "internalType": "uint8",
          "name": "_scope",
          "type": "uint8"
        },
        {
          "internalType": "uint8",
          "name": "_state",
          "type": "uint8"
        },
        {
          "internalType": "uint8",
          "name": "_technique",
          "type": "uint8"
        },
        {
          "internalType": "uint8",
          "name": "_aesthetics",
          "type": "uint8"
        },
        {
          "internalType": "uint8",
          "name": "_usage",
          "type": "uint8"
        },
        {
          "internalType": "uint8",
          "name": "_popularity",
          "type": "uint8"
        },
        {
          "internalType": "address",
          "name": "_to",
          "type": "address"
        }
      ],
      "name": "newProject",
      "outputs": [
        {
          "internalType": "uint256",
          "name": "",
          "type": "uint256"
        }
      ],
      "stateMutability": "nonpayable",
      "type": "function"
    },
    {
      "inputs": [],
      "name": "owner",
      "outputs": [
        {
          "internalType": "address",
          "name": "",
          "type": "address"
        }
      ],
      "stateMutability": "view",
      "type": "function"
    },
    {
      "inputs": [
        {
          "internalType": "uint256",
          "name": "tokenId",
          "type": "uint256"
        }
      ],
      "name": "ownerOf",
      "outputs": [
        {
          "internalType": "address",
          "name": "",
          "type": "address"
        }
      ],
      "stateMutability": "view",
      "type": "function"
    },
    {
      "inputs": [
        {
          "internalType": "uint256",
          "name": "",
          "type": "uint256"
        }
      ],
      "name": "projects",
      "outputs": [
        {
          "internalType": "uint256",
          "name": "lifecycle",
          "type": "uint256"
        },
        {
          "internalType": "string",
          "name": "name",
          "type": "string"
        },
        {
          "internalType": "uint8",
          "name": "age",
          "type": "uint8"
        },
        {
          "internalType": "uint8",
          "name": "scope",
          "type": "uint8"
        },
        {
          "internalType": "uint8",
          "name": "state",
          "type": "uint8"
        },
        {
          "internalType": "uint8",
          "name": "technique",
          "type": "uint8"
        },
        {
          "internalType": "uint8",
          "name": "aesthetics",
          "type": "uint8"
        },
        {
          "internalType": "uint8",
          "name": "usage",
          "type": "uint8"
        },
        {
          "internalType": "uint8",
          "name": "popularity",
          "type": "uint8"
        }
      ],
      "stateMutability": "view",
      "type": "function"
    },
    {
      "inputs": [],
      "name": "renounceOwnership",
      "outputs": [],
      "stateMutability": "nonpayable",
      "type": "function"
    },
    {
      "inputs": [
        {
          "internalType": "address",
          "name": "from",
          "type": "address"
        },
        {
          "internalType": "address",
          "name": "to",
          "type": "address"
        },
        {
          "internalType": "uint256",
          "name": "tokenId",
          "type": "uint256"
        }
      ],
      "name": "safeTransferFrom",
      "outputs": [],
      "stateMutability": "nonpayable",
      "type": "function"
    },
    {
      "inputs": [
        {
          "internalType": "address",
          "name": "from",
          "type": "address"
        },
        {
          "internalType": "address",
          "name": "to",
          "type": "address"
        },
        {
          "internalType": "uint256",
          "name": "tokenId",
          "type": "uint256"
        },
        {
          "internalType": "bytes",
          "name": "_data",
          "type": "bytes"
        }
      ],
      "name": "safeTransferFrom",
      "outputs": [],
      "stateMutability": "nonpayable",
      "type": "function"
    },
    {
      "inputs": [
        {
          "internalType": "address",
          "name": "operator",
          "type": "address"
        },
        {
          "internalType": "bool",
          "name": "approved",
          "type": "bool"
        }
      ],
      "name": "setApprovalForAll",
      "outputs": [],
      "stateMutability": "nonpayable",
      "type": "function"
    },
    {
      "inputs": [],
      "name": "stateCostToGrow",
      "outputs": [
        {
          "internalType": "uint8",
          "name": "",
          "type": "uint8"
        }
      ],
      "stateMutability": "view",
      "type": "function"
    },
    {
      "inputs": [],
      "name": "stateGainOnRest",
      "outputs": [
        {
          "internalType": "uint8",
          "name": "",
          "type": "uint8"
        }
      ],
      "stateMutability": "view",
      "type": "function"
    },
    {
      "inputs": [
        {
          "internalType": "bytes4",
          "name": "interfaceId",
          "type": "bytes4"
        }
      ],
      "name": "supportsInterface",
      "outputs": [
        {
          "internalType": "bool",
          "name": "",
          "type": "bool"
        }
      ],
      "stateMutability": "view",
      "type": "function"
    },
    {
      "inputs": [],
      "name": "symbol",
      "outputs": [
        {
          "internalType": "string",
          "name": "",
          "type": "string"
        }
      ],
      "stateMutability": "view",
      "type": "function"
    },
    {
      "inputs": [
        {
          "internalType": "uint256",
          "name": "index",
          "type": "uint256"
        }
      ],
      "name": "tokenByIndex",
      "outputs": [
        {
          "internalType": "uint256",
          "name": "",
          "type": "uint256"
        }
      ],
      "stateMutability": "view",
      "type": "function"
    },
    {
      "inputs": [
        {
          "internalType": "address",
          "name": "owner",
          "type": "address"
        },
        {
          "internalType": "uint256",
          "name": "index",
          "type": "uint256"
        }
      ],
      "name": "tokenOfOwnerByIndex",
      "outputs": [
        {
          "internalType": "uint256",
          "name": "",
          "type": "uint256"
        }
      ],
      "stateMutability": "view",
      "type": "function"
    },
    {
      "inputs": [
        {
          "internalType": "uint256",
          "name": "tokenId",
          "type": "uint256"
        }
      ],
      "name": "tokenURI",
      "outputs": [
        {
          "internalType": "string",
          "name": "",
          "type": "string"
        }
      ],
      "stateMutability": "view",
      "type": "function"
    },
    {
      "inputs": [],
      "name": "totalSupply",
      "outputs": [
        {
          "internalType": "uint256",
          "name": "",
          "type": "uint256"
        }
      ],
      "stateMutability": "view",
      "type": "function"
    },
    {
      "inputs": [
        {
          "internalType": "address",
          "name": "from",
          "type": "address"
        },
        {
          "internalType": "address",
          "name": "to",
          "type": "address"
        },
        {
          "internalType": "uint256",
          "name": "tokenId",
          "type": "uint256"
        }
      ],
      "name": "transferFrom",
      "outputs": [],
      "stateMutability": "nonpayable",
      "type": "function"
    },
    {
      "inputs": [
        {
          "internalType": "address",
          "name": "newOwner",
          "type": "address"
        }
      ],
      "name": "transferOwnership",
      "outputs": [],
      "stateMutability": "nonpayable",
      "type": "function"
    },
    {
      "inputs": [
        {
          "internalType": "uint256",
          "name": "_id",
          "type": "uint256"
        },
        {
          "internalType": "enum ProgressiveProject.Attribute",
          "name": "_attr",
          "type": "uint8"
        }
      ],
      "name": "grow",
      "outputs": [],
      "stateMutability": "nonpayable",
      "type": "function"
    },
    {
      "inputs": [
        {
          "internalType": "uint256",
          "name": "_id",
          "type": "uint256"
        }
      ],
      "name": "rest",
      "outputs": [],
      "stateMutability": "nonpayable",
      "type": "function"
    }
  ],
  "bytecode": "0x60806040526005600c60006101000a81548160ff021916908360ff1602179055506008600c60016101000a81548160ff021916908360ff1602179055506001600c60026101000a81548160ff021916908360ff1602179055506006600c60036101000a81548160ff021916908360ff160217905550600f600c60046101000a81548160ff021916908360ff1602179055503480156200009d57600080fd5b506040518060400160405280600681526020017f57334172747300000000000000000000000000000000000000000000000000008152506040518060400160405280600281526020017f3341000000000000000000000000000000000000000000000000000000000000815250620001226301ffc9a760e01b6200025560201b60201c565b81600690805190602001906200013a92919062000366565b5080600790805190602001906200015392919062000366565b506200016c6380ac58cd60e01b6200025560201b60201c565b62000184635b5e139f60e01b6200025560201b60201c565b6200019c63780e9d6360e01b6200025560201b60201c565b50506000620001b06200035e60201b60201c565b905080600a60006101000a81548173ffffffffffffffffffffffffffffffffffffffff021916908373ffffffffffffffffffffffffffffffffffffffff1602179055508073ffffffffffffffffffffffffffffffffffffffff16600073ffffffffffffffffffffffffffffffffffffffff167f8be0079c531659141344cd1fd0a4f28419497f9722a3daafe3b4186f6b6457e060405160405180910390a3506200040c565b63ffffffff60e01b817bffffffffffffffffffffffffffffffffffffffffffffffffffffffff19161415620002f2576040517f08c379a000000000000000000000000000000000000000000000000000000000815260040180806020018281038252601c8152602001807f4552433136353a20696e76616c696420696e746572666163652069640000000081525060200191505060405180910390fd5b6001600080837bffffffffffffffffffffffffffffffffffffffffffffffffffffffff19167bffffffffffffffffffffffffffffffffffffffffffffffffffffffff1916815260200190815260200160002060006101000a81548160ff02191690831515021790555050565b600033905090565b828054600181600116156101000203166002900490600052602060002090601f016020900481019282601f10620003a957805160ff1916838001178555620003da565b82800160010185558215620003da579182015b82811115620003d9578251825591602001919060010190620003bc565b5b509050620003e99190620003ed565b5090565b5b8082111562000408576000816000905550600101620003ee565b5090565b613f91806200041c6000396000f3fe608060405234801561001057600080fd5b50600436106101cf5760003560e01c80636e8eb22211610104578063ace53ce4116100a2578063e985e9c511610071578063e985e9c514610acf578063ed9a113814610b49578063f19ce39214610c9e578063f2fde38b14610cbf576101cf565b8063ace53ce4146108e1578063b88d4fde14610902578063c87b56dd14610a07578063dd3f055e14610aae576101cf565b8063811a6eae116100de578063811a6eae146107b95780638da5cb5b146107da57806395d89b411461080e578063a22cb46514610891576101cf565b80636e8eb2221461072957806370a0823114610757578063715018a6146107af576101cf565b806323b872dd116101715780634b2b7c0d1161014b5780634b2b7c0d146105eb5780634f6ccce71461060c5780636352211e1461064e5780636c0360eb146106a6576101cf565b806323b872dd146104ad5780632f745c591461051b57806342842e0e1461057d576101cf565b8063095ea7b3116101ad578063095ea7b314610312578063107046bd1461036057806316354d041461045457806318160ddd1461048f576101cf565b806301ffc9a7146101d457806306fdde0314610237578063081812fc146102ba575b600080fd5b61021f600480360360208110156101ea57600080fd5b8101908080357bffffffffffffffffffffffffffffffffffffffffffffffffffffffff19169060200190929190505050610d03565b60405180821515815260200191505060405180910390f35b61023f610d6a565b6040518080602001828103825283818151815260200191508051906020019080838360005b8381101561027f578082015181840152602081019050610264565b50505050905090810190601f1680156102ac5780820380516001836020036101000a031916815260200191505b509250505060405180910390f35b6102e6600480360360208110156102d057600080fd5b8101908080359060200190929190505050610e0c565b604051808273ffffffffffffffffffffffffffffffffffffffff16815260200191505060405180910390f35b61035e6004803603604081101561032857600080fd5b81019080803573ffffffffffffffffffffffffffffffffffffffff16906020019092919080359060200190929190505050610ea7565b005b61038c6004803603602081101561037657600080fd5b8101908080359060200190929190505050610feb565b604051808a8152602001806020018960ff1681526020018860ff1681526020018760ff1681526020018660ff1681526020018560ff1681526020018460ff1681526020018360ff16815260200182810382528a818151815260200191508051906020019080838360005b838110156104115780820151818401526020810190506103f6565b50505050905090810190601f16801561043e5780820380516001836020036101000a031916815260200191505b509a505050505050505050505060405180910390f35b61048d6004803603604081101561046a57600080fd5b8101908080359060200190929190803560ff169060200190929190505050611139565b005b610497611555565b6040518082815260200191505060405180910390f35b610519600480360360608110156104c357600080fd5b81019080803573ffffffffffffffffffffffffffffffffffffffff169060200190929190803573ffffffffffffffffffffffffffffffffffffffff16906020019092919080359060200190929190505050611566565b005b6105676004803603604081101561053157600080fd5b81019080803573ffffffffffffffffffffffffffffffffffffffff169060200190929190803590602001909291905050506115dc565b6040518082815260200191505060405180910390f35b6105e96004803603606081101561059357600080fd5b81019080803573ffffffffffffffffffffffffffffffffffffffff169060200190929190803573ffffffffffffffffffffffffffffffffffffffff16906020019092919080359060200190929190505050611637565b005b6105f3611657565b604051808260ff16815260200191505060405180910390f35b6106386004803603602081101561062257600080fd5b810190808035906020019092919050505061166a565b6040518082815260200191505060405180910390f35b61067a6004803603602081101561066457600080fd5b810190808035906020019092919050505061168d565b604051808273ffffffffffffffffffffffffffffffffffffffff16815260200191505060405180910390f35b6106ae6116c4565b6040518080602001828103825283818151815260200191508051906020019080838360005b838110156106ee5780820151818401526020810190506106d3565b50505050905090810190601f16801561071b5780820380516001836020036101000a031916815260200191505b509250505060405180910390f35b6107556004803603602081101561073f57600080fd5b8101908080359060200190929190505050611766565b005b6107996004803603602081101561076d57600080fd5b81019080803573ffffffffffffffffffffffffffffffffffffffff169060200190929190505050611912565b6040518082815260200191505060405180910390f35b6107b76119e7565b005b6107c1611b72565b604051808260ff16815260200191505060405180910390f35b6107e2611b85565b604051808273ffffffffffffffffffffffffffffffffffffffff16815260200191505060405180910390f35b610816611baf565b6040518080602001828103825283818151815260200191508051906020019080838360005b8381101561085657808201518184015260208101905061083b565b50505050905090810190601f1680156108835780820380516001836020036101000a031916815260200191505b509250505060405180910390f35b6108df600480360360408110156108a757600080fd5b81019080803573ffffffffffffffffffffffffffffffffffffffff169060200190929190803515159060200190929190505050611c51565b005b6108e9611e07565b604051808260ff16815260200191505060405180910390f35b610a056004803603608081101561091857600080fd5b81019080803573ffffffffffffffffffffffffffffffffffffffff169060200190929190803573ffffffffffffffffffffffffffffffffffffffff169060200190929190803590602001909291908035906020019064010000000081111561097f57600080fd5b82018360208201111561099157600080fd5b803590602001918460018302840111640100000000831117156109b357600080fd5b91908080601f016020809104026020016040519081016040528093929190818152602001838380828437600081840152601f19601f820116905080830192505050505050509192919290505050611e1a565b005b610a3360048036036020811015610a1d57600080fd5b8101908080359060200190929190505050611e92565b6040518080602001828103825283818151815260200191508051906020019080838360005b83811015610a73578082015181840152602081019050610a58565b50505050905090810190601f168015610aa05780820380516001836020036101000a031916815260200191505b509250505060405180910390f35b610ab661217b565b604051808260ff16815260200191505060405180910390f35b610b3160048036036040811015610ae557600080fd5b81019080803573ffffffffffffffffffffffffffffffffffffffff169060200190929190803573ffffffffffffffffffffffffffffffffffffffff16906020019092919050505061218e565b60405180821515815260200191505060405180910390f35b610c886004803603610140811015610b6057600080fd5b810190808035906020019092919080359060200190640100000000811115610b8757600080fd5b820183602082011115610b9957600080fd5b80359060200191846001830284011164010000000083111715610bbb57600080fd5b91908080601f016020809104026020016040519081016040528093929190818152602001838380828437600081840152601f19601f820116905080830192505050505050509192919290803560ff169060200190929190803560ff169060200190929190803560ff169060200190929190803560ff169060200190929190803560ff169060200190929190803560ff169060200190929190803560ff169060200190929190803573ffffffffffffffffffffffffffffffffffffffff169060200190929190505050612222565b6040518082815260200191505060405180910390f35b610ca66124a5565b604051808260ff16815260200191505060405180910390f35b610d0160048036036020811015610cd557600080fd5b81019080803573ffffffffffffffffffffffffffffffffffffffff1690602001909291905050506124b8565b005b6000806000837bffffffffffffffffffffffffffffffffffffffffffffffffffffffff19167bffffffffffffffffffffffffffffffffffffffffffffffffffffffff1916815260200190815260200160002060009054906101000a900460ff169050919050565b606060068054600181600116156101000203166002900480601f016020809104026020016040519081016040528092919081815260200182805460018160011615610100020316600290048015610e025780601f10610dd757610100808354040283529160200191610e02565b820191906000526020600020905b815481529060010190602001808311610de557829003601f168201915b5050505050905090565b6000610e17826126c8565b610e6c576040517f08c379a000000000000000000000000000000000000000000000000000000000815260040180806020018281038252602c815260200180613e63602c913960400191505060405180910390fd5b6004600083815260200190815260200160002060009054906101000a900473ffffffffffffffffffffffffffffffffffffffff169050919050565b6000610eb28261168d565b90508073ffffffffffffffffffffffffffffffffffffffff168373ffffffffffffffffffffffffffffffffffffffff161415610f39576040517f08c379a0000000000000000000000000000000000000000000000000000000008152600401808060200182810382526021815260200180613ee76021913960400191505060405180910390fd5b8073ffffffffffffffffffffffffffffffffffffffff16610f586126e5565b73ffffffffffffffffffffffffffffffffffffffff161480610f875750610f8681610f816126e5565b61218e565b5b610fdc576040517f08c379a0000000000000000000000000000000000000000000000000000000008152600401808060200182810382526038815260200180613db66038913960400191505060405180910390fd5b610fe683836126ed565b505050565b600b8181548110610ff857fe5b9060005260206000209060030201600091509050806000015490806001018054600181600116156101000203166002900480601f0160208091040260200160405190810160405280929190818152602001828054600181600116156101000203166002900480156110aa5780601f1061107f576101008083540402835291602001916110aa565b820191906000526020600020905b81548152906001019060200180831161108d57829003601f168201915b5050505050908060020160009054906101000a900460ff16908060020160019054906101000a900460ff16908060020160029054906101000a900460ff16908060020160039054906101000a900460ff16908060020160049054906101000a900460ff16908060020160059054906101000a900460ff16908060020160069054906101000a900460ff16905089565b3373ffffffffffffffffffffffffffffffffffffffff166111598361168d565b73ffffffffffffffffffffffffffffffffffffffff16146111c5576040517f08c379a0000000000000000000000000000000000000000000000000000000008152600401808060200182810382526023815260200180613f396023913960400191505060405180910390fd5b611209600b83815481106111d557fe5b906000526020600020906003020160020160029054906101000a900460ff16600c60009054906101000a900460ff166127a6565b600b838154811061121657fe5b906000526020600020906003020160020160026101000a81548160ff021916908360ff160217905550611276600b838154811061124f57fe5b906000526020600020906003020160000154600c60019054906101000a900460ff166127d1565b600b838154811061128357fe5b906000526020600020906003020160000181905550600060038111156112a557fe5b8160038111156112b157fe5b1415611336576112fb600b83815481106112c757fe5b906000526020600020906003020160020160039054906101000a900460ff16600c60029054906101000a900460ff166127f1565b600b838154811061130857fe5b906000526020600020906003020160020160036101000a81548160ff021916908360ff16021790555061150e565b6001600381111561134357fe5b81600381111561134f57fe5b14156113d457611399600b838154811061136557fe5b906000526020600020906003020160020160049054906101000a900460ff16600c60029054906101000a900460ff166127f1565b600b83815481106113a657fe5b906000526020600020906003020160020160046101000a81548160ff021916908360ff16021790555061150d565b600260038111156113e157fe5b8160038111156113ed57fe5b141561147257611437600b838154811061140357fe5b906000526020600020906003020160020160059054906101000a900460ff16600c60029054906101000a900460ff166127f1565b600b838154811061144457fe5b906000526020600020906003020160020160056101000a81548160ff021916908360ff16021790555061150c565b60038081111561147e57fe5b81600381111561148a57fe5b141561150b576114d4600b83815481106114a057fe5b906000526020600020906003020160020160069054906101000a900460ff16600c60029054906101000a900460ff166127f1565b600b83815481106114e157fe5b906000526020600020906003020160020160066101000a81548160ff021916908360ff1602179055505b5b5b5b817feeaaafec8320cd5943b8c412155edae16073cde48e70565d1ccd0f7755cb983d826040518082600381111561154157fe5b815260200191505060405180910390a25050565b6000611561600261281c565b905090565b6115776115716126e5565b82612831565b6115cc576040517f08c379a0000000000000000000000000000000000000000000000000000000008152600401808060200182810382526031815260200180613f086031913960400191505060405180910390fd5b6115d7838383612925565b505050565b600061162f82600160008673ffffffffffffffffffffffffffffffffffffffff1673ffffffffffffffffffffffffffffffffffffffff168152602001908152602001600020612b6890919063ffffffff16565b905092915050565b61165283838360405180602001604052806000815250611e1a565b505050565b600c60039054906101000a900460ff1681565b600080611681836002612b8290919063ffffffff16565b50905080915050919050565b60006116bd82604051806060016040528060298152602001613e18602991396002612bae9092919063ffffffff16565b9050919050565b606060098054600181600116156101000203166002900480601f01602080910402602001604051908101604052809291908181526020018280546001816001161561010002031660029004801561175c5780601f106117315761010080835404028352916020019161175c565b820191906000526020600020905b81548152906001019060200180831161173f57829003601f168201915b5050505050905090565b3373ffffffffffffffffffffffffffffffffffffffff166117868261168d565b73ffffffffffffffffffffffffffffffffffffffff161461180f576040517f08c379a00000000000000000000000000000000000000000000000000000000081526004018080602001828103825260208152602001807f4d757374206265206f776e6572206f662070726f6a65637420746f207265737481525060200191505060405180910390fd5b611846600b828154811061181f57fe5b906000526020600020906003020160000154600c60039054906101000a900460ff166127d1565b600b828154811061185357fe5b9060005260206000209060030201600001819055506118ac600b828154811061187857fe5b906000526020600020906003020160020160029054906101000a900460ff16600c60049054906101000a900460ff166127f1565b600b82815481106118b957fe5b906000526020600020906003020160020160026101000a81548160ff021916908360ff160217905550807f0594fec9b42ce38ee3c311c4bdd01add00de4138f3f35028275ed5ddcb0ccdf760405160405180910390a250565b60008073ffffffffffffffffffffffffffffffffffffffff168273ffffffffffffffffffffffffffffffffffffffff161415611999576040517f08c379a000000000000000000000000000000000000000000000000000000000815260040180806020018281038252602a815260200180613dee602a913960400191505060405180910390fd5b6119e0600160008473ffffffffffffffffffffffffffffffffffffffff1673ffffffffffffffffffffffffffffffffffffffff168152602001908152602001600020612bcd565b9050919050565b6119ef6126e5565b73ffffffffffffffffffffffffffffffffffffffff16600a60009054906101000a900473ffffffffffffffffffffffffffffffffffffffff1673ffffffffffffffffffffffffffffffffffffffff1614611ab1576040517f08c379a00000000000000000000000000000000000000000000000000000000081526004018080602001828103825260208152602001807f4f776e61626c653a2063616c6c6572206973206e6f7420746865206f776e657281525060200191505060405180910390fd5b600073ffffffffffffffffffffffffffffffffffffffff16600a60009054906101000a900473ffffffffffffffffffffffffffffffffffffffff1673ffffffffffffffffffffffffffffffffffffffff167f8be0079c531659141344cd1fd0a4f28419497f9722a3daafe3b4186f6b6457e060405160405180910390a36000600a60006101000a81548173ffffffffffffffffffffffffffffffffffffffff021916908373ffffffffffffffffffffffffffffffffffffffff160217905550565b600c60019054906101000a900460ff1681565b6000600a60009054906101000a900473ffffffffffffffffffffffffffffffffffffffff16905090565b606060078054600181600116156101000203166002900480601f016020809104026020016040519081016040528092919081815260200182805460018160011615610100020316600290048015611c475780601f10611c1c57610100808354040283529160200191611c47565b820191906000526020600020905b815481529060010190602001808311611c2a57829003601f168201915b5050505050905090565b611c596126e5565b73ffffffffffffffffffffffffffffffffffffffff168273ffffffffffffffffffffffffffffffffffffffff161415611cfa576040517f08c379a00000000000000000000000000000000000000000000000000000000081526004018080602001828103825260198152602001807f4552433732313a20617070726f766520746f2063616c6c65720000000000000081525060200191505060405180910390fd5b8060056000611d076126e5565b73ffffffffffffffffffffffffffffffffffffffff1673ffffffffffffffffffffffffffffffffffffffff16815260200190815260200160002060008473ffffffffffffffffffffffffffffffffffffffff1673ffffffffffffffffffffffffffffffffffffffff16815260200190815260200160002060006101000a81548160ff0219169083151502179055508173ffffffffffffffffffffffffffffffffffffffff16611db46126e5565b73ffffffffffffffffffffffffffffffffffffffff167f17307eab39ab6107e8899845ad3d59bd9653f200f220920489ca2b5937696c318360405180821515815260200191505060405180910390a35050565b600c60049054906101000a900460ff1681565b611e2b611e256126e5565b83612831565b611e80576040517f08c379a0000000000000000000000000000000000000000000000000000000008152600401808060200182810382526031815260200180613f086031913960400191505060405180910390fd5b611e8c84848484612be2565b50505050565b6060611e9d826126c8565b611ef2576040517f08c379a000000000000000000000000000000000000000000000000000000000815260040180806020018281038252602f815260200180613eb8602f913960400191505060405180910390fd5b6060600860008481526020019081526020016000208054600181600116156101000203166002900480601f016020809104026020016040519081016040528092919081815260200182805460018160011615610100020316600290048015611f9b5780601f10611f7057610100808354040283529160200191611f9b565b820191906000526020600020905b815481529060010190602001808311611f7e57829003601f168201915b50505050509050600060098054600181600116156101000203166002900490501415611fca5780915050612176565b6000815111156120a35760098160405160200180838054600181600116156101000203166002900480156120355780601f10612013576101008083540402835291820191612035565b820191906000526020600020905b815481529060010190602001808311612021575b505082805190602001908083835b602083106120665780518252602082019150602081019050602083039250612043565b6001836020036101000a03801982511681845116808217855250505050505090500192505050604051602081830303815290604052915050612176565b60096120ae84612c54565b604051602001808380546001816001161561010002031660029004801561210c5780601f106120ea57610100808354040283529182019161210c565b820191906000526020600020905b8154815290600101906020018083116120f8575b505082805190602001908083835b6020831061213d578051825260208201915060208101905060208303925061211a565b6001836020036101000a038019825116818451168082178552505050505050905001925050506040516020818303038152906040529150505b919050565b600c60029054906101000a900460ff1681565b6000600560008473ffffffffffffffffffffffffffffffffffffffff1673ffffffffffffffffffffffffffffffffffffffff16815260200190815260200160002060008373ffffffffffffffffffffffffffffffffffffffff1673ffffffffffffffffffffffffffffffffffffffff16815260200190815260200160002060009054906101000a900460ff16905092915050565b600061222c6126e5565b73ffffffffffffffffffffffffffffffffffffffff16600a60009054906101000a900473ffffffffffffffffffffffffffffffffffffffff1673ffffffffffffffffffffffffffffffffffffffff16146122ee576040517f08c379a00000000000000000000000000000000000000000000000000000000081526004018080602001828103825260208152602001807f4f776e61626c653a2063616c6c6572206973206e6f7420746865206f776e657281525060200191505060405180910390fd5b6000600b805490509050600b6040518061012001604052808e81526020018d81526020018c60ff1681526020018b60ff1681526020018a60ff1681526020018960ff1681526020018860ff1681526020018760ff1681526020018660ff16815250908060018154018082558091505060019003906000526020600020906003020160009091909190915060008201518160000155602082015181600101908051906020019061239e929190613c03565b5060408201518160020160006101000a81548160ff021916908360ff16021790555060608201518160020160016101000a81548160ff021916908360ff16021790555060808201518160020160026101000a81548160ff021916908360ff16021790555060a08201518160020160036101000a81548160ff021916908360ff16021790555060c08201518160020160046101000a81548160ff021916908360ff16021790555060e08201518160020160056101000a81548160ff021916908360ff1602179055506101008201518160020160066101000a81548160ff021916908360ff16021790555050506124938382612d9b565b809150509a9950505050505050505050565b600c60009054906101000a900460ff1681565b6124c06126e5565b73ffffffffffffffffffffffffffffffffffffffff16600a60009054906101000a900473ffffffffffffffffffffffffffffffffffffffff1673ffffffffffffffffffffffffffffffffffffffff1614612582576040517f08c379a00000000000000000000000000000000000000000000000000000000081526004018080602001828103825260208152602001807f4f776e61626c653a2063616c6c6572206973206e6f7420746865206f776e657281525060200191505060405180910390fd5b600073ffffffffffffffffffffffffffffffffffffffff168173ffffffffffffffffffffffffffffffffffffffff161415612608576040517f08c379a0000000000000000000000000000000000000000000000000000000008152600401808060200182810382526026815260200180613cf56026913960400191505060405180910390fd5b8073ffffffffffffffffffffffffffffffffffffffff16600a60009054906101000a900473ffffffffffffffffffffffffffffffffffffffff1673ffffffffffffffffffffffffffffffffffffffff167f8be0079c531659141344cd1fd0a4f28419497f9722a3daafe3b4186f6b6457e060405160405180910390a380600a60006101000a81548173ffffffffffffffffffffffffffffffffffffffff021916908373ffffffffffffffffffffffffffffffffffffffff16021790555050565b60006126de826002612db990919063ffffffff16565b9050919050565b600033905090565b816004600083815260200190815260200160002060006101000a81548173ffffffffffffffffffffffffffffffffffffffff021916908373ffffffffffffffffffffffffffffffffffffffff160217905550808273ffffffffffffffffffffffffffffffffffffffff166127608361168d565b73ffffffffffffffffffffffffffffffffffffffff167f8c5be1e5ebec7d5bd14f71427d1e84f3dd0314c0f7b2291e5b200ac8c7c3b92560405160405180910390a45050565b60006127c96127c48360ff168560ff16612dd390919063ffffffff16565b612e1d565b905092915050565b60006127e98260ff1684612dd390919063ffffffff16565b905092915050565b600061281461280f8360ff168560ff16612e8190919063ffffffff16565b612e1d565b905092915050565b600061282a82600001612f09565b9050919050565b600061283c826126c8565b612891576040517f08c379a000000000000000000000000000000000000000000000000000000000815260040180806020018281038252602c815260200180613d8a602c913960400191505060405180910390fd5b600061289c8361168d565b90508073ffffffffffffffffffffffffffffffffffffffff168473ffffffffffffffffffffffffffffffffffffffff16148061290b57508373ffffffffffffffffffffffffffffffffffffffff166128f384610e0c565b73ffffffffffffffffffffffffffffffffffffffff16145b8061291c575061291b818561218e565b5b91505092915050565b8273ffffffffffffffffffffffffffffffffffffffff166129458261168d565b73ffffffffffffffffffffffffffffffffffffffff16146129b1576040517f08c379a0000000000000000000000000000000000000000000000000000000008152600401808060200182810382526029815260200180613e8f6029913960400191505060405180910390fd5b600073ffffffffffffffffffffffffffffffffffffffff168273ffffffffffffffffffffffffffffffffffffffff161415612a37576040517f08c379a0000000000000000000000000000000000000000000000000000000008152600401808060200182810382526024815260200180613d406024913960400191505060405180910390fd5b612a42838383612f1a565b612a4d6000826126ed565b612a9e81600160008673ffffffffffffffffffffffffffffffffffffffff1673ffffffffffffffffffffffffffffffffffffffff168152602001908152602001600020612f1f90919063ffffffff16565b50612af081600160008573ffffffffffffffffffffffffffffffffffffffff1673ffffffffffffffffffffffffffffffffffffffff168152602001908152602001600020612f3990919063ffffffff16565b50612b0781836002612f539092919063ffffffff16565b50808273ffffffffffffffffffffffffffffffffffffffff168473ffffffffffffffffffffffffffffffffffffffff167fddf252ad1be2c89b69c2b068fc378daa952ba7f163c4a11628f55a4df523b3ef60405160405180910390a4505050565b6000612b778360000183612f88565b60001c905092915050565b600080600080612b95866000018661300b565b915091508160001c8160001c9350935050509250929050565b6000612bc1846000018460001b846130a4565b60001c90509392505050565b6000612bdb8260000161319a565b9050919050565b612bed848484612925565b612bf9848484846131ab565b612c4e576040517f08c379a0000000000000000000000000000000000000000000000000000000008152600401808060200182810382526032815260200180613cc36032913960400191505060405180910390fd5b50505050565b60606000821415612c9c576040518060400160405280600181526020017f30000000000000000000000000000000000000000000000000000000000000008152509050612d96565b600082905060005b60008214612cc6578080600101915050600a8281612cbe57fe5b049150612ca4565b60608167ffffffffffffffff81118015612cdf57600080fd5b506040519080825280601f01601f191660200182016040528015612d125781602001600182028036833780820191505090505b50905060006001830390508593505b60008414612d8e57600a8481612d3357fe5b0660300160f81b82828060019003935081518110612d4d57fe5b60200101907effffffffffffffffffffffffffffffffffffffffffffffffffffffffffffff1916908160001a905350600a8481612d8657fe5b049350612d21565b819450505050505b919050565b612db58282604051806020016040528060008152506133c4565b5050565b6000612dcb836000018360001b613435565b905092915050565b6000612e1583836040518060400160405280601e81526020017f536166654d6174683a207375627472616374696f6e206f766572666c6f770000815250613458565b905092915050565b60006101008210612e79576040517f08c379a0000000000000000000000000000000000000000000000000000000008152600401808060200182810382526025815260200180613d1b6025913960400191505060405180910390fd5b819050919050565b600080828401905083811015612eff576040517f08c379a000000000000000000000000000000000000000000000000000000000815260040180806020018281038252601b8152602001807f536166654d6174683a206164646974696f6e206f766572666c6f77000000000081525060200191505060405180910390fd5b8091505092915050565b600081600001805490509050919050565b505050565b6000612f31836000018360001b613518565b905092915050565b6000612f4b836000018360001b613600565b905092915050565b6000612f7f846000018460001b8473ffffffffffffffffffffffffffffffffffffffff1660001b613670565b90509392505050565b600081836000018054905011612fe9576040517f08c379a0000000000000000000000000000000000000000000000000000000008152600401808060200182810382526022815260200180613ca16022913960400191505060405180910390fd5b826000018281548110612ff857fe5b9060005260206000200154905092915050565b6000808284600001805490501161306d576040517f08c379a0000000000000000000000000000000000000000000000000000000008152600401808060200182810382526022815260200180613e416022913960400191505060405180910390fd5b600084600001848154811061307e57fe5b906000526020600020906002020190508060000154816001015492509250509250929050565b6000808460010160008581526020019081526020016000205490506000811415839061316b576040517f08c379a00000000000000000000000000000000000000000000000000000000081526004018080602001828103825283818151815260200191508051906020019080838360005b83811015613130578082015181840152602081019050613115565b50505050905090810190601f16801561315d5780820380516001836020036101000a031916815260200191505b509250505060405180910390fd5b5084600001600182038154811061317e57fe5b9060005260206000209060020201600101549150509392505050565b600081600001805490509050919050565b60006131cc8473ffffffffffffffffffffffffffffffffffffffff1661374c565b6131d957600190506133bc565b606061334363150b7a0260e01b6131ee6126e5565b888787604051602401808573ffffffffffffffffffffffffffffffffffffffff1681526020018473ffffffffffffffffffffffffffffffffffffffff16815260200183815260200180602001828103825283818151815260200191508051906020019080838360005b83811015613272578082015181840152602081019050613257565b50505050905090810190601f16801561329f5780820380516001836020036101000a031916815260200191505b5095505050505050604051602081830303815290604052907bffffffffffffffffffffffffffffffffffffffffffffffffffffffff19166020820180517bffffffffffffffffffffffffffffffffffffffffffffffffffffffff8381831617835250505050604051806060016040528060328152602001613cc3603291398773ffffffffffffffffffffffffffffffffffffffff1661375f9092919063ffffffff16565b9050600081806020019051602081101561335c57600080fd5b8101908080519060200190929190505050905063150b7a0260e01b7bffffffffffffffffffffffffffffffffffffffffffffffffffffffff1916817bffffffffffffffffffffffffffffffffffffffffffffffffffffffff191614925050505b949350505050565b6133ce8383613777565b6133db60008484846131ab565b613430576040517f08c379a0000000000000000000000000000000000000000000000000000000008152600401808060200182810382526032815260200180613cc36032913960400191505060405180910390fd5b505050565b600080836001016000848152602001908152602001600020541415905092915050565b6000838311158290613505576040517f08c379a00000000000000000000000000000000000000000000000000000000081526004018080602001828103825283818151815260200191508051906020019080838360005b838110156134ca5780820151818401526020810190506134af565b50505050905090810190601f1680156134f75780820380516001836020036101000a031916815260200191505b509250505060405180910390fd5b5060008385039050809150509392505050565b600080836001016000848152602001908152602001600020549050600081146135f4576000600182039050600060018660000180549050039050600086600001828154811061356357fe5b906000526020600020015490508087600001848154811061358057fe5b90600052602060002001819055506001830187600101600083815260200190815260200160002081905550866000018054806135b857fe5b600190038181906000526020600020016000905590558660010160008781526020019081526020016000206000905560019450505050506135fa565b60009150505b92915050565b600061360c838361396b565b61366557826000018290806001815401808255809150506001900390600052602060002001600090919091909150558260000180549050836001016000848152602001908152602001600020819055506001905061366a565b600090505b92915050565b600080846001016000858152602001908152602001600020549050600081141561371757846000016040518060400160405280868152602001858152509080600181540180825580915050600190039060005260206000209060020201600090919091909150600082015181600001556020820151816001015550508460000180549050856001016000868152602001908152602001600020819055506001915050613745565b8285600001600183038154811061372a57fe5b90600052602060002090600202016001018190555060009150505b9392505050565b600080823b905060008111915050919050565b606061376e848460008561398e565b90509392505050565b600073ffffffffffffffffffffffffffffffffffffffff168273ffffffffffffffffffffffffffffffffffffffff16141561381a576040517f08c379a00000000000000000000000000000000000000000000000000000000081526004018080602001828103825260208152602001807f4552433732313a206d696e7420746f20746865207a65726f206164647265737381525060200191505060405180910390fd5b613823816126c8565b15613896576040517f08c379a000000000000000000000000000000000000000000000000000000000815260040180806020018281038252601c8152602001807f4552433732313a20746f6b656e20616c7265616479206d696e7465640000000081525060200191505060405180910390fd5b6138a260008383612f1a565b6138f381600160008573ffffffffffffffffffffffffffffffffffffffff1673ffffffffffffffffffffffffffffffffffffffff168152602001908152602001600020612f3990919063ffffffff16565b5061390a81836002612f539092919063ffffffff16565b50808273ffffffffffffffffffffffffffffffffffffffff16600073ffffffffffffffffffffffffffffffffffffffff167fddf252ad1be2c89b69c2b068fc378daa952ba7f163c4a11628f55a4df523b3ef60405160405180910390a45050565b600080836001016000848152602001908152602001600020541415905092915050565b6060824710156139e9576040517f08c379a0000000000000000000000000000000000000000000000000000000008152600401808060200182810382526026815260200180613d646026913960400191505060405180910390fd5b6139f28561374c565b613a64576040517f08c379a000000000000000000000000000000000000000000000000000000000815260040180806020018281038252601d8152602001807f416464726573733a2063616c6c20746f206e6f6e2d636f6e747261637400000081525060200191505060405180910390fd5b600060608673ffffffffffffffffffffffffffffffffffffffff1685876040518082805190602001908083835b60208310613ab45780518252602082019150602081019050602083039250613a91565b6001836020036101000a03801982511681845116808217855250505050505090500191505060006040518083038185875af1925050503d8060008114613b16576040519150601f19603f3d011682016040523d82523d6000602084013e613b1b565b606091505b5091509150613b2b828286613b37565b92505050949350505050565b60608315613b4757829050613bfc565b600083511115613b5a5782518084602001fd5b816040517f08c379a00000000000000000000000000000000000000000000000000000000081526004018080602001828103825283818151815260200191508051906020019080838360005b83811015613bc1578082015181840152602081019050613ba6565b50505050905090810190601f168015613bee5780820380516001836020036101000a031916815260200191505b509250505060405180910390fd5b9392505050565b828054600181600116156101000203166002900490600052602060002090601f016020900481019282601f10613c4457805160ff1916838001178555613c72565b82800160010185558215613c72579182015b82811115613c71578251825591602001919060010190613c56565b5b509050613c7f9190613c83565b5090565b5b80821115613c9c576000816000905550600101613c84565b509056fe456e756d657261626c655365743a20696e646578206f7574206f6620626f756e64734552433732313a207472616e7366657220746f206e6f6e20455243373231526563656976657220696d706c656d656e7465724f776e61626c653a206e6577206f776e657220697320746865207a65726f206164647265737353616665436173743a2076616c756520646f65736e27742066697420696e203820626974734552433732313a207472616e7366657220746f20746865207a65726f2061646472657373416464726573733a20696e73756666696369656e742062616c616e636520666f722063616c6c4552433732313a206f70657261746f7220717565727920666f72206e6f6e6578697374656e7420746f6b656e4552433732313a20617070726f76652063616c6c6572206973206e6f74206f776e6572206e6f7220617070726f76656420666f7220616c6c4552433732313a2062616c616e636520717565727920666f7220746865207a65726f20616464726573734552433732313a206f776e657220717565727920666f72206e6f6e6578697374656e7420746f6b656e456e756d657261626c654d61703a20696e646578206f7574206f6620626f756e64734552433732313a20617070726f76656420717565727920666f72206e6f6e6578697374656e7420746f6b656e4552433732313a207472616e73666572206f6620746f6b656e2074686174206973206e6f74206f776e4552433732314d657461646174613a2055524920717565727920666f72206e6f6e6578697374656e7420746f6b656e4552433732313a20617070726f76616c20746f2063757272656e74206f776e65724552433732313a207472616e736665722063616c6c6572206973206e6f74206f776e6572206e6f7220617070726f7665644d757374206265206f776e6572206f662070726f6a65637420746f2067726f77206974a264697066735822122080e415020da558119a3a6fc810db4cc3dcb9a6a6f3125361b4128dc9ce00aa8364736f6c634300060c0033",
  "immutableReferences": {},
  "source": "// SPDX-License-Identifier: MIT\npragma solidity >=0.5.0 <0.8.0;\n\nimport \"./ArtProjectBase.sol\";\n\ncontract ProgressiveProject is ArtProjectBase {\n    //Grow costs and gains\n    uint8 public stateCostToGrow = 5;\n    uint8 public lifecycleCostToGrow = 8;\n    uint8 public attributeGainOnGrow = 1;\n    //Rest costs and gains\n    uint8 public lifecycleCostToRest = 6;\n    uint8 public stateGainOnRest = 15;\n\n    enum Attribute { technique, aesthetics, usage, popularity }\n\n    event Grow(uint indexed playerId, Attribute attribute);\n    event Rest(uint indexed playerId);\n\n    //Grow a project increasing an attribute\n    function grow(uint _id, Attribute _attr) public{\n        //Only the owner of the project can grow***\n        require(ownerOf(_id) == msg.sender, \"Must be owner of project to grow it\");\n\n        //The project must be fit enough to grow\n        projects[_id].state = castSubstract8(projects[_id].state, stateCostToGrow);\n        //Must have enough lifecycle\n        projects[_id].lifecycle = castSubstract256(projects[_id].lifecycle, lifecycleCostToGrow);\n\n        // Increase the chosen attribute\n        if (_attr == Attribute.technique) {\n            projects[_id].technique = castAdd8(projects[_id].technique, attributeGainOnGrow);\n        }else if (_attr == Attribute.aesthetics){\n            projects[_id].aesthetics = castAdd8(projects[_id].aesthetics, attributeGainOnGrow);\n        }else if (_attr == Attribute.usage){\n            projects[_id].usage = castAdd8(projects[_id].usage, attributeGainOnGrow);\n        }else if (_attr == Attribute.popularity){\n            projects[_id].popularity = castAdd8(projects[_id].popularity, attributeGainOnGrow);\n        }\n        emit Grow(_id, _attr);\n    }\n\n    //Rest project, increasing state\n    function rest(uint _id) public{\n        //Only the owner of the project can rest\n        require(ownerOf(_id) == msg.sender, \"Must be owner of project to rest\");\n\n        //Must have enough lifecycle\n        projects[_id].lifecycle = castSubstract256(projects[_id].lifecycle, lifecycleCostToRest);\n        projects[_id].state = castAdd8(projects[_id].state, stateGainOnRest);\n\n        emit Rest(_id);\n    }\n}",
  "sourcePath": "/Applications/Ampps/www/W3irds/artwork/src/contracts/ProgressiveProject.sol",
  "compiler": {
    "name": "solc",
    "version": "0.6.12+commit.27d51765.Emscripten.clang"
  },
  "schemaVersion": "3.3.3",
  "updatedAt": "2021-01-03T12:20:12.542Z",
  "networkType": "ethereum",
  "devdoc": {
    "kind": "dev",
    "methods": {
      "approve(address,uint256)": {
        "details": "See {IERC721-approve}."
      },
      "balanceOf(address)": {
        "details": "See {IERC721-balanceOf}."
      },
      "baseURI()": {
        "details": "Returns the base URI set via {_setBaseURI}. This will be automatically added as a prefix in {tokenURI} to each token's URI, or to the token ID if no specific URI is set for that token ID."
      },
      "getApproved(uint256)": {
        "details": "See {IERC721-getApproved}."
      },
      "isApprovedForAll(address,address)": {
        "details": "See {IERC721-isApprovedForAll}."
      },
      "name()": {
        "details": "See {IERC721Metadata-name}."
      },
      "owner()": {
        "details": "Returns the address of the current owner."
      },
      "ownerOf(uint256)": {
        "details": "See {IERC721-ownerOf}."
      },
      "renounceOwnership()": {
        "details": "Leaves the contract without owner. It will not be possible to call `onlyOwner` functions anymore. Can only be called by the current owner. NOTE: Renouncing ownership will leave the contract without an owner, thereby removing any functionality that is only available to the owner."
      },
      "safeTransferFrom(address,address,uint256)": {
        "details": "See {IERC721-safeTransferFrom}."
      },
      "safeTransferFrom(address,address,uint256,bytes)": {
        "details": "See {IERC721-safeTransferFrom}."
      },
      "setApprovalForAll(address,bool)": {
        "details": "See {IERC721-setApprovalForAll}."
      },
      "supportsInterface(bytes4)": {
        "details": "See {IERC165-supportsInterface}. Time complexity O(1), guaranteed to always use less than 30 000 gas."
      },
      "symbol()": {
        "details": "See {IERC721Metadata-symbol}."
      },
      "tokenByIndex(uint256)": {
        "details": "See {IERC721Enumerable-tokenByIndex}."
      },
      "tokenOfOwnerByIndex(address,uint256)": {
        "details": "See {IERC721Enumerable-tokenOfOwnerByIndex}."
      },
      "tokenURI(uint256)": {
        "details": "See {IERC721Metadata-tokenURI}."
      },
      "totalSupply()": {
        "details": "See {IERC721Enumerable-totalSupply}."
      },
      "transferFrom(address,address,uint256)": {
        "details": "See {IERC721-transferFrom}."
      },
      "transferOwnership(address)": {
        "details": "Transfers ownership of the contract to a new account (`newOwner`). Can only be called by the current owner."
      }
    },
    "version": 1
  },
  "userdoc": {
    "kind": "user",
    "methods": {},
    "version": 1
  }
}