{
  "contractName": "W3irds",
  "abi": [
    {
      "anonymous": false,
      "inputs": [
        {
          "indexed": true,
          "internalType": "address",
          "name": "previousOwner",
          "type": "address"
        },
        {
          "indexed": true,
          "internalType": "address",
          "name": "newOwner",
          "type": "address"
        }
      ],
      "name": "OwnershipTransferred",
      "type": "event"
    },
    {
      "anonymous": false,
      "inputs": [
        {
          "indexed": false,
          "internalType": "uint256",
          "name": "id",
          "type": "uint256"
        },
        {
          "indexed": false,
          "internalType": "string",
          "name": "ipfshash",
          "type": "string"
        },
        {
          "indexed": false,
          "internalType": "address payable",
          "name": "creator",
          "type": "address"
        },
        {
          "indexed": false,
          "internalType": "address payable",
          "name": "keeper",
          "type": "address"
        },
        {
          "indexed": false,
          "internalType": "uint256",
          "name": "price",
          "type": "uint256"
        },
        {
          "indexed": false,
          "internalType": "bool",
          "name": "purchased",
          "type": "bool"
        }
      ],
      "name": "ProjectCreated",
      "type": "event"
    },
    {
      "anonymous": false,
      "inputs": [
        {
          "indexed": false,
          "internalType": "uint256",
          "name": "id",
          "type": "uint256"
        },
        {
          "indexed": false,
          "internalType": "string",
          "name": "ipfshahs",
          "type": "string"
        },
        {
          "indexed": false,
          "internalType": "address payable",
          "name": "creator",
          "type": "address"
        },
        {
          "indexed": false,
          "internalType": "address payable",
          "name": "keeper",
          "type": "address"
        },
        {
          "indexed": false,
          "internalType": "uint256",
          "name": "price",
          "type": "uint256"
        },
        {
          "indexed": false,
          "internalType": "bool",
          "name": "purchased",
          "type": "bool"
        }
      ],
      "name": "ProjectKeeperChanged",
      "type": "event"
    },
    {
      "inputs": [],
      "name": "owner",
      "outputs": [
        {
          "internalType": "address",
          "name": "",
          "type": "address"
        }
      ],
      "stateMutability": "view",
      "type": "function"
    },
    {
      "inputs": [],
      "name": "projectCount",
      "outputs": [
        {
          "internalType": "uint256",
          "name": "",
          "type": "uint256"
        }
      ],
      "stateMutability": "view",
      "type": "function"
    },
    {
      "inputs": [
        {
          "internalType": "uint256",
          "name": "",
          "type": "uint256"
        }
      ],
      "name": "projects",
      "outputs": [
        {
          "internalType": "uint256",
          "name": "id",
          "type": "uint256"
        },
        {
          "internalType": "string",
          "name": "ipfshash",
          "type": "string"
        },
        {
          "internalType": "address payable",
          "name": "creator",
          "type": "address"
        },
        {
          "internalType": "address payable",
          "name": "keeper",
          "type": "address"
        },
        {
          "internalType": "uint256",
          "name": "price",
          "type": "uint256"
        },
        {
          "internalType": "bool",
          "name": "purchased",
          "type": "bool"
        }
      ],
      "stateMutability": "view",
      "type": "function"
    },
    {
      "inputs": [],
      "name": "renounceOwnership",
      "outputs": [],
      "stateMutability": "nonpayable",
      "type": "function"
    },
    {
      "inputs": [
        {
          "internalType": "address",
          "name": "newOwner",
          "type": "address"
        }
      ],
      "name": "transferOwnership",
      "outputs": [],
      "stateMutability": "nonpayable",
      "type": "function"
    },
    {
      "inputs": [
        {
          "internalType": "string",
          "name": "_ipfshash",
          "type": "string"
        },
        {
          "internalType": "uint256",
          "name": "price",
          "type": "uint256"
        }
      ],
      "name": "newProject",
      "outputs": [
        {
          "internalType": "uint256",
          "name": "",
          "type": "uint256"
        }
      ],
      "stateMutability": "nonpayable",
      "type": "function"
    },
    {
      "inputs": [
        {
          "internalType": "uint256",
          "name": "_id",
          "type": "uint256"
        }
      ],
      "name": "purchaseProject",
      "outputs": [],
      "stateMutability": "payable",
      "type": "function"
    }
  ],
  "bytecode": "0x6080604052600060025534801561001557600080fd5b5060006100266100c960201b60201c565b9050806000806101000a81548173ffffffffffffffffffffffffffffffffffffffff021916908373ffffffffffffffffffffffffffffffffffffffff1602179055508073ffffffffffffffffffffffffffffffffffffffff16600073ffffffffffffffffffffffffffffffffffffffff167f8be0079c531659141344cd1fd0a4f28419497f9722a3daafe3b4186f6b6457e060405160405180910390a3506100d1565b600033905090565b61109b806100e06000396000f3fe6080604052600436106100705760003560e01c80638da5cb5b1161004e5780638da5cb5b146101bc578063be20ffa6146101fd578063d2b527fe146102e3578063f2fde38b1461031157610070565b8063107046bd1461007557806336fbad261461017a578063715018a6146101a5575b600080fd5b34801561008157600080fd5b506100ae6004803603602081101561009857600080fd5b8101908080359060200190929190505050610362565b60405180878152602001806020018673ffffffffffffffffffffffffffffffffffffffff1681526020018573ffffffffffffffffffffffffffffffffffffffff1681526020018481526020018315158152602001828103825287818151815260200191508051906020019080838360005b8381101561013a57808201518184015260208101905061011f565b50505050905090810190601f1680156101675780820380516001836020036101000a031916815260200191505b5097505050505050505060405180910390f35b34801561018657600080fd5b5061018f610493565b6040518082815260200191505060405180910390f35b3480156101b157600080fd5b506101ba610499565b005b3480156101c857600080fd5b506101d161061f565b604051808273ffffffffffffffffffffffffffffffffffffffff16815260200191505060405180910390f35b34801561020957600080fd5b506102cd6004803603604081101561022057600080fd5b810190808035906020019064010000000081111561023d57600080fd5b82018360208201111561024f57600080fd5b8035906020019184600183028401116401000000008311171561027157600080fd5b91908080601f016020809104026020016040519081016040528093929190818152602001838380828437600081840152601f19601f82011690508083019250505050505050919291929080359060200190929190505050610648565b6040518082815260200191505060405180910390f35b61030f600480360360208110156102f957600080fd5b81019080803590602001909291905050506108c1565b005b34801561031d57600080fd5b506103606004803603602081101561033457600080fd5b81019080803573ffffffffffffffffffffffffffffffffffffffff169060200190929190505050610d81565b005b6001818154811061037257600080fd5b9060005260206000209060060201600091509050806000015490806001018054600181600116156101000203166002900480601f0160208091040260200160405190810160405280929190818152602001828054600181600116156101000203166002900480156104245780601f106103f957610100808354040283529160200191610424565b820191906000526020600020905b81548152906001019060200180831161040757829003601f168201915b5050505050908060020160009054906101000a900473ffffffffffffffffffffffffffffffffffffffff16908060030160009054906101000a900473ffffffffffffffffffffffffffffffffffffffff16908060040154908060050160009054906101000a900460ff16905086565b60025481565b6104a1610f8c565b73ffffffffffffffffffffffffffffffffffffffff1660008054906101000a900473ffffffffffffffffffffffffffffffffffffffff1673ffffffffffffffffffffffffffffffffffffffff1614610561576040517f08c379a00000000000000000000000000000000000000000000000000000000081526004018080602001828103825260208152602001807f4f776e61626c653a2063616c6c6572206973206e6f7420746865206f776e657281525060200191505060405180910390fd5b600073ffffffffffffffffffffffffffffffffffffffff1660008054906101000a900473ffffffffffffffffffffffffffffffffffffffff1673ffffffffffffffffffffffffffffffffffffffff167f8be0079c531659141344cd1fd0a4f28419497f9722a3daafe3b4186f6b6457e060405160405180910390a360008060006101000a81548173ffffffffffffffffffffffffffffffffffffffff021916908373ffffffffffffffffffffffffffffffffffffffff160217905550565b60008060009054906101000a900473ffffffffffffffffffffffffffffffffffffffff16905090565b600060026000815480929190600101919050555060016040518060c0016040528060025481526020018581526020013373ffffffffffffffffffffffffffffffffffffffff1681526020013373ffffffffffffffffffffffffffffffffffffffff16815260200184815260200160001515815250908060018154018082558091505060019003906000526020600020906006020160009091909190915060008201518160000155602082015181600101908051906020019061070b929190610f94565b5060408201518160020160006101000a81548173ffffffffffffffffffffffffffffffffffffffff021916908373ffffffffffffffffffffffffffffffffffffffff16021790555060608201518160030160006101000a81548173ffffffffffffffffffffffffffffffffffffffff021916908373ffffffffffffffffffffffffffffffffffffffff1602179055506080820151816004015560a08201518160050160006101000a81548160ff02191690831515021790555050507fd261ab505cf2847d5d0c90e5cd8f189c7bb6915549c13f619f43dae3e880686760025484333386600060405180878152602001806020018673ffffffffffffffffffffffffffffffffffffffff1681526020018573ffffffffffffffffffffffffffffffffffffffff1681526020018481526020018315158152602001828103825287818151815260200191508051906020019080838360005b8381101561087c578082015181840152602081019050610861565b50505050905090810190601f1680156108a95780820380516001836020036101000a031916815260200191505b5097505050505050505060405180910390a192915050565b6000600182815481106108d057fe5b90600052602060002090600602016040518060c001604052908160008201548152602001600182018054600181600116156101000203166002900480601f01602080910402602001604051908101604052809291908181526020018280546001816001161561010002031660029004801561098c5780601f106109615761010080835404028352916020019161098c565b820191906000526020600020905b81548152906001019060200180831161096f57829003601f168201915b505050505081526020016002820160009054906101000a900473ffffffffffffffffffffffffffffffffffffffff1673ffffffffffffffffffffffffffffffffffffffff1673ffffffffffffffffffffffffffffffffffffffff1681526020016003820160009054906101000a900473ffffffffffffffffffffffffffffffffffffffff1673ffffffffffffffffffffffffffffffffffffffff1673ffffffffffffffffffffffffffffffffffffffff168152602001600482015481526020016005820160009054906101000a900460ff161515151581525050905060008160600151905060008260000151118015610a8b5750600254826000015111155b610a9457600080fd5b8160800151341015610aa557600080fd5b8160a0015115610ab457600080fd5b3373ffffffffffffffffffffffffffffffffffffffff168173ffffffffffffffffffffffffffffffffffffffff161415610aed57600080fd5b33826060019073ffffffffffffffffffffffffffffffffffffffff16908173ffffffffffffffffffffffffffffffffffffffff168152505060018260a00190151590811515815250508160018481548110610b4457fe5b9060005260206000209060060201600082015181600001556020820151816001019080519060200190610b78929190610f94565b5060408201518160020160006101000a81548173ffffffffffffffffffffffffffffffffffffffff021916908373ffffffffffffffffffffffffffffffffffffffff16021790555060608201518160030160006101000a81548173ffffffffffffffffffffffffffffffffffffffff021916908373ffffffffffffffffffffffffffffffffffffffff1602179055506080820151816004015560a08201518160050160006101000a81548160ff0219169083151502179055509050508073ffffffffffffffffffffffffffffffffffffffff166108fc349081150290604051600060405180830381858888f19350505050158015610c7a573d6000803e3d6000fd5b507fd02669c80e8080accf77760de7ed25befb2def16fdd44a382bdaa2fc4bfe2ecd60025483602001518460400151338660800151600160405180878152602001806020018673ffffffffffffffffffffffffffffffffffffffff1681526020018573ffffffffffffffffffffffffffffffffffffffff1681526020018481526020018315158152602001828103825287818151815260200191508051906020019080838360005b83811015610d3d578082015181840152602081019050610d22565b50505050905090810190601f168015610d6a5780820380516001836020036101000a031916815260200191505b5097505050505050505060405180910390a1505050565b610d89610f8c565b73ffffffffffffffffffffffffffffffffffffffff1660008054906101000a900473ffffffffffffffffffffffffffffffffffffffff1673ffffffffffffffffffffffffffffffffffffffff1614610e49576040517f08c379a00000000000000000000000000000000000000000000000000000000081526004018080602001828103825260208152602001807f4f776e61626c653a2063616c6c6572206973206e6f7420746865206f776e657281525060200191505060405180910390fd5b600073ffffffffffffffffffffffffffffffffffffffff168173ffffffffffffffffffffffffffffffffffffffff161415610ecf576040517f08c379a00000000000000000000000000000000000000000000000000000000081526004018080602001828103825260268152602001806110406026913960400191505060405180910390fd5b8073ffffffffffffffffffffffffffffffffffffffff1660008054906101000a900473ffffffffffffffffffffffffffffffffffffffff1673ffffffffffffffffffffffffffffffffffffffff167f8be0079c531659141344cd1fd0a4f28419497f9722a3daafe3b4186f6b6457e060405160405180910390a3806000806101000a81548173ffffffffffffffffffffffffffffffffffffffff021916908373ffffffffffffffffffffffffffffffffffffffff16021790555050565b600033905090565b828054600181600116156101000203166002900490600052602060002090601f016020900481019282610fca5760008555611011565b82601f10610fe357805160ff1916838001178555611011565b82800160010185558215611011579182015b82811115611010578251825591602001919060010190610ff5565b5b50905061101e9190611022565b5090565b5b8082111561103b576000816000905550600101611023565b509056fe4f776e61626c653a206e6577206f776e657220697320746865207a65726f2061646472657373a2646970667358221220a14daf41640df124228f1e3733a594cc94a4d6827074f2b78d4f506b7fcae0b864736f6c63430007060033",
  "immutableReferences": {},
  "source": "// SPDX-License-Identifier: MIT\n\npragma solidity >=0.5.0 <0.8.0;\n\nimport \"@openzeppelin/contracts/token/ERC721/ERC721.sol\";\nimport \"@openzeppelin/contracts/token/ERC721/IERC721.sol\";\nimport \"@openzeppelin/contracts/token/ERC721/IERC721Receiver.sol\";\nimport \"@openzeppelin/contracts/token/ERC721/ERC721Holder.sol\";\nimport \"@openzeppelin/contracts/token/ERC721/IERC721Metadata.sol\";\nimport \"@openzeppelin/contracts/access/Ownable.sol\";\nimport \"@openzeppelin/contracts/utils/Counters.sol\";\nimport \"@openzeppelin/contracts/math/SafeMath.sol\";\nimport \"@openzeppelin/contracts/utils/SafeCast.sol\";\n\n\n\ncontract W3irds is Ownable {\n    using SafeMath for uint256;\n    using SafeCast for uint256;\n\n    //using Counters for Counters.Counter;\n    //Counters.Counter private _projectIds;\n    //mapping(string => uint8) ipfshashes;\n\n   // constructor() public ERC721(\"W3irds Art\" , \"3A\") {}\n\n\n   //string public name = \"W3irds Art\";\n    //string [] public projects;\n    //Project information\n        struct Project {\n            //Art details\n            uint256 id;\n            //Name\n            //string name;\n            //going private\n            //string nameprefix;//No need\n            //DB Address\n            //string dbaddress\n            //going for an ipfs hash of a json file with all the data\n            string ipfshash;\n            //I need a preview\n            //string imagehash; got rid of this one\n            //timestamp??\n            //string timestamp;\n            //ownership\n            address payable creator;\n            //Owner??\n            address payable keeper;\n            //Price\n            uint256 price;\n            //purchased\n            bool purchased;\n        }\n        //List of all projects\n        Project[] public projects;\n        //mapping(uint => Project) public projects;\n\n\n//I am doing this one to get track of the 'id' in Project struct Otherwise I will need Counters for this\n    uint256 public projectCount = 0;\n    //uint256 private price = 3000000000000000000;\n\n/***got rid of these */\n    //string private _nameprefix = 'W3art-Project-';\n\n    //Events\n    event ProjectCreated(uint256 id, string ipfshash, address payable creator, address payable keeper, uint256 price, bool purchased);\n    event ProjectKeeperChanged(uint256 id, string ipfshahs, address payable creator, address payable keeper, uint256 price, bool purchased);\n      \n    //Create new project\n        function newProject(\n            string memory _ipfshash,\n            //string memory _imagehash\n            //address _creator\n            uint256 price\n        ) public returns (uint256)\n        {\n            projectCount++;\n            //uint256 id = projects.length;\n            projects.push(\n                Project(projectCount, _ipfshash, msg.sender, msg.sender, price, false)\n            );\n            //_safeMint(msg.sender, id);\n            //I chose to have the ipfshash as the tokenURI*** I couldn't figure out a way to set the default\n            //Image--- if someone used only the code art part? I need a way to take a snapshot of the project\n            //right before it is published and save that as the preview**Even so I fear gas fees***also I want \n            //to implement the Gas Station Network but I fear I have not enough funds for that so I am waiting on it\n            //_setTokenURI(id, _ipfshash);\n            //return id;\n            emit ProjectCreated(projectCount, _ipfshash, msg.sender, msg.sender, price, false);\n        }\n    //Sell a project?? Essentially the idea is to transfer the Keeper role to another\n      \n    function purchaseProject(uint _id) public payable {\n        // Fetch the product\n        Project memory _project = projects[_id];\n        // Fetch the owner\n        address payable _seller = _project.keeper;\n        // Make sure the product has a valid id\n        require(_project.id > 0 && _project.id <= projectCount);\n        // Require that there is enough Ether in the transaction\n        require(msg.value >= _project.price);\n        // Require that the product has not been purchased already\n        require(!_project.purchased);\n        // Require that the buyer is not the seller\n        require(_seller != msg.sender);\n        // Transfer ownership to the buyer\n        _project.keeper = msg.sender;\n        // Mark as purchased\n        _project.purchased = true;\n        // Update the product\n        projects[_id] = _project;\n        // Pay the seller by sending them Ether\n        _seller.transfer(msg.value);\n        // Trigger an event\n        emit ProjectKeeperChanged(projectCount, _project.ipfshash,  _project.creator, msg.sender, _project.price, true);\n    }\n   \n}\n\n\ncontract W3irdsTokens is ERC721, W3irds {\n    using Counters for Counters.Counter;\n    Counters.Counter private _tokenIds;\n\n    \n\n    constructor() public ERC721('Web3Art Project Tokens', '3A') {}\n\n    function awardItem(address keeper, string memory tokenURI)\n        public //onlyOwner()\n        returns (uint256)\n        {\n            _tokenIds.increment();\n\n            uint256 newItemId = _tokenIds.current();\n            _mint(keeper, newItemId);\n            _setTokenURI(newItemId, tokenURI);\n\n            return newItemId;\n        }\n    \n    function tossCoin(address creator, uint256 amount)\n    public\n    {\n        \n    }\n}\n\n\n\n\n\n",
  "sourcePath": "/Applications/Ampps/www/W3irds/artwork/src/contracts/w3irds.sol",
  "compiler": {
    "name": "solc",
    "version": "0.7.6+commit.7338295f.Emscripten.clang"
  },
  "schemaVersion": "3.3.3",
  "updatedAt": "2021-02-03T13:11:44.550Z",
  "devdoc": {
    "kind": "dev",
    "methods": {
      "owner()": {
        "details": "Returns the address of the current owner."
      },
      "renounceOwnership()": {
        "details": "Leaves the contract without owner. It will not be possible to call `onlyOwner` functions anymore. Can only be called by the current owner. NOTE: Renouncing ownership will leave the contract without an owner, thereby removing any functionality that is only available to the owner."
      },
      "transferOwnership(address)": {
        "details": "Transfers ownership of the contract to a new account (`newOwner`). Can only be called by the current owner."
      }
    },
    "version": 1
  },
  "userdoc": {
    "kind": "user",
    "methods": {},
    "version": 1
  }
}