{
  "contractName": "W3irds",
  "abi": [
    {
      "anonymous": false,
      "inputs": [
        {
          "indexed": true,
          "internalType": "address",
          "name": "previousOwner",
          "type": "address"
        },
        {
          "indexed": true,
          "internalType": "address",
          "name": "newOwner",
          "type": "address"
        }
      ],
      "name": "OwnershipTransferred",
      "type": "event"
    },
    {
      "anonymous": false,
      "inputs": [
        {
          "indexed": false,
          "internalType": "uint256",
          "name": "id",
          "type": "uint256"
        },
        {
          "indexed": false,
          "internalType": "string",
          "name": "ipfshash",
          "type": "string"
        },
        {
          "indexed": false,
          "internalType": "address",
          "name": "creator",
          "type": "address"
        },
        {
          "indexed": false,
          "internalType": "address",
          "name": "keeper",
          "type": "address"
        },
        {
          "indexed": false,
          "internalType": "uint256",
          "name": "tokens",
          "type": "uint256"
        }
      ],
      "name": "ProjectCreated",
      "type": "event"
    },
    {
      "anonymous": false,
      "inputs": [
        {
          "indexed": false,
          "internalType": "uint256",
          "name": "id",
          "type": "uint256"
        },
        {
          "indexed": false,
          "internalType": "string",
          "name": "ipfshahs",
          "type": "string"
        },
        {
          "indexed": false,
          "internalType": "address",
          "name": "creator",
          "type": "address"
        },
        {
          "indexed": false,
          "internalType": "address",
          "name": "keeper",
          "type": "address"
        },
        {
          "indexed": false,
          "internalType": "uint256",
          "name": "tokens",
          "type": "uint256"
        }
      ],
      "name": "ProjectKeeperChanged",
      "type": "event"
    },
    {
      "anonymous": false,
      "inputs": [
        {
          "indexed": false,
          "internalType": "uint256",
          "name": "id",
          "type": "uint256"
        }
      ],
      "name": "ProjectTokens",
      "type": "event"
    },
    {
      "inputs": [],
      "name": "owner",
      "outputs": [
        {
          "internalType": "address",
          "name": "",
          "type": "address"
        }
      ],
      "stateMutability": "view",
      "type": "function"
    },
    {
      "inputs": [],
      "name": "projectCount",
      "outputs": [
        {
          "internalType": "uint256",
          "name": "",
          "type": "uint256"
        }
      ],
      "stateMutability": "view",
      "type": "function"
    },
    {
      "inputs": [
        {
          "internalType": "uint256",
          "name": "",
          "type": "uint256"
        }
      ],
      "name": "projects",
      "outputs": [
        {
          "internalType": "uint256",
          "name": "id",
          "type": "uint256"
        },
        {
          "internalType": "string",
          "name": "ipfshash",
          "type": "string"
        },
        {
          "internalType": "address",
          "name": "creator",
          "type": "address"
        },
        {
          "internalType": "address",
          "name": "keeper",
          "type": "address"
        },
        {
          "internalType": "uint256",
          "name": "tokens",
          "type": "uint256"
        }
      ],
      "stateMutability": "view",
      "type": "function"
    },
    {
      "inputs": [],
      "name": "renounceOwnership",
      "outputs": [],
      "stateMutability": "nonpayable",
      "type": "function"
    },
    {
      "inputs": [],
      "name": "tokenCount",
      "outputs": [
        {
          "internalType": "uint256",
          "name": "",
          "type": "uint256"
        }
      ],
      "stateMutability": "view",
      "type": "function"
    },
    {
      "inputs": [
        {
          "internalType": "address",
          "name": "newOwner",
          "type": "address"
        }
      ],
      "name": "transferOwnership",
      "outputs": [],
      "stateMutability": "nonpayable",
      "type": "function"
    },
    {
      "inputs": [
        {
          "internalType": "string",
          "name": "_ipfshash",
          "type": "string"
        },
        {
          "internalType": "address",
          "name": "_keeper",
          "type": "address"
        }
      ],
      "name": "newProject",
      "outputs": [],
      "stateMutability": "nonpayable",
      "type": "function"
    }
  ],
  "bytecode": "0x60806040526000606655600060675534801561001a57600080fd5b50610b178061002a6000396000f3fe608060405234801561001057600080fd5b506004361061007d5760003560e01c806381f4d7531161005b57806381f4d753146101995780638da5cb5b146102745780639f181b5e146102a8578063f2fde38b146102c65761007d565b8063107046bd1461008257806336fbad2614610171578063715018a61461018f575b600080fd5b6100ae6004803603602081101561009857600080fd5b810190808035906020019092919050505061030a565b60405180868152602001806020018573ffffffffffffffffffffffffffffffffffffffff1681526020018473ffffffffffffffffffffffffffffffffffffffff168152602001838152602001828103825286818151815260200191508051906020019080838360005b83811015610132578082015181840152602081019050610117565b50505050905090810190601f16801561015f5780820380516001836020036101000a031916815260200191505b50965050505050505060405180910390f35b610179610428565b6040518082815260200191505060405180910390f35b61019761042e565b005b610272600480360360408110156101af57600080fd5b81019080803590602001906401000000008111156101cc57600080fd5b8201836020820111156101de57600080fd5b8035906020019184600183028401116401000000008311171561020057600080fd5b91908080601f016020809104026020016040519081016040528093929190818152602001838380828437600081840152601f19601f820116905080830192505050505050509192919290803573ffffffffffffffffffffffffffffffffffffffff16906020019092919050505061059e565b005b61027c6107e3565b604051808273ffffffffffffffffffffffffffffffffffffffff16815260200191505060405180910390f35b6102b061080d565b6040518082815260200191505060405180910390f35b610308600480360360208110156102dc57600080fd5b81019080803573ffffffffffffffffffffffffffffffffffffffff169060200190929190505050610813565b005b6065818154811061031a57600080fd5b9060005260206000209060050201600091509050806000015490806001018054600181600116156101000203166002900480601f0160208091040260200160405190810160405280929190818152602001828054600181600116156101000203166002900480156103cc5780601f106103a1576101008083540402835291602001916103cc565b820191906000526020600020905b8154815290600101906020018083116103af57829003601f168201915b5050505050908060020160009054906101000a900473ffffffffffffffffffffffffffffffffffffffff16908060030160009054906101000a900473ffffffffffffffffffffffffffffffffffffffff16908060040154905085565b60665481565b610436610a08565b73ffffffffffffffffffffffffffffffffffffffff166104546107e3565b73ffffffffffffffffffffffffffffffffffffffff16146104dd576040517f08c379a00000000000000000000000000000000000000000000000000000000081526004018080602001828103825260208152602001807f4f776e61626c653a2063616c6c6572206973206e6f7420746865206f776e657281525060200191505060405180910390fd5b600073ffffffffffffffffffffffffffffffffffffffff16603360009054906101000a900473ffffffffffffffffffffffffffffffffffffffff1673ffffffffffffffffffffffffffffffffffffffff167f8be0079c531659141344cd1fd0a4f28419497f9722a3daafe3b4186f6b6457e060405160405180910390a36000603360006101000a81548173ffffffffffffffffffffffffffffffffffffffff021916908373ffffffffffffffffffffffffffffffffffffffff160217905550565b60666000815480929190600101919050555060656040518060a0016040528060665481526020018481526020013373ffffffffffffffffffffffffffffffffffffffff1681526020018373ffffffffffffffffffffffffffffffffffffffff1681526020016067548152509080600181540180825580915050600190039060005260206000209060050201600090919091909150600082015181600001556020820151816001019080519060200190610658929190610a10565b5060408201518160020160006101000a81548173ffffffffffffffffffffffffffffffffffffffff021916908373ffffffffffffffffffffffffffffffffffffffff16021790555060608201518160030160006101000a81548173ffffffffffffffffffffffffffffffffffffffff021916908373ffffffffffffffffffffffffffffffffffffffff1602179055506080820151816004015550507f855018e1c559e56d1f2ef0e5726673a7f2bcfde96998cc3f2f5a38c32bce53a360665483338460675460405180868152602001806020018573ffffffffffffffffffffffffffffffffffffffff1681526020018473ffffffffffffffffffffffffffffffffffffffff168152602001838152602001828103825286818151815260200191508051906020019080838360005b838110156107a1578082015181840152602081019050610786565b50505050905090810190601f1680156107ce5780820380516001836020036101000a031916815260200191505b50965050505050505060405180910390a15050565b6000603360009054906101000a900473ffffffffffffffffffffffffffffffffffffffff16905090565b60675481565b61081b610a08565b73ffffffffffffffffffffffffffffffffffffffff166108396107e3565b73ffffffffffffffffffffffffffffffffffffffff16146108c2576040517f08c379a00000000000000000000000000000000000000000000000000000000081526004018080602001828103825260208152602001807f4f776e61626c653a2063616c6c6572206973206e6f7420746865206f776e657281525060200191505060405180910390fd5b600073ffffffffffffffffffffffffffffffffffffffff168173ffffffffffffffffffffffffffffffffffffffff161415610948576040517f08c379a0000000000000000000000000000000000000000000000000000000008152600401808060200182810382526026815260200180610abc6026913960400191505060405180910390fd5b8073ffffffffffffffffffffffffffffffffffffffff16603360009054906101000a900473ffffffffffffffffffffffffffffffffffffffff1673ffffffffffffffffffffffffffffffffffffffff167f8be0079c531659141344cd1fd0a4f28419497f9722a3daafe3b4186f6b6457e060405160405180910390a380603360006101000a81548173ffffffffffffffffffffffffffffffffffffffff021916908373ffffffffffffffffffffffffffffffffffffffff16021790555050565b600033905090565b828054600181600116156101000203166002900490600052602060002090601f016020900481019282610a465760008555610a8d565b82601f10610a5f57805160ff1916838001178555610a8d565b82800160010185558215610a8d579182015b82811115610a8c578251825591602001919060010190610a71565b5b509050610a9a9190610a9e565b5090565b5b80821115610ab7576000816000905550600101610a9f565b509056fe4f776e61626c653a206e6577206f776e657220697320746865207a65726f2061646472657373a26469706673582212207578fb45399e367c24166ea53090c4e43a0aaf70ad5758ab45dbf4761b98e80964736f6c63430007060033",
  "immutableReferences": {},
  "source": "// SPDX-License-Identifier: MIT\n\npragma solidity >=0.5.0 <0.8.0;\n\nimport \"@openzeppelin/contracts-upgradeable/token/ERC721/ERC721Upgradeable.sol\";\nimport \"@openzeppelin/contracts-upgradeable/proxy/Initializable.sol\";\nimport \"@openzeppelin/contracts-upgradeable/access/OwnableUpgradeable.sol\";\n\nimport \"@openzeppelin/contracts-upgradeable/utils/CountersUpgradeable.sol\";\nimport \"@openzeppelin/contracts-upgradeable/math/SafeMathUpgradeable.sol\";\nimport \"@openzeppelin/contracts-upgradeable/utils/SafeCastUpgradeable.sol\";\n\n//import \"@openzeppelin/contracts/token/ERC721/ERC721.sol\";\n//import \"@openzeppelin/contracts/access/Ownable.sol\";\n\n//import \"@openzeppelin/contracts/utils/Counters.sol\";\n//import \"@openzeppelin/contracts/utils/SafeCast.sol\";\n//import \"@openzeppelin/contracts/math/SafeMath.sol\";\n\n\n\n\n\ncontract W3irds is OwnableUpgradeable {\n    using SafeMathUpgradeable for uint256;\n    using SafeCastUpgradeable for uint256;\n\n    //using Counters for Counters.Counter;\n    //Counters.Counter private _projectIds;\n    //mapping(string => uint8) ipfshashes;\n\n   // constructor() public ERC721(\"W3irds Art\" , \"3A\") {}\n\n\n   //string public name = \"W3irds Art\";\n    //string [] public projects;\n    //Project information\n        struct Project {\n            //Art details\n            uint256 id;\n            //Name\n            //string name;\n            //going private\n            //string nameprefix;//No need\n            //DB Address\n            //string dbaddress\n            //going for an ipfs hash of a json file with all the data\n            string ipfshash;\n            //I need a preview\n            //string imagehash; got rid of this one\n            //timestamp??\n            //string timestamp;\n            //ownership\n            address creator;\n            //Owner??\n            address keeper;\n            //Price\n            //uint256 price;\n            //purchased\n           // bool purchased;\n           /****I am doing a thing with ProjectTokens instead of price etc.. */\n           uint256 tokens;\n\n        }\n        //List of all projects\n        Project[] public projects;\n        //mapping(uint => Project) public projects;\n\n\n//I am doing this one to get track of the 'id' in Project struct Otherwise I will need Counters for this\n    uint256 public projectCount = 0;\n    uint256 public tokenCount = 0;\n    //uint256 private price = 3000000000000000000;\n\n/***got rid of these */\n    //string private _nameprefix = 'W3art-Project-';\n\n    //Events\n    event ProjectCreated(uint256 id, string ipfshash, address creator, address keeper, uint256 tokens );\n    event ProjectKeeperChanged(uint256 id, string ipfshahs, address creator, address keeper, uint256 tokens);\n    event ProjectTokens(uint256 id);\n      \n    //Create new project\n        function newProject(\n            string memory _ipfshash,\n            //string memory _imagehash\n            //address _creator\n            address _keeper\n        ) public //returns (uint256)\n        {\n            projectCount++;\n            //uint256 id = projects.length;\n            //Reverting 'ownership' to creator\n            //if( bytes(_keeper) = 0){\n               // _keeper = msg.sender;\n           // }\n            projects.push(\n                Project(projectCount, _ipfshash, msg.sender, _keeper, tokenCount)\n            );\n            //_safeMint(msg.sender, id);\n            //I chose to have the ipfshash as the tokenURI*** I couldn't figure out a way to set the default\n            //Image--- if someone used only the code art part? I need a way to take a snapshot of the project\n            //right before it is published and save that as the preview**Even so I fear gas fees***also I want \n            //to implement the Gas Station Network but I fear I have not enough funds for that so I am waiting on it\n            //_setTokenURI(id, _ipfshash);\n            //return id;\n            emit ProjectCreated(projectCount, _ipfshash, msg.sender, _keeper,  tokenCount);\n        }\n\n        /*function addToken(\n            uint256 id\n        )public\n        {\n            tokenCount++;\n            Project memory project = projects[id];\n            project.tokens = tokenCount;\n            projects[id] = project;\n            emit ProjectTokens(tokenCount);\n\n        }*/\n    //Sell a project?? Essentially the idea is to transfer the Keeper role to another\n      //This one's not working so I will go with awarding a token\n   \n   \n}\n\n/*contract W3irdsTest{\n    struct Minter {\n        uint weight;\n        uint mint;\n        address keeper; // person to keep the project\n        bool minted;\n    }\n    struct Project {\n        string uri;\n        uint tokenCount;\n    }\n    address public projectCreator;\n    mapping(address => Minter) public minters;\n    Project[] public projects;\n\n    constructor(string [] memory projectUris){\n        projectCreator = msg.sender;\n        minters[projectCreator].weight = 1;\n        for (uint i = 0; i < projectUris.length; i++){\n            projects.push(Project({\n                uri: projectUris[i],\n                tokenCount: 0\n            }));\n        }\n    }\n    function giveRightToMint(address minter) public{\n        require(\n            msg.sender == projectCreator,\n            'Only the project creator can give right to mint.'\n        );\n        require(\n            !minters[mint].minted,\n            'The minter already minted.'\n        );\n        require(minters[minter].weight == 0);\n        minters[minter].weight = 1;\n    }\n    function assignKeeper(address to) public{\n        Minter storage sender = minters[msg.sender];\n        require(!sender.minted, \"You already minted.\");\n        require(to != msg.sender, \"You can't keep your own project.\");\n\n        while(minters[to].keeper != address(0)) {\n            to = minters[to].keeper;\n            require(to != msg.sender, \"Oops that is a loop.\");\n        }\n        sender.minted = true;\n        sender.keeper = to;\n        Minter storage keeper_ = minters[to];\n        if(keeper_.minted){\n            projects[keeper_.mint].tokenCount += sender.weight;\n        }else{\n            keeper_.weight += sender.weight;\n        }\n    }\n    function mintToProject(uint project) public{\n        Minter storage sender = minters[msg.sender];\n        require(sender.weight != 0, \"Has no right to mint\");\n        //require(!sender.minted, \"Already minted\");\n        sender.minted = true;\n        sender.mint = project;\n\n        projects[project].tokenCount += sender.weight;\n    }\n\n\n}*/\n\n\ncontract W3irdsTokens is   Initializable, ERC721Upgradeable, W3irds {\n    using CountersUpgradeable for CountersUpgradeable.Counter;\n    CountersUpgradeable.Counter private _tokenIds;\n\n    \n\n    //constructor() public ERC721('Web3Art Project Tokens', 'W3A') {}\n    function initialize() initializer public{\n        __ERC721_init(\"Web3Art Projects Tokens\", \"W3A\");\n    }\n\n    function awardMainProject(address keeper, string memory tokenURI)\n        public //onlyOwner()\n        returns (uint256)\n        {\n            //addToken(projectId);\n            projectCount++;\n\n            _tokenIds.increment();\n\n            uint256 newItemId = _tokenIds.current();\n            projects.push(Project(projectCount, tokenURI, msg.sender, keeper, newItemId));\n            _safeMint(keeper, newItemId);\n            _setTokenURI(newItemId, tokenURI);\n\n            return newItemId;\n        }\n    function awardProjectToken(address keeper, string memory tokenURI)\n        public\n        returns (uint256)\n        {\n            \n            _tokenIds.increment();\n            uint256 newItemId = _tokenIds.current();\n            //Project storage _project = projects[newItemId];//\n           // _project.tokens += newItemId;////////////////////>>>>>>These three lines are throwing an error, I don't \n           // projects[newItemId] = _project; ////////////////       know what's wrong. I will stick to inheritting parent URI\n            _mint(keeper, newItemId);\n            _setTokenURI(newItemId, tokenURI);\n            return newItemId;\n        }\n    \n    //function tossCoin(address creator, uint256 amount)\n    //public\n    //{\n\n   // }\n}\n\n\n\n\n\n",
  "sourcePath": "/Applications/Ampps/www/W3irds/artwork/src/contracts/w3irds.sol",
  "compiler": {
    "name": "solc",
    "version": "0.7.6+commit.7338295f.Emscripten.clang"
  },
  "schemaVersion": "3.3.3",
  "updatedAt": "2021-02-07T10:14:21.961Z",
  "networkType": "ethereum",
  "devdoc": {
    "kind": "dev",
    "methods": {
      "owner()": {
        "details": "Returns the address of the current owner."
      },
      "renounceOwnership()": {
        "details": "Leaves the contract without owner. It will not be possible to call `onlyOwner` functions anymore. Can only be called by the current owner. NOTE: Renouncing ownership will leave the contract without an owner, thereby removing any functionality that is only available to the owner."
      },
      "transferOwnership(address)": {
        "details": "Transfers ownership of the contract to a new account (`newOwner`). Can only be called by the current owner."
      }
    },
    "version": 1
  },
  "userdoc": {
    "kind": "user",
    "methods": {},
    "version": 1
  }
}