{
  "contractName": "W3irdsTokens",
  "abi": [
    {
      "inputs": [],
      "stateMutability": "nonpayable",
      "type": "constructor"
    },
    {
      "anonymous": false,
      "inputs": [
        {
          "indexed": true,
          "internalType": "address",
          "name": "owner",
          "type": "address"
        },
        {
          "indexed": true,
          "internalType": "address",
          "name": "approved",
          "type": "address"
        },
        {
          "indexed": true,
          "internalType": "uint256",
          "name": "tokenId",
          "type": "uint256"
        }
      ],
      "name": "Approval",
      "type": "event"
    },
    {
      "anonymous": false,
      "inputs": [
        {
          "indexed": true,
          "internalType": "address",
          "name": "owner",
          "type": "address"
        },
        {
          "indexed": true,
          "internalType": "address",
          "name": "operator",
          "type": "address"
        },
        {
          "indexed": false,
          "internalType": "bool",
          "name": "approved",
          "type": "bool"
        }
      ],
      "name": "ApprovalForAll",
      "type": "event"
    },
    {
      "anonymous": false,
      "inputs": [
        {
          "indexed": true,
          "internalType": "address",
          "name": "previousOwner",
          "type": "address"
        },
        {
          "indexed": true,
          "internalType": "address",
          "name": "newOwner",
          "type": "address"
        }
      ],
      "name": "OwnershipTransferred",
      "type": "event"
    },
    {
      "anonymous": false,
      "inputs": [
        {
          "indexed": false,
          "internalType": "uint256",
          "name": "id",
          "type": "uint256"
        },
        {
          "indexed": false,
          "internalType": "string",
          "name": "ipfshash",
          "type": "string"
        },
        {
          "indexed": false,
          "internalType": "address payable",
          "name": "creator",
          "type": "address"
        },
        {
          "indexed": false,
          "internalType": "address payable",
          "name": "keeper",
          "type": "address"
        },
        {
          "indexed": false,
          "internalType": "uint256",
          "name": "price",
          "type": "uint256"
        },
        {
          "indexed": false,
          "internalType": "bool",
          "name": "purchased",
          "type": "bool"
        }
      ],
      "name": "ProjectCreated",
      "type": "event"
    },
    {
      "anonymous": false,
      "inputs": [
        {
          "indexed": false,
          "internalType": "uint256",
          "name": "id",
          "type": "uint256"
        },
        {
          "indexed": false,
          "internalType": "string",
          "name": "ipfshahs",
          "type": "string"
        },
        {
          "indexed": false,
          "internalType": "address payable",
          "name": "creator",
          "type": "address"
        },
        {
          "indexed": false,
          "internalType": "address payable",
          "name": "keeper",
          "type": "address"
        },
        {
          "indexed": false,
          "internalType": "uint256",
          "name": "price",
          "type": "uint256"
        },
        {
          "indexed": false,
          "internalType": "bool",
          "name": "purchased",
          "type": "bool"
        }
      ],
      "name": "ProjectKeeperChanged",
      "type": "event"
    },
    {
      "anonymous": false,
      "inputs": [
        {
          "indexed": true,
          "internalType": "address",
          "name": "from",
          "type": "address"
        },
        {
          "indexed": true,
          "internalType": "address",
          "name": "to",
          "type": "address"
        },
        {
          "indexed": true,
          "internalType": "uint256",
          "name": "tokenId",
          "type": "uint256"
        }
      ],
      "name": "Transfer",
      "type": "event"
    },
    {
      "inputs": [
        {
          "internalType": "address",
          "name": "to",
          "type": "address"
        },
        {
          "internalType": "uint256",
          "name": "tokenId",
          "type": "uint256"
        }
      ],
      "name": "approve",
      "outputs": [],
      "stateMutability": "nonpayable",
      "type": "function"
    },
    {
      "inputs": [
        {
          "internalType": "address",
          "name": "owner",
          "type": "address"
        }
      ],
      "name": "balanceOf",
      "outputs": [
        {
          "internalType": "uint256",
          "name": "",
          "type": "uint256"
        }
      ],
      "stateMutability": "view",
      "type": "function"
    },
    {
      "inputs": [],
      "name": "baseURI",
      "outputs": [
        {
          "internalType": "string",
          "name": "",
          "type": "string"
        }
      ],
      "stateMutability": "view",
      "type": "function"
    },
    {
      "inputs": [
        {
          "internalType": "uint256",
          "name": "tokenId",
          "type": "uint256"
        }
      ],
      "name": "getApproved",
      "outputs": [
        {
          "internalType": "address",
          "name": "",
          "type": "address"
        }
      ],
      "stateMutability": "view",
      "type": "function"
    },
    {
      "inputs": [
        {
          "internalType": "address",
          "name": "owner",
          "type": "address"
        },
        {
          "internalType": "address",
          "name": "operator",
          "type": "address"
        }
      ],
      "name": "isApprovedForAll",
      "outputs": [
        {
          "internalType": "bool",
          "name": "",
          "type": "bool"
        }
      ],
      "stateMutability": "view",
      "type": "function"
    },
    {
      "inputs": [],
      "name": "name",
      "outputs": [
        {
          "internalType": "string",
          "name": "",
          "type": "string"
        }
      ],
      "stateMutability": "view",
      "type": "function"
    },
    {
      "inputs": [
        {
          "internalType": "string",
          "name": "_ipfshash",
          "type": "string"
        },
        {
          "internalType": "uint256",
          "name": "price",
          "type": "uint256"
        }
      ],
      "name": "newProject",
      "outputs": [
        {
          "internalType": "uint256",
          "name": "",
          "type": "uint256"
        }
      ],
      "stateMutability": "nonpayable",
      "type": "function"
    },
    {
      "inputs": [],
      "name": "owner",
      "outputs": [
        {
          "internalType": "address",
          "name": "",
          "type": "address"
        }
      ],
      "stateMutability": "view",
      "type": "function"
    },
    {
      "inputs": [
        {
          "internalType": "uint256",
          "name": "tokenId",
          "type": "uint256"
        }
      ],
      "name": "ownerOf",
      "outputs": [
        {
          "internalType": "address",
          "name": "",
          "type": "address"
        }
      ],
      "stateMutability": "view",
      "type": "function"
    },
    {
      "inputs": [],
      "name": "projectCount",
      "outputs": [
        {
          "internalType": "uint256",
          "name": "",
          "type": "uint256"
        }
      ],
      "stateMutability": "view",
      "type": "function"
    },
    {
      "inputs": [
        {
          "internalType": "uint256",
          "name": "",
          "type": "uint256"
        }
      ],
      "name": "projects",
      "outputs": [
        {
          "internalType": "uint256",
          "name": "id",
          "type": "uint256"
        },
        {
          "internalType": "string",
          "name": "ipfshash",
          "type": "string"
        },
        {
          "internalType": "address payable",
          "name": "creator",
          "type": "address"
        },
        {
          "internalType": "address payable",
          "name": "keeper",
          "type": "address"
        },
        {
          "internalType": "uint256",
          "name": "price",
          "type": "uint256"
        },
        {
          "internalType": "bool",
          "name": "purchased",
          "type": "bool"
        }
      ],
      "stateMutability": "view",
      "type": "function"
    },
    {
      "inputs": [
        {
          "internalType": "uint256",
          "name": "_id",
          "type": "uint256"
        }
      ],
      "name": "purchaseProject",
      "outputs": [],
      "stateMutability": "payable",
      "type": "function"
    },
    {
      "inputs": [],
      "name": "renounceOwnership",
      "outputs": [],
      "stateMutability": "nonpayable",
      "type": "function"
    },
    {
      "inputs": [
        {
          "internalType": "address",
          "name": "from",
          "type": "address"
        },
        {
          "internalType": "address",
          "name": "to",
          "type": "address"
        },
        {
          "internalType": "uint256",
          "name": "tokenId",
          "type": "uint256"
        }
      ],
      "name": "safeTransferFrom",
      "outputs": [],
      "stateMutability": "nonpayable",
      "type": "function"
    },
    {
      "inputs": [
        {
          "internalType": "address",
          "name": "from",
          "type": "address"
        },
        {
          "internalType": "address",
          "name": "to",
          "type": "address"
        },
        {
          "internalType": "uint256",
          "name": "tokenId",
          "type": "uint256"
        },
        {
          "internalType": "bytes",
          "name": "_data",
          "type": "bytes"
        }
      ],
      "name": "safeTransferFrom",
      "outputs": [],
      "stateMutability": "nonpayable",
      "type": "function"
    },
    {
      "inputs": [
        {
          "internalType": "address",
          "name": "operator",
          "type": "address"
        },
        {
          "internalType": "bool",
          "name": "approved",
          "type": "bool"
        }
      ],
      "name": "setApprovalForAll",
      "outputs": [],
      "stateMutability": "nonpayable",
      "type": "function"
    },
    {
      "inputs": [
        {
          "internalType": "bytes4",
          "name": "interfaceId",
          "type": "bytes4"
        }
      ],
      "name": "supportsInterface",
      "outputs": [
        {
          "internalType": "bool",
          "name": "",
          "type": "bool"
        }
      ],
      "stateMutability": "view",
      "type": "function"
    },
    {
      "inputs": [],
      "name": "symbol",
      "outputs": [
        {
          "internalType": "string",
          "name": "",
          "type": "string"
        }
      ],
      "stateMutability": "view",
      "type": "function"
    },
    {
      "inputs": [
        {
          "internalType": "uint256",
          "name": "index",
          "type": "uint256"
        }
      ],
      "name": "tokenByIndex",
      "outputs": [
        {
          "internalType": "uint256",
          "name": "",
          "type": "uint256"
        }
      ],
      "stateMutability": "view",
      "type": "function"
    },
    {
      "inputs": [
        {
          "internalType": "address",
          "name": "owner",
          "type": "address"
        },
        {
          "internalType": "uint256",
          "name": "index",
          "type": "uint256"
        }
      ],
      "name": "tokenOfOwnerByIndex",
      "outputs": [
        {
          "internalType": "uint256",
          "name": "",
          "type": "uint256"
        }
      ],
      "stateMutability": "view",
      "type": "function"
    },
    {
      "inputs": [
        {
          "internalType": "uint256",
          "name": "tokenId",
          "type": "uint256"
        }
      ],
      "name": "tokenURI",
      "outputs": [
        {
          "internalType": "string",
          "name": "",
          "type": "string"
        }
      ],
      "stateMutability": "view",
      "type": "function"
    },
    {
      "inputs": [],
      "name": "totalSupply",
      "outputs": [
        {
          "internalType": "uint256",
          "name": "",
          "type": "uint256"
        }
      ],
      "stateMutability": "view",
      "type": "function"
    },
    {
      "inputs": [
        {
          "internalType": "address",
          "name": "from",
          "type": "address"
        },
        {
          "internalType": "address",
          "name": "to",
          "type": "address"
        },
        {
          "internalType": "uint256",
          "name": "tokenId",
          "type": "uint256"
        }
      ],
      "name": "transferFrom",
      "outputs": [],
      "stateMutability": "nonpayable",
      "type": "function"
    },
    {
      "inputs": [
        {
          "internalType": "address",
          "name": "newOwner",
          "type": "address"
        }
      ],
      "name": "transferOwnership",
      "outputs": [],
      "stateMutability": "nonpayable",
      "type": "function"
    },
    {
      "inputs": [
        {
          "internalType": "address",
          "name": "keeper",
          "type": "address"
        },
        {
          "internalType": "string",
          "name": "tokenURI",
          "type": "string"
        }
      ],
      "name": "awardItem",
      "outputs": [
        {
          "internalType": "uint256",
          "name": "",
          "type": "uint256"
        }
      ],
      "stateMutability": "nonpayable",
      "type": "function"
    },
    {
      "inputs": [
        {
          "internalType": "address",
          "name": "creator",
          "type": "address"
        },
        {
          "internalType": "uint256",
          "name": "amount",
          "type": "uint256"
        }
      ],
      "name": "tossCoin",
      "outputs": [],
      "stateMutability": "nonpayable",
      "type": "function"
    }
  ],
  "bytecode": "0x60806040526000600c553480156200001657600080fd5b506040518060400160405280601681526020017f576562334172742050726f6a65637420546f6b656e73000000000000000000008152506040518060400160405280600281526020017f33410000000000000000000000000000000000000000000000000000000000008152506200009b6301ffc9a760e01b620001ce60201b60201c565b8160069080519060200190620000b3929190620002df565b508060079080519060200190620000cc929190620002df565b50620000e56380ac58cd60e01b620001ce60201b60201c565b620000fd635b5e139f60e01b620001ce60201b60201c565b6200011563780e9d6360e01b620001ce60201b60201c565b5050600062000129620002d760201b60201c565b905080600a60006101000a81548173ffffffffffffffffffffffffffffffffffffffff021916908373ffffffffffffffffffffffffffffffffffffffff1602179055508073ffffffffffffffffffffffffffffffffffffffff16600073ffffffffffffffffffffffffffffffffffffffff167f8be0079c531659141344cd1fd0a4f28419497f9722a3daafe3b4186f6b6457e060405160405180910390a35062000395565b63ffffffff60e01b817bffffffffffffffffffffffffffffffffffffffffffffffffffffffff191614156200026b576040517f08c379a000000000000000000000000000000000000000000000000000000000815260040180806020018281038252601c8152602001807f4552433136353a20696e76616c696420696e746572666163652069640000000081525060200191505060405180910390fd5b6001600080837bffffffffffffffffffffffffffffffffffffffffffffffffffffffff19167bffffffffffffffffffffffffffffffffffffffffffffffffffffffff1916815260200190815260200160002060006101000a81548160ff02191690831515021790555050565b600033905090565b828054600181600116156101000203166002900490600052602060002090601f01602090048101928262000317576000855562000363565b82601f106200033257805160ff191683800117855562000363565b8280016001018555821562000363579182015b828111156200036257825182559160200191906001019062000345565b5b50905062000372919062000376565b5090565b5b808211156200039157600081600090555060010162000377565b5090565b613ce380620003a56000396000f3fe6080604052600436106101815760003560e01c80636c0360eb116100d1578063b88d4fde1161008a578063cf37834311610064578063cf37834314610bfb578063d2b527fe14610cf7578063e985e9c514610d25578063f2fde38b14610dac57610181565b8063b88d4fde1461094f578063be20ffa614610a61578063c87b56dd14610b4757610181565b80636c0360eb1461071557806370a08231146107a5578063715018a61461080a5780638da5cb5b1461082157806395d89b4114610862578063a22cb465146108f257610181565b806323b872dd1161013e57806342842e0e1161011857806342842e0e1461058b5780634f6ccce7146106065780636352211e1461065557806365c9ebaf146106ba57610181565b806323b872dd146104765780632f745c59146104f157806336fbad261461056057610181565b806301ffc9a71461018657806306fdde03146101f6578063081812fc14610286578063095ea7b3146102eb578063107046bd1461034657806318160ddd1461044b575b600080fd5b34801561019257600080fd5b506101de600480360360208110156101a957600080fd5b8101908080357bffffffffffffffffffffffffffffffffffffffffffffffffffffffff19169060200190929190505050610dfd565b60405180821515815260200191505060405180910390f35b34801561020257600080fd5b5061020b610e64565b6040518080602001828103825283818151815260200191508051906020019080838360005b8381101561024b578082015181840152602081019050610230565b50505050905090810190601f1680156102785780820380516001836020036101000a031916815260200191505b509250505060405180910390f35b34801561029257600080fd5b506102bf600480360360208110156102a957600080fd5b8101908080359060200190929190505050610f06565b604051808273ffffffffffffffffffffffffffffffffffffffff16815260200191505060405180910390f35b3480156102f757600080fd5b506103446004803603604081101561030e57600080fd5b81019080803573ffffffffffffffffffffffffffffffffffffffff16906020019092919080359060200190929190505050610fa1565b005b34801561035257600080fd5b5061037f6004803603602081101561036957600080fd5b81019080803590602001909291905050506110e5565b60405180878152602001806020018673ffffffffffffffffffffffffffffffffffffffff1681526020018573ffffffffffffffffffffffffffffffffffffffff1681526020018481526020018315158152602001828103825287818151815260200191508051906020019080838360005b8381101561040b5780820151818401526020810190506103f0565b50505050905090810190601f1680156104385780820380516001836020036101000a031916815260200191505b5097505050505050505060405180910390f35b34801561045757600080fd5b50610460611216565b6040518082815260200191505060405180910390f35b34801561048257600080fd5b506104ef6004803603606081101561049957600080fd5b81019080803573ffffffffffffffffffffffffffffffffffffffff169060200190929190803573ffffffffffffffffffffffffffffffffffffffff16906020019092919080359060200190929190505050611227565b005b3480156104fd57600080fd5b5061054a6004803603604081101561051457600080fd5b81019080803573ffffffffffffffffffffffffffffffffffffffff1690602001909291908035906020019092919050505061129d565b6040518082815260200191505060405180910390f35b34801561056c57600080fd5b506105756112f8565b6040518082815260200191505060405180910390f35b34801561059757600080fd5b50610604600480360360608110156105ae57600080fd5b81019080803573ffffffffffffffffffffffffffffffffffffffff169060200190929190803573ffffffffffffffffffffffffffffffffffffffff169060200190929190803590602001909291905050506112fe565b005b34801561061257600080fd5b5061063f6004803603602081101561062957600080fd5b810190808035906020019092919050505061131e565b6040518082815260200191505060405180910390f35b34801561066157600080fd5b5061068e6004803603602081101561067857600080fd5b8101908080359060200190929190505050611341565b604051808273ffffffffffffffffffffffffffffffffffffffff16815260200191505060405180910390f35b3480156106c657600080fd5b50610713600480360360408110156106dd57600080fd5b81019080803573ffffffffffffffffffffffffffffffffffffffff16906020019092919080359060200190929190505050611378565b005b34801561072157600080fd5b5061072a61137c565b6040518080602001828103825283818151815260200191508051906020019080838360005b8381101561076a57808201518184015260208101905061074f565b50505050905090810190601f1680156107975780820380516001836020036101000a031916815260200191505b509250505060405180910390f35b3480156107b157600080fd5b506107f4600480360360208110156107c857600080fd5b81019080803573ffffffffffffffffffffffffffffffffffffffff16906020019092919050505061141e565b6040518082815260200191505060405180910390f35b34801561081657600080fd5b5061081f6114f3565b005b34801561082d57600080fd5b5061083661167e565b604051808273ffffffffffffffffffffffffffffffffffffffff16815260200191505060405180910390f35b34801561086e57600080fd5b506108776116a8565b6040518080602001828103825283818151815260200191508051906020019080838360005b838110156108b757808201518184015260208101905061089c565b50505050905090810190601f1680156108e45780820380516001836020036101000a031916815260200191505b509250505060405180910390f35b3480156108fe57600080fd5b5061094d6004803603604081101561091557600080fd5b81019080803573ffffffffffffffffffffffffffffffffffffffff16906020019092919080351515906020019092919050505061174a565b005b34801561095b57600080fd5b50610a5f6004803603608081101561097257600080fd5b81019080803573ffffffffffffffffffffffffffffffffffffffff169060200190929190803573ffffffffffffffffffffffffffffffffffffffff16906020019092919080359060200190929190803590602001906401000000008111156109d957600080fd5b8201836020820111156109eb57600080fd5b80359060200191846001830284011164010000000083111715610a0d57600080fd5b91908080601f016020809104026020016040519081016040528093929190818152602001838380828437600081840152601f19601f820116905080830192505050505050509192919290505050611900565b005b348015610a6d57600080fd5b50610b3160048036036040811015610a8457600080fd5b8101908080359060200190640100000000811115610aa157600080fd5b820183602082011115610ab357600080fd5b80359060200191846001830284011164010000000083111715610ad557600080fd5b91908080601f016020809104026020016040519081016040528093929190818152602001838380828437600081840152601f19601f82011690508083019250505050505050919291929080359060200190929190505050611978565b6040518082815260200191505060405180910390f35b348015610b5357600080fd5b50610b8060048036036020811015610b6a57600080fd5b8101908080359060200190929190505050611bf1565b6040518080602001828103825283818151815260200191508051906020019080838360005b83811015610bc0578082015181840152602081019050610ba5565b50505050905090810190601f168015610bed5780820380516001836020036101000a031916815260200191505b509250505060405180910390f35b348015610c0757600080fd5b50610ce160048036036040811015610c1e57600080fd5b81019080803573ffffffffffffffffffffffffffffffffffffffff16906020019092919080359060200190640100000000811115610c5b57600080fd5b820183602082011115610c6d57600080fd5b80359060200191846001830284011164010000000083111715610c8f57600080fd5b91908080601f016020809104026020016040519081016040528093929190818152602001838380828437600081840152601f19601f820116905080830192505050505050509192919290505050611eda565b6040518082815260200191505060405180910390f35b610d2360048036036020811015610d0d57600080fd5b8101908080359060200190929190505050611f12565b005b348015610d3157600080fd5b50610d9460048036036040811015610d4857600080fd5b81019080803573ffffffffffffffffffffffffffffffffffffffff169060200190929190803573ffffffffffffffffffffffffffffffffffffffff1690602001909291905050506123d2565b60405180821515815260200191505060405180910390f35b348015610db857600080fd5b50610dfb60048036036020811015610dcf57600080fd5b81019080803573ffffffffffffffffffffffffffffffffffffffff169060200190929190505050612466565b005b6000806000837bffffffffffffffffffffffffffffffffffffffffffffffffffffffff19167bffffffffffffffffffffffffffffffffffffffffffffffffffffffff1916815260200190815260200160002060009054906101000a900460ff169050919050565b606060068054600181600116156101000203166002900480601f016020809104026020016040519081016040528092919081815260200182805460018160011615610100020316600290048015610efc5780601f10610ed157610100808354040283529160200191610efc565b820191906000526020600020905b815481529060010190602001808311610edf57829003601f168201915b5050505050905090565b6000610f1182612676565b610f66576040517f08c379a000000000000000000000000000000000000000000000000000000000815260040180806020018281038252602c815260200180613bac602c913960400191505060405180910390fd5b6004600083815260200190815260200160002060009054906101000a900473ffffffffffffffffffffffffffffffffffffffff169050919050565b6000610fac82611341565b90508073ffffffffffffffffffffffffffffffffffffffff168373ffffffffffffffffffffffffffffffffffffffff161415611033576040517f08c379a0000000000000000000000000000000000000000000000000000000008152600401808060200182810382526021815260200180613c5c6021913960400191505060405180910390fd5b8073ffffffffffffffffffffffffffffffffffffffff16611052612693565b73ffffffffffffffffffffffffffffffffffffffff16148061108157506110808161107b612693565b6123d2565b5b6110d6576040517f08c379a0000000000000000000000000000000000000000000000000000000008152600401808060200182810382526038815260200180613aff6038913960400191505060405180910390fd5b6110e0838361269b565b505050565b600b81815481106110f557600080fd5b9060005260206000209060060201600091509050806000015490806001018054600181600116156101000203166002900480601f0160208091040260200160405190810160405280929190818152602001828054600181600116156101000203166002900480156111a75780601f1061117c576101008083540402835291602001916111a7565b820191906000526020600020905b81548152906001019060200180831161118a57829003601f168201915b5050505050908060020160009054906101000a900473ffffffffffffffffffffffffffffffffffffffff16908060030160009054906101000a900473ffffffffffffffffffffffffffffffffffffffff16908060040154908060050160009054906101000a900460ff16905086565b60006112226002612754565b905090565b611238611232612693565b82612769565b61128d576040517f08c379a0000000000000000000000000000000000000000000000000000000008152600401808060200182810382526031815260200180613c7d6031913960400191505060405180910390fd5b61129883838361285d565b505050565b60006112f082600160008673ffffffffffffffffffffffffffffffffffffffff1673ffffffffffffffffffffffffffffffffffffffff168152602001908152602001600020612aa090919063ffffffff16565b905092915050565b600c5481565b61131983838360405180602001604052806000815250611900565b505050565b600080611335836002612aba90919063ffffffff16565b50905080915050919050565b600061137182604051806060016040528060298152602001613b61602991396002612ae69092919063ffffffff16565b9050919050565b5050565b606060098054600181600116156101000203166002900480601f0160208091040260200160405190810160405280929190818152602001828054600181600116156101000203166002900480156114145780601f106113e957610100808354040283529160200191611414565b820191906000526020600020905b8154815290600101906020018083116113f757829003601f168201915b5050505050905090565b60008073ffffffffffffffffffffffffffffffffffffffff168273ffffffffffffffffffffffffffffffffffffffff1614156114a5576040517f08c379a000000000000000000000000000000000000000000000000000000000815260040180806020018281038252602a815260200180613b37602a913960400191505060405180910390fd5b6114ec600160008473ffffffffffffffffffffffffffffffffffffffff1673ffffffffffffffffffffffffffffffffffffffff168152602001908152602001600020612b05565b9050919050565b6114fb612693565b73ffffffffffffffffffffffffffffffffffffffff16600a60009054906101000a900473ffffffffffffffffffffffffffffffffffffffff1673ffffffffffffffffffffffffffffffffffffffff16146115bd576040517f08c379a00000000000000000000000000000000000000000000000000000000081526004018080602001828103825260208152602001807f4f776e61626c653a2063616c6c6572206973206e6f7420746865206f776e657281525060200191505060405180910390fd5b600073ffffffffffffffffffffffffffffffffffffffff16600a60009054906101000a900473ffffffffffffffffffffffffffffffffffffffff1673ffffffffffffffffffffffffffffffffffffffff167f8be0079c531659141344cd1fd0a4f28419497f9722a3daafe3b4186f6b6457e060405160405180910390a36000600a60006101000a81548173ffffffffffffffffffffffffffffffffffffffff021916908373ffffffffffffffffffffffffffffffffffffffff160217905550565b6000600a60009054906101000a900473ffffffffffffffffffffffffffffffffffffffff16905090565b606060078054600181600116156101000203166002900480601f0160208091040260200160405190810160405280929190818152602001828054600181600116156101000203166002900480156117405780601f1061171557610100808354040283529160200191611740565b820191906000526020600020905b81548152906001019060200180831161172357829003601f168201915b5050505050905090565b611752612693565b73ffffffffffffffffffffffffffffffffffffffff168273ffffffffffffffffffffffffffffffffffffffff1614156117f3576040517f08c379a00000000000000000000000000000000000000000000000000000000081526004018080602001828103825260198152602001807f4552433732313a20617070726f766520746f2063616c6c65720000000000000081525060200191505060405180910390fd5b8060056000611800612693565b73ffffffffffffffffffffffffffffffffffffffff1673ffffffffffffffffffffffffffffffffffffffff16815260200190815260200160002060008473ffffffffffffffffffffffffffffffffffffffff1673ffffffffffffffffffffffffffffffffffffffff16815260200190815260200160002060006101000a81548160ff0219169083151502179055508173ffffffffffffffffffffffffffffffffffffffff166118ad612693565b73ffffffffffffffffffffffffffffffffffffffff167f17307eab39ab6107e8899845ad3d59bd9653f200f220920489ca2b5937696c318360405180821515815260200191505060405180910390a35050565b61191161190b612693565b83612769565b611966576040517f08c379a0000000000000000000000000000000000000000000000000000000008152600401808060200182810382526031815260200180613c7d6031913960400191505060405180910390fd5b61197284848484612b1a565b50505050565b6000600c60008154809291906001019190505550600b6040518060c00160405280600c5481526020018581526020013373ffffffffffffffffffffffffffffffffffffffff1681526020013373ffffffffffffffffffffffffffffffffffffffff168152602001848152602001600015158152509080600181540180825580915050600190039060005260206000209060060201600090919091909150600082015181600001556020820151816001019080519060200190611a3b929190613963565b5060408201518160020160006101000a81548173ffffffffffffffffffffffffffffffffffffffff021916908373ffffffffffffffffffffffffffffffffffffffff16021790555060608201518160030160006101000a81548173ffffffffffffffffffffffffffffffffffffffff021916908373ffffffffffffffffffffffffffffffffffffffff1602179055506080820151816004015560a08201518160050160006101000a81548160ff02191690831515021790555050507fd261ab505cf2847d5d0c90e5cd8f189c7bb6915549c13f619f43dae3e8806867600c5484333386600060405180878152602001806020018673ffffffffffffffffffffffffffffffffffffffff1681526020018573ffffffffffffffffffffffffffffffffffffffff1681526020018481526020018315158152602001828103825287818151815260200191508051906020019080838360005b83811015611bac578082015181840152602081019050611b91565b50505050905090810190601f168015611bd95780820380516001836020036101000a031916815260200191505b5097505050505050505060405180910390a192915050565b6060611bfc82612676565b611c51576040517f08c379a000000000000000000000000000000000000000000000000000000000815260040180806020018281038252602f815260200180613c2d602f913960400191505060405180910390fd5b6000600860008481526020019081526020016000208054600181600116156101000203166002900480601f016020809104026020016040519081016040528092919081815260200182805460018160011615610100020316600290048015611cfa5780601f10611ccf57610100808354040283529160200191611cfa565b820191906000526020600020905b815481529060010190602001808311611cdd57829003601f168201915b50505050509050600060098054600181600116156101000203166002900490501415611d295780915050611ed5565b600081511115611e02576009816040516020018083805460018160011615610100020316600290048015611d945780601f10611d72576101008083540402835291820191611d94565b820191906000526020600020905b815481529060010190602001808311611d80575b505082805190602001908083835b60208310611dc55780518252602082019150602081019050602083039250611da2565b6001836020036101000a03801982511681845116808217855250505050505090500192505050604051602081830303815290604052915050611ed5565b6009611e0d84612b8c565b6040516020018083805460018160011615610100020316600290048015611e6b5780601f10611e49576101008083540402835291820191611e6b565b820191906000526020600020905b815481529060010190602001808311611e57575b505082805190602001908083835b60208310611e9c5780518252602082019150602081019050602083039250611e79565b6001836020036101000a038019825116818451168082178552505050505050905001925050506040516020818303038152906040529150505b919050565b6000611ee6600d612cd3565b6000611ef2600d612ce9565b9050611efe8482612cf7565b611f088184612eeb565b8091505092915050565b6000600b8281548110611f2157fe5b90600052602060002090600602016040518060c001604052908160008201548152602001600182018054600181600116156101000203166002900480601f016020809104026020016040519081016040528092919081815260200182805460018160011615610100020316600290048015611fdd5780601f10611fb257610100808354040283529160200191611fdd565b820191906000526020600020905b815481529060010190602001808311611fc057829003601f168201915b505050505081526020016002820160009054906101000a900473ffffffffffffffffffffffffffffffffffffffff1673ffffffffffffffffffffffffffffffffffffffff1673ffffffffffffffffffffffffffffffffffffffff1681526020016003820160009054906101000a900473ffffffffffffffffffffffffffffffffffffffff1673ffffffffffffffffffffffffffffffffffffffff1673ffffffffffffffffffffffffffffffffffffffff168152602001600482015481526020016005820160009054906101000a900460ff1615151515815250509050600081606001519050600082600001511180156120dc5750600c54826000015111155b6120e557600080fd5b81608001513410156120f657600080fd5b8160a001511561210557600080fd5b3373ffffffffffffffffffffffffffffffffffffffff168173ffffffffffffffffffffffffffffffffffffffff16141561213e57600080fd5b33826060019073ffffffffffffffffffffffffffffffffffffffff16908173ffffffffffffffffffffffffffffffffffffffff168152505060018260a001901515908115158152505081600b848154811061219557fe5b90600052602060002090600602016000820151816000015560208201518160010190805190602001906121c9929190613963565b5060408201518160020160006101000a81548173ffffffffffffffffffffffffffffffffffffffff021916908373ffffffffffffffffffffffffffffffffffffffff16021790555060608201518160030160006101000a81548173ffffffffffffffffffffffffffffffffffffffff021916908373ffffffffffffffffffffffffffffffffffffffff1602179055506080820151816004015560a08201518160050160006101000a81548160ff0219169083151502179055509050508073ffffffffffffffffffffffffffffffffffffffff166108fc349081150290604051600060405180830381858888f193505050501580156122cb573d6000803e3d6000fd5b507fd02669c80e8080accf77760de7ed25befb2def16fdd44a382bdaa2fc4bfe2ecd600c5483602001518460400151338660800151600160405180878152602001806020018673ffffffffffffffffffffffffffffffffffffffff1681526020018573ffffffffffffffffffffffffffffffffffffffff1681526020018481526020018315158152602001828103825287818151815260200191508051906020019080838360005b8381101561238e578082015181840152602081019050612373565b50505050905090810190601f1680156123bb5780820380516001836020036101000a031916815260200191505b5097505050505050505060405180910390a1505050565b6000600560008473ffffffffffffffffffffffffffffffffffffffff1673ffffffffffffffffffffffffffffffffffffffff16815260200190815260200160002060008373ffffffffffffffffffffffffffffffffffffffff1673ffffffffffffffffffffffffffffffffffffffff16815260200190815260200160002060009054906101000a900460ff16905092915050565b61246e612693565b73ffffffffffffffffffffffffffffffffffffffff16600a60009054906101000a900473ffffffffffffffffffffffffffffffffffffffff1673ffffffffffffffffffffffffffffffffffffffff1614612530576040517f08c379a00000000000000000000000000000000000000000000000000000000081526004018080602001828103825260208152602001807f4f776e61626c653a2063616c6c6572206973206e6f7420746865206f776e657281525060200191505060405180910390fd5b600073ffffffffffffffffffffffffffffffffffffffff168173ffffffffffffffffffffffffffffffffffffffff1614156125b6576040517f08c379a0000000000000000000000000000000000000000000000000000000008152600401808060200182810382526026815260200180613a636026913960400191505060405180910390fd5b8073ffffffffffffffffffffffffffffffffffffffff16600a60009054906101000a900473ffffffffffffffffffffffffffffffffffffffff1673ffffffffffffffffffffffffffffffffffffffff167f8be0079c531659141344cd1fd0a4f28419497f9722a3daafe3b4186f6b6457e060405160405180910390a380600a60006101000a81548173ffffffffffffffffffffffffffffffffffffffff021916908373ffffffffffffffffffffffffffffffffffffffff16021790555050565b600061268c826002612f7590919063ffffffff16565b9050919050565b600033905090565b816004600083815260200190815260200160002060006101000a81548173ffffffffffffffffffffffffffffffffffffffff021916908373ffffffffffffffffffffffffffffffffffffffff160217905550808273ffffffffffffffffffffffffffffffffffffffff1661270e83611341565b73ffffffffffffffffffffffffffffffffffffffff167f8c5be1e5ebec7d5bd14f71427d1e84f3dd0314c0f7b2291e5b200ac8c7c3b92560405160405180910390a45050565b600061276282600001612f8f565b9050919050565b600061277482612676565b6127c9576040517f08c379a000000000000000000000000000000000000000000000000000000000815260040180806020018281038252602c815260200180613ad3602c913960400191505060405180910390fd5b60006127d483611341565b90508073ffffffffffffffffffffffffffffffffffffffff168473ffffffffffffffffffffffffffffffffffffffff16148061284357508373ffffffffffffffffffffffffffffffffffffffff1661282b84610f06565b73ffffffffffffffffffffffffffffffffffffffff16145b80612854575061285381856123d2565b5b91505092915050565b8273ffffffffffffffffffffffffffffffffffffffff1661287d82611341565b73ffffffffffffffffffffffffffffffffffffffff16146128e9576040517f08c379a0000000000000000000000000000000000000000000000000000000008152600401808060200182810382526029815260200180613c046029913960400191505060405180910390fd5b600073ffffffffffffffffffffffffffffffffffffffff168273ffffffffffffffffffffffffffffffffffffffff16141561296f576040517f08c379a0000000000000000000000000000000000000000000000000000000008152600401808060200182810382526024815260200180613a896024913960400191505060405180910390fd5b61297a838383612fa0565b61298560008261269b565b6129d681600160008673ffffffffffffffffffffffffffffffffffffffff1673ffffffffffffffffffffffffffffffffffffffff168152602001908152602001600020612fa590919063ffffffff16565b50612a2881600160008573ffffffffffffffffffffffffffffffffffffffff1673ffffffffffffffffffffffffffffffffffffffff168152602001908152602001600020612fbf90919063ffffffff16565b50612a3f81836002612fd99092919063ffffffff16565b50808273ffffffffffffffffffffffffffffffffffffffff168473ffffffffffffffffffffffffffffffffffffffff167fddf252ad1be2c89b69c2b068fc378daa952ba7f163c4a11628f55a4df523b3ef60405160405180910390a4505050565b6000612aaf836000018361300e565b60001c905092915050565b600080600080612acd8660000186613091565b915091508160001c8160001c9350935050509250929050565b6000612af9846000018460001b8461312a565b60001c90509392505050565b6000612b1382600001613220565b9050919050565b612b2584848461285d565b612b3184848484613231565b612b86576040517f08c379a0000000000000000000000000000000000000000000000000000000008152600401808060200182810382526032815260200180613a316032913960400191505060405180910390fd5b50505050565b60606000821415612bd4576040518060400160405280600181526020017f30000000000000000000000000000000000000000000000000000000000000008152509050612cce565b600082905060005b60008214612bfe578080600101915050600a8281612bf657fe5b049150612bdc565b60008167ffffffffffffffff81118015612c1757600080fd5b506040519080825280601f01601f191660200182016040528015612c4a5781602001600182028036833780820191505090505b50905060006001830390508593505b60008414612cc657600a8481612c6b57fe5b0660300160f81b82828060019003935081518110612c8557fe5b60200101907effffffffffffffffffffffffffffffffffffffffffffffffffffffffffffff1916908160001a905350600a8481612cbe57fe5b049350612c59565b819450505050505b919050565b6001816000016000828254019250508190555050565b600081600001549050919050565b600073ffffffffffffffffffffffffffffffffffffffff168273ffffffffffffffffffffffffffffffffffffffff161415612d9a576040517f08c379a00000000000000000000000000000000000000000000000000000000081526004018080602001828103825260208152602001807f4552433732313a206d696e7420746f20746865207a65726f206164647265737381525060200191505060405180910390fd5b612da381612676565b15612e16576040517f08c379a000000000000000000000000000000000000000000000000000000000815260040180806020018281038252601c8152602001807f4552433732313a20746f6b656e20616c7265616479206d696e7465640000000081525060200191505060405180910390fd5b612e2260008383612fa0565b612e7381600160008573ffffffffffffffffffffffffffffffffffffffff1673ffffffffffffffffffffffffffffffffffffffff168152602001908152602001600020612fbf90919063ffffffff16565b50612e8a81836002612fd99092919063ffffffff16565b50808273ffffffffffffffffffffffffffffffffffffffff16600073ffffffffffffffffffffffffffffffffffffffff167fddf252ad1be2c89b69c2b068fc378daa952ba7f163c4a11628f55a4df523b3ef60405160405180910390a45050565b612ef482612676565b612f49576040517f08c379a000000000000000000000000000000000000000000000000000000000815260040180806020018281038252602c815260200180613bd8602c913960400191505060405180910390fd5b80600860008481526020019081526020016000209080519060200190612f70929190613963565b505050565b6000612f87836000018360001b61344a565b905092915050565b600081600001805490509050919050565b505050565b6000612fb7836000018360001b61346d565b905092915050565b6000612fd1836000018360001b613555565b905092915050565b6000613005846000018460001b8473ffffffffffffffffffffffffffffffffffffffff1660001b6135c5565b90509392505050565b60008183600001805490501161306f576040517f08c379a0000000000000000000000000000000000000000000000000000000008152600401808060200182810382526022815260200180613a0f6022913960400191505060405180910390fd5b82600001828154811061307e57fe5b9060005260206000200154905092915050565b600080828460000180549050116130f3576040517f08c379a0000000000000000000000000000000000000000000000000000000008152600401808060200182810382526022815260200180613b8a6022913960400191505060405180910390fd5b600084600001848154811061310457fe5b906000526020600020906002020190508060000154816001015492509250509250929050565b600080846001016000858152602001908152602001600020549050600081141583906131f1576040517f08c379a00000000000000000000000000000000000000000000000000000000081526004018080602001828103825283818151815260200191508051906020019080838360005b838110156131b657808201518184015260208101905061319b565b50505050905090810190601f1680156131e35780820380516001836020036101000a031916815260200191505b509250505060405180910390fd5b5084600001600182038154811061320457fe5b9060005260206000209060020201600101549150509392505050565b600081600001805490509050919050565b60006132528473ffffffffffffffffffffffffffffffffffffffff166136a1565b61325f5760019050613442565b60006133c963150b7a0260e01b613274612693565b888787604051602401808573ffffffffffffffffffffffffffffffffffffffff1681526020018473ffffffffffffffffffffffffffffffffffffffff16815260200183815260200180602001828103825283818151815260200191508051906020019080838360005b838110156132f85780820151818401526020810190506132dd565b50505050905090810190601f1680156133255780820380516001836020036101000a031916815260200191505b5095505050505050604051602081830303815290604052907bffffffffffffffffffffffffffffffffffffffffffffffffffffffff19166020820180517bffffffffffffffffffffffffffffffffffffffffffffffffffffffff8381831617835250505050604051806060016040528060328152602001613a31603291398773ffffffffffffffffffffffffffffffffffffffff166136b49092919063ffffffff16565b905060008180602001905160208110156133e257600080fd5b8101908080519060200190929190505050905063150b7a0260e01b7bffffffffffffffffffffffffffffffffffffffffffffffffffffffff1916817bffffffffffffffffffffffffffffffffffffffffffffffffffffffff191614925050505b949350505050565b600080836001016000848152602001908152602001600020541415905092915050565b6000808360010160008481526020019081526020016000205490506000811461354957600060018203905060006001866000018054905003905060008660000182815481106134b857fe5b90600052602060002001549050808760000184815481106134d557fe5b906000526020600020018190555060018301876001016000838152602001908152602001600020819055508660000180548061350d57fe5b6001900381819060005260206000200160009055905586600101600087815260200190815260200160002060009055600194505050505061354f565b60009150505b92915050565b600061356183836136cc565b6135ba5782600001829080600181540180825580915050600190039060005260206000200160009091909190915055826000018054905083600101600084815260200190815260200160002081905550600190506135bf565b600090505b92915050565b600080846001016000858152602001908152602001600020549050600081141561366c5784600001604051806040016040528086815260200185815250908060018154018082558091505060019003906000526020600020906002020160009091909190915060008201518160000155602082015181600101555050846000018054905085600101600086815260200190815260200160002081905550600191505061369a565b8285600001600183038154811061367f57fe5b90600052602060002090600202016001018190555060009150505b9392505050565b600080823b905060008111915050919050565b60606136c384846000856136ef565b90509392505050565b600080836001016000848152602001908152602001600020541415905092915050565b60608247101561374a576040517f08c379a0000000000000000000000000000000000000000000000000000000008152600401808060200182810382526026815260200180613aad6026913960400191505060405180910390fd5b613753856136a1565b6137c5576040517f08c379a000000000000000000000000000000000000000000000000000000000815260040180806020018281038252601d8152602001807f416464726573733a2063616c6c20746f206e6f6e2d636f6e747261637400000081525060200191505060405180910390fd5b6000808673ffffffffffffffffffffffffffffffffffffffff1685876040518082805190602001908083835b6020831061381457805182526020820191506020810190506020830392506137f1565b6001836020036101000a03801982511681845116808217855250505050505090500191505060006040518083038185875af1925050503d8060008114613876576040519150601f19603f3d011682016040523d82523d6000602084013e61387b565b606091505b509150915061388b828286613897565b92505050949350505050565b606083156138a75782905061395c565b6000835111156138ba5782518084602001fd5b816040517f08c379a00000000000000000000000000000000000000000000000000000000081526004018080602001828103825283818151815260200191508051906020019080838360005b83811015613921578082015181840152602081019050613906565b50505050905090810190601f16801561394e5780820380516001836020036101000a031916815260200191505b509250505060405180910390fd5b9392505050565b828054600181600116156101000203166002900490600052602060002090601f01602090048101928261399957600085556139e0565b82601f106139b257805160ff19168380011785556139e0565b828001600101855582156139e0579182015b828111156139df5782518255916020019190600101906139c4565b5b5090506139ed91906139f1565b5090565b5b80821115613a0a5760008160009055506001016139f2565b509056fe456e756d657261626c655365743a20696e646578206f7574206f6620626f756e64734552433732313a207472616e7366657220746f206e6f6e20455243373231526563656976657220696d706c656d656e7465724f776e61626c653a206e6577206f776e657220697320746865207a65726f20616464726573734552433732313a207472616e7366657220746f20746865207a65726f2061646472657373416464726573733a20696e73756666696369656e742062616c616e636520666f722063616c6c4552433732313a206f70657261746f7220717565727920666f72206e6f6e6578697374656e7420746f6b656e4552433732313a20617070726f76652063616c6c6572206973206e6f74206f776e6572206e6f7220617070726f76656420666f7220616c6c4552433732313a2062616c616e636520717565727920666f7220746865207a65726f20616464726573734552433732313a206f776e657220717565727920666f72206e6f6e6578697374656e7420746f6b656e456e756d657261626c654d61703a20696e646578206f7574206f6620626f756e64734552433732313a20617070726f76656420717565727920666f72206e6f6e6578697374656e7420746f6b656e4552433732314d657461646174613a2055524920736574206f66206e6f6e6578697374656e7420746f6b656e4552433732313a207472616e73666572206f6620746f6b656e2074686174206973206e6f74206f776e4552433732314d657461646174613a2055524920717565727920666f72206e6f6e6578697374656e7420746f6b656e4552433732313a20617070726f76616c20746f2063757272656e74206f776e65724552433732313a207472616e736665722063616c6c6572206973206e6f74206f776e6572206e6f7220617070726f766564a264697066735822122098836bd7d897909027bb54108e4575aa1d82465205e951fae645426f5570aecc64736f6c63430007060033",
  "immutableReferences": {},
  "source": "// SPDX-License-Identifier: MIT\n\npragma solidity >=0.5.0 <0.8.0;\n\nimport \"@openzeppelin/contracts/token/ERC721/ERC721.sol\";\nimport \"@openzeppelin/contracts/token/ERC721/IERC721.sol\";\nimport \"@openzeppelin/contracts/token/ERC721/IERC721Receiver.sol\";\nimport \"@openzeppelin/contracts/token/ERC721/ERC721Holder.sol\";\nimport \"@openzeppelin/contracts/token/ERC721/IERC721Metadata.sol\";\nimport \"@openzeppelin/contracts/access/Ownable.sol\";\nimport \"@openzeppelin/contracts/utils/Counters.sol\";\nimport \"@openzeppelin/contracts/math/SafeMath.sol\";\nimport \"@openzeppelin/contracts/utils/SafeCast.sol\";\n\n\n\ncontract W3irds is Ownable {\n    using SafeMath for uint256;\n    using SafeCast for uint256;\n\n    //using Counters for Counters.Counter;\n    //Counters.Counter private _projectIds;\n    //mapping(string => uint8) ipfshashes;\n\n   // constructor() public ERC721(\"W3irds Art\" , \"3A\") {}\n\n\n   //string public name = \"W3irds Art\";\n    //string [] public projects;\n    //Project information\n        struct Project {\n            //Art details\n            uint256 id;\n            //Name\n            //string name;\n            //going private\n            //string nameprefix;//No need\n            //DB Address\n            //string dbaddress\n            //going for an ipfs hash of a json file with all the data\n            string ipfshash;\n            //I need a preview\n            //string imagehash; got rid of this one\n            //timestamp??\n            //string timestamp;\n            //ownership\n            address payable creator;\n            //Owner??\n            address payable keeper;\n            //Price\n            uint256 price;\n            //purchased\n            bool purchased;\n        }\n        //List of all projects\n        Project[] public projects;\n        //mapping(uint => Project) public projects;\n\n\n//I am doing this one to get track of the 'id' in Project struct Otherwise I will need Counters for this\n    uint256 public projectCount = 0;\n    //uint256 private price = 3000000000000000000;\n\n/***got rid of these */\n    //string private _nameprefix = 'W3art-Project-';\n\n    //Events\n    event ProjectCreated(uint256 id, string ipfshash, address payable creator, address payable keeper, uint256 price, bool purchased);\n    event ProjectKeeperChanged(uint256 id, string ipfshahs, address payable creator, address payable keeper, uint256 price, bool purchased);\n      \n    //Create new project\n        function newProject(\n            string memory _ipfshash,\n            //string memory _imagehash\n            //address _creator\n            uint256 price\n        ) public returns (uint256)\n        {\n            projectCount++;\n            //uint256 id = projects.length;\n            projects.push(\n                Project(projectCount, _ipfshash, msg.sender, msg.sender, price, false)\n            );\n            //_safeMint(msg.sender, id);\n            //I chose to have the ipfshash as the tokenURI*** I couldn't figure out a way to set the default\n            //Image--- if someone used only the code art part? I need a way to take a snapshot of the project\n            //right before it is published and save that as the preview**Even so I fear gas fees***also I want \n            //to implement the Gas Station Network but I fear I have not enough funds for that so I am waiting on it\n            //_setTokenURI(id, _ipfshash);\n            //return id;\n            emit ProjectCreated(projectCount, _ipfshash, msg.sender, msg.sender, price, false);\n        }\n    //Sell a project?? Essentially the idea is to transfer the Keeper role to another\n      \n    function purchaseProject(uint _id) public payable {\n        // Fetch the product\n        Project memory _project = projects[_id];\n        // Fetch the owner\n        address payable _seller = _project.keeper;\n        // Make sure the product has a valid id\n        require(_project.id > 0 && _project.id <= projectCount);\n        // Require that there is enough Ether in the transaction\n        require(msg.value >= _project.price);\n        // Require that the product has not been purchased already\n        require(!_project.purchased);\n        // Require that the buyer is not the seller\n        require(_seller != msg.sender);\n        // Transfer ownership to the buyer\n        _project.keeper = msg.sender;\n        // Mark as purchased\n        _project.purchased = true;\n        // Update the product\n        projects[_id] = _project;\n        // Pay the seller by sending them Ether\n        _seller.transfer(msg.value);\n        // Trigger an event\n        emit ProjectKeeperChanged(projectCount, _project.ipfshash,  _project.creator, msg.sender, _project.price, true);\n    }\n   \n}\n\n\ncontract W3irdsTokens is ERC721, W3irds {\n    using Counters for Counters.Counter;\n    Counters.Counter private _tokenIds;\n\n    \n\n    constructor() public ERC721('Web3Art Project Tokens', '3A') {}\n\n    function awardItem(address keeper, string memory tokenURI)\n        public //onlyOwner()\n        returns (uint256)\n        {\n            _tokenIds.increment();\n\n            uint256 newItemId = _tokenIds.current();\n            _mint(keeper, newItemId);\n            _setTokenURI(newItemId, tokenURI);\n\n            return newItemId;\n        }\n    \n    function tossCoin(address creator, uint256 amount)\n    public\n    {\n        \n    }\n}\n\n\n\n\n\n",
  "sourcePath": "/Applications/Ampps/www/W3irds/artwork/src/contracts/w3irds.sol",
  "compiler": {
    "name": "solc",
    "version": "0.7.6+commit.7338295f.Emscripten.clang"
  },
  "schemaVersion": "3.3.3",
  "updatedAt": "2021-02-03T13:11:44.560Z",
  "devdoc": {
    "kind": "dev",
    "methods": {
      "approve(address,uint256)": {
        "details": "See {IERC721-approve}."
      },
      "balanceOf(address)": {
        "details": "See {IERC721-balanceOf}."
      },
      "baseURI()": {
        "details": "Returns the base URI set via {_setBaseURI}. This will be automatically added as a prefix in {tokenURI} to each token's URI, or to the token ID if no specific URI is set for that token ID."
      },
      "getApproved(uint256)": {
        "details": "See {IERC721-getApproved}."
      },
      "isApprovedForAll(address,address)": {
        "details": "See {IERC721-isApprovedForAll}."
      },
      "name()": {
        "details": "See {IERC721Metadata-name}."
      },
      "owner()": {
        "details": "Returns the address of the current owner."
      },
      "ownerOf(uint256)": {
        "details": "See {IERC721-ownerOf}."
      },
      "renounceOwnership()": {
        "details": "Leaves the contract without owner. It will not be possible to call `onlyOwner` functions anymore. Can only be called by the current owner. NOTE: Renouncing ownership will leave the contract without an owner, thereby removing any functionality that is only available to the owner."
      },
      "safeTransferFrom(address,address,uint256)": {
        "details": "See {IERC721-safeTransferFrom}."
      },
      "safeTransferFrom(address,address,uint256,bytes)": {
        "details": "See {IERC721-safeTransferFrom}."
      },
      "setApprovalForAll(address,bool)": {
        "details": "See {IERC721-setApprovalForAll}."
      },
      "supportsInterface(bytes4)": {
        "details": "See {IERC165-supportsInterface}. Time complexity O(1), guaranteed to always use less than 30 000 gas."
      },
      "symbol()": {
        "details": "See {IERC721Metadata-symbol}."
      },
      "tokenByIndex(uint256)": {
        "details": "See {IERC721Enumerable-tokenByIndex}."
      },
      "tokenOfOwnerByIndex(address,uint256)": {
        "details": "See {IERC721Enumerable-tokenOfOwnerByIndex}."
      },
      "tokenURI(uint256)": {
        "details": "See {IERC721Metadata-tokenURI}."
      },
      "totalSupply()": {
        "details": "See {IERC721Enumerable-totalSupply}."
      },
      "transferFrom(address,address,uint256)": {
        "details": "See {IERC721-transferFrom}."
      },
      "transferOwnership(address)": {
        "details": "Transfers ownership of the contract to a new account (`newOwner`). Can only be called by the current owner."
      }
    },
    "version": 1
  },
  "userdoc": {
    "kind": "user",
    "methods": {},
    "version": 1
  }
}