{
  "contractName": "W3irds",
  "abi": [
    {
      "inputs": [],
      "stateMutability": "nonpayable",
      "type": "constructor"
    },
    {
      "anonymous": false,
      "inputs": [
        {
          "indexed": true,
          "internalType": "address",
          "name": "owner",
          "type": "address"
        },
        {
          "indexed": true,
          "internalType": "address",
          "name": "approved",
          "type": "address"
        },
        {
          "indexed": true,
          "internalType": "uint256",
          "name": "tokenId",
          "type": "uint256"
        }
      ],
      "name": "Approval",
      "type": "event"
    },
    {
      "anonymous": false,
      "inputs": [
        {
          "indexed": true,
          "internalType": "address",
          "name": "owner",
          "type": "address"
        },
        {
          "indexed": true,
          "internalType": "address",
          "name": "operator",
          "type": "address"
        },
        {
          "indexed": false,
          "internalType": "bool",
          "name": "approved",
          "type": "bool"
        }
      ],
      "name": "ApprovalForAll",
      "type": "event"
    },
    {
      "anonymous": false,
      "inputs": [
        {
          "indexed": true,
          "internalType": "uint256",
          "name": "projectId",
          "type": "uint256"
        },
        {
          "indexed": true,
          "internalType": "uint256",
          "name": "opponentId",
          "type": "uint256"
        },
        {
          "indexed": true,
          "internalType": "uint256",
          "name": "winner",
          "type": "uint256"
        }
      ],
      "name": "ContestEntered",
      "type": "event"
    },
    {
      "anonymous": false,
      "inputs": [
        {
          "indexed": true,
          "internalType": "uint256",
          "name": "projectId",
          "type": "uint256"
        }
      ],
      "name": "Delist",
      "type": "event"
    },
    {
      "anonymous": false,
      "inputs": [
        {
          "indexed": true,
          "internalType": "uint256",
          "name": "projectId",
          "type": "uint256"
        }
      ],
      "name": "Enlist",
      "type": "event"
    },
    {
      "anonymous": false,
      "inputs": [
        {
          "indexed": true,
          "internalType": "uint256",
          "name": "projectId",
          "type": "uint256"
        },
        {
          "indexed": false,
          "internalType": "enum W3irds.Attribute",
          "name": "attribute",
          "type": "uint8"
        }
      ],
      "name": "Grow",
      "type": "event"
    },
    {
      "anonymous": false,
      "inputs": [
        {
          "indexed": true,
          "internalType": "address",
          "name": "previousOwner",
          "type": "address"
        },
        {
          "indexed": true,
          "internalType": "address",
          "name": "newOwner",
          "type": "address"
        }
      ],
      "name": "OwnershipTransferred",
      "type": "event"
    },
    {
      "anonymous": false,
      "inputs": [
        {
          "indexed": true,
          "internalType": "uint256",
          "name": "projectId",
          "type": "uint256"
        }
      ],
      "name": "Rest",
      "type": "event"
    },
    {
      "anonymous": false,
      "inputs": [
        {
          "indexed": true,
          "internalType": "address",
          "name": "from",
          "type": "address"
        },
        {
          "indexed": true,
          "internalType": "address",
          "name": "to",
          "type": "address"
        },
        {
          "indexed": true,
          "internalType": "uint256",
          "name": "tokenId",
          "type": "uint256"
        }
      ],
      "name": "Transfer",
      "type": "event"
    },
    {
      "inputs": [
        {
          "internalType": "address",
          "name": "to",
          "type": "address"
        },
        {
          "internalType": "uint256",
          "name": "tokenId",
          "type": "uint256"
        }
      ],
      "name": "approve",
      "outputs": [],
      "stateMutability": "nonpayable",
      "type": "function"
    },
    {
      "inputs": [],
      "name": "attributeGainOnGrow",
      "outputs": [
        {
          "internalType": "uint8",
          "name": "",
          "type": "uint8"
        }
      ],
      "stateMutability": "view",
      "type": "function",
      "constant": true
    },
    {
      "inputs": [
        {
          "internalType": "address",
          "name": "owner",
          "type": "address"
        }
      ],
      "name": "balanceOf",
      "outputs": [
        {
          "internalType": "uint256",
          "name": "",
          "type": "uint256"
        }
      ],
      "stateMutability": "view",
      "type": "function",
      "constant": true
    },
    {
      "inputs": [],
      "name": "baseURI",
      "outputs": [
        {
          "internalType": "string",
          "name": "",
          "type": "string"
        }
      ],
      "stateMutability": "view",
      "type": "function",
      "constant": true
    },
    {
      "inputs": [
        {
          "internalType": "uint256",
          "name": "",
          "type": "uint256"
        }
      ],
      "name": "enlistedProjects",
      "outputs": [
        {
          "internalType": "bool",
          "name": "",
          "type": "bool"
        }
      ],
      "stateMutability": "view",
      "type": "function",
      "constant": true
    },
    {
      "inputs": [
        {
          "internalType": "uint256",
          "name": "tokenId",
          "type": "uint256"
        }
      ],
      "name": "getApproved",
      "outputs": [
        {
          "internalType": "address",
          "name": "",
          "type": "address"
        }
      ],
      "stateMutability": "view",
      "type": "function",
      "constant": true
    },
    {
      "inputs": [
        {
          "internalType": "address",
          "name": "owner",
          "type": "address"
        },
        {
          "internalType": "address",
          "name": "operator",
          "type": "address"
        }
      ],
      "name": "isApprovedForAll",
      "outputs": [
        {
          "internalType": "bool",
          "name": "",
          "type": "bool"
        }
      ],
      "stateMutability": "view",
      "type": "function",
      "constant": true
    },
    {
      "inputs": [],
      "name": "lifecycleCostToGrow",
      "outputs": [
        {
          "internalType": "uint8",
          "name": "",
          "type": "uint8"
        }
      ],
      "stateMutability": "view",
      "type": "function",
      "constant": true
    },
    {
      "inputs": [],
      "name": "lifecycleCostToRest",
      "outputs": [
        {
          "internalType": "uint8",
          "name": "",
          "type": "uint8"
        }
      ],
      "stateMutability": "view",
      "type": "function",
      "constant": true
    },
    {
      "inputs": [],
      "name": "lifecycleGainLose",
      "outputs": [
        {
          "internalType": "uint8",
          "name": "",
          "type": "uint8"
        }
      ],
      "stateMutability": "view",
      "type": "function",
      "constant": true
    },
    {
      "inputs": [],
      "name": "lifecycleGainWin",
      "outputs": [
        {
          "internalType": "uint8",
          "name": "",
          "type": "uint8"
        }
      ],
      "stateMutability": "view",
      "type": "function",
      "constant": true
    },
    {
      "inputs": [],
      "name": "name",
      "outputs": [
        {
          "internalType": "string",
          "name": "",
          "type": "string"
        }
      ],
      "stateMutability": "view",
      "type": "function",
      "constant": true
    },
    {
      "inputs": [],
      "name": "owner",
      "outputs": [
        {
          "internalType": "address",
          "name": "",
          "type": "address"
        }
      ],
      "stateMutability": "view",
      "type": "function",
      "constant": true
    },
    {
      "inputs": [
        {
          "internalType": "uint256",
          "name": "tokenId",
          "type": "uint256"
        }
      ],
      "name": "ownerOf",
      "outputs": [
        {
          "internalType": "address",
          "name": "",
          "type": "address"
        }
      ],
      "stateMutability": "view",
      "type": "function",
      "constant": true
    },
    {
      "inputs": [],
      "name": "projectCount",
      "outputs": [
        {
          "internalType": "uint256",
          "name": "",
          "type": "uint256"
        }
      ],
      "stateMutability": "view",
      "type": "function",
      "constant": true
    },
    {
      "inputs": [
        {
          "internalType": "uint256",
          "name": "",
          "type": "uint256"
        }
      ],
      "name": "projects",
      "outputs": [
        {
          "internalType": "uint256",
          "name": "id",
          "type": "uint256"
        },
        {
          "internalType": "uint256",
          "name": "lifecycle",
          "type": "uint256"
        },
        {
          "internalType": "string",
          "name": "name",
          "type": "string"
        },
        {
          "internalType": "uint8",
          "name": "age",
          "type": "uint8"
        },
        {
          "internalType": "uint8",
          "name": "scope",
          "type": "uint8"
        },
        {
          "internalType": "uint8",
          "name": "state",
          "type": "uint8"
        },
        {
          "internalType": "uint8",
          "name": "technique",
          "type": "uint8"
        },
        {
          "internalType": "uint8",
          "name": "aesthetics",
          "type": "uint8"
        },
        {
          "internalType": "uint8",
          "name": "usage",
          "type": "uint8"
        },
        {
          "internalType": "uint8",
          "name": "popularity",
          "type": "uint8"
        },
        {
          "internalType": "address payable",
          "name": "creator",
          "type": "address"
        },
        {
          "internalType": "bool",
          "name": "enlistedProjects",
          "type": "bool"
        }
      ],
      "stateMutability": "view",
      "type": "function",
      "constant": true
    },
    {
      "inputs": [],
      "name": "renounceOwnership",
      "outputs": [],
      "stateMutability": "nonpayable",
      "type": "function"
    },
    {
      "inputs": [
        {
          "internalType": "address",
          "name": "from",
          "type": "address"
        },
        {
          "internalType": "address",
          "name": "to",
          "type": "address"
        },
        {
          "internalType": "uint256",
          "name": "tokenId",
          "type": "uint256"
        }
      ],
      "name": "safeTransferFrom",
      "outputs": [],
      "stateMutability": "nonpayable",
      "type": "function"
    },
    {
      "inputs": [
        {
          "internalType": "address",
          "name": "from",
          "type": "address"
        },
        {
          "internalType": "address",
          "name": "to",
          "type": "address"
        },
        {
          "internalType": "uint256",
          "name": "tokenId",
          "type": "uint256"
        },
        {
          "internalType": "bytes",
          "name": "_data",
          "type": "bytes"
        }
      ],
      "name": "safeTransferFrom",
      "outputs": [],
      "stateMutability": "nonpayable",
      "type": "function"
    },
    {
      "inputs": [
        {
          "internalType": "address",
          "name": "operator",
          "type": "address"
        },
        {
          "internalType": "bool",
          "name": "approved",
          "type": "bool"
        }
      ],
      "name": "setApprovalForAll",
      "outputs": [],
      "stateMutability": "nonpayable",
      "type": "function"
    },
    {
      "inputs": [],
      "name": "stateCostToComplete",
      "outputs": [
        {
          "internalType": "uint8",
          "name": "",
          "type": "uint8"
        }
      ],
      "stateMutability": "view",
      "type": "function",
      "constant": true
    },
    {
      "inputs": [],
      "name": "stateCostToGrow",
      "outputs": [
        {
          "internalType": "uint8",
          "name": "",
          "type": "uint8"
        }
      ],
      "stateMutability": "view",
      "type": "function",
      "constant": true
    },
    {
      "inputs": [],
      "name": "stateGainOnRest",
      "outputs": [
        {
          "internalType": "uint8",
          "name": "",
          "type": "uint8"
        }
      ],
      "stateMutability": "view",
      "type": "function",
      "constant": true
    },
    {
      "inputs": [
        {
          "internalType": "bytes4",
          "name": "interfaceId",
          "type": "bytes4"
        }
      ],
      "name": "supportsInterface",
      "outputs": [
        {
          "internalType": "bool",
          "name": "",
          "type": "bool"
        }
      ],
      "stateMutability": "view",
      "type": "function",
      "constant": true
    },
    {
      "inputs": [],
      "name": "symbol",
      "outputs": [
        {
          "internalType": "string",
          "name": "",
          "type": "string"
        }
      ],
      "stateMutability": "view",
      "type": "function",
      "constant": true
    },
    {
      "inputs": [
        {
          "internalType": "uint256",
          "name": "index",
          "type": "uint256"
        }
      ],
      "name": "tokenByIndex",
      "outputs": [
        {
          "internalType": "uint256",
          "name": "",
          "type": "uint256"
        }
      ],
      "stateMutability": "view",
      "type": "function",
      "constant": true
    },
    {
      "inputs": [
        {
          "internalType": "address",
          "name": "owner",
          "type": "address"
        },
        {
          "internalType": "uint256",
          "name": "index",
          "type": "uint256"
        }
      ],
      "name": "tokenOfOwnerByIndex",
      "outputs": [
        {
          "internalType": "uint256",
          "name": "",
          "type": "uint256"
        }
      ],
      "stateMutability": "view",
      "type": "function",
      "constant": true
    },
    {
      "inputs": [
        {
          "internalType": "uint256",
          "name": "tokenId",
          "type": "uint256"
        }
      ],
      "name": "tokenURI",
      "outputs": [
        {
          "internalType": "string",
          "name": "",
          "type": "string"
        }
      ],
      "stateMutability": "view",
      "type": "function",
      "constant": true
    },
    {
      "inputs": [],
      "name": "totalSupply",
      "outputs": [
        {
          "internalType": "uint256",
          "name": "",
          "type": "uint256"
        }
      ],
      "stateMutability": "view",
      "type": "function",
      "constant": true
    },
    {
      "inputs": [
        {
          "internalType": "address",
          "name": "from",
          "type": "address"
        },
        {
          "internalType": "address",
          "name": "to",
          "type": "address"
        },
        {
          "internalType": "uint256",
          "name": "tokenId",
          "type": "uint256"
        }
      ],
      "name": "transferFrom",
      "outputs": [],
      "stateMutability": "nonpayable",
      "type": "function"
    },
    {
      "inputs": [
        {
          "internalType": "address",
          "name": "newOwner",
          "type": "address"
        }
      ],
      "name": "transferOwnership",
      "outputs": [],
      "stateMutability": "nonpayable",
      "type": "function"
    },
    {
      "inputs": [
        {
          "internalType": "string",
          "name": "_name",
          "type": "string"
        }
      ],
      "name": "newProject",
      "outputs": [
        {
          "internalType": "uint256",
          "name": "",
          "type": "uint256"
        }
      ],
      "stateMutability": "nonpayable",
      "type": "function"
    },
    {
      "inputs": [
        {
          "internalType": "uint256",
          "name": "_id",
          "type": "uint256"
        },
        {
          "internalType": "enum W3irds.Attribute",
          "name": "_attr",
          "type": "uint8"
        }
      ],
      "name": "grow",
      "outputs": [],
      "stateMutability": "nonpayable",
      "type": "function"
    },
    {
      "inputs": [
        {
          "internalType": "uint256",
          "name": "_id",
          "type": "uint256"
        }
      ],
      "name": "rest",
      "outputs": [],
      "stateMutability": "nonpayable",
      "type": "function"
    },
    {
      "inputs": [
        {
          "internalType": "uint256",
          "name": "_id",
          "type": "uint256"
        }
      ],
      "name": "enlist",
      "outputs": [],
      "stateMutability": "nonpayable",
      "type": "function"
    },
    {
      "inputs": [
        {
          "internalType": "uint256",
          "name": "_id",
          "type": "uint256"
        }
      ],
      "name": "delist",
      "outputs": [],
      "stateMutability": "nonpayable",
      "type": "function"
    },
    {
      "inputs": [
        {
          "internalType": "uint256",
          "name": "_id",
          "type": "uint256"
        },
        {
          "internalType": "uint256",
          "name": "_opponentId",
          "type": "uint256"
        }
      ],
      "name": "enterContest",
      "outputs": [],
      "stateMutability": "nonpayable",
      "type": "function"
    }
  ],
  "bytecode": "0x60806040526000600c556064600d556000600e60006101000a81548160ff021916908360ff1602179055506001600e60016101000a81548160ff021916908360ff16021790555060ff600e60026101000a81548160ff021916908360ff1602179055506001600e60036101000a81548160ff021916908360ff1602179055506001600e60046101000a81548160ff021916908360ff1602179055506002600e60056101000a81548160ff021916908360ff1602179055506001600e60066101000a81548160ff021916908360ff1602179055506005600e60076101000a81548160ff021916908360ff1602179055506008600e60086101000a81548160ff021916908360ff1602179055506001600e60096101000a81548160ff021916908360ff1602179055506006600e600a6101000a81548160ff021916908360ff160217905550600f600e600b6101000a81548160ff021916908360ff1602179055506014600e600c6101000a81548160ff021916908360ff160217905550600a600e600d6101000a81548160ff021916908360ff1602179055506005600e806101000a81548160ff021916908360ff160217905550348015620001be57600080fd5b506040518060400160405280600a81526020017f57336972647320417274000000000000000000000000000000000000000000008152506040518060400160405280600281526020017f3341000000000000000000000000000000000000000000000000000000000000815250620002436301ffc9a760e01b6200037660201b60201c565b81600690805190602001906200025b92919062000487565b5080600790805190602001906200027492919062000487565b506200028d6380ac58cd60e01b6200037660201b60201c565b620002a5635b5e139f60e01b6200037660201b60201c565b620002bd63780e9d6360e01b6200037660201b60201c565b50506000620002d16200047f60201b60201c565b905080600a60006101000a81548173ffffffffffffffffffffffffffffffffffffffff021916908373ffffffffffffffffffffffffffffffffffffffff1602179055508073ffffffffffffffffffffffffffffffffffffffff16600073ffffffffffffffffffffffffffffffffffffffff167f8be0079c531659141344cd1fd0a4f28419497f9722a3daafe3b4186f6b6457e060405160405180910390a3506200053d565b63ffffffff60e01b817bffffffffffffffffffffffffffffffffffffffffffffffffffffffff1916141562000413576040517f08c379a000000000000000000000000000000000000000000000000000000000815260040180806020018281038252601c8152602001807f4552433136353a20696e76616c696420696e746572666163652069640000000081525060200191505060405180910390fd5b6001600080837bffffffffffffffffffffffffffffffffffffffffffffffffffffffff19167bffffffffffffffffffffffffffffffffffffffffffffffffffffffff1916815260200190815260200160002060006101000a81548160ff02191690831515021790555050565b600033905090565b828054600181600116156101000203166002900490600052602060002090601f016020900481019282620004bf57600085556200050b565b82601f10620004da57805160ff19168380011785556200050b565b828001600101855582156200050b579182015b828111156200050a578251825591602001919060010190620004ed565b5b5090506200051a91906200051e565b5090565b5b80821115620005395760008160009055506001016200051f565b5090565b614da5806200054d6000396000f3fe608060405234801561001057600080fd5b50600436106102275760003560e01c80636c0360eb11610130578063ace53ce4116100b8578063dd3f055e1161007c578063dd3f055e14610c8c578063e1cac57b14610cad578063e985e9c514610d7c578063f19ce39214610df6578063f2fde38b14610e1757610227565b8063ace53ce414610a7d578063b88d4fde14610a9e578063c2902db614610ba3578063c87b56dd14610bc4578063cd68984514610c6b57610227565b8063811a6eae116100ff578063811a6eae146109275780638da5cb5b1461094857806395d89b411461097c578063964bc33f146109ff578063a22cb46514610a2d57610227565b80636c0360eb146108145780636e8eb2221461089757806370a08231146108c5578063715018a61461091d57610227565b806336fbad26116101b3578063437f57e011610182578063437f57e0146107005780634b2b7c0d146107215780634f6ccce7146107425780635989f046146107845780636352211e146107bc57610227565b806336fbad26146106025780633cd1b518146106205780633d8b78941461066457806342842e0e1461069257610227565b8063107046bd116101fa578063107046bd146103b857806316354d04146104d957806318160ddd1461051457806323b872dd146105325780632f745c59146105a057610227565b806301ffc9a71461022c57806306fdde031461028f578063081812fc14610312578063095ea7b31461036a575b600080fd5b6102776004803603602081101561024257600080fd5b8101908080357bffffffffffffffffffffffffffffffffffffffffffffffffffffffff19169060200190929190505050610e5b565b60405180821515815260200191505060405180910390f35b610297610ec2565b6040518080602001828103825283818151815260200191508051906020019080838360005b838110156102d75780820151818401526020810190506102bc565b50505050905090810190601f1680156103045780820380516001836020036101000a031916815260200191505b509250505060405180910390f35b61033e6004803603602081101561032857600080fd5b8101908080359060200190929190505050610f64565b604051808273ffffffffffffffffffffffffffffffffffffffff16815260200191505060405180910390f35b6103b66004803603604081101561038057600080fd5b81019080803573ffffffffffffffffffffffffffffffffffffffff16906020019092919080359060200190929190505050610fff565b005b6103e4600480360360208110156103ce57600080fd5b8101908080359060200190929190505050611143565b604051808d81526020018c8152602001806020018b60ff1681526020018a60ff1681526020018960ff1681526020018860ff1681526020018760ff1681526020018660ff1681526020018560ff1681526020018473ffffffffffffffffffffffffffffffffffffffff168152602001831515815260200182810382528c818151815260200191508051906020019080838360005b83811015610493578082015181840152602081019050610478565b50505050905090810190601f1680156104c05780820380516001836020036101000a031916815260200191505b509d505050505050505050505050505060405180910390f35b610512600480360360408110156104ef57600080fd5b8101908080359060200190929190803560ff1690602001909291905050506112d3565b005b61051c6116ef565b6040518082815260200191505060405180910390f35b61059e6004803603606081101561054857600080fd5b81019080803573ffffffffffffffffffffffffffffffffffffffff169060200190929190803573ffffffffffffffffffffffffffffffffffffffff16906020019092919080359060200190929190505050611700565b005b6105ec600480360360408110156105b657600080fd5b81019080803573ffffffffffffffffffffffffffffffffffffffff16906020019092919080359060200190929190505050611776565b6040518082815260200191505060405180910390f35b61060a6117d1565b6040518082815260200191505060405180910390f35b61064c6004803603602081101561063657600080fd5b81019080803590602001909291905050506117d7565b60405180821515815260200191505060405180910390f35b6106906004803603602081101561067a57600080fd5b81019080803590602001909291905050506117f7565b005b6106fe600480360360608110156106a857600080fd5b81019080803573ffffffffffffffffffffffffffffffffffffffff169060200190929190803573ffffffffffffffffffffffffffffffffffffffff16906020019092919080359060200190929190505050611a12565b005b610708611a32565b604051808260ff16815260200191505060405180910390f35b610729611a43565b604051808260ff16815260200191505060405180910390f35b61076e6004803603602081101561075857600080fd5b8101908080359060200190929190505050611a56565b6040518082815260200191505060405180910390f35b6107ba6004803603604081101561079a57600080fd5b810190808035906020019092919080359060200190929190505050611a79565b005b6107e8600480360360208110156107d257600080fd5b81019080803590602001909291905050506120eb565b604051808273ffffffffffffffffffffffffffffffffffffffff16815260200191505060405180910390f35b61081c612122565b6040518080602001828103825283818151815260200191508051906020019080838360005b8381101561085c578082015181840152602081019050610841565b50505050905090810190601f1680156108895780820380516001836020036101000a031916815260200191505b509250505060405180910390f35b6108c3600480360360208110156108ad57600080fd5b81019080803590602001909291905050506121c4565b005b610907600480360360208110156108db57600080fd5b81019080803573ffffffffffffffffffffffffffffffffffffffff169060200190929190505050612370565b6040518082815260200191505060405180910390f35b610925612445565b005b61092f6125d0565b604051808260ff16815260200191505060405180910390f35b6109506125e3565b604051808273ffffffffffffffffffffffffffffffffffffffff16815260200191505060405180910390f35b61098461260d565b6040518080602001828103825283818151815260200191508051906020019080838360005b838110156109c45780820151818401526020810190506109a9565b50505050905090810190601f1680156109f15780820380516001836020036101000a031916815260200191505b509250505060405180910390f35b610a2b60048036036020811015610a1557600080fd5b81019080803590602001909291905050506126af565b005b610a7b60048036036040811015610a4357600080fd5b81019080803573ffffffffffffffffffffffffffffffffffffffff1690602001909291908035151590602001909291905050506127e1565b005b610a85612997565b604051808260ff16815260200191505060405180910390f35b610ba160048036036080811015610ab457600080fd5b81019080803573ffffffffffffffffffffffffffffffffffffffff169060200190929190803573ffffffffffffffffffffffffffffffffffffffff1690602001909291908035906020019092919080359060200190640100000000811115610b1b57600080fd5b820183602082011115610b2d57600080fd5b80359060200191846001830284011164010000000083111715610b4f57600080fd5b91908080601f016020809104026020016040519081016040528093929190818152602001838380828437600081840152601f19601f8201169050808301925050505050505091929192905050506129aa565b005b610bab612a22565b604051808260ff16815260200191505060405180910390f35b610bf060048036036020811015610bda57600080fd5b8101908080359060200190929190505050612a35565b6040518080602001828103825283818151815260200191508051906020019080838360005b83811015610c30578082015181840152602081019050610c15565b50505050905090810190601f168015610c5d5780820380516001836020036101000a031916815260200191505b509250505060405180910390f35b610c73612d1e565b604051808260ff16815260200191505060405180910390f35b610c94612d31565b604051808260ff16815260200191505060405180910390f35b610d6660048036036020811015610cc357600080fd5b8101908080359060200190640100000000811115610ce057600080fd5b820183602082011115610cf257600080fd5b80359060200191846001830284011164010000000083111715610d1457600080fd5b91908080601f016020809104026020016040519081016040528093929190818152602001838380828437600081840152601f19601f820116905080830192505050505050509192919290505050612d44565b6040518082815260200191505060405180910390f35b610dde60048036036040811015610d9257600080fd5b81019080803573ffffffffffffffffffffffffffffffffffffffff169060200190929190803573ffffffffffffffffffffffffffffffffffffffff169060200190929190505050613012565b60405180821515815260200191505060405180910390f35b610dfe6130a6565b604051808260ff16815260200191505060405180910390f35b610e5960048036036020811015610e2d57600080fd5b81019080803573ffffffffffffffffffffffffffffffffffffffff1690602001909291905050506130b9565b005b6000806000837bffffffffffffffffffffffffffffffffffffffffffffffffffffffff19167bffffffffffffffffffffffffffffffffffffffffffffffffffffffff1916815260200190815260200160002060009054906101000a900460ff169050919050565b606060068054600181600116156101000203166002900480601f016020809104026020016040519081016040528092919081815260200182805460018160011615610100020316600290048015610f5a5780601f10610f2f57610100808354040283529160200191610f5a565b820191906000526020600020905b815481529060010190602001808311610f3d57829003601f168201915b5050505050905090565b6000610f6f826132c9565b610fc4576040517f08c379a000000000000000000000000000000000000000000000000000000000815260040180806020018281038252602c815260200180614c29602c913960400191505060405180910390fd5b6004600083815260200190815260200160002060009054906101000a900473ffffffffffffffffffffffffffffffffffffffff169050919050565b600061100a826120eb565b90508073ffffffffffffffffffffffffffffffffffffffff168373ffffffffffffffffffffffffffffffffffffffff161415611091576040517f08c379a0000000000000000000000000000000000000000000000000000000008152600401808060200182810382526021815260200180614cad6021913960400191505060405180910390fd5b8073ffffffffffffffffffffffffffffffffffffffff166110b06132e6565b73ffffffffffffffffffffffffffffffffffffffff1614806110df57506110de816110d96132e6565b613012565b5b611134576040517f08c379a0000000000000000000000000000000000000000000000000000000008152600401808060200182810382526038815260200180614b386038913960400191505060405180910390fd5b61113e83836132ee565b505050565b600b818154811061115357600080fd5b9060005260206000209060040201600091509050806000015490806001015490806002018054600181600116156101000203166002900480601f01602080910402602001604051908101604052809291908181526020018280546001816001161561010002031660029004801561120b5780601f106111e05761010080835404028352916020019161120b565b820191906000526020600020905b8154815290600101906020018083116111ee57829003601f168201915b5050505050908060030160009054906101000a900460ff16908060030160019054906101000a900460ff16908060030160029054906101000a900460ff16908060030160039054906101000a900460ff16908060030160049054906101000a900460ff16908060030160059054906101000a900460ff16908060030160069054906101000a900460ff16908060030160079054906101000a900473ffffffffffffffffffffffffffffffffffffffff169080600301601b9054906101000a900460ff1690508c565b3373ffffffffffffffffffffffffffffffffffffffff166112f3836120eb565b73ffffffffffffffffffffffffffffffffffffffff161461135f576040517f08c379a0000000000000000000000000000000000000000000000000000000008152600401808060200182810382526023815260200180614d246023913960400191505060405180910390fd5b6113a3600b838154811061136f57fe5b906000526020600020906004020160030160029054906101000a900460ff16600e60079054906101000a900460ff166133a7565b600b83815481106113b057fe5b906000526020600020906004020160030160026101000a81548160ff021916908360ff160217905550611410600b83815481106113e957fe5b906000526020600020906004020160010154600e60089054906101000a900460ff166133d2565b600b838154811061141d57fe5b9060005260206000209060040201600101819055506000600381111561143f57fe5b81600381111561144b57fe5b14156114d057611495600b838154811061146157fe5b906000526020600020906004020160030160039054906101000a900460ff16600e60099054906101000a900460ff166133f2565b600b83815481106114a257fe5b906000526020600020906004020160030160036101000a81548160ff021916908360ff1602179055506116a8565b600160038111156114dd57fe5b8160038111156114e957fe5b141561156e57611533600b83815481106114ff57fe5b906000526020600020906004020160030160049054906101000a900460ff16600e60099054906101000a900460ff166133f2565b600b838154811061154057fe5b906000526020600020906004020160030160046101000a81548160ff021916908360ff1602179055506116a7565b6002600381111561157b57fe5b81600381111561158757fe5b141561160c576115d1600b838154811061159d57fe5b906000526020600020906004020160030160059054906101000a900460ff16600e60099054906101000a900460ff166133f2565b600b83815481106115de57fe5b906000526020600020906004020160030160056101000a81548160ff021916908360ff1602179055506116a6565b60038081111561161857fe5b81600381111561162457fe5b14156116a55761166e600b838154811061163a57fe5b906000526020600020906004020160030160069054906101000a900460ff16600e60099054906101000a900460ff166133f2565b600b838154811061167b57fe5b906000526020600020906004020160030160066101000a81548160ff021916908360ff1602179055505b5b5b5b817feeaaafec8320cd5943b8c412155edae16073cde48e70565d1ccd0f7755cb983d82604051808260038111156116db57fe5b815260200191505060405180910390a25050565b60006116fb600261341d565b905090565b61171161170b6132e6565b82613432565b611766576040517f08c379a0000000000000000000000000000000000000000000000000000000008152600401808060200182810382526031815260200180614cf36031913960400191505060405180910390fd5b611771838383613526565b505050565b60006117c982600160008673ffffffffffffffffffffffffffffffffffffffff1673ffffffffffffffffffffffffffffffffffffffff16815260200190815260200160002061376990919063ffffffff16565b905092915050565b600c5481565b600f6020528060005260406000206000915054906101000a900460ff1681565b3373ffffffffffffffffffffffffffffffffffffffff16611817826120eb565b73ffffffffffffffffffffffffffffffffffffffff1614611883576040517f08c379a0000000000000000000000000000000000000000000000000000000008152600401808060200182810382526022815260200180614be56022913960400191505060405180910390fd5b60001515600f600083815260200190815260200160002060009054906101000a900460ff1615151461191d576040517f08c379a000000000000000000000000000000000000000000000000000000000815260040180806020018281038252601c8152602001807f4d757374206e6f7420616c726561647920626520656e6c69737465640000000081525060200191505060405180910390fd5b600e600c9054906101000a900460ff1660ff16600b828154811061193d57fe5b906000526020600020906004020160030160029054906101000a900460ff1660ff1610156119b6576040517f08c379a0000000000000000000000000000000000000000000000000000000008152600401808060200182810382526025815260200180614cce6025913960400191505060405180910390fd5b6001600f600083815260200190815260200160002060006101000a81548160ff021916908315150217905550807ff2ffc74f2561385e2dda97fd2fed03df7841a8aa26fdf1f5fb28c6cc4950dc0160405160405180910390a250565b611a2d838383604051806020016040528060008152506129aa565b505050565b600e8054906101000a900460ff1681565b600e600a9054906101000a900460ff1681565b600080611a6d83600261378390919063ffffffff16565b50905080915050919050565b3373ffffffffffffffffffffffffffffffffffffffff16611a99836120eb565b73ffffffffffffffffffffffffffffffffffffffff1614611b05576040517f08c379a0000000000000000000000000000000000000000000000000000000008152600401808060200182810382526029815260200180614d476029913960400191505060405180910390fd5b60011515600f600084815260200190815260200160002060009054906101000a900460ff16151514611b9f576040517f08c379a00000000000000000000000000000000000000000000000000000000081526004018080602001828103825260108152602001807f4d75737420626520656e6c69737465640000000000000000000000000000000081525060200191505060405180910390fd5b60011515600f600083815260200190815260200160002060009054906101000a900460ff16151514611c39576040517f08c379a00000000000000000000000000000000000000000000000000000000081526004018080602001828103825260198152602001807f4f70706f6e656e74206d75737420626520656e6c69737465640000000000000081525060200191505060405180910390fd5b611c78826040518060400160405280601f81526020017f50726f6a656374206e6f7420726561647920666f72206120636f6e74657374008152506137af565b611cb7816040518060400160405280602081526020017f4f70706f6e656e74206e6f7420726561647920666f72206120636f6e746573748152506137af565b6000611da8600b8481548110611cc957fe5b906000526020600020906004020160030160069054906101000a900460ff1660ff16611d9a600b8681548110611cfb57fe5b906000526020600020906004020160030160059054906101000a900460ff1660ff16611d8c600b8881548110611d2d57fe5b906000526020600020906004020160030160049054906101000a900460ff1660ff16600b8981548110611d5c57fe5b906000526020600020906004020160030160039054906101000a900460ff1660ff1661386290919063ffffffff16565b61386290919063ffffffff16565b61386290919063ffffffff16565b90506000611e9b600b8481548110611dbc57fe5b906000526020600020906004020160030160069054906101000a900460ff1660ff16611e8d600b8681548110611dee57fe5b906000526020600020906004020160030160059054906101000a900460ff1660ff16611e7f600b8881548110611e2057fe5b906000526020600020906004020160030160049054906101000a900460ff1660ff16600b8981548110611e4f57fe5b906000526020600020906004020160030160039054906101000a900460ff1660ff1661386290919063ffffffff16565b61386290919063ffffffff16565b61386290919063ffffffff16565b9050611ef8611ef3600e600c9054906101000a900460ff1660ff16600b8781548110611ec357fe5b906000526020600020906004020160030160029054906101000a900460ff1660ff166138ea90919063ffffffff16565b613934565b600b8581548110611f0557fe5b906000526020600020906004020160030160026101000a81548160ff021916908360ff160217905550611f89611f84600e600c9054906101000a900460ff1660ff16600b8681548110611f5457fe5b906000526020600020906004020160030160029054906101000a900460ff1660ff166138ea90919063ffffffff16565b613934565b600b8481548110611f9657fe5b906000526020600020906004020160030160026101000a81548160ff021916908360ff16021790555060008082841015611fd1578486611fd4565b85855b9150915061201b600e600d9054906101000a900460ff1660ff16600b8481548110611ffb57fe5b90600052602060002090600402016001015461386290919063ffffffff16565b600b838154811061202857fe5b90600052602060002090600402016001018190555061207e600e8054906101000a900460ff1660ff16600b838154811061205e57fe5b90600052602060002090600402016001015461386290919063ffffffff16565b600b828154811061208b57fe5b9060005260206000209060040201600101819055508185877fc249a6171fd80d816a076fc4419bfea3db12dd9eb72fd9ea5702424fc68e5afe60405160405180910390a46120d886613998565b506120e285613998565b50505050505050565b600061211b82604051806060016040528060298152602001614bbc6029913960026139fd9092919063ffffffff16565b9050919050565b606060098054600181600116156101000203166002900480601f0160208091040260200160405190810160405280929190818152602001828054600181600116156101000203166002900480156121ba5780601f1061218f576101008083540402835291602001916121ba565b820191906000526020600020905b81548152906001019060200180831161219d57829003601f168201915b5050505050905090565b3373ffffffffffffffffffffffffffffffffffffffff166121e4826120eb565b73ffffffffffffffffffffffffffffffffffffffff161461226d576040517f08c379a00000000000000000000000000000000000000000000000000000000081526004018080602001828103825260208152602001807f4d757374206265206f776e6572206f662070726f6a65637420746f207265737481525060200191505060405180910390fd5b6122a4600b828154811061227d57fe5b906000526020600020906004020160010154600e600a9054906101000a900460ff166133d2565b600b82815481106122b157fe5b90600052602060002090600402016001018190555061230a600b82815481106122d657fe5b906000526020600020906004020160030160029054906101000a900460ff16600e600b9054906101000a900460ff166133f2565b600b828154811061231757fe5b906000526020600020906004020160030160026101000a81548160ff021916908360ff160217905550807f0594fec9b42ce38ee3c311c4bdd01add00de4138f3f35028275ed5ddcb0ccdf760405160405180910390a250565b60008073ffffffffffffffffffffffffffffffffffffffff168273ffffffffffffffffffffffffffffffffffffffff1614156123f7576040517f08c379a000000000000000000000000000000000000000000000000000000000815260040180806020018281038252602a815260200180614b92602a913960400191505060405180910390fd5b61243e600160008473ffffffffffffffffffffffffffffffffffffffff1673ffffffffffffffffffffffffffffffffffffffff168152602001908152602001600020613a1c565b9050919050565b61244d6132e6565b73ffffffffffffffffffffffffffffffffffffffff16600a60009054906101000a900473ffffffffffffffffffffffffffffffffffffffff1673ffffffffffffffffffffffffffffffffffffffff161461250f576040517f08c379a00000000000000000000000000000000000000000000000000000000081526004018080602001828103825260208152602001807f4f776e61626c653a2063616c6c6572206973206e6f7420746865206f776e657281525060200191505060405180910390fd5b600073ffffffffffffffffffffffffffffffffffffffff16600a60009054906101000a900473ffffffffffffffffffffffffffffffffffffffff1673ffffffffffffffffffffffffffffffffffffffff167f8be0079c531659141344cd1fd0a4f28419497f9722a3daafe3b4186f6b6457e060405160405180910390a36000600a60006101000a81548173ffffffffffffffffffffffffffffffffffffffff021916908373ffffffffffffffffffffffffffffffffffffffff160217905550565b600e60089054906101000a900460ff1681565b6000600a60009054906101000a900473ffffffffffffffffffffffffffffffffffffffff16905090565b606060078054600181600116156101000203166002900480601f0160208091040260200160405190810160405280929190818152602001828054600181600116156101000203166002900480156126a55780601f1061267a576101008083540402835291602001916126a5565b820191906000526020600020905b81548152906001019060200180831161268857829003601f168201915b5050505050905090565b3373ffffffffffffffffffffffffffffffffffffffff166126cf826120eb565b73ffffffffffffffffffffffffffffffffffffffff161461273b576040517f08c379a0000000000000000000000000000000000000000000000000000000008152600401808060200182810382526022815260200180614b706022913960400191505060405180910390fd5b60011515600f600083815260200190815260200160002060009054906101000a900460ff161515146127d5576040517f08c379a00000000000000000000000000000000000000000000000000000000081526004018080602001828103825260108152602001807f4d75737420626520656e6c69737465640000000000000000000000000000000081525060200191505060405180910390fd5b6127de81613a31565b50565b6127e96132e6565b73ffffffffffffffffffffffffffffffffffffffff168273ffffffffffffffffffffffffffffffffffffffff16141561288a576040517f08c379a00000000000000000000000000000000000000000000000000000000081526004018080602001828103825260198152602001807f4552433732313a20617070726f766520746f2063616c6c65720000000000000081525060200191505060405180910390fd5b80600560006128976132e6565b73ffffffffffffffffffffffffffffffffffffffff1673ffffffffffffffffffffffffffffffffffffffff16815260200190815260200160002060008473ffffffffffffffffffffffffffffffffffffffff1673ffffffffffffffffffffffffffffffffffffffff16815260200190815260200160002060006101000a81548160ff0219169083151502179055508173ffffffffffffffffffffffffffffffffffffffff166129446132e6565b73ffffffffffffffffffffffffffffffffffffffff167f17307eab39ab6107e8899845ad3d59bd9653f200f220920489ca2b5937696c318360405180821515815260200191505060405180910390a35050565b600e600b9054906101000a900460ff1681565b6129bb6129b56132e6565b83613432565b612a10576040517f08c379a0000000000000000000000000000000000000000000000000000000008152600401808060200182810382526031815260200180614cf36031913960400191505060405180910390fd5b612a1c84848484613a8d565b50505050565b600e600c9054906101000a900460ff1681565b6060612a40826132c9565b612a95576040517f08c379a000000000000000000000000000000000000000000000000000000000815260040180806020018281038252602f815260200180614c7e602f913960400191505060405180910390fd5b6000600860008481526020019081526020016000208054600181600116156101000203166002900480601f016020809104026020016040519081016040528092919081815260200182805460018160011615610100020316600290048015612b3e5780601f10612b1357610100808354040283529160200191612b3e565b820191906000526020600020905b815481529060010190602001808311612b2157829003601f168201915b50505050509050600060098054600181600116156101000203166002900490501415612b6d5780915050612d19565b600081511115612c46576009816040516020018083805460018160011615610100020316600290048015612bd85780601f10612bb6576101008083540402835291820191612bd8565b820191906000526020600020905b815481529060010190602001808311612bc4575b505082805190602001908083835b60208310612c095780518252602082019150602081019050602083039250612be6565b6001836020036101000a03801982511681845116808217855250505050505090500192505050604051602081830303815290604052915050612d19565b6009612c5184613aff565b6040516020018083805460018160011615610100020316600290048015612caf5780601f10612c8d576101008083540402835291820191612caf565b820191906000526020600020905b815481529060010190602001808311612c9b575b505082805190602001908083835b60208310612ce05780518252602082019150602081019050602083039250612cbd565b6001836020036101000a038019825116818451168082178552505050505050905001925050506040516020818303038152906040529150505b919050565b600e600d9054906101000a900460ff1681565b600e60099054906101000a900460ff1681565b6000600c600081548092919060010191905055506000600b805490509050600b604051806101800160405280600c548152602001600d548152602001858152602001600e60009054906101000a900460ff1660ff168152602001600e60019054906101000a900460ff1660ff168152602001600e60029054906101000a900460ff1660ff168152602001600e60039054906101000a900460ff1660ff168152602001600e60049054906101000a900460ff1660ff168152602001600e60059054906101000a900460ff1660ff168152602001600e60069054906101000a900460ff1660ff1681526020013373ffffffffffffffffffffffffffffffffffffffff16815260200160001515815250908060018154018082558091505060019003906000526020600020906004020160009091909190915060008201518160000155602082015181600101556040820151816002019080519060200190612eaa929190614977565b5060608201518160030160006101000a81548160ff021916908360ff16021790555060808201518160030160016101000a81548160ff021916908360ff16021790555060a08201518160030160026101000a81548160ff021916908360ff16021790555060c08201518160030160036101000a81548160ff021916908360ff16021790555060e08201518160030160046101000a81548160ff021916908360ff1602179055506101008201518160030160056101000a81548160ff021916908360ff1602179055506101208201518160030160066101000a81548160ff021916908360ff1602179055506101408201518160030160076101000a81548173ffffffffffffffffffffffffffffffffffffffff021916908373ffffffffffffffffffffffffffffffffffffffff16021790555061016082015181600301601b6101000a81548160ff02191690831515021790555050506130093382613c46565b80915050919050565b6000600560008473ffffffffffffffffffffffffffffffffffffffff1673ffffffffffffffffffffffffffffffffffffffff16815260200190815260200160002060008373ffffffffffffffffffffffffffffffffffffffff1673ffffffffffffffffffffffffffffffffffffffff16815260200190815260200160002060009054906101000a900460ff16905092915050565b600e60079054906101000a900460ff1681565b6130c16132e6565b73ffffffffffffffffffffffffffffffffffffffff16600a60009054906101000a900473ffffffffffffffffffffffffffffffffffffffff1673ffffffffffffffffffffffffffffffffffffffff1614613183576040517f08c379a00000000000000000000000000000000000000000000000000000000081526004018080602001828103825260208152602001807f4f776e61626c653a2063616c6c6572206973206e6f7420746865206f776e657281525060200191505060405180910390fd5b600073ffffffffffffffffffffffffffffffffffffffff168173ffffffffffffffffffffffffffffffffffffffff161415613209576040517f08c379a0000000000000000000000000000000000000000000000000000000008152600401808060200182810382526026815260200180614a776026913960400191505060405180910390fd5b8073ffffffffffffffffffffffffffffffffffffffff16600a60009054906101000a900473ffffffffffffffffffffffffffffffffffffffff1673ffffffffffffffffffffffffffffffffffffffff167f8be0079c531659141344cd1fd0a4f28419497f9722a3daafe3b4186f6b6457e060405160405180910390a380600a60006101000a81548173ffffffffffffffffffffffffffffffffffffffff021916908373ffffffffffffffffffffffffffffffffffffffff16021790555050565b60006132df826002613c6490919063ffffffff16565b9050919050565b600033905090565b816004600083815260200190815260200160002060006101000a81548173ffffffffffffffffffffffffffffffffffffffff021916908373ffffffffffffffffffffffffffffffffffffffff160217905550808273ffffffffffffffffffffffffffffffffffffffff16613361836120eb565b73ffffffffffffffffffffffffffffffffffffffff167f8c5be1e5ebec7d5bd14f71427d1e84f3dd0314c0f7b2291e5b200ac8c7c3b92560405160405180910390a45050565b60006133ca6133c58360ff168560ff166138ea90919063ffffffff16565b613934565b905092915050565b60006133ea8260ff16846138ea90919063ffffffff16565b905092915050565b60006134156134108360ff168560ff1661386290919063ffffffff16565b613934565b905092915050565b600061342b82600001613c7e565b9050919050565b600061343d826132c9565b613492576040517f08c379a000000000000000000000000000000000000000000000000000000000815260040180806020018281038252602c815260200180614b0c602c913960400191505060405180910390fd5b600061349d836120eb565b90508073ffffffffffffffffffffffffffffffffffffffff168473ffffffffffffffffffffffffffffffffffffffff16148061350c57508373ffffffffffffffffffffffffffffffffffffffff166134f484610f64565b73ffffffffffffffffffffffffffffffffffffffff16145b8061351d575061351c8185613012565b5b91505092915050565b8273ffffffffffffffffffffffffffffffffffffffff16613546826120eb565b73ffffffffffffffffffffffffffffffffffffffff16146135b2576040517f08c379a0000000000000000000000000000000000000000000000000000000008152600401808060200182810382526029815260200180614c556029913960400191505060405180910390fd5b600073ffffffffffffffffffffffffffffffffffffffff168273ffffffffffffffffffffffffffffffffffffffff161415613638576040517f08c379a0000000000000000000000000000000000000000000000000000000008152600401808060200182810382526024815260200180614ac26024913960400191505060405180910390fd5b613643838383613c8f565b61364e6000826132ee565b61369f81600160008673ffffffffffffffffffffffffffffffffffffffff1673ffffffffffffffffffffffffffffffffffffffff168152602001908152602001600020613c9490919063ffffffff16565b506136f181600160008573ffffffffffffffffffffffffffffffffffffffff1673ffffffffffffffffffffffffffffffffffffffff168152602001908152602001600020613cae90919063ffffffff16565b5061370881836002613cc89092919063ffffffff16565b50808273ffffffffffffffffffffffffffffffffffffffff168473ffffffffffffffffffffffffffffffffffffffff167fddf252ad1be2c89b69c2b068fc378daa952ba7f163c4a11628f55a4df523b3ef60405160405180910390a4505050565b60006137788360000183613cfd565b60001c905092915050565b6000806000806137968660000186613d80565b915091508160001c8160001c9350935050509250929050565b6137b882613998565b61385e57806040517f08c379a00000000000000000000000000000000000000000000000000000000081526004018080602001828103825283818151815260200191508051906020019080838360005b83811015613823578082015181840152602081019050613808565b50505050905090810190601f1680156138505780820380516001836020036101000a031916815260200191505b509250505060405180910390fd5b5050565b6000808284019050838110156138e0576040517f08c379a000000000000000000000000000000000000000000000000000000000815260040180806020018281038252601b8152602001807f536166654d6174683a206164646974696f6e206f766572666c6f77000000000081525060200191505060405180910390fd5b8091505092915050565b600061392c83836040518060400160405280601e81526020017f536166654d6174683a207375627472616374696f6e206f766572666c6f770000815250613e19565b905092915050565b60006101008210613990576040517f08c379a0000000000000000000000000000000000000000000000000000000008152600401808060200182810382526025815260200180614a9d6025913960400191505060405180910390fd5b819050919050565b6000600e600c9054906101000a900460ff1660ff16600b83815481106139ba57fe5b906000526020600020906004020160030160029054906101000a900460ff1660ff16116139f3576139ea82613a31565b600090506139f8565b600190505b919050565b6000613a10846000018460001b84613ed9565b60001c90509392505050565b6000613a2a82600001613fcf565b9050919050565b6000600f600083815260200190815260200160002060006101000a81548160ff021916908315150217905550807f2c525dc2c086b9a2f3b902d229853b5b838fcedc22933c40ed7ebe4890a53a8260405160405180910390a250565b613a98848484613526565b613aa484848484613fe0565b613af9576040517f08c379a0000000000000000000000000000000000000000000000000000000008152600401808060200182810382526032815260200180614a456032913960400191505060405180910390fd5b50505050565b60606000821415613b47576040518060400160405280600181526020017f30000000000000000000000000000000000000000000000000000000000000008152509050613c41565b600082905060005b60008214613b71578080600101915050600a8281613b6957fe5b049150613b4f565b60008167ffffffffffffffff81118015613b8a57600080fd5b506040519080825280601f01601f191660200182016040528015613bbd5781602001600182028036833780820191505090505b50905060006001830390508593505b60008414613c3957600a8481613bde57fe5b0660300160f81b82828060019003935081518110613bf857fe5b60200101907effffffffffffffffffffffffffffffffffffffffffffffffffffffffffffff1916908160001a905350600a8481613c3157fe5b049350613bcc565b819450505050505b919050565b613c608282604051806020016040528060008152506141f9565b5050565b6000613c76836000018360001b61426a565b905092915050565b600081600001805490509050919050565b505050565b6000613ca6836000018360001b61428d565b905092915050565b6000613cc0836000018360001b614375565b905092915050565b6000613cf4846000018460001b8473ffffffffffffffffffffffffffffffffffffffff1660001b6143e5565b90509392505050565b600081836000018054905011613d5e576040517f08c379a0000000000000000000000000000000000000000000000000000000008152600401808060200182810382526022815260200180614a236022913960400191505060405180910390fd5b826000018281548110613d6d57fe5b9060005260206000200154905092915050565b60008082846000018054905011613de2576040517f08c379a0000000000000000000000000000000000000000000000000000000008152600401808060200182810382526022815260200180614c076022913960400191505060405180910390fd5b6000846000018481548110613df357fe5b906000526020600020906002020190508060000154816001015492509250509250929050565b6000838311158290613ec6576040517f08c379a00000000000000000000000000000000000000000000000000000000081526004018080602001828103825283818151815260200191508051906020019080838360005b83811015613e8b578082015181840152602081019050613e70565b50505050905090810190601f168015613eb85780820380516001836020036101000a031916815260200191505b509250505060405180910390fd5b5060008385039050809150509392505050565b60008084600101600085815260200190815260200160002054905060008114158390613fa0576040517f08c379a00000000000000000000000000000000000000000000000000000000081526004018080602001828103825283818151815260200191508051906020019080838360005b83811015613f65578082015181840152602081019050613f4a565b50505050905090810190601f168015613f925780820380516001836020036101000a031916815260200191505b509250505060405180910390fd5b50846000016001820381548110613fb357fe5b9060005260206000209060020201600101549150509392505050565b600081600001805490509050919050565b60006140018473ffffffffffffffffffffffffffffffffffffffff166144c1565b61400e57600190506141f1565b600061417863150b7a0260e01b6140236132e6565b888787604051602401808573ffffffffffffffffffffffffffffffffffffffff1681526020018473ffffffffffffffffffffffffffffffffffffffff16815260200183815260200180602001828103825283818151815260200191508051906020019080838360005b838110156140a757808201518184015260208101905061408c565b50505050905090810190601f1680156140d45780820380516001836020036101000a031916815260200191505b5095505050505050604051602081830303815290604052907bffffffffffffffffffffffffffffffffffffffffffffffffffffffff19166020820180517bffffffffffffffffffffffffffffffffffffffffffffffffffffffff8381831617835250505050604051806060016040528060328152602001614a45603291398773ffffffffffffffffffffffffffffffffffffffff166144d49092919063ffffffff16565b9050600081806020019051602081101561419157600080fd5b8101908080519060200190929190505050905063150b7a0260e01b7bffffffffffffffffffffffffffffffffffffffffffffffffffffffff1916817bffffffffffffffffffffffffffffffffffffffffffffffffffffffff191614925050505b949350505050565b61420383836144ec565b6142106000848484613fe0565b614265576040517f08c379a0000000000000000000000000000000000000000000000000000000008152600401808060200182810382526032815260200180614a456032913960400191505060405180910390fd5b505050565b600080836001016000848152602001908152602001600020541415905092915050565b6000808360010160008481526020019081526020016000205490506000811461436957600060018203905060006001866000018054905003905060008660000182815481106142d857fe5b90600052602060002001549050808760000184815481106142f557fe5b906000526020600020018190555060018301876001016000838152602001908152602001600020819055508660000180548061432d57fe5b6001900381819060005260206000200160009055905586600101600087815260200190815260200160002060009055600194505050505061436f565b60009150505b92915050565b600061438183836146e0565b6143da5782600001829080600181540180825580915050600190039060005260206000200160009091909190915055826000018054905083600101600084815260200190815260200160002081905550600190506143df565b600090505b92915050565b600080846001016000858152602001908152602001600020549050600081141561448c578460000160405180604001604052808681526020018581525090806001815401808255809150506001900390600052602060002090600202016000909190919091506000820151816000015560208201518160010155505084600001805490508560010160008681526020019081526020016000208190555060019150506144ba565b8285600001600183038154811061449f57fe5b90600052602060002090600202016001018190555060009150505b9392505050565b600080823b905060008111915050919050565b60606144e38484600085614703565b90509392505050565b600073ffffffffffffffffffffffffffffffffffffffff168273ffffffffffffffffffffffffffffffffffffffff16141561458f576040517f08c379a00000000000000000000000000000000000000000000000000000000081526004018080602001828103825260208152602001807f4552433732313a206d696e7420746f20746865207a65726f206164647265737381525060200191505060405180910390fd5b614598816132c9565b1561460b576040517f08c379a000000000000000000000000000000000000000000000000000000000815260040180806020018281038252601c8152602001807f4552433732313a20746f6b656e20616c7265616479206d696e7465640000000081525060200191505060405180910390fd5b61461760008383613c8f565b61466881600160008573ffffffffffffffffffffffffffffffffffffffff1673ffffffffffffffffffffffffffffffffffffffff168152602001908152602001600020613cae90919063ffffffff16565b5061467f81836002613cc89092919063ffffffff16565b50808273ffffffffffffffffffffffffffffffffffffffff16600073ffffffffffffffffffffffffffffffffffffffff167fddf252ad1be2c89b69c2b068fc378daa952ba7f163c4a11628f55a4df523b3ef60405160405180910390a45050565b600080836001016000848152602001908152602001600020541415905092915050565b60608247101561475e576040517f08c379a0000000000000000000000000000000000000000000000000000000008152600401808060200182810382526026815260200180614ae66026913960400191505060405180910390fd5b614767856144c1565b6147d9576040517f08c379a000000000000000000000000000000000000000000000000000000000815260040180806020018281038252601d8152602001807f416464726573733a2063616c6c20746f206e6f6e2d636f6e747261637400000081525060200191505060405180910390fd5b6000808673ffffffffffffffffffffffffffffffffffffffff1685876040518082805190602001908083835b602083106148285780518252602082019150602081019050602083039250614805565b6001836020036101000a03801982511681845116808217855250505050505090500191505060006040518083038185875af1925050503d806000811461488a576040519150601f19603f3d011682016040523d82523d6000602084013e61488f565b606091505b509150915061489f8282866148ab565b92505050949350505050565b606083156148bb57829050614970565b6000835111156148ce5782518084602001fd5b816040517f08c379a00000000000000000000000000000000000000000000000000000000081526004018080602001828103825283818151815260200191508051906020019080838360005b8381101561493557808201518184015260208101905061491a565b50505050905090810190601f1680156149625780820380516001836020036101000a031916815260200191505b509250505060405180910390fd5b9392505050565b828054600181600116156101000203166002900490600052602060002090601f0160209004810192826149ad57600085556149f4565b82601f106149c657805160ff19168380011785556149f4565b828001600101855582156149f4579182015b828111156149f35782518255916020019190600101906149d8565b5b509050614a019190614a05565b5090565b5b80821115614a1e576000816000905550600101614a06565b509056fe456e756d657261626c655365743a20696e646578206f7574206f6620626f756e64734552433732313a207472616e7366657220746f206e6f6e20455243373231526563656976657220696d706c656d656e7465724f776e61626c653a206e6577206f776e657220697320746865207a65726f206164647265737353616665436173743a2076616c756520646f65736e27742066697420696e203820626974734552433732313a207472616e7366657220746f20746865207a65726f2061646472657373416464726573733a20696e73756666696369656e742062616c616e636520666f722063616c6c4552433732313a206f70657261746f7220717565727920666f72206e6f6e6578697374656e7420746f6b656e4552433732313a20617070726f76652063616c6c6572206973206e6f74206f776e6572206e6f7220617070726f76656420666f7220616c6c4d757374206265206f776e6572206f662070726f6a65637420746f2064656c6973744552433732313a2062616c616e636520717565727920666f7220746865207a65726f20616464726573734552433732313a206f776e657220717565727920666f72206e6f6e6578697374656e7420746f6b656e4d757374206265206f776e6572206f662070726f6a65637420746f20656e6c697374456e756d657261626c654d61703a20696e646578206f7574206f6620626f756e64734552433732313a20617070726f76656420717565727920666f72206e6f6e6578697374656e7420746f6b656e4552433732313a207472616e73666572206f6620746f6b656e2074686174206973206e6f74206f776e4552433732314d657461646174613a2055524920717565727920666f72206e6f6e6578697374656e7420746f6b656e4552433732313a20617070726f76616c20746f2063757272656e74206f776e65724d75737420626520696e20726571756972656420737461746520746f20636f6d706c6574654552433732313a207472616e736665722063616c6c6572206973206e6f74206f776e6572206e6f7220617070726f7665644d757374206265206f776e6572206f662070726f6a65637420746f2067726f772069744d757374206265206f776e6572206f662070726f6a65637420746f20656e74657220636f6e74657374a2646970667358221220aa6b163ba28c0c1b722637e57174ba2ba3a208f8ebe75b70e95d0f59c05f9bc164736f6c63430007060033",
  "immutableReferences": {},
  "source": "// SPDX-License-Identifier: MIT\n\npragma solidity >=0.5.0 <0.8.0;\n\nimport \"@openzeppelin/contracts/token/ERC721/ERC721.sol\";\nimport \"@openzeppelin/contracts/access/Ownable.sol\";\nimport \"@openzeppelin/contracts/math/SafeMath.sol\";\nimport \"@openzeppelin/contracts/utils/SafeCast.sol\";\n\ncontract W3irds is ERC721, Ownable{\n    using SafeMath for uint;\n    using SafeCast for uint;\n\n    //string public name = \"W3irds Art\";\n    //string [] public projects;\n    //Project information\n        struct Project {\n            //Art details\n            uint id;\n            uint lifecycle;\n            //Initial details\n            string name;\n            uint8 age;\n            uint8 scope;\n            uint8 state;\n            //Attributes\n            uint8 technique;\n            uint8 aesthetics;\n            uint8 usage;\n            uint8 popularity;\n            //ownership\n            address payable creator;\n            //enlisted\n            bool enlistedProjects;\n        }\n        //List of all projects\n        Project[] public projects;\n        //mapping(uint => Project) public projects;\n\n    constructor()ERC721(\"W3irds Art\" , \"3A\")public {\n\n    }\n    uint public projectCount = 0;\n    uint private lifecycle = 100;\n    uint8 private age = 0;\n    uint8 private scope = 1;\n    uint8 private state = 255;\n    uint8 private technique = 1;\n    uint8 private aesthetics = 1;\n    uint8 private usage = 2;\n    uint8 private popularity = 1;\n        \n        \n    //Create new project\n        function newProject(\n            string memory _name\n            //address _creator\n        ) public returns (uint)\n        {\n            projectCount++;\n            uint id = projects.length;\n            projects.push(\n                Project(projectCount, lifecycle, _name, age, scope, state, technique, aesthetics, usage,\n                        popularity, msg.sender, false)\n            );\n            _safeMint(msg.sender, id);\n            return id;\n        }\n\n         //Cast and add a uint8 to a uint8\n        function castAdd8(uint8 _a, uint8 _b) internal pure returns (uint8){\n            return uint(_a).add(uint(_b)).toUint8();\n        }\n        //Cast and substract a uint8 from uint8\n        function castSubstract8(uint8 _a, uint8 _b) internal pure returns(uint8){\n            return uint(_a).sub(uint(_b)).toUint8();\n        }\n        //Cast and subtract a uint8 from a uint\n        function castSubstract256(uint _a, uint8 _b) internal pure returns (uint){\n            return _a.sub(uint(_b));\n        }\n    //Grow a project\n        //Grow costs and gains\n    uint8 public stateCostToGrow = 5;\n    uint8 public lifecycleCostToGrow = 8;\n    uint8 public attributeGainOnGrow = 1;\n    //Rest costs and gains\n    uint8 public lifecycleCostToRest = 6;\n    uint8 public stateGainOnRest = 15;\n\n    enum Attribute { technique, aesthetics, usage, popularity }\n\n    event Grow(uint indexed projectId, Attribute attribute);\n    event Rest(uint indexed projectId);\n\n    //Grow a project increasing an attribute\n    function grow(uint _id, Attribute _attr) public{\n        //Only the owner of the project can grow***\n        require(ownerOf(_id) == msg.sender, \"Must be owner of project to grow it\");\n\n        //The project must be fit enough to grow\n        projects[_id].state = castSubstract8(projects[_id].state, stateCostToGrow);\n        //Must have enough lifecycle\n        projects[_id].lifecycle = castSubstract256(projects[_id].lifecycle, lifecycleCostToGrow);\n\n        // Increase the chosen attribute\n        if (_attr == Attribute.technique) {\n            projects[_id].technique = castAdd8(projects[_id].technique, attributeGainOnGrow);\n        }else if (_attr == Attribute.aesthetics){\n            projects[_id].aesthetics = castAdd8(projects[_id].aesthetics, attributeGainOnGrow);\n        }else if (_attr == Attribute.usage){\n            projects[_id].usage = castAdd8(projects[_id].usage, attributeGainOnGrow);\n        }else if (_attr == Attribute.popularity){\n            projects[_id].popularity = castAdd8(projects[_id].popularity, attributeGainOnGrow);\n        }\n        emit Grow(_id, _attr);\n    }\n\n    //Rest project, increasing state\n    function rest(uint _id) public{\n        //Only the owner of the project can rest\n        require(ownerOf(_id) == msg.sender, \"Must be owner of project to rest\");\n\n        //Must have enough lifecycle\n        projects[_id].lifecycle = castSubstract256(projects[_id].lifecycle, lifecycleCostToRest);\n        projects[_id].state = castAdd8(projects[_id].state, stateGainOnRest);\n\n        emit Rest(_id);\n    }\n    ////Enlist project\n    //state cost to reach complete status\n    uint8 public stateCostToComplete = 20;\n    //lifecycleGainWin\n    uint8 public lifecycleGainWin = 10;\n    //lifecycleGainlose\n    uint8 public lifecycleGainLose = 5;\n\n    //enlistedProjects\n    mapping(uint => bool) public enlistedProjects;\n    //enlistEvent\n    event Enlist(uint indexed projectId);\n    //delistEvent\n    event Delist(uint indexed projectId);\n    //contest\n    event ContestEntered(uint indexed projectId, uint indexed opponentId, uint indexed winner);\n     \n    //Enlist project to complete\n     function enlist(uint _id) public{\n         //only the owner of the project can enlist\n         require(ownerOf(_id) == msg.sender, \"Must be owner of project to enlist\");\n         //Must not be enlisted already\n         require(enlistedProjects[_id] == false, \"Must not already be enlisted\");\n         //Check state\n         require(projects[_id].state >= stateCostToComplete, \"Must be in required state to complete\");\n         //Enlist\n         enlistedProjects[_id] = true;\n         //Emit\n         emit Enlist(_id);\n\n     }\n     //Delist project \n     function delist(uint _id) public{\n         //Only owner can delist\n         require(ownerOf(_id) == msg.sender, \"Must be owner of project to delist\");\n         //Must be enlisted\n         require(enlistedProjects[_id] == true, \"Must be enlisted\");\n         //Run delist\n         _delist(_id);\n     }\n     function _delist(uint _id) private{\n         enlistedProjects[_id] = false;\n         emit Delist(_id);\n     }\n     \n     //Contest\n     function enterContest(uint _id, uint _opponentId) public{\n         //Only owner\n         require(ownerOf(_id) == msg.sender, \"Must be owner of project to enter contest\");\n         //Must be enlisted\n         require(enlistedProjects[_id] == true, \"Must be enlisted\");\n         //Opponent must be enlisted\n         require(enlistedProjects[_opponentId] == true, \"Opponent must be enlisted\");\n         //Project state\n         _requireContestState(_id, \"Project not ready for a contest\");\n         //Opponents state\n         _requireContestState(_opponentId, \"Opponent not ready for a contest\");\n         uint projectScore = uint(projects[_id].technique)\n            .add(uint(projects[_id].aesthetics))\n            .add(uint(projects[_id].usage))\n            .add(uint(projects[_id].popularity));\n         uint opponentScore = uint(projects[_opponentId].technique)\n            .add(uint(projects[_opponentId].aesthetics))\n            .add(uint(projects[_opponentId].usage))\n            .add(uint(projects[_opponentId].popularity));\n        //State changes\n        projects[_id].state = uint(projects[_id].state).sub(uint(stateCostToComplete)).toUint8();\n        projects[_opponentId].state = uint(projects[_opponentId].state).sub(uint(stateCostToComplete)).toUint8();\n        //Winner\n        (uint winner, uint loser) = (projectScore >= opponentScore ) ? (_id, _opponentId) : (_opponentId, _id);\n        //lifecycle changes\n        projects[winner].lifecycle = uint(projects[winner].lifecycle).add(uint(lifecycleGainWin));\n        projects[loser].lifecycle = uint(projects[loser].lifecycle).add(uint(lifecycleGainLose));\n        //emit contest \n        emit ContestEntered(_id, _opponentId, winner);\n        //check state again\n        _isContestState(_id);\n        _isContestState(_opponentId);\n     }\n\n     function _requireContestState(uint _id, string memory _message) private {\n         if(!_isContestState(_id)){\n             revert(_message);\n         }\n     }\n     //check contest condition\n     function _isContestState(uint _id) private returns (bool) {\n         //require state is high\n         //delist if not\n         if (projects[_id].state <= stateCostToComplete){\n             _delist(_id);\n             return false;\n         }\n         return true;\n     }\n \n    /*\n    uint public projectCount = 0;\n    uint public completedProjects = 0;\n    mapping(uint => Project) public projects;\n    \n    struct Project {\n       uint id;\n       string name;\n       bool completed;\n       address payable creator;\n       bool purchased; \n    }\n\n    event ProjectCreated(\n        uint id,\n        string name,\n        bool completed,\n        address payable creator,\n        bool purchased\n    );\n    event ProjectCompleted(\n        uint id,\n        string name,\n        bool completed,\n        address payable creator,\n        bool purchased\n    );\n\n   /* event ProjectPurchased(\n        uint id,\n       string name,\n       uint price,\n       address payable owner,\n       bool purchased\n    );\n    \n    /*constructor() public{\n        name = \"W3irds Art Projects\";  \n    }\n\n    function createProject(string memory _name) public{\n    //Require a name\n    require(bytes(_name).length > 0);\n    // Require a valid price\n    //require(_price > 0);\n    // Increment product count \n    projectCount ++;\n    //create the product \n    projects[projectCount] = Project(projectCount, _name, false, msg.sender, false);\n    //trigger an event\n    emit ProjectCreated(projectCount, _name, false, msg.sender, false);\n    }\n    function completeProject(uint _id) public{\n        //fetch product\n        Project memory _project = projects[_id];\n        //\n\n\n        completedProjects ++;\n        projects[completedProjects] = Project(completedProjects, _project.name, true, msg.sender, false);\n        emit ProjectCompleted(completedProjects, _project.name, true, msg.sender, false);\n    }\n    \n\n    /*function purchaseProject(uint _id) public payable{\n        //fetch the product\n        Project memory _project = projects[_id];\n        //fetch the owner\n        address payable _seller = _project.owner;\n        //make sure the product is valid\n        require(_project.id > 0 && _project.id<= projectCount);\n        // Require that there is enough ether in the transaction\n        require(msg.value >= _project.price);\n        //require that the product has not been purchased\n        require(!_project.purchased);\n        //require the buyer is not the seller\n        require(_seller != msg.sender);\n        //purchase it/transfer ownershio to the buyer\n        _project.owner = msg.sender;\n        //mark as purchased \n        _project.purchased = true;\n        // update the product \n        projects[_id] = _project;\n        //pay the seller by sending them Ether\n        address(_seller).transfer(msg.value);\n        //trigger an event\n        emit ProjectPurchased(projectCount, _project.name, _project.price, msg.sender, true);\n  \n\n\n    }*/\n}",
  "sourcePath": "/Applications/Ampps/www/W3irds/artwork/src/contracts/w3irds.sol",
  "compiler": {
    "name": "solc",
    "version": "0.7.6+commit.7338295f.Emscripten.clang"
  },
  "schemaVersion": "3.3.3",
  "updatedAt": "2021-01-09T09:53:03.489Z",
  "networkType": "ethereum",
  "devdoc": {
    "kind": "dev",
    "methods": {
      "approve(address,uint256)": {
        "details": "See {IERC721-approve}."
      },
      "balanceOf(address)": {
        "details": "See {IERC721-balanceOf}."
      },
      "baseURI()": {
        "details": "Returns the base URI set via {_setBaseURI}. This will be automatically added as a prefix in {tokenURI} to each token's URI, or to the token ID if no specific URI is set for that token ID."
      },
      "getApproved(uint256)": {
        "details": "See {IERC721-getApproved}."
      },
      "isApprovedForAll(address,address)": {
        "details": "See {IERC721-isApprovedForAll}."
      },
      "name()": {
        "details": "See {IERC721Metadata-name}."
      },
      "owner()": {
        "details": "Returns the address of the current owner."
      },
      "ownerOf(uint256)": {
        "details": "See {IERC721-ownerOf}."
      },
      "renounceOwnership()": {
        "details": "Leaves the contract without owner. It will not be possible to call `onlyOwner` functions anymore. Can only be called by the current owner. NOTE: Renouncing ownership will leave the contract without an owner, thereby removing any functionality that is only available to the owner."
      },
      "safeTransferFrom(address,address,uint256)": {
        "details": "See {IERC721-safeTransferFrom}."
      },
      "safeTransferFrom(address,address,uint256,bytes)": {
        "details": "See {IERC721-safeTransferFrom}."
      },
      "setApprovalForAll(address,bool)": {
        "details": "See {IERC721-setApprovalForAll}."
      },
      "supportsInterface(bytes4)": {
        "details": "See {IERC165-supportsInterface}. Time complexity O(1), guaranteed to always use less than 30 000 gas."
      },
      "symbol()": {
        "details": "See {IERC721Metadata-symbol}."
      },
      "tokenByIndex(uint256)": {
        "details": "See {IERC721Enumerable-tokenByIndex}."
      },
      "tokenOfOwnerByIndex(address,uint256)": {
        "details": "See {IERC721Enumerable-tokenOfOwnerByIndex}."
      },
      "tokenURI(uint256)": {
        "details": "See {IERC721Metadata-tokenURI}."
      },
      "totalSupply()": {
        "details": "See {IERC721Enumerable-totalSupply}."
      },
      "transferFrom(address,address,uint256)": {
        "details": "See {IERC721-transferFrom}."
      },
      "transferOwnership(address)": {
        "details": "Transfers ownership of the contract to a new account (`newOwner`). Can only be called by the current owner."
      }
    },
    "version": 1
  },
  "userdoc": {
    "kind": "user",
    "methods": {},
    "version": 1
  }
}