{
  "contractName": "W3irds",
  "abi": [
    {
      "inputs": [],
      "stateMutability": "nonpayable",
      "type": "constructor"
    },
    {
      "anonymous": false,
      "inputs": [
        {
          "indexed": true,
          "internalType": "address",
          "name": "owner",
          "type": "address"
        },
        {
          "indexed": true,
          "internalType": "address",
          "name": "approved",
          "type": "address"
        },
        {
          "indexed": true,
          "internalType": "uint256",
          "name": "tokenId",
          "type": "uint256"
        }
      ],
      "name": "Approval",
      "type": "event"
    },
    {
      "anonymous": false,
      "inputs": [
        {
          "indexed": true,
          "internalType": "address",
          "name": "owner",
          "type": "address"
        },
        {
          "indexed": true,
          "internalType": "address",
          "name": "operator",
          "type": "address"
        },
        {
          "indexed": false,
          "internalType": "bool",
          "name": "approved",
          "type": "bool"
        }
      ],
      "name": "ApprovalForAll",
      "type": "event"
    },
    {
      "anonymous": false,
      "inputs": [
        {
          "indexed": true,
          "internalType": "address",
          "name": "previousOwner",
          "type": "address"
        },
        {
          "indexed": true,
          "internalType": "address",
          "name": "newOwner",
          "type": "address"
        }
      ],
      "name": "OwnershipTransferred",
      "type": "event"
    },
    {
      "anonymous": false,
      "inputs": [
        {
          "indexed": true,
          "internalType": "address",
          "name": "from",
          "type": "address"
        },
        {
          "indexed": true,
          "internalType": "address",
          "name": "to",
          "type": "address"
        },
        {
          "indexed": true,
          "internalType": "uint256",
          "name": "tokenId",
          "type": "uint256"
        }
      ],
      "name": "Transfer",
      "type": "event"
    },
    {
      "inputs": [
        {
          "internalType": "address",
          "name": "to",
          "type": "address"
        },
        {
          "internalType": "uint256",
          "name": "tokenId",
          "type": "uint256"
        }
      ],
      "name": "approve",
      "outputs": [],
      "stateMutability": "nonpayable",
      "type": "function"
    },
    {
      "inputs": [
        {
          "internalType": "address",
          "name": "owner",
          "type": "address"
        }
      ],
      "name": "balanceOf",
      "outputs": [
        {
          "internalType": "uint256",
          "name": "",
          "type": "uint256"
        }
      ],
      "stateMutability": "view",
      "type": "function",
      "constant": true
    },
    {
      "inputs": [],
      "name": "baseURI",
      "outputs": [
        {
          "internalType": "string",
          "name": "",
          "type": "string"
        }
      ],
      "stateMutability": "view",
      "type": "function",
      "constant": true
    },
    {
      "inputs": [
        {
          "internalType": "uint256",
          "name": "tokenId",
          "type": "uint256"
        }
      ],
      "name": "getApproved",
      "outputs": [
        {
          "internalType": "address",
          "name": "",
          "type": "address"
        }
      ],
      "stateMutability": "view",
      "type": "function",
      "constant": true
    },
    {
      "inputs": [
        {
          "internalType": "address",
          "name": "owner",
          "type": "address"
        },
        {
          "internalType": "address",
          "name": "operator",
          "type": "address"
        }
      ],
      "name": "isApprovedForAll",
      "outputs": [
        {
          "internalType": "bool",
          "name": "",
          "type": "bool"
        }
      ],
      "stateMutability": "view",
      "type": "function",
      "constant": true
    },
    {
      "inputs": [],
      "name": "name",
      "outputs": [
        {
          "internalType": "string",
          "name": "",
          "type": "string"
        }
      ],
      "stateMutability": "view",
      "type": "function",
      "constant": true
    },
    {
      "inputs": [],
      "name": "owner",
      "outputs": [
        {
          "internalType": "address",
          "name": "",
          "type": "address"
        }
      ],
      "stateMutability": "view",
      "type": "function",
      "constant": true
    },
    {
      "inputs": [
        {
          "internalType": "uint256",
          "name": "tokenId",
          "type": "uint256"
        }
      ],
      "name": "ownerOf",
      "outputs": [
        {
          "internalType": "address",
          "name": "",
          "type": "address"
        }
      ],
      "stateMutability": "view",
      "type": "function",
      "constant": true
    },
    {
      "inputs": [],
      "name": "projectCount",
      "outputs": [
        {
          "internalType": "uint256",
          "name": "",
          "type": "uint256"
        }
      ],
      "stateMutability": "view",
      "type": "function",
      "constant": true
    },
    {
      "inputs": [
        {
          "internalType": "uint256",
          "name": "",
          "type": "uint256"
        }
      ],
      "name": "projects",
      "outputs": [
        {
          "internalType": "uint256",
          "name": "id",
          "type": "uint256"
        },
        {
          "internalType": "string",
          "name": "name",
          "type": "string"
        },
        {
          "internalType": "string",
          "name": "dbaddress",
          "type": "string"
        },
        {
          "internalType": "string",
          "name": "timestamp",
          "type": "string"
        },
        {
          "internalType": "address payable",
          "name": "creator",
          "type": "address"
        },
        {
          "internalType": "bool",
          "name": "purchased",
          "type": "bool"
        }
      ],
      "stateMutability": "view",
      "type": "function",
      "constant": true
    },
    {
      "inputs": [],
      "name": "renounceOwnership",
      "outputs": [],
      "stateMutability": "nonpayable",
      "type": "function"
    },
    {
      "inputs": [
        {
          "internalType": "address",
          "name": "from",
          "type": "address"
        },
        {
          "internalType": "address",
          "name": "to",
          "type": "address"
        },
        {
          "internalType": "uint256",
          "name": "tokenId",
          "type": "uint256"
        }
      ],
      "name": "safeTransferFrom",
      "outputs": [],
      "stateMutability": "nonpayable",
      "type": "function"
    },
    {
      "inputs": [
        {
          "internalType": "address",
          "name": "from",
          "type": "address"
        },
        {
          "internalType": "address",
          "name": "to",
          "type": "address"
        },
        {
          "internalType": "uint256",
          "name": "tokenId",
          "type": "uint256"
        },
        {
          "internalType": "bytes",
          "name": "_data",
          "type": "bytes"
        }
      ],
      "name": "safeTransferFrom",
      "outputs": [],
      "stateMutability": "nonpayable",
      "type": "function"
    },
    {
      "inputs": [
        {
          "internalType": "address",
          "name": "operator",
          "type": "address"
        },
        {
          "internalType": "bool",
          "name": "approved",
          "type": "bool"
        }
      ],
      "name": "setApprovalForAll",
      "outputs": [],
      "stateMutability": "nonpayable",
      "type": "function"
    },
    {
      "inputs": [
        {
          "internalType": "bytes4",
          "name": "interfaceId",
          "type": "bytes4"
        }
      ],
      "name": "supportsInterface",
      "outputs": [
        {
          "internalType": "bool",
          "name": "",
          "type": "bool"
        }
      ],
      "stateMutability": "view",
      "type": "function",
      "constant": true
    },
    {
      "inputs": [],
      "name": "symbol",
      "outputs": [
        {
          "internalType": "string",
          "name": "",
          "type": "string"
        }
      ],
      "stateMutability": "view",
      "type": "function",
      "constant": true
    },
    {
      "inputs": [
        {
          "internalType": "uint256",
          "name": "index",
          "type": "uint256"
        }
      ],
      "name": "tokenByIndex",
      "outputs": [
        {
          "internalType": "uint256",
          "name": "",
          "type": "uint256"
        }
      ],
      "stateMutability": "view",
      "type": "function",
      "constant": true
    },
    {
      "inputs": [
        {
          "internalType": "address",
          "name": "owner",
          "type": "address"
        },
        {
          "internalType": "uint256",
          "name": "index",
          "type": "uint256"
        }
      ],
      "name": "tokenOfOwnerByIndex",
      "outputs": [
        {
          "internalType": "uint256",
          "name": "",
          "type": "uint256"
        }
      ],
      "stateMutability": "view",
      "type": "function",
      "constant": true
    },
    {
      "inputs": [
        {
          "internalType": "uint256",
          "name": "tokenId",
          "type": "uint256"
        }
      ],
      "name": "tokenURI",
      "outputs": [
        {
          "internalType": "string",
          "name": "",
          "type": "string"
        }
      ],
      "stateMutability": "view",
      "type": "function",
      "constant": true
    },
    {
      "inputs": [],
      "name": "totalSupply",
      "outputs": [
        {
          "internalType": "uint256",
          "name": "",
          "type": "uint256"
        }
      ],
      "stateMutability": "view",
      "type": "function",
      "constant": true
    },
    {
      "inputs": [
        {
          "internalType": "address",
          "name": "from",
          "type": "address"
        },
        {
          "internalType": "address",
          "name": "to",
          "type": "address"
        },
        {
          "internalType": "uint256",
          "name": "tokenId",
          "type": "uint256"
        }
      ],
      "name": "transferFrom",
      "outputs": [],
      "stateMutability": "nonpayable",
      "type": "function"
    },
    {
      "inputs": [
        {
          "internalType": "address",
          "name": "newOwner",
          "type": "address"
        }
      ],
      "name": "transferOwnership",
      "outputs": [],
      "stateMutability": "nonpayable",
      "type": "function"
    },
    {
      "inputs": [
        {
          "internalType": "string",
          "name": "_name",
          "type": "string"
        },
        {
          "internalType": "string",
          "name": "_dbaddress",
          "type": "string"
        },
        {
          "internalType": "string",
          "name": "_timestamp",
          "type": "string"
        }
      ],
      "name": "newProject",
      "outputs": [
        {
          "internalType": "uint256",
          "name": "",
          "type": "uint256"
        }
      ],
      "stateMutability": "nonpayable",
      "type": "function"
    }
  ],
  "bytecode": "0x60806040526000600c553480156200001657600080fd5b506040518060400160405280600a81526020017f57336972647320417274000000000000000000000000000000000000000000008152506040518060400160405280600281526020017f33410000000000000000000000000000000000000000000000000000000000008152506200009b6301ffc9a760e01b620001ce60201b60201c565b8160069080519060200190620000b3929190620002df565b508060079080519060200190620000cc929190620002df565b50620000e56380ac58cd60e01b620001ce60201b60201c565b620000fd635b5e139f60e01b620001ce60201b60201c565b6200011563780e9d6360e01b620001ce60201b60201c565b5050600062000129620002d760201b60201c565b905080600a60006101000a81548173ffffffffffffffffffffffffffffffffffffffff021916908373ffffffffffffffffffffffffffffffffffffffff1602179055508073ffffffffffffffffffffffffffffffffffffffff16600073ffffffffffffffffffffffffffffffffffffffff167f8be0079c531659141344cd1fd0a4f28419497f9722a3daafe3b4186f6b6457e060405160405180910390a35062000395565b63ffffffff60e01b817bffffffffffffffffffffffffffffffffffffffffffffffffffffffff191614156200026b576040517f08c379a000000000000000000000000000000000000000000000000000000000815260040180806020018281038252601c8152602001807f4552433136353a20696e76616c696420696e746572666163652069640000000081525060200191505060405180910390fd5b6001600080837bffffffffffffffffffffffffffffffffffffffffffffffffffffffff19167bffffffffffffffffffffffffffffffffffffffffffffffffffffffff1916815260200190815260200160002060006101000a81548160ff02191690831515021790555050565b600033905090565b828054600181600116156101000203166002900490600052602060002090601f01602090048101928262000317576000855562000363565b82601f106200033257805160ff191683800117855562000363565b8280016001018555821562000363579182015b828111156200036257825182559160200191906001019062000345565b5b50905062000372919062000376565b5090565b5b808211156200039157600081600090555060010162000377565b5090565b61369780620003a56000396000f3fe608060405234801561001057600080fd5b506004361061014d5760003560e01c80634f6ccce7116100c357806395d89b411161007c57806395d89b41146109b4578063a22cb46514610a37578063b88d4fde14610a87578063c87b56dd14610b8c578063e985e9c514610c33578063f2fde38b14610cad5761014d565b80634f6ccce7146108015780636352211e146108435780636c0360eb1461089b57806370a082311461091e578063715018a6146109765780638da5cb5b146109805761014d565b806318160ddd1161011557806318160ddd1461048a57806323b872dd146104a857806327913fa0146105165780632f745c591461071357806336fbad261461077557806342842e0e146107935761014d565b806301ffc9a71461015257806306fdde03146101b5578063081812fc14610238578063095ea7b314610290578063107046bd146102de575b600080fd5b61019d6004803603602081101561016857600080fd5b8101908080357bffffffffffffffffffffffffffffffffffffffffffffffffffffffff19169060200190929190505050610cf1565b60405180821515815260200191505060405180910390f35b6101bd610d58565b6040518080602001828103825283818151815260200191508051906020019080838360005b838110156101fd5780820151818401526020810190506101e2565b50505050905090810190601f16801561022a5780820380516001836020036101000a031916815260200191505b509250505060405180910390f35b6102646004803603602081101561024e57600080fd5b8101908080359060200190929190505050610dfa565b604051808273ffffffffffffffffffffffffffffffffffffffff16815260200191505060405180910390f35b6102dc600480360360408110156102a657600080fd5b81019080803573ffffffffffffffffffffffffffffffffffffffff16906020019092919080359060200190929190505050610e95565b005b61030a600480360360208110156102f457600080fd5b8101908080359060200190929190505050610fd9565b604051808781526020018060200180602001806020018673ffffffffffffffffffffffffffffffffffffffff1681526020018515158152602001848103845289818151815260200191508051906020019080838360005b8381101561037c578082015181840152602081019050610361565b50505050905090810190601f1680156103a95780820380516001836020036101000a031916815260200191505b50848103835288818151815260200191508051906020019080838360005b838110156103e25780820151818401526020810190506103c7565b50505050905090810190601f16801561040f5780820380516001836020036101000a031916815260200191505b50848103825287818151815260200191508051906020019080838360005b8381101561044857808201518184015260208101905061042d565b50505050905090810190601f1680156104755780820380516001836020036101000a031916815260200191505b50995050505050505050505060405180910390f35b61049261121a565b6040518082815260200191505060405180910390f35b610514600480360360608110156104be57600080fd5b81019080803573ffffffffffffffffffffffffffffffffffffffff169060200190929190803573ffffffffffffffffffffffffffffffffffffffff1690602001909291908035906020019092919050505061122b565b005b6106fd6004803603606081101561052c57600080fd5b810190808035906020019064010000000081111561054957600080fd5b82018360208201111561055b57600080fd5b8035906020019184600183028401116401000000008311171561057d57600080fd5b91908080601f016020809104026020016040519081016040528093929190818152602001838380828437600081840152601f19601f820116905080830192505050505050509192919290803590602001906401000000008111156105e057600080fd5b8201836020820111156105f257600080fd5b8035906020019184600183028401116401000000008311171561061457600080fd5b91908080601f016020809104026020016040519081016040528093929190818152602001838380828437600081840152601f19601f8201169050808301925050505050505091929192908035906020019064010000000081111561067757600080fd5b82018360208201111561068957600080fd5b803590602001918460018302840111640100000000831117156106ab57600080fd5b91908080601f016020809104026020016040519081016040528093929190818152602001838380828437600081840152601f19601f8201169050808301925050505050505091929192905050506112a1565b6040518082815260200191505060405180910390f35b61075f6004803603604081101561072957600080fd5b81019080803573ffffffffffffffffffffffffffffffffffffffff16906020019092919080359060200190929190505050611411565b6040518082815260200191505060405180910390f35b61077d61146c565b6040518082815260200191505060405180910390f35b6107ff600480360360608110156107a957600080fd5b81019080803573ffffffffffffffffffffffffffffffffffffffff169060200190929190803573ffffffffffffffffffffffffffffffffffffffff16906020019092919080359060200190929190505050611472565b005b61082d6004803603602081101561081757600080fd5b8101908080359060200190929190505050611492565b6040518082815260200191505060405180910390f35b61086f6004803603602081101561085957600080fd5b81019080803590602001909291905050506114b5565b604051808273ffffffffffffffffffffffffffffffffffffffff16815260200191505060405180910390f35b6108a36114ec565b6040518080602001828103825283818151815260200191508051906020019080838360005b838110156108e35780820151818401526020810190506108c8565b50505050905090810190601f1680156109105780820380516001836020036101000a031916815260200191505b509250505060405180910390f35b6109606004803603602081101561093457600080fd5b81019080803573ffffffffffffffffffffffffffffffffffffffff16906020019092919050505061158e565b6040518082815260200191505060405180910390f35b61097e611663565b005b6109886117ee565b604051808273ffffffffffffffffffffffffffffffffffffffff16815260200191505060405180910390f35b6109bc611818565b6040518080602001828103825283818151815260200191508051906020019080838360005b838110156109fc5780820151818401526020810190506109e1565b50505050905090810190601f168015610a295780820380516001836020036101000a031916815260200191505b509250505060405180910390f35b610a8560048036036040811015610a4d57600080fd5b81019080803573ffffffffffffffffffffffffffffffffffffffff1690602001909291908035151590602001909291905050506118ba565b005b610b8a60048036036080811015610a9d57600080fd5b81019080803573ffffffffffffffffffffffffffffffffffffffff169060200190929190803573ffffffffffffffffffffffffffffffffffffffff1690602001909291908035906020019092919080359060200190640100000000811115610b0457600080fd5b820183602082011115610b1657600080fd5b80359060200191846001830284011164010000000083111715610b3857600080fd5b91908080601f016020809104026020016040519081016040528093929190818152602001838380828437600081840152601f19601f820116905080830192505050505050509192919290505050611a70565b005b610bb860048036036020811015610ba257600080fd5b8101908080359060200190929190505050611ae8565b6040518080602001828103825283818151815260200191508051906020019080838360005b83811015610bf8578082015181840152602081019050610bdd565b50505050905090810190601f168015610c255780820380516001836020036101000a031916815260200191505b509250505060405180910390f35b610c9560048036036040811015610c4957600080fd5b81019080803573ffffffffffffffffffffffffffffffffffffffff169060200190929190803573ffffffffffffffffffffffffffffffffffffffff169060200190929190505050611dd1565b60405180821515815260200191505060405180910390f35b610cef60048036036020811015610cc357600080fd5b81019080803573ffffffffffffffffffffffffffffffffffffffff169060200190929190505050611e65565b005b6000806000837bffffffffffffffffffffffffffffffffffffffffffffffffffffffff19167bffffffffffffffffffffffffffffffffffffffffffffffffffffffff1916815260200190815260200160002060009054906101000a900460ff169050919050565b606060068054600181600116156101000203166002900480601f016020809104026020016040519081016040528092919081815260200182805460018160011615610100020316600290048015610df05780601f10610dc557610100808354040283529160200191610df0565b820191906000526020600020905b815481529060010190602001808311610dd357829003601f168201915b5050505050905090565b6000610e0582612075565b610e5a576040517f08c379a000000000000000000000000000000000000000000000000000000000815260040180806020018281038252602c81526020018061358c602c913960400191505060405180910390fd5b6004600083815260200190815260200160002060009054906101000a900473ffffffffffffffffffffffffffffffffffffffff169050919050565b6000610ea0826114b5565b90508073ffffffffffffffffffffffffffffffffffffffff168373ffffffffffffffffffffffffffffffffffffffff161415610f27576040517f08c379a00000000000000000000000000000000000000000000000000000000081526004018080602001828103825260218152602001806136106021913960400191505060405180910390fd5b8073ffffffffffffffffffffffffffffffffffffffff16610f46612092565b73ffffffffffffffffffffffffffffffffffffffff161480610f755750610f7481610f6f612092565b611dd1565b5b610fca576040517f08c379a00000000000000000000000000000000000000000000000000000000081526004018080602001828103825260388152602001806134df6038913960400191505060405180910390fd5b610fd4838361209a565b505050565b600b8181548110610fe957600080fd5b9060005260206000209060050201600091509050806000015490806001018054600181600116156101000203166002900480601f01602080910402602001604051908101604052809291908181526020018280546001816001161561010002031660029004801561109b5780601f106110705761010080835404028352916020019161109b565b820191906000526020600020905b81548152906001019060200180831161107e57829003601f168201915b505050505090806002018054600181600116156101000203166002900480601f0160208091040260200160405190810160405280929190818152602001828054600181600116156101000203166002900480156111395780601f1061110e57610100808354040283529160200191611139565b820191906000526020600020905b81548152906001019060200180831161111c57829003601f168201915b505050505090806003018054600181600116156101000203166002900480601f0160208091040260200160405190810160405280929190818152602001828054600181600116156101000203166002900480156111d75780601f106111ac576101008083540402835291602001916111d7565b820191906000526020600020905b8154815290600101906020018083116111ba57829003601f168201915b5050505050908060040160009054906101000a900473ffffffffffffffffffffffffffffffffffffffff16908060040160149054906101000a900460ff16905086565b60006112266002612153565b905090565b61123c611236612092565b82612168565b611291576040517f08c379a00000000000000000000000000000000000000000000000000000000081526004018080602001828103825260318152602001806136316031913960400191505060405180910390fd5b61129c83838361225c565b505050565b6000600c600081548092919060010191905055506000600b805490509050600b6040518060c00160405280600c5481526020018781526020018681526020018581526020013373ffffffffffffffffffffffffffffffffffffffff168152602001600015158152509080600181540180825580915050600190039060005260206000209060050201600090919091909150600082015181600001556020820151816001019080519060200190611358929190613343565b506040820151816002019080519060200190611375929190613343565b506060820151816003019080519060200190611392929190613343565b5060808201518160040160006101000a81548173ffffffffffffffffffffffffffffffffffffffff021916908373ffffffffffffffffffffffffffffffffffffffff16021790555060a08201518160040160146101000a81548160ff0219169083151502179055505050611406338261249f565b809150509392505050565b600061146482600160008673ffffffffffffffffffffffffffffffffffffffff1673ffffffffffffffffffffffffffffffffffffffff1681526020019081526020016000206124bd90919063ffffffff16565b905092915050565b600c5481565b61148d83838360405180602001604052806000815250611a70565b505050565b6000806114a98360026124d790919063ffffffff16565b50905080915050919050565b60006114e5826040518060600160405280602981526020016135416029913960026125039092919063ffffffff16565b9050919050565b606060098054600181600116156101000203166002900480601f0160208091040260200160405190810160405280929190818152602001828054600181600116156101000203166002900480156115845780601f1061155957610100808354040283529160200191611584565b820191906000526020600020905b81548152906001019060200180831161156757829003601f168201915b5050505050905090565b60008073ffffffffffffffffffffffffffffffffffffffff168273ffffffffffffffffffffffffffffffffffffffff161415611615576040517f08c379a000000000000000000000000000000000000000000000000000000000815260040180806020018281038252602a815260200180613517602a913960400191505060405180910390fd5b61165c600160008473ffffffffffffffffffffffffffffffffffffffff1673ffffffffffffffffffffffffffffffffffffffff168152602001908152602001600020612522565b9050919050565b61166b612092565b73ffffffffffffffffffffffffffffffffffffffff16600a60009054906101000a900473ffffffffffffffffffffffffffffffffffffffff1673ffffffffffffffffffffffffffffffffffffffff161461172d576040517f08c379a00000000000000000000000000000000000000000000000000000000081526004018080602001828103825260208152602001807f4f776e61626c653a2063616c6c6572206973206e6f7420746865206f776e657281525060200191505060405180910390fd5b600073ffffffffffffffffffffffffffffffffffffffff16600a60009054906101000a900473ffffffffffffffffffffffffffffffffffffffff1673ffffffffffffffffffffffffffffffffffffffff167f8be0079c531659141344cd1fd0a4f28419497f9722a3daafe3b4186f6b6457e060405160405180910390a36000600a60006101000a81548173ffffffffffffffffffffffffffffffffffffffff021916908373ffffffffffffffffffffffffffffffffffffffff160217905550565b6000600a60009054906101000a900473ffffffffffffffffffffffffffffffffffffffff16905090565b606060078054600181600116156101000203166002900480601f0160208091040260200160405190810160405280929190818152602001828054600181600116156101000203166002900480156118b05780601f10611885576101008083540402835291602001916118b0565b820191906000526020600020905b81548152906001019060200180831161189357829003601f168201915b5050505050905090565b6118c2612092565b73ffffffffffffffffffffffffffffffffffffffff168273ffffffffffffffffffffffffffffffffffffffff161415611963576040517f08c379a00000000000000000000000000000000000000000000000000000000081526004018080602001828103825260198152602001807f4552433732313a20617070726f766520746f2063616c6c65720000000000000081525060200191505060405180910390fd5b8060056000611970612092565b73ffffffffffffffffffffffffffffffffffffffff1673ffffffffffffffffffffffffffffffffffffffff16815260200190815260200160002060008473ffffffffffffffffffffffffffffffffffffffff1673ffffffffffffffffffffffffffffffffffffffff16815260200190815260200160002060006101000a81548160ff0219169083151502179055508173ffffffffffffffffffffffffffffffffffffffff16611a1d612092565b73ffffffffffffffffffffffffffffffffffffffff167f17307eab39ab6107e8899845ad3d59bd9653f200f220920489ca2b5937696c318360405180821515815260200191505060405180910390a35050565b611a81611a7b612092565b83612168565b611ad6576040517f08c379a00000000000000000000000000000000000000000000000000000000081526004018080602001828103825260318152602001806136316031913960400191505060405180910390fd5b611ae284848484612537565b50505050565b6060611af382612075565b611b48576040517f08c379a000000000000000000000000000000000000000000000000000000000815260040180806020018281038252602f8152602001806135e1602f913960400191505060405180910390fd5b6000600860008481526020019081526020016000208054600181600116156101000203166002900480601f016020809104026020016040519081016040528092919081815260200182805460018160011615610100020316600290048015611bf15780601f10611bc657610100808354040283529160200191611bf1565b820191906000526020600020905b815481529060010190602001808311611bd457829003601f168201915b50505050509050600060098054600181600116156101000203166002900490501415611c205780915050611dcc565b600081511115611cf9576009816040516020018083805460018160011615610100020316600290048015611c8b5780601f10611c69576101008083540402835291820191611c8b565b820191906000526020600020905b815481529060010190602001808311611c77575b505082805190602001908083835b60208310611cbc5780518252602082019150602081019050602083039250611c99565b6001836020036101000a03801982511681845116808217855250505050505090500192505050604051602081830303815290604052915050611dcc565b6009611d04846125a9565b6040516020018083805460018160011615610100020316600290048015611d625780601f10611d40576101008083540402835291820191611d62565b820191906000526020600020905b815481529060010190602001808311611d4e575b505082805190602001908083835b60208310611d935780518252602082019150602081019050602083039250611d70565b6001836020036101000a038019825116818451168082178552505050505050905001925050506040516020818303038152906040529150505b919050565b6000600560008473ffffffffffffffffffffffffffffffffffffffff1673ffffffffffffffffffffffffffffffffffffffff16815260200190815260200160002060008373ffffffffffffffffffffffffffffffffffffffff1673ffffffffffffffffffffffffffffffffffffffff16815260200190815260200160002060009054906101000a900460ff16905092915050565b611e6d612092565b73ffffffffffffffffffffffffffffffffffffffff16600a60009054906101000a900473ffffffffffffffffffffffffffffffffffffffff1673ffffffffffffffffffffffffffffffffffffffff1614611f2f576040517f08c379a00000000000000000000000000000000000000000000000000000000081526004018080602001828103825260208152602001807f4f776e61626c653a2063616c6c6572206973206e6f7420746865206f776e657281525060200191505060405180910390fd5b600073ffffffffffffffffffffffffffffffffffffffff168173ffffffffffffffffffffffffffffffffffffffff161415611fb5576040517f08c379a00000000000000000000000000000000000000000000000000000000081526004018080602001828103825260268152602001806134436026913960400191505060405180910390fd5b8073ffffffffffffffffffffffffffffffffffffffff16600a60009054906101000a900473ffffffffffffffffffffffffffffffffffffffff1673ffffffffffffffffffffffffffffffffffffffff167f8be0079c531659141344cd1fd0a4f28419497f9722a3daafe3b4186f6b6457e060405160405180910390a380600a60006101000a81548173ffffffffffffffffffffffffffffffffffffffff021916908373ffffffffffffffffffffffffffffffffffffffff16021790555050565b600061208b8260026126f090919063ffffffff16565b9050919050565b600033905090565b816004600083815260200190815260200160002060006101000a81548173ffffffffffffffffffffffffffffffffffffffff021916908373ffffffffffffffffffffffffffffffffffffffff160217905550808273ffffffffffffffffffffffffffffffffffffffff1661210d836114b5565b73ffffffffffffffffffffffffffffffffffffffff167f8c5be1e5ebec7d5bd14f71427d1e84f3dd0314c0f7b2291e5b200ac8c7c3b92560405160405180910390a45050565b60006121618260000161270a565b9050919050565b600061217382612075565b6121c8576040517f08c379a000000000000000000000000000000000000000000000000000000000815260040180806020018281038252602c8152602001806134b3602c913960400191505060405180910390fd5b60006121d3836114b5565b90508073ffffffffffffffffffffffffffffffffffffffff168473ffffffffffffffffffffffffffffffffffffffff16148061224257508373ffffffffffffffffffffffffffffffffffffffff1661222a84610dfa565b73ffffffffffffffffffffffffffffffffffffffff16145b8061225357506122528185611dd1565b5b91505092915050565b8273ffffffffffffffffffffffffffffffffffffffff1661227c826114b5565b73ffffffffffffffffffffffffffffffffffffffff16146122e8576040517f08c379a00000000000000000000000000000000000000000000000000000000081526004018080602001828103825260298152602001806135b86029913960400191505060405180910390fd5b600073ffffffffffffffffffffffffffffffffffffffff168273ffffffffffffffffffffffffffffffffffffffff16141561236e576040517f08c379a00000000000000000000000000000000000000000000000000000000081526004018080602001828103825260248152602001806134696024913960400191505060405180910390fd5b61237983838361271b565b61238460008261209a565b6123d581600160008673ffffffffffffffffffffffffffffffffffffffff1673ffffffffffffffffffffffffffffffffffffffff16815260200190815260200160002061272090919063ffffffff16565b5061242781600160008573ffffffffffffffffffffffffffffffffffffffff1673ffffffffffffffffffffffffffffffffffffffff16815260200190815260200160002061273a90919063ffffffff16565b5061243e818360026127549092919063ffffffff16565b50808273ffffffffffffffffffffffffffffffffffffffff168473ffffffffffffffffffffffffffffffffffffffff167fddf252ad1be2c89b69c2b068fc378daa952ba7f163c4a11628f55a4df523b3ef60405160405180910390a4505050565b6124b9828260405180602001604052806000815250612789565b5050565b60006124cc83600001836127fa565b60001c905092915050565b6000806000806124ea866000018661287d565b915091508160001c8160001c9350935050509250929050565b6000612516846000018460001b84612916565b60001c90509392505050565b600061253082600001612a0c565b9050919050565b61254284848461225c565b61254e84848484612a1d565b6125a3576040517f08c379a00000000000000000000000000000000000000000000000000000000081526004018080602001828103825260328152602001806134116032913960400191505060405180910390fd5b50505050565b606060008214156125f1576040518060400160405280600181526020017f300000000000000000000000000000000000000000000000000000000000000081525090506126eb565b600082905060005b6000821461261b578080600101915050600a828161261357fe5b0491506125f9565b60008167ffffffffffffffff8111801561263457600080fd5b506040519080825280601f01601f1916602001820160405280156126675781602001600182028036833780820191505090505b50905060006001830390508593505b600084146126e357600a848161268857fe5b0660300160f81b828280600190039350815181106126a257fe5b60200101907effffffffffffffffffffffffffffffffffffffffffffffffffffffffffffff1916908160001a905350600a84816126db57fe5b049350612676565b819450505050505b919050565b6000612702836000018360001b612c36565b905092915050565b600081600001805490509050919050565b505050565b6000612732836000018360001b612c59565b905092915050565b600061274c836000018360001b612d41565b905092915050565b6000612780846000018460001b8473ffffffffffffffffffffffffffffffffffffffff1660001b612db1565b90509392505050565b6127938383612e8d565b6127a06000848484612a1d565b6127f5576040517f08c379a00000000000000000000000000000000000000000000000000000000081526004018080602001828103825260328152602001806134116032913960400191505060405180910390fd5b505050565b60008183600001805490501161285b576040517f08c379a00000000000000000000000000000000000000000000000000000000081526004018080602001828103825260228152602001806133ef6022913960400191505060405180910390fd5b82600001828154811061286a57fe5b9060005260206000200154905092915050565b600080828460000180549050116128df576040517f08c379a000000000000000000000000000000000000000000000000000000000815260040180806020018281038252602281526020018061356a6022913960400191505060405180910390fd5b60008460000184815481106128f057fe5b906000526020600020906002020190508060000154816001015492509250509250929050565b600080846001016000858152602001908152602001600020549050600081141583906129dd576040517f08c379a00000000000000000000000000000000000000000000000000000000081526004018080602001828103825283818151815260200191508051906020019080838360005b838110156129a2578082015181840152602081019050612987565b50505050905090810190601f1680156129cf5780820380516001836020036101000a031916815260200191505b509250505060405180910390fd5b508460000160018203815481106129f057fe5b9060005260206000209060020201600101549150509392505050565b600081600001805490509050919050565b6000612a3e8473ffffffffffffffffffffffffffffffffffffffff16613081565b612a4b5760019050612c2e565b6000612bb563150b7a0260e01b612a60612092565b888787604051602401808573ffffffffffffffffffffffffffffffffffffffff1681526020018473ffffffffffffffffffffffffffffffffffffffff16815260200183815260200180602001828103825283818151815260200191508051906020019080838360005b83811015612ae4578082015181840152602081019050612ac9565b50505050905090810190601f168015612b115780820380516001836020036101000a031916815260200191505b5095505050505050604051602081830303815290604052907bffffffffffffffffffffffffffffffffffffffffffffffffffffffff19166020820180517bffffffffffffffffffffffffffffffffffffffffffffffffffffffff8381831617835250505050604051806060016040528060328152602001613411603291398773ffffffffffffffffffffffffffffffffffffffff166130949092919063ffffffff16565b90506000818060200190516020811015612bce57600080fd5b8101908080519060200190929190505050905063150b7a0260e01b7bffffffffffffffffffffffffffffffffffffffffffffffffffffffff1916817bffffffffffffffffffffffffffffffffffffffffffffffffffffffff191614925050505b949350505050565b600080836001016000848152602001908152602001600020541415905092915050565b60008083600101600084815260200190815260200160002054905060008114612d355760006001820390506000600186600001805490500390506000866000018281548110612ca457fe5b9060005260206000200154905080876000018481548110612cc157fe5b9060005260206000200181905550600183018760010160008381526020019081526020016000208190555086600001805480612cf957fe5b60019003818190600052602060002001600090559055866001016000878152602001908152602001600020600090556001945050505050612d3b565b60009150505b92915050565b6000612d4d83836130ac565b612da6578260000182908060018154018082558091505060019003906000526020600020016000909190919091505582600001805490508360010160008481526020019081526020016000208190555060019050612dab565b600090505b92915050565b6000808460010160008581526020019081526020016000205490506000811415612e5857846000016040518060400160405280868152602001858152509080600181540180825580915050600190039060005260206000209060020201600090919091909150600082015181600001556020820151816001015550508460000180549050856001016000868152602001908152602001600020819055506001915050612e86565b82856000016001830381548110612e6b57fe5b90600052602060002090600202016001018190555060009150505b9392505050565b600073ffffffffffffffffffffffffffffffffffffffff168273ffffffffffffffffffffffffffffffffffffffff161415612f30576040517f08c379a00000000000000000000000000000000000000000000000000000000081526004018080602001828103825260208152602001807f4552433732313a206d696e7420746f20746865207a65726f206164647265737381525060200191505060405180910390fd5b612f3981612075565b15612fac576040517f08c379a000000000000000000000000000000000000000000000000000000000815260040180806020018281038252601c8152602001807f4552433732313a20746f6b656e20616c7265616479206d696e7465640000000081525060200191505060405180910390fd5b612fb86000838361271b565b61300981600160008573ffffffffffffffffffffffffffffffffffffffff1673ffffffffffffffffffffffffffffffffffffffff16815260200190815260200160002061273a90919063ffffffff16565b50613020818360026127549092919063ffffffff16565b50808273ffffffffffffffffffffffffffffffffffffffff16600073ffffffffffffffffffffffffffffffffffffffff167fddf252ad1be2c89b69c2b068fc378daa952ba7f163c4a11628f55a4df523b3ef60405160405180910390a45050565b600080823b905060008111915050919050565b60606130a384846000856130cf565b90509392505050565b600080836001016000848152602001908152602001600020541415905092915050565b60608247101561312a576040517f08c379a000000000000000000000000000000000000000000000000000000000815260040180806020018281038252602681526020018061348d6026913960400191505060405180910390fd5b61313385613081565b6131a5576040517f08c379a000000000000000000000000000000000000000000000000000000000815260040180806020018281038252601d8152602001807f416464726573733a2063616c6c20746f206e6f6e2d636f6e747261637400000081525060200191505060405180910390fd5b6000808673ffffffffffffffffffffffffffffffffffffffff1685876040518082805190602001908083835b602083106131f457805182526020820191506020810190506020830392506131d1565b6001836020036101000a03801982511681845116808217855250505050505090500191505060006040518083038185875af1925050503d8060008114613256576040519150601f19603f3d011682016040523d82523d6000602084013e61325b565b606091505b509150915061326b828286613277565b92505050949350505050565b606083156132875782905061333c565b60008351111561329a5782518084602001fd5b816040517f08c379a00000000000000000000000000000000000000000000000000000000081526004018080602001828103825283818151815260200191508051906020019080838360005b838110156133015780820151818401526020810190506132e6565b50505050905090810190601f16801561332e5780820380516001836020036101000a031916815260200191505b509250505060405180910390fd5b9392505050565b828054600181600116156101000203166002900490600052602060002090601f01602090048101928261337957600085556133c0565b82601f1061339257805160ff19168380011785556133c0565b828001600101855582156133c0579182015b828111156133bf5782518255916020019190600101906133a4565b5b5090506133cd91906133d1565b5090565b5b808211156133ea5760008160009055506001016133d2565b509056fe456e756d657261626c655365743a20696e646578206f7574206f6620626f756e64734552433732313a207472616e7366657220746f206e6f6e20455243373231526563656976657220696d706c656d656e7465724f776e61626c653a206e6577206f776e657220697320746865207a65726f20616464726573734552433732313a207472616e7366657220746f20746865207a65726f2061646472657373416464726573733a20696e73756666696369656e742062616c616e636520666f722063616c6c4552433732313a206f70657261746f7220717565727920666f72206e6f6e6578697374656e7420746f6b656e4552433732313a20617070726f76652063616c6c6572206973206e6f74206f776e6572206e6f7220617070726f76656420666f7220616c6c4552433732313a2062616c616e636520717565727920666f7220746865207a65726f20616464726573734552433732313a206f776e657220717565727920666f72206e6f6e6578697374656e7420746f6b656e456e756d657261626c654d61703a20696e646578206f7574206f6620626f756e64734552433732313a20617070726f76656420717565727920666f72206e6f6e6578697374656e7420746f6b656e4552433732313a207472616e73666572206f6620746f6b656e2074686174206973206e6f74206f776e4552433732314d657461646174613a2055524920717565727920666f72206e6f6e6578697374656e7420746f6b656e4552433732313a20617070726f76616c20746f2063757272656e74206f776e65724552433732313a207472616e736665722063616c6c6572206973206e6f74206f776e6572206e6f7220617070726f766564a264697066735822122049f27464a414934841b7a08ee78d629d45539f9c8f737819de5e5ba0b3a6ecc364736f6c63430007060033",
  "immutableReferences": {},
  "source": "// SPDX-License-Identifier: MIT\n\npragma solidity >=0.5.0 <0.8.0;\n\nimport \"@openzeppelin/contracts/token/ERC721/ERC721.sol\";\nimport \"@openzeppelin/contracts/access/Ownable.sol\";\n//import \"@openzeppelin/contracts/math/SafeMath.sol\";\n//import \"@openzeppelin/contracts/utils/SafeCast.sol\";\n\ncontract W3irds is ERC721, Ownable{\n    //using SafeMath for uint;\n    //using SafeCast for uint;\n\n    //string public name = \"W3irds Art\";\n    //string [] public projects;\n    //Project information\n        struct Project {\n            //Art details\n            uint id;\n            //Name\n            string name;\n            //DB Address\n            string dbaddress;\n            //timestamp??\n            string timestamp;\n            //ownership\n            address payable creator;\n            //purchased\n            bool purchased;\n        }\n        //List of all projects\n        Project[] public projects;\n        //mapping(uint => Project) public projects;\n\n    constructor()ERC721(\"W3irds Art\" , \"3A\")public {\n\n    }\n    uint public projectCount = 0;\n      \n    //Create new project\n        function newProject(\n            string memory _name,\n            string memory _dbaddress,\n            string memory _timestamp\n            //address _creator\n        ) public returns (uint)\n        {\n            projectCount++;\n            uint id = projects.length;\n            projects.push(\n                Project(projectCount, _name, _dbaddress, _timestamp, msg.sender, false)\n            );\n            _safeMint(msg.sender, id);\n            return id;\n        }\n/*\n         //Cast and add a uint8 to a uint8\n        function castAdd8(uint8 _a, uint8 _b) internal pure returns (uint8){\n            return uint(_a).add(uint(_b)).toUint8();\n        }\n        //Cast and substract a uint8 from uint8\n        function castSubstract8(uint8 _a, uint8 _b) internal pure returns(uint8){\n            return uint(_a).sub(uint(_b)).toUint8();\n        }\n        //Cast and subtract a uint8 from a uint\n        function castSubstract256(uint _a, uint8 _b) internal pure returns (uint){\n            return _a.sub(uint(_b));\n        }\n    //Grow a project\n        //Grow costs and gains\n    uint8 public stateCostToGrow = 5;\n    uint8 public lifecycleCostToGrow = 8;\n    uint8 public attributeGainOnGrow = 1;\n    //Rest costs and gains\n    uint8 public lifecycleCostToRest = 6;\n    uint8 public stateGainOnRest = 15;\n\n    enum Attribute { technique, aesthetics, usage, popularity }\n\n    event Grow(uint indexed projectId, Attribute attribute);\n    event Rest(uint indexed projectId);\n\n    //Grow a project increasing an attribute\n    function grow(uint _id, Attribute _attr) public{\n        //Only the owner of the project can grow***\n        require(ownerOf(_id) == msg.sender, \"Must be owner of project to grow it\");\n\n        //The project must be fit enough to grow\n        projects[_id].state = castSubstract8(projects[_id].state, stateCostToGrow);\n        //Must have enough lifecycle\n        projects[_id].lifecycle = castSubstract256(projects[_id].lifecycle, lifecycleCostToGrow);\n\n        // Increase the chosen attribute\n        if (_attr == Attribute.technique) {\n            projects[_id].technique = castAdd8(projects[_id].technique, attributeGainOnGrow);\n        }else if (_attr == Attribute.aesthetics){\n            projects[_id].aesthetics = castAdd8(projects[_id].aesthetics, attributeGainOnGrow);\n        }else if (_attr == Attribute.usage){\n            projects[_id].usage = castAdd8(projects[_id].usage, attributeGainOnGrow);\n        }else if (_attr == Attribute.popularity){\n            projects[_id].popularity = castAdd8(projects[_id].popularity, attributeGainOnGrow);\n        }\n        emit Grow(_id, _attr);\n    }\n\n    //Rest project, increasing state\n    function rest(uint _id) public{\n        //Only the owner of the project can rest\n        require(ownerOf(_id) == msg.sender, \"Must be owner of project to rest\");\n\n        //Must have enough lifecycle\n        projects[_id].lifecycle = castSubstract256(projects[_id].lifecycle, lifecycleCostToRest);\n        projects[_id].state = castAdd8(projects[_id].state, stateGainOnRest);\n\n        emit Rest(_id);\n    }\n    ////Enlist project\n    //state cost to reach complete status\n    uint8 public stateCostToComplete = 20;\n    //lifecycleGainWin\n    uint8 public lifecycleGainWin = 10;\n    //lifecycleGainlose\n    uint8 public lifecycleGainLose = 5;\n\n    //enlistedProjects\n    mapping(uint => bool) public enlistedProjects;\n    //enlistEvent\n    event Enlist(uint indexed projectId);\n    //delistEvent\n    event Delist(uint indexed projectId);\n    //contest\n    event ContestEntered(uint indexed projectId, uint indexed opponentId, uint indexed winner);\n     \n    //Enlist project to complete\n     function enlist(uint _id) public{\n         //only the owner of the project can enlist\n         require(ownerOf(_id) == msg.sender, \"Must be owner of project to enlist\");\n         //Must not be enlisted already\n         require(enlistedProjects[_id] == false, \"Must not already be enlisted\");\n         //Check state\n         require(projects[_id].state >= stateCostToComplete, \"Must be in required state to complete\");\n         //Enlist\n         enlistedProjects[_id] = true;\n         //Emit\n         emit Enlist(_id);\n\n     }\n     //Delist project \n     function delist(uint _id) public{\n         //Only owner can delist\n         require(ownerOf(_id) == msg.sender, \"Must be owner of project to delist\");\n         //Must be enlisted\n         require(enlistedProjects[_id] == true, \"Must be enlisted\");\n         //Run delist\n         _delist(_id);\n     }\n     function _delist(uint _id) private{\n         enlistedProjects[_id] = false;\n         emit Delist(_id);\n     }\n     \n     //Contest\n     function enterContest(uint _id, uint _opponentId) public{\n         //Only owner\n         require(ownerOf(_id) == msg.sender, \"Must be owner of project to enter contest\");\n         //Must be enlisted\n         require(enlistedProjects[_id] == true, \"Must be enlisted\");\n         //Opponent must be enlisted\n         require(enlistedProjects[_opponentId] == true, \"Opponent must be enlisted\");\n         //Project state\n         _requireContestState(_id, \"Project not ready for a contest\");\n         //Opponents state\n         _requireContestState(_opponentId, \"Opponent not ready for a contest\");\n         uint projectScore = uint(projects[_id].technique)\n            .add(uint(projects[_id].aesthetics))\n            .add(uint(projects[_id].usage))\n            .add(uint(projects[_id].popularity));\n         uint opponentScore = uint(projects[_opponentId].technique)\n            .add(uint(projects[_opponentId].aesthetics))\n            .add(uint(projects[_opponentId].usage))\n            .add(uint(projects[_opponentId].popularity));\n        //State changes\n        projects[_id].state = uint(projects[_id].state).sub(uint(stateCostToComplete)).toUint8();\n        projects[_opponentId].state = uint(projects[_opponentId].state).sub(uint(stateCostToComplete)).toUint8();\n        //Winner\n        (uint winner, uint loser) = (projectScore >= opponentScore ) ? (_id, _opponentId) : (_opponentId, _id);\n        //lifecycle changes\n        projects[winner].lifecycle = uint(projects[winner].lifecycle).add(uint(lifecycleGainWin));\n        projects[loser].lifecycle = uint(projects[loser].lifecycle).add(uint(lifecycleGainLose));\n        //emit contest \n        emit ContestEntered(_id, _opponentId, winner);\n        //check state again\n        _isContestState(_id);\n        _isContestState(_opponentId);\n     }\n\n     function _requireContestState(uint _id, string memory _message) private {\n         if(!_isContestState(_id)){\n             revert(_message);\n         }\n     }\n     //check contest condition\n     function _isContestState(uint _id) private returns (bool) {\n         //require state is high\n         //delist if not\n         if (projects[_id].state <= stateCostToComplete){\n             _delist(_id);\n             return false;\n         }\n         return true;\n     }\n \n    /*\n    uint public projectCount = 0;\n    uint public completedProjects = 0;\n    mapping(uint => Project) public projects;\n    \n    struct Project {\n       uint id;\n       string name;\n       bool completed;\n       address payable creator;\n       bool purchased; \n    }\n\n    event ProjectCreated(\n        uint id,\n        string name,\n        bool completed,\n        address payable creator,\n        bool purchased\n    );\n    event ProjectCompleted(\n        uint id,\n        string name,\n        bool completed,\n        address payable creator,\n        bool purchased\n    );\n\n   /* event ProjectPurchased(\n        uint id,\n       string name,\n       uint price,\n       address payable owner,\n       bool purchased\n    );\n    \n    /*constructor() public{\n        name = \"W3irds Art Projects\";  \n    }\n\n    function createProject(string memory _name) public{\n    //Require a name\n    require(bytes(_name).length > 0);\n    // Require a valid price\n    //require(_price > 0);\n    // Increment product count \n    projectCount ++;\n    //create the product \n    projects[projectCount] = Project(projectCount, _name, false, msg.sender, false);\n    //trigger an event\n    emit ProjectCreated(projectCount, _name, false, msg.sender, false);\n    }\n    function completeProject(uint _id) public{\n        //fetch product\n        Project memory _project = projects[_id];\n        //\n\n\n        completedProjects ++;\n        projects[completedProjects] = Project(completedProjects, _project.name, true, msg.sender, false);\n        emit ProjectCompleted(completedProjects, _project.name, true, msg.sender, false);\n    }\n    \n\n    /*function purchaseProject(uint _id) public payable{\n        //fetch the product\n        Project memory _project = projects[_id];\n        //fetch the owner\n        address payable _seller = _project.owner;\n        //make sure the product is valid\n        require(_project.id > 0 && _project.id<= projectCount);\n        // Require that there is enough ether in the transaction\n        require(msg.value >= _project.price);\n        //require that the product has not been purchased\n        require(!_project.purchased);\n        //require the buyer is not the seller\n        require(_seller != msg.sender);\n        //purchase it/transfer ownershio to the buyer\n        _project.owner = msg.sender;\n        //mark as purchased \n        _project.purchased = true;\n        // update the product \n        projects[_id] = _project;\n        //pay the seller by sending them Ether\n        address(_seller).transfer(msg.value);\n        //trigger an event\n        emit ProjectPurchased(projectCount, _project.name, _project.price, msg.sender, true);\n  \n\n\n    }*/\n}",
  "sourcePath": "/Applications/Ampps/www/W3irds/artwork/src/contracts/w3irds.sol",
  "compiler": {
    "name": "solc",
    "version": "0.7.6+commit.7338295f.Emscripten.clang"
  },
  "schemaVersion": "3.3.3",
  "updatedAt": "2021-01-22T05:45:24.653Z",
  "networkType": "ethereum",
  "devdoc": {
    "kind": "dev",
    "methods": {
      "approve(address,uint256)": {
        "details": "See {IERC721-approve}."
      },
      "balanceOf(address)": {
        "details": "See {IERC721-balanceOf}."
      },
      "baseURI()": {
        "details": "Returns the base URI set via {_setBaseURI}. This will be automatically added as a prefix in {tokenURI} to each token's URI, or to the token ID if no specific URI is set for that token ID."
      },
      "getApproved(uint256)": {
        "details": "See {IERC721-getApproved}."
      },
      "isApprovedForAll(address,address)": {
        "details": "See {IERC721-isApprovedForAll}."
      },
      "name()": {
        "details": "See {IERC721Metadata-name}."
      },
      "owner()": {
        "details": "Returns the address of the current owner."
      },
      "ownerOf(uint256)": {
        "details": "See {IERC721-ownerOf}."
      },
      "renounceOwnership()": {
        "details": "Leaves the contract without owner. It will not be possible to call `onlyOwner` functions anymore. Can only be called by the current owner. NOTE: Renouncing ownership will leave the contract without an owner, thereby removing any functionality that is only available to the owner."
      },
      "safeTransferFrom(address,address,uint256)": {
        "details": "See {IERC721-safeTransferFrom}."
      },
      "safeTransferFrom(address,address,uint256,bytes)": {
        "details": "See {IERC721-safeTransferFrom}."
      },
      "setApprovalForAll(address,bool)": {
        "details": "See {IERC721-setApprovalForAll}."
      },
      "supportsInterface(bytes4)": {
        "details": "See {IERC165-supportsInterface}. Time complexity O(1), guaranteed to always use less than 30 000 gas."
      },
      "symbol()": {
        "details": "See {IERC721Metadata-symbol}."
      },
      "tokenByIndex(uint256)": {
        "details": "See {IERC721Enumerable-tokenByIndex}."
      },
      "tokenOfOwnerByIndex(address,uint256)": {
        "details": "See {IERC721Enumerable-tokenOfOwnerByIndex}."
      },
      "tokenURI(uint256)": {
        "details": "See {IERC721Metadata-tokenURI}."
      },
      "totalSupply()": {
        "details": "See {IERC721Enumerable-totalSupply}."
      },
      "transferFrom(address,address,uint256)": {
        "details": "See {IERC721-transferFrom}."
      },
      "transferOwnership(address)": {
        "details": "Transfers ownership of the contract to a new account (`newOwner`). Can only be called by the current owner."
      }
    },
    "version": 1
  },
  "userdoc": {
    "kind": "user",
    "methods": {},
    "version": 1
  }
}