{
  "contractName": "W3irdsTokens",
  "abi": [
    {
      "anonymous": false,
      "inputs": [
        {
          "indexed": true,
          "internalType": "address",
          "name": "owner",
          "type": "address"
        },
        {
          "indexed": true,
          "internalType": "address",
          "name": "approved",
          "type": "address"
        },
        {
          "indexed": true,
          "internalType": "uint256",
          "name": "tokenId",
          "type": "uint256"
        }
      ],
      "name": "Approval",
      "type": "event"
    },
    {
      "anonymous": false,
      "inputs": [
        {
          "indexed": true,
          "internalType": "address",
          "name": "owner",
          "type": "address"
        },
        {
          "indexed": true,
          "internalType": "address",
          "name": "operator",
          "type": "address"
        },
        {
          "indexed": false,
          "internalType": "bool",
          "name": "approved",
          "type": "bool"
        }
      ],
      "name": "ApprovalForAll",
      "type": "event"
    },
    {
      "anonymous": false,
      "inputs": [
        {
          "indexed": true,
          "internalType": "address",
          "name": "previousOwner",
          "type": "address"
        },
        {
          "indexed": true,
          "internalType": "address",
          "name": "newOwner",
          "type": "address"
        }
      ],
      "name": "OwnershipTransferred",
      "type": "event"
    },
    {
      "anonymous": false,
      "inputs": [
        {
          "indexed": false,
          "internalType": "uint256",
          "name": "id",
          "type": "uint256"
        },
        {
          "indexed": false,
          "internalType": "string",
          "name": "ipfshash",
          "type": "string"
        },
        {
          "indexed": false,
          "internalType": "address",
          "name": "creator",
          "type": "address"
        },
        {
          "indexed": false,
          "internalType": "address",
          "name": "keeper",
          "type": "address"
        },
        {
          "indexed": false,
          "internalType": "uint256",
          "name": "tokens",
          "type": "uint256"
        }
      ],
      "name": "ProjectCreated",
      "type": "event"
    },
    {
      "anonymous": false,
      "inputs": [
        {
          "indexed": false,
          "internalType": "uint256",
          "name": "id",
          "type": "uint256"
        },
        {
          "indexed": false,
          "internalType": "string",
          "name": "ipfshahs",
          "type": "string"
        },
        {
          "indexed": false,
          "internalType": "address",
          "name": "creator",
          "type": "address"
        },
        {
          "indexed": false,
          "internalType": "address",
          "name": "keeper",
          "type": "address"
        },
        {
          "indexed": false,
          "internalType": "uint256",
          "name": "tokens",
          "type": "uint256"
        }
      ],
      "name": "ProjectKeeperChanged",
      "type": "event"
    },
    {
      "anonymous": false,
      "inputs": [
        {
          "indexed": false,
          "internalType": "uint256",
          "name": "id",
          "type": "uint256"
        }
      ],
      "name": "ProjectTokens",
      "type": "event"
    },
    {
      "anonymous": false,
      "inputs": [
        {
          "indexed": true,
          "internalType": "address",
          "name": "from",
          "type": "address"
        },
        {
          "indexed": true,
          "internalType": "address",
          "name": "to",
          "type": "address"
        },
        {
          "indexed": true,
          "internalType": "uint256",
          "name": "tokenId",
          "type": "uint256"
        }
      ],
      "name": "Transfer",
      "type": "event"
    },
    {
      "inputs": [
        {
          "internalType": "address",
          "name": "to",
          "type": "address"
        },
        {
          "internalType": "uint256",
          "name": "tokenId",
          "type": "uint256"
        }
      ],
      "name": "approve",
      "outputs": [],
      "stateMutability": "nonpayable",
      "type": "function"
    },
    {
      "inputs": [
        {
          "internalType": "address",
          "name": "owner",
          "type": "address"
        }
      ],
      "name": "balanceOf",
      "outputs": [
        {
          "internalType": "uint256",
          "name": "",
          "type": "uint256"
        }
      ],
      "stateMutability": "view",
      "type": "function",
      "constant": true
    },
    {
      "inputs": [],
      "name": "baseURI",
      "outputs": [
        {
          "internalType": "string",
          "name": "",
          "type": "string"
        }
      ],
      "stateMutability": "view",
      "type": "function",
      "constant": true
    },
    {
      "inputs": [
        {
          "internalType": "uint256",
          "name": "tokenId",
          "type": "uint256"
        }
      ],
      "name": "getApproved",
      "outputs": [
        {
          "internalType": "address",
          "name": "",
          "type": "address"
        }
      ],
      "stateMutability": "view",
      "type": "function",
      "constant": true
    },
    {
      "inputs": [
        {
          "internalType": "address",
          "name": "owner",
          "type": "address"
        },
        {
          "internalType": "address",
          "name": "operator",
          "type": "address"
        }
      ],
      "name": "isApprovedForAll",
      "outputs": [
        {
          "internalType": "bool",
          "name": "",
          "type": "bool"
        }
      ],
      "stateMutability": "view",
      "type": "function",
      "constant": true
    },
    {
      "inputs": [],
      "name": "name",
      "outputs": [
        {
          "internalType": "string",
          "name": "",
          "type": "string"
        }
      ],
      "stateMutability": "view",
      "type": "function",
      "constant": true
    },
    {
      "inputs": [
        {
          "internalType": "string",
          "name": "_ipfshash",
          "type": "string"
        },
        {
          "internalType": "address",
          "name": "_keeper",
          "type": "address"
        }
      ],
      "name": "newProject",
      "outputs": [],
      "stateMutability": "nonpayable",
      "type": "function"
    },
    {
      "inputs": [],
      "name": "owner",
      "outputs": [
        {
          "internalType": "address",
          "name": "",
          "type": "address"
        }
      ],
      "stateMutability": "view",
      "type": "function",
      "constant": true
    },
    {
      "inputs": [
        {
          "internalType": "uint256",
          "name": "tokenId",
          "type": "uint256"
        }
      ],
      "name": "ownerOf",
      "outputs": [
        {
          "internalType": "address",
          "name": "",
          "type": "address"
        }
      ],
      "stateMutability": "view",
      "type": "function",
      "constant": true
    },
    {
      "inputs": [],
      "name": "projectCount",
      "outputs": [
        {
          "internalType": "uint256",
          "name": "",
          "type": "uint256"
        }
      ],
      "stateMutability": "view",
      "type": "function",
      "constant": true
    },
    {
      "inputs": [
        {
          "internalType": "uint256",
          "name": "",
          "type": "uint256"
        }
      ],
      "name": "projects",
      "outputs": [
        {
          "internalType": "uint256",
          "name": "id",
          "type": "uint256"
        },
        {
          "internalType": "string",
          "name": "ipfshash",
          "type": "string"
        },
        {
          "internalType": "address",
          "name": "creator",
          "type": "address"
        },
        {
          "internalType": "address",
          "name": "keeper",
          "type": "address"
        },
        {
          "internalType": "uint256",
          "name": "tokens",
          "type": "uint256"
        }
      ],
      "stateMutability": "view",
      "type": "function",
      "constant": true
    },
    {
      "inputs": [],
      "name": "renounceOwnership",
      "outputs": [],
      "stateMutability": "nonpayable",
      "type": "function"
    },
    {
      "inputs": [
        {
          "internalType": "address",
          "name": "from",
          "type": "address"
        },
        {
          "internalType": "address",
          "name": "to",
          "type": "address"
        },
        {
          "internalType": "uint256",
          "name": "tokenId",
          "type": "uint256"
        }
      ],
      "name": "safeTransferFrom",
      "outputs": [],
      "stateMutability": "nonpayable",
      "type": "function"
    },
    {
      "inputs": [
        {
          "internalType": "address",
          "name": "from",
          "type": "address"
        },
        {
          "internalType": "address",
          "name": "to",
          "type": "address"
        },
        {
          "internalType": "uint256",
          "name": "tokenId",
          "type": "uint256"
        },
        {
          "internalType": "bytes",
          "name": "_data",
          "type": "bytes"
        }
      ],
      "name": "safeTransferFrom",
      "outputs": [],
      "stateMutability": "nonpayable",
      "type": "function"
    },
    {
      "inputs": [
        {
          "internalType": "address",
          "name": "operator",
          "type": "address"
        },
        {
          "internalType": "bool",
          "name": "approved",
          "type": "bool"
        }
      ],
      "name": "setApprovalForAll",
      "outputs": [],
      "stateMutability": "nonpayable",
      "type": "function"
    },
    {
      "inputs": [
        {
          "internalType": "bytes4",
          "name": "interfaceId",
          "type": "bytes4"
        }
      ],
      "name": "supportsInterface",
      "outputs": [
        {
          "internalType": "bool",
          "name": "",
          "type": "bool"
        }
      ],
      "stateMutability": "view",
      "type": "function",
      "constant": true
    },
    {
      "inputs": [],
      "name": "symbol",
      "outputs": [
        {
          "internalType": "string",
          "name": "",
          "type": "string"
        }
      ],
      "stateMutability": "view",
      "type": "function",
      "constant": true
    },
    {
      "inputs": [
        {
          "internalType": "uint256",
          "name": "index",
          "type": "uint256"
        }
      ],
      "name": "tokenByIndex",
      "outputs": [
        {
          "internalType": "uint256",
          "name": "",
          "type": "uint256"
        }
      ],
      "stateMutability": "view",
      "type": "function",
      "constant": true
    },
    {
      "inputs": [],
      "name": "tokenCount",
      "outputs": [
        {
          "internalType": "uint256",
          "name": "",
          "type": "uint256"
        }
      ],
      "stateMutability": "view",
      "type": "function",
      "constant": true
    },
    {
      "inputs": [
        {
          "internalType": "address",
          "name": "owner",
          "type": "address"
        },
        {
          "internalType": "uint256",
          "name": "index",
          "type": "uint256"
        }
      ],
      "name": "tokenOfOwnerByIndex",
      "outputs": [
        {
          "internalType": "uint256",
          "name": "",
          "type": "uint256"
        }
      ],
      "stateMutability": "view",
      "type": "function",
      "constant": true
    },
    {
      "inputs": [
        {
          "internalType": "uint256",
          "name": "tokenId",
          "type": "uint256"
        }
      ],
      "name": "tokenURI",
      "outputs": [
        {
          "internalType": "string",
          "name": "",
          "type": "string"
        }
      ],
      "stateMutability": "view",
      "type": "function",
      "constant": true
    },
    {
      "inputs": [],
      "name": "totalSupply",
      "outputs": [
        {
          "internalType": "uint256",
          "name": "",
          "type": "uint256"
        }
      ],
      "stateMutability": "view",
      "type": "function",
      "constant": true
    },
    {
      "inputs": [
        {
          "internalType": "address",
          "name": "from",
          "type": "address"
        },
        {
          "internalType": "address",
          "name": "to",
          "type": "address"
        },
        {
          "internalType": "uint256",
          "name": "tokenId",
          "type": "uint256"
        }
      ],
      "name": "transferFrom",
      "outputs": [],
      "stateMutability": "nonpayable",
      "type": "function"
    },
    {
      "inputs": [
        {
          "internalType": "address",
          "name": "newOwner",
          "type": "address"
        }
      ],
      "name": "transferOwnership",
      "outputs": [],
      "stateMutability": "nonpayable",
      "type": "function"
    },
    {
      "inputs": [],
      "name": "initialize",
      "outputs": [],
      "stateMutability": "nonpayable",
      "type": "function"
    },
    {
      "inputs": [
        {
          "internalType": "address",
          "name": "keeper",
          "type": "address"
        },
        {
          "internalType": "string",
          "name": "tokenURI",
          "type": "string"
        }
      ],
      "name": "awardMainProject",
      "outputs": [
        {
          "internalType": "uint256",
          "name": "",
          "type": "uint256"
        }
      ],
      "stateMutability": "nonpayable",
      "type": "function"
    },
    {
      "inputs": [
        {
          "internalType": "address",
          "name": "keeper",
          "type": "address"
        },
        {
          "internalType": "string",
          "name": "tokenURI",
          "type": "string"
        }
      ],
      "name": "awardProjectToken",
      "outputs": [
        {
          "internalType": "uint256",
          "name": "",
          "type": "uint256"
        }
      ],
      "stateMutability": "nonpayable",
      "type": "function"
    }
  ],
  "bytecode": "0x6080604052600060ca55600060cb5534801561001a57600080fd5b506140608061002a6000396000f3fe608060405234801561001057600080fd5b50600436106101a95760003560e01c80636352211e116100f957806395d89b4111610097578063b88d4fde11610071578063b88d4fde14610b0a578063c87b56dd14610c0f578063e985e9c514610cb6578063f2fde38b14610d30576101a9565b806395d89b4114610a195780639f181b5e14610a9c578063a22cb46514610aba576101a9565b8063715018a6116100d3578063715018a6146108f65780638129fc1c1461090057806381f4d7531461090a5780638da5cb5b146109e5576101a9565b80636352211e146107c35780636c0360eb1461081b57806370a082311461089e576101a9565b806318160ddd116101665780632ff190fb116101405780632ff190fb1461060657806336fbad26146106f557806342842e0e146107135780634f6ccce714610781576101a9565b806318160ddd1461051857806323b872dd146105365780632f745c59146105a4576101a9565b806301ffc9a7146101ae57806306fdde0314610211578063081812fc14610294578063095ea7b3146102ec5780630f73b9f91461033a578063107046bd14610429575b600080fd5b6101f9600480360360208110156101c457600080fd5b8101908080357bffffffffffffffffffffffffffffffffffffffffffffffffffffffff19169060200190929190505050610d74565b60405180821515815260200191505060405180910390f35b610219610ddc565b6040518080602001828103825283818151815260200191508051906020019080838360005b8381101561025957808201518184015260208101905061023e565b50505050905090810190601f1680156102865780820380516001836020036101000a031916815260200191505b509250505060405180910390f35b6102c0600480360360208110156102aa57600080fd5b8101908080359060200190929190505050610e7e565b604051808273ffffffffffffffffffffffffffffffffffffffff16815260200191505060405180910390f35b6103386004803603604081101561030257600080fd5b81019080803573ffffffffffffffffffffffffffffffffffffffff16906020019092919080359060200190929190505050610f19565b005b6104136004803603604081101561035057600080fd5b81019080803573ffffffffffffffffffffffffffffffffffffffff1690602001909291908035906020019064010000000081111561038d57600080fd5b82018360208201111561039f57600080fd5b803590602001918460018302840111640100000000831117156103c157600080fd5b91908080601f016020809104026020016040519081016040528093929190818152602001838380828437600081840152601f19601f82011690508083019250505050505050919291929050505061105d565b6040518082815260200191505060405180910390f35b6104556004803603602081101561043f57600080fd5b8101908080359060200190929190505050611095565b60405180868152602001806020018573ffffffffffffffffffffffffffffffffffffffff1681526020018473ffffffffffffffffffffffffffffffffffffffff168152602001838152602001828103825286818151815260200191508051906020019080838360005b838110156104d95780820151818401526020810190506104be565b50505050905090810190601f1680156105065780820380516001836020036101000a031916815260200191505b50965050505050505060405180910390f35b6105206111b3565b6040518082815260200191505060405180910390f35b6105a26004803603606081101561054c57600080fd5b81019080803573ffffffffffffffffffffffffffffffffffffffff169060200190929190803573ffffffffffffffffffffffffffffffffffffffff169060200190929190803590602001909291905050506111c4565b005b6105f0600480360360408110156105ba57600080fd5b81019080803573ffffffffffffffffffffffffffffffffffffffff1690602001909291908035906020019092919050505061123a565b6040518082815260200191505060405180910390f35b6106df6004803603604081101561061c57600080fd5b81019080803573ffffffffffffffffffffffffffffffffffffffff1690602001909291908035906020019064010000000081111561065957600080fd5b82018360208201111561066b57600080fd5b8035906020019184600183028401116401000000008311171561068d57600080fd5b91908080601f016020809104026020016040519081016040528093929190818152602001838380828437600081840152601f19601f820116905080830192505050505050509192919290505050611295565b6040518082815260200191505060405180910390f35b6106fd611420565b6040518082815260200191505060405180910390f35b61077f6004803603606081101561072957600080fd5b81019080803573ffffffffffffffffffffffffffffffffffffffff169060200190929190803573ffffffffffffffffffffffffffffffffffffffff16906020019092919080359060200190929190505050611426565b005b6107ad6004803603602081101561079757600080fd5b8101908080359060200190929190505050611446565b6040518082815260200191505060405180910390f35b6107ef600480360360208110156107d957600080fd5b8101908080359060200190929190505050611469565b604051808273ffffffffffffffffffffffffffffffffffffffff16815260200191505060405180910390f35b6108236114a0565b6040518080602001828103825283818151815260200191508051906020019080838360005b83811015610863578082015181840152602081019050610848565b50505050905090810190601f1680156108905780820380516001836020036101000a031916815260200191505b509250505060405180910390f35b6108e0600480360360208110156108b457600080fd5b81019080803573ffffffffffffffffffffffffffffffffffffffff169060200190929190505050611542565b6040518082815260200191505060405180910390f35b6108fe611617565b005b610908611787565b005b6109e36004803603604081101561092057600080fd5b810190808035906020019064010000000081111561093d57600080fd5b82018360208201111561094f57600080fd5b8035906020019184600183028401116401000000008311171561097157600080fd5b91908080601f016020809104026020016040519081016040528093929190818152602001838380828437600081840152601f19601f820116905080830192505050505050509192919290803573ffffffffffffffffffffffffffffffffffffffff1690602001909291905050506118f9565b005b6109ed611b3e565b604051808273ffffffffffffffffffffffffffffffffffffffff16815260200191505060405180910390f35b610a21611b68565b6040518080602001828103825283818151815260200191508051906020019080838360005b83811015610a61578082015181840152602081019050610a46565b50505050905090810190601f168015610a8e5780820380516001836020036101000a031916815260200191505b509250505060405180910390f35b610aa4611c0a565b6040518082815260200191505060405180910390f35b610b0860048036036040811015610ad057600080fd5b81019080803573ffffffffffffffffffffffffffffffffffffffff169060200190929190803515159060200190929190505050611c10565b005b610c0d60048036036080811015610b2057600080fd5b81019080803573ffffffffffffffffffffffffffffffffffffffff169060200190929190803573ffffffffffffffffffffffffffffffffffffffff1690602001909291908035906020019092919080359060200190640100000000811115610b8757600080fd5b820183602082011115610b9957600080fd5b80359060200191846001830284011164010000000083111715610bbb57600080fd5b91908080601f016020809104026020016040519081016040528093929190818152602001838380828437600081840152601f19601f820116905080830192505050505050509192919290505050611dc6565b005b610c3b60048036036020811015610c2557600080fd5b8101908080359060200190929190505050611e3e565b6040518080602001828103825283818151815260200191508051906020019080838360005b83811015610c7b578082015181840152602081019050610c60565b50505050905090810190601f168015610ca85780820380516001836020036101000a031916815260200191505b509250505060405180910390f35b610d1860048036036040811015610ccc57600080fd5b81019080803573ffffffffffffffffffffffffffffffffffffffff169060200190929190803573ffffffffffffffffffffffffffffffffffffffff16906020019092919050505061210f565b60405180821515815260200191505060405180910390f35b610d7260048036036020811015610d4657600080fd5b81019080803573ffffffffffffffffffffffffffffffffffffffff1690602001909291905050506121a3565b005b600060336000837bffffffffffffffffffffffffffffffffffffffffffffffffffffffff19167bffffffffffffffffffffffffffffffffffffffffffffffffffffffff1916815260200190815260200160002060009054906101000a900460ff169050919050565b6060606a8054600181600116156101000203166002900480601f016020809104026020016040519081016040528092919081815260200182805460018160011615610100020316600290048015610e745780601f10610e4957610100808354040283529160200191610e74565b820191906000526020600020905b815481529060010190602001808311610e5757829003601f168201915b5050505050905090565b6000610e8982612398565b610ede576040517f08c379a000000000000000000000000000000000000000000000000000000000815260040180806020018281038252602c815260200180613f29602c913960400191505060405180910390fd5b6068600083815260200190815260200160002060009054906101000a900473ffffffffffffffffffffffffffffffffffffffff169050919050565b6000610f2482611469565b90508073ffffffffffffffffffffffffffffffffffffffff168373ffffffffffffffffffffffffffffffffffffffff161415610fab576040517f08c379a0000000000000000000000000000000000000000000000000000000008152600401808060200182810382526021815260200180613fd96021913960400191505060405180910390fd5b8073ffffffffffffffffffffffffffffffffffffffff16610fca6123b5565b73ffffffffffffffffffffffffffffffffffffffff161480610ff95750610ff881610ff36123b5565b61210f565b5b61104e576040517f08c379a0000000000000000000000000000000000000000000000000000000008152600401808060200182810382526038815260200180613e4e6038913960400191505060405180910390fd5b61105883836123bd565b505050565b600061106960cc612476565b600061107560cc61248c565b9050611081848261249a565b61108b818461268e565b8091505092915050565b60c981815481106110a557600080fd5b9060005260206000209060050201600091509050806000015490806001018054600181600116156101000203166002900480601f0160208091040260200160405190810160405280929190818152602001828054600181600116156101000203166002900480156111575780601f1061112c57610100808354040283529160200191611157565b820191906000526020600020905b81548152906001019060200180831161113a57829003601f168201915b5050505050908060020160009054906101000a900473ffffffffffffffffffffffffffffffffffffffff16908060030160009054906101000a900473ffffffffffffffffffffffffffffffffffffffff16908060040154905085565b60006111bf6066612718565b905090565b6111d56111cf6123b5565b8261272d565b61122a576040517f08c379a0000000000000000000000000000000000000000000000000000000008152600401808060200182810382526031815260200180613ffa6031913960400191505060405180910390fd5b611235838383612821565b505050565b600061128d82606560008673ffffffffffffffffffffffffffffffffffffffff1673ffffffffffffffffffffffffffffffffffffffff168152602001908152602001600020612a6490919063ffffffff16565b905092915050565b600060ca600081548092919060010191905055506112b360cc612476565b60006112bf60cc61248c565b905060c96040518060a0016040528060ca5481526020018581526020013373ffffffffffffffffffffffffffffffffffffffff1681526020018673ffffffffffffffffffffffffffffffffffffffff168152602001838152509080600181540180825580915050600190039060005260206000209060050201600090919091909150600082015181600001556020820151816001019080519060200190611367929190613cb2565b5060408201518160020160006101000a81548173ffffffffffffffffffffffffffffffffffffffff021916908373ffffffffffffffffffffffffffffffffffffffff16021790555060608201518160030160006101000a81548173ffffffffffffffffffffffffffffffffffffffff021916908373ffffffffffffffffffffffffffffffffffffffff16021790555060808201518160040155505061140c8482612a7e565b611416818461268e565b8091505092915050565b60ca5481565b61144183838360405180602001604052806000815250611dc6565b505050565b60008061145d836066612a9c90919063ffffffff16565b50905080915050919050565b600061149982604051806060016040528060298152602001613eb0602991396066612ac89092919063ffffffff16565b9050919050565b6060606d8054600181600116156101000203166002900480601f0160208091040260200160405190810160405280929190818152602001828054600181600116156101000203166002900480156115385780601f1061150d57610100808354040283529160200191611538565b820191906000526020600020905b81548152906001019060200180831161151b57829003601f168201915b5050505050905090565b60008073ffffffffffffffffffffffffffffffffffffffff168273ffffffffffffffffffffffffffffffffffffffff1614156115c9576040517f08c379a000000000000000000000000000000000000000000000000000000000815260040180806020018281038252602a815260200180613e86602a913960400191505060405180910390fd5b611610606560008473ffffffffffffffffffffffffffffffffffffffff1673ffffffffffffffffffffffffffffffffffffffff168152602001908152602001600020612ae7565b9050919050565b61161f6123b5565b73ffffffffffffffffffffffffffffffffffffffff1661163d611b3e565b73ffffffffffffffffffffffffffffffffffffffff16146116c6576040517f08c379a00000000000000000000000000000000000000000000000000000000081526004018080602001828103825260208152602001807f4f776e61626c653a2063616c6c6572206973206e6f7420746865206f776e657281525060200191505060405180910390fd5b600073ffffffffffffffffffffffffffffffffffffffff16609760009054906101000a900473ffffffffffffffffffffffffffffffffffffffff1673ffffffffffffffffffffffffffffffffffffffff167f8be0079c531659141344cd1fd0a4f28419497f9722a3daafe3b4186f6b6457e060405160405180910390a36000609760006101000a81548173ffffffffffffffffffffffffffffffffffffffff021916908373ffffffffffffffffffffffffffffffffffffffff160217905550565b600060019054906101000a900460ff16806117a657506117a5612afc565b5b806117bc575060008054906101000a900460ff16155b611811576040517f08c379a000000000000000000000000000000000000000000000000000000000815260040180806020018281038252602e815260200180613ed9602e913960400191505060405180910390fd5b60008060019054906101000a900460ff161590508015611861576001600060016101000a81548160ff02191690831515021790555060016000806101000a81548160ff0219169083151502179055505b6118d56040518060400160405280601781526020017f576562334172742050726f6a6563747320546f6b656e730000000000000000008152506040518060400160405280600381526020017f5733410000000000000000000000000000000000000000000000000000000000815250612b0d565b80156118f65760008060016101000a81548160ff0219169083151502179055505b50565b60ca6000815480929190600101919050555060c96040518060a0016040528060ca5481526020018481526020013373ffffffffffffffffffffffffffffffffffffffff1681526020018373ffffffffffffffffffffffffffffffffffffffff16815260200160cb5481525090806001815401808255809150506001900390600052602060002090600502016000909190919091506000820151816000015560208201518160010190805190602001906119b3929190613cb2565b5060408201518160020160006101000a81548173ffffffffffffffffffffffffffffffffffffffff021916908373ffffffffffffffffffffffffffffffffffffffff16021790555060608201518160030160006101000a81548173ffffffffffffffffffffffffffffffffffffffff021916908373ffffffffffffffffffffffffffffffffffffffff1602179055506080820151816004015550507f855018e1c559e56d1f2ef0e5726673a7f2bcfde96998cc3f2f5a38c32bce53a360ca5483338460cb5460405180868152602001806020018573ffffffffffffffffffffffffffffffffffffffff1681526020018473ffffffffffffffffffffffffffffffffffffffff168152602001838152602001828103825286818151815260200191508051906020019080838360005b83811015611afc578082015181840152602081019050611ae1565b50505050905090810190601f168015611b295780820380516001836020036101000a031916815260200191505b50965050505050505060405180910390a15050565b6000609760009054906101000a900473ffffffffffffffffffffffffffffffffffffffff16905090565b6060606b8054600181600116156101000203166002900480601f016020809104026020016040519081016040528092919081815260200182805460018160011615610100020316600290048015611c005780601f10611bd557610100808354040283529160200191611c00565b820191906000526020600020905b815481529060010190602001808311611be357829003601f168201915b5050505050905090565b60cb5481565b611c186123b5565b73ffffffffffffffffffffffffffffffffffffffff168273ffffffffffffffffffffffffffffffffffffffff161415611cb9576040517f08c379a00000000000000000000000000000000000000000000000000000000081526004018080602001828103825260198152602001807f4552433732313a20617070726f766520746f2063616c6c65720000000000000081525060200191505060405180910390fd5b8060696000611cc66123b5565b73ffffffffffffffffffffffffffffffffffffffff1673ffffffffffffffffffffffffffffffffffffffff16815260200190815260200160002060008473ffffffffffffffffffffffffffffffffffffffff1673ffffffffffffffffffffffffffffffffffffffff16815260200190815260200160002060006101000a81548160ff0219169083151502179055508173ffffffffffffffffffffffffffffffffffffffff16611d736123b5565b73ffffffffffffffffffffffffffffffffffffffff167f17307eab39ab6107e8899845ad3d59bd9653f200f220920489ca2b5937696c318360405180821515815260200191505060405180910390a35050565b611dd7611dd16123b5565b8361272d565b611e2c576040517f08c379a0000000000000000000000000000000000000000000000000000000008152600401808060200182810382526031815260200180613ffa6031913960400191505060405180910390fd5b611e3884848484612c27565b50505050565b6060611e4982612398565b611e9e576040517f08c379a000000000000000000000000000000000000000000000000000000000815260040180806020018281038252602f815260200180613faa602f913960400191505060405180910390fd5b6000606c60008481526020019081526020016000208054600181600116156101000203166002900480601f016020809104026020016040519081016040528092919081815260200182805460018160011615610100020316600290048015611f475780601f10611f1c57610100808354040283529160200191611f47565b820191906000526020600020905b815481529060010190602001808311611f2a57829003601f168201915b505050505090506000611f586114a0565b9050600081511415611f6e57819250505061210a565b60008251111561203f5780826040516020018083805190602001908083835b60208310611fb05780518252602082019150602081019050602083039250611f8d565b6001836020036101000a03801982511681845116808217855250505050505090500182805190602001908083835b602083106120015780518252602082019150602081019050602083039250611fde565b6001836020036101000a038019825116818451168082178552505050505050905001925050506040516020818303038152906040529250505061210a565b8061204985612c99565b6040516020018083805190602001908083835b6020831061207f578051825260208201915060208101905060208303925061205c565b6001836020036101000a03801982511681845116808217855250505050505090500182805190602001908083835b602083106120d057805182526020820191506020810190506020830392506120ad565b6001836020036101000a03801982511681845116808217855250505050505090500192505050604051602081830303815290604052925050505b919050565b6000606960008473ffffffffffffffffffffffffffffffffffffffff1673ffffffffffffffffffffffffffffffffffffffff16815260200190815260200160002060008373ffffffffffffffffffffffffffffffffffffffff1673ffffffffffffffffffffffffffffffffffffffff16815260200190815260200160002060009054906101000a900460ff16905092915050565b6121ab6123b5565b73ffffffffffffffffffffffffffffffffffffffff166121c9611b3e565b73ffffffffffffffffffffffffffffffffffffffff1614612252576040517f08c379a00000000000000000000000000000000000000000000000000000000081526004018080602001828103825260208152602001807f4f776e61626c653a2063616c6c6572206973206e6f7420746865206f776e657281525060200191505060405180910390fd5b600073ffffffffffffffffffffffffffffffffffffffff168173ffffffffffffffffffffffffffffffffffffffff1614156122d8576040517f08c379a0000000000000000000000000000000000000000000000000000000008152600401808060200182810382526026815260200180613db26026913960400191505060405180910390fd5b8073ffffffffffffffffffffffffffffffffffffffff16609760009054906101000a900473ffffffffffffffffffffffffffffffffffffffff1673ffffffffffffffffffffffffffffffffffffffff167f8be0079c531659141344cd1fd0a4f28419497f9722a3daafe3b4186f6b6457e060405160405180910390a380609760006101000a81548173ffffffffffffffffffffffffffffffffffffffff021916908373ffffffffffffffffffffffffffffffffffffffff16021790555050565b60006123ae826066612de090919063ffffffff16565b9050919050565b600033905090565b816068600083815260200190815260200160002060006101000a81548173ffffffffffffffffffffffffffffffffffffffff021916908373ffffffffffffffffffffffffffffffffffffffff160217905550808273ffffffffffffffffffffffffffffffffffffffff1661243083611469565b73ffffffffffffffffffffffffffffffffffffffff167f8c5be1e5ebec7d5bd14f71427d1e84f3dd0314c0f7b2291e5b200ac8c7c3b92560405160405180910390a45050565b6001816000016000828254019250508190555050565b600081600001549050919050565b600073ffffffffffffffffffffffffffffffffffffffff168273ffffffffffffffffffffffffffffffffffffffff16141561253d576040517f08c379a00000000000000000000000000000000000000000000000000000000081526004018080602001828103825260208152602001807f4552433732313a206d696e7420746f20746865207a65726f206164647265737381525060200191505060405180910390fd5b61254681612398565b156125b9576040517f08c379a000000000000000000000000000000000000000000000000000000000815260040180806020018281038252601c8152602001807f4552433732313a20746f6b656e20616c7265616479206d696e7465640000000081525060200191505060405180910390fd5b6125c560008383612dfa565b61261681606560008573ffffffffffffffffffffffffffffffffffffffff1673ffffffffffffffffffffffffffffffffffffffff168152602001908152602001600020612dff90919063ffffffff16565b5061262d81836066612e199092919063ffffffff16565b50808273ffffffffffffffffffffffffffffffffffffffff16600073ffffffffffffffffffffffffffffffffffffffff167fddf252ad1be2c89b69c2b068fc378daa952ba7f163c4a11628f55a4df523b3ef60405160405180910390a45050565b61269782612398565b6126ec576040517f08c379a000000000000000000000000000000000000000000000000000000000815260040180806020018281038252602c815260200180613f55602c913960400191505060405180910390fd5b80606c60008481526020019081526020016000209080519060200190612713929190613cb2565b505050565b600061272682600001612e4e565b9050919050565b600061273882612398565b61278d576040517f08c379a000000000000000000000000000000000000000000000000000000000815260040180806020018281038252602c815260200180613e22602c913960400191505060405180910390fd5b600061279883611469565b90508073ffffffffffffffffffffffffffffffffffffffff168473ffffffffffffffffffffffffffffffffffffffff16148061280757508373ffffffffffffffffffffffffffffffffffffffff166127ef84610e7e565b73ffffffffffffffffffffffffffffffffffffffff16145b806128185750612817818561210f565b5b91505092915050565b8273ffffffffffffffffffffffffffffffffffffffff1661284182611469565b73ffffffffffffffffffffffffffffffffffffffff16146128ad576040517f08c379a0000000000000000000000000000000000000000000000000000000008152600401808060200182810382526029815260200180613f816029913960400191505060405180910390fd5b600073ffffffffffffffffffffffffffffffffffffffff168273ffffffffffffffffffffffffffffffffffffffff161415612933576040517f08c379a0000000000000000000000000000000000000000000000000000000008152600401808060200182810382526024815260200180613dd86024913960400191505060405180910390fd5b61293e838383612dfa565b6129496000826123bd565b61299a81606560008673ffffffffffffffffffffffffffffffffffffffff1673ffffffffffffffffffffffffffffffffffffffff168152602001908152602001600020612e5f90919063ffffffff16565b506129ec81606560008573ffffffffffffffffffffffffffffffffffffffff1673ffffffffffffffffffffffffffffffffffffffff168152602001908152602001600020612dff90919063ffffffff16565b50612a0381836066612e199092919063ffffffff16565b50808273ffffffffffffffffffffffffffffffffffffffff168473ffffffffffffffffffffffffffffffffffffffff167fddf252ad1be2c89b69c2b068fc378daa952ba7f163c4a11628f55a4df523b3ef60405160405180910390a4505050565b6000612a738360000183612e79565b60001c905092915050565b612a98828260405180602001604052806000815250612efc565b5050565b600080600080612aaf8660000186612f6d565b915091508160001c8160001c9350935050509250929050565b6000612adb846000018460001b84613006565b60001c90509392505050565b6000612af5826000016130fc565b9050919050565b6000612b073061310d565b15905090565b600060019054906101000a900460ff1680612b2c5750612b2b612afc565b5b80612b42575060008054906101000a900460ff16155b612b97576040517f08c379a000000000000000000000000000000000000000000000000000000000815260040180806020018281038252602e815260200180613ed9602e913960400191505060405180910390fd5b60008060019054906101000a900460ff161590508015612be7576001600060016101000a81548160ff02191690831515021790555060016000806101000a81548160ff0219169083151502179055505b612bef613120565b612bf761321e565b612c01838361332c565b8015612c225760008060016101000a81548160ff0219169083151502179055505b505050565b612c32848484612821565b612c3e8484848461348a565b612c93576040517f08c379a0000000000000000000000000000000000000000000000000000000008152600401808060200182810382526032815260200180613d806032913960400191505060405180910390fd5b50505050565b60606000821415612ce1576040518060400160405280600181526020017f30000000000000000000000000000000000000000000000000000000000000008152509050612ddb565b600082905060005b60008214612d0b578080600101915050600a8281612d0357fe5b049150612ce9565b60008167ffffffffffffffff81118015612d2457600080fd5b506040519080825280601f01601f191660200182016040528015612d575781602001600182028036833780820191505090505b50905060006001830390508593505b60008414612dd357600a8481612d7857fe5b0660300160f81b82828060019003935081518110612d9257fe5b60200101907effffffffffffffffffffffffffffffffffffffffffffffffffffffffffffff1916908160001a905350600a8481612dcb57fe5b049350612d66565b819450505050505b919050565b6000612df2836000018360001b6136a3565b905092915050565b505050565b6000612e11836000018360001b6136c6565b905092915050565b6000612e45846000018460001b8473ffffffffffffffffffffffffffffffffffffffff1660001b613736565b90509392505050565b600081600001805490509050919050565b6000612e71836000018360001b613812565b905092915050565b600081836000018054905011612eda576040517f08c379a0000000000000000000000000000000000000000000000000000000008152600401808060200182810382526022815260200180613d5e6022913960400191505060405180910390fd5b826000018281548110612ee957fe5b9060005260206000200154905092915050565b612f06838361249a565b612f13600084848461348a565b612f68576040517f08c379a0000000000000000000000000000000000000000000000000000000008152600401808060200182810382526032815260200180613d806032913960400191505060405180910390fd5b505050565b60008082846000018054905011612fcf576040517f08c379a0000000000000000000000000000000000000000000000000000000008152600401808060200182810382526022815260200180613f076022913960400191505060405180910390fd5b6000846000018481548110612fe057fe5b906000526020600020906002020190508060000154816001015492509250509250929050565b600080846001016000858152602001908152602001600020549050600081141583906130cd576040517f08c379a00000000000000000000000000000000000000000000000000000000081526004018080602001828103825283818151815260200191508051906020019080838360005b83811015613092578082015181840152602081019050613077565b50505050905090810190601f1680156130bf5780820380516001836020036101000a031916815260200191505b509250505060405180910390fd5b508460000160018203815481106130e057fe5b9060005260206000209060020201600101549150509392505050565b600081600001805490509050919050565b600080823b905060008111915050919050565b600060019054906101000a900460ff168061313f575061313e612afc565b5b80613155575060008054906101000a900460ff16155b6131aa576040517f08c379a000000000000000000000000000000000000000000000000000000000815260040180806020018281038252602e815260200180613ed9602e913960400191505060405180910390fd5b60008060019054906101000a900460ff1615905080156131fa576001600060016101000a81548160ff02191690831515021790555060016000806101000a81548160ff0219169083151502179055505b801561321b5760008060016101000a81548160ff0219169083151502179055505b50565b600060019054906101000a900460ff168061323d575061323c612afc565b5b80613253575060008054906101000a900460ff16155b6132a8576040517f08c379a000000000000000000000000000000000000000000000000000000000815260040180806020018281038252602e815260200180613ed9602e913960400191505060405180910390fd5b60008060019054906101000a900460ff1615905080156132f8576001600060016101000a81548160ff02191690831515021790555060016000806101000a81548160ff0219169083151502179055505b6133086301ffc9a760e01b6138fa565b80156133295760008060016101000a81548160ff0219169083151502179055505b50565b600060019054906101000a900460ff168061334b575061334a612afc565b5b80613361575060008054906101000a900460ff16155b6133b6576040517f08c379a000000000000000000000000000000000000000000000000000000000815260040180806020018281038252602e815260200180613ed9602e913960400191505060405180910390fd5b60008060019054906101000a900460ff161590508015613406576001600060016101000a81548160ff02191690831515021790555060016000806101000a81548160ff0219169083151502179055505b82606a908051906020019061341c929190613cb2565b5081606b9080519060200190613433929190613cb2565b506134446380ac58cd60e01b6138fa565b613454635b5e139f60e01b6138fa565b61346463780e9d6360e01b6138fa565b80156134855760008060016101000a81548160ff0219169083151502179055505b505050565b60006134ab8473ffffffffffffffffffffffffffffffffffffffff1661310d565b6134b8576001905061369b565b600061362263150b7a0260e01b6134cd6123b5565b888787604051602401808573ffffffffffffffffffffffffffffffffffffffff1681526020018473ffffffffffffffffffffffffffffffffffffffff16815260200183815260200180602001828103825283818151815260200191508051906020019080838360005b83811015613551578082015181840152602081019050613536565b50505050905090810190601f16801561357e5780820380516001836020036101000a031916815260200191505b5095505050505050604051602081830303815290604052907bffffffffffffffffffffffffffffffffffffffffffffffffffffffff19166020820180517bffffffffffffffffffffffffffffffffffffffffffffffffffffffff8381831617835250505050604051806060016040528060328152602001613d80603291398773ffffffffffffffffffffffffffffffffffffffff16613a039092919063ffffffff16565b9050600081806020019051602081101561363b57600080fd5b8101908080519060200190929190505050905063150b7a0260e01b7bffffffffffffffffffffffffffffffffffffffffffffffffffffffff1916817bffffffffffffffffffffffffffffffffffffffffffffffffffffffff191614925050505b949350505050565b600080836001016000848152602001908152602001600020541415905092915050565b60006136d28383613a1b565b61372b578260000182908060018154018082558091505060019003906000526020600020016000909190919091505582600001805490508360010160008481526020019081526020016000208190555060019050613730565b600090505b92915050565b60008084600101600085815260200190815260200160002054905060008114156137dd5784600001604051806040016040528086815260200185815250908060018154018082558091505060019003906000526020600020906002020160009091909190915060008201518160000155602082015181600101555050846000018054905085600101600086815260200190815260200160002081905550600191505061380b565b828560000160018303815481106137f057fe5b90600052602060002090600202016001018190555060009150505b9392505050565b600080836001016000848152602001908152602001600020549050600081146138ee576000600182039050600060018660000180549050039050600086600001828154811061385d57fe5b906000526020600020015490508087600001848154811061387a57fe5b90600052602060002001819055506001830187600101600083815260200190815260200160002081905550866000018054806138b257fe5b600190038181906000526020600020016000905590558660010160008781526020019081526020016000206000905560019450505050506138f4565b60009150505b92915050565b63ffffffff60e01b817bffffffffffffffffffffffffffffffffffffffffffffffffffffffff19161415613996576040517f08c379a000000000000000000000000000000000000000000000000000000000815260040180806020018281038252601c8152602001807f4552433136353a20696e76616c696420696e746572666163652069640000000081525060200191505060405180910390fd5b600160336000837bffffffffffffffffffffffffffffffffffffffffffffffffffffffff19167bffffffffffffffffffffffffffffffffffffffffffffffffffffffff1916815260200190815260200160002060006101000a81548160ff02191690831515021790555050565b6060613a128484600085613a3e565b90509392505050565b600080836001016000848152602001908152602001600020541415905092915050565b606082471015613a99576040517f08c379a0000000000000000000000000000000000000000000000000000000008152600401808060200182810382526026815260200180613dfc6026913960400191505060405180910390fd5b613aa28561310d565b613b14576040517f08c379a000000000000000000000000000000000000000000000000000000000815260040180806020018281038252601d8152602001807f416464726573733a2063616c6c20746f206e6f6e2d636f6e747261637400000081525060200191505060405180910390fd5b6000808673ffffffffffffffffffffffffffffffffffffffff1685876040518082805190602001908083835b60208310613b635780518252602082019150602081019050602083039250613b40565b6001836020036101000a03801982511681845116808217855250505050505090500191505060006040518083038185875af1925050503d8060008114613bc5576040519150601f19603f3d011682016040523d82523d6000602084013e613bca565b606091505b5091509150613bda828286613be6565b92505050949350505050565b60608315613bf657829050613cab565b600083511115613c095782518084602001fd5b816040517f08c379a00000000000000000000000000000000000000000000000000000000081526004018080602001828103825283818151815260200191508051906020019080838360005b83811015613c70578082015181840152602081019050613c55565b50505050905090810190601f168015613c9d5780820380516001836020036101000a031916815260200191505b509250505060405180910390fd5b9392505050565b828054600181600116156101000203166002900490600052602060002090601f016020900481019282613ce85760008555613d2f565b82601f10613d0157805160ff1916838001178555613d2f565b82800160010185558215613d2f579182015b82811115613d2e578251825591602001919060010190613d13565b5b509050613d3c9190613d40565b5090565b5b80821115613d59576000816000905550600101613d41565b509056fe456e756d657261626c655365743a20696e646578206f7574206f6620626f756e64734552433732313a207472616e7366657220746f206e6f6e20455243373231526563656976657220696d706c656d656e7465724f776e61626c653a206e6577206f776e657220697320746865207a65726f20616464726573734552433732313a207472616e7366657220746f20746865207a65726f2061646472657373416464726573733a20696e73756666696369656e742062616c616e636520666f722063616c6c4552433732313a206f70657261746f7220717565727920666f72206e6f6e6578697374656e7420746f6b656e4552433732313a20617070726f76652063616c6c6572206973206e6f74206f776e6572206e6f7220617070726f76656420666f7220616c6c4552433732313a2062616c616e636520717565727920666f7220746865207a65726f20616464726573734552433732313a206f776e657220717565727920666f72206e6f6e6578697374656e7420746f6b656e496e697469616c697a61626c653a20636f6e747261637420697320616c726561647920696e697469616c697a6564456e756d657261626c654d61703a20696e646578206f7574206f6620626f756e64734552433732313a20617070726f76656420717565727920666f72206e6f6e6578697374656e7420746f6b656e4552433732314d657461646174613a2055524920736574206f66206e6f6e6578697374656e7420746f6b656e4552433732313a207472616e73666572206f6620746f6b656e2074686174206973206e6f74206f776e4552433732314d657461646174613a2055524920717565727920666f72206e6f6e6578697374656e7420746f6b656e4552433732313a20617070726f76616c20746f2063757272656e74206f776e65724552433732313a207472616e736665722063616c6c6572206973206e6f74206f776e6572206e6f7220617070726f766564a264697066735822122052d20e2479d819c71c17fdc9448f69fed2f40be1a1cbd12b4e3c6b34f2efb58764736f6c63430007060033",
  "immutableReferences": {},
  "source": "// SPDX-License-Identifier: MIT\n\npragma solidity >=0.5.0 <0.8.0;\n\nimport \"@openzeppelin/contracts-upgradeable/token/ERC721/ERC721Upgradeable.sol\";\nimport \"@openzeppelin/contracts-upgradeable/proxy/Initializable.sol\";\nimport \"@openzeppelin/contracts-upgradeable/access/OwnableUpgradeable.sol\";\n\nimport \"@openzeppelin/contracts-upgradeable/utils/CountersUpgradeable.sol\";\nimport \"@openzeppelin/contracts-upgradeable/math/SafeMathUpgradeable.sol\";\nimport \"@openzeppelin/contracts-upgradeable/utils/SafeCastUpgradeable.sol\";\n\n//import \"@openzeppelin/contracts/token/ERC721/ERC721.sol\";\n//import \"@openzeppelin/contracts/access/Ownable.sol\";\n\n//import \"@openzeppelin/contracts/utils/Counters.sol\";\n//import \"@openzeppelin/contracts/utils/SafeCast.sol\";\n//import \"@openzeppelin/contracts/math/SafeMath.sol\";\n\n\n\n\n\ncontract W3irds is OwnableUpgradeable {\n    using SafeMathUpgradeable for uint256;\n    using SafeCastUpgradeable for uint256;\n\n    //using Counters for Counters.Counter;\n    //Counters.Counter private _projectIds;\n    //mapping(string => uint8) ipfshashes;\n\n   // constructor() public ERC721(\"W3irds Art\" , \"3A\") {}\n\n\n   //string public name = \"W3irds Art\";\n    //string [] public projects;\n    //Project information\n        struct Project {\n            //Art details\n            uint256 id;\n            //Name\n            //string name;\n            //going private\n            //string nameprefix;//No need\n            //DB Address\n            //string dbaddress\n            //going for an ipfs hash of a json file with all the data\n            string ipfshash;\n            //I need a preview\n            //string imagehash; got rid of this one\n            //timestamp??\n            //string timestamp;\n            //ownership\n            address creator;\n            //Owner??\n            address keeper;\n            //Price\n            //uint256 price;\n            //purchased\n           // bool purchased;\n           /****I am doing a thing with ProjectTokens instead of price etc.. */\n           uint256 tokens;\n\n        }\n        //List of all projects\n        Project[] public projects;\n        //mapping(uint => Project) public projects;\n\n\n//I am doing this one to get track of the 'id' in Project struct Otherwise I will need Counters for this\n    uint256 public projectCount = 0;\n    uint256 public tokenCount = 0;\n    //uint256 private price = 3000000000000000000;\n\n/***got rid of these */\n    //string private _nameprefix = 'W3art-Project-';\n\n    //Events\n    event ProjectCreated(uint256 id, string ipfshash, address creator, address keeper, uint256 tokens );\n    event ProjectKeeperChanged(uint256 id, string ipfshahs, address creator, address keeper, uint256 tokens);\n    event ProjectTokens(uint256 id);\n      \n    //Create new project\n        function newProject(\n            string memory _ipfshash,\n            //string memory _imagehash\n            //address _creator\n            address _keeper\n        ) public //returns (uint256)\n        {\n            projectCount++;\n            //uint256 id = projects.length;\n            //Reverting 'ownership' to creator\n            //if( bytes(_keeper) = 0){\n               // _keeper = msg.sender;\n           // }\n            projects.push(\n                Project(projectCount, _ipfshash, msg.sender, _keeper, tokenCount)\n            );\n            //_safeMint(msg.sender, id);\n            //I chose to have the ipfshash as the tokenURI*** I couldn't figure out a way to set the default\n            //Image--- if someone used only the code art part? I need a way to take a snapshot of the project\n            //right before it is published and save that as the preview**Even so I fear gas fees***also I want \n            //to implement the Gas Station Network but I fear I have not enough funds for that so I am waiting on it\n            //_setTokenURI(id, _ipfshash);\n            //return id;\n            emit ProjectCreated(projectCount, _ipfshash, msg.sender, _keeper,  tokenCount);\n        }\n\n        /*function addToken(\n            uint256 id\n        )public\n        {\n            tokenCount++;\n            Project memory project = projects[id];\n            project.tokens = tokenCount;\n            projects[id] = project;\n            emit ProjectTokens(tokenCount);\n\n        }*/\n    //Sell a project?? Essentially the idea is to transfer the Keeper role to another\n      //This one's not working so I will go with awarding a token\n   \n   \n}\n\n/*contract W3irdsTest{\n    struct Minter {\n        uint weight;\n        uint mint;\n        address keeper; // person to keep the project\n        bool minted;\n    }\n    struct Project {\n        string uri;\n        uint tokenCount;\n    }\n    address public projectCreator;\n    mapping(address => Minter) public minters;\n    Project[] public projects;\n\n    constructor(string [] memory projectUris){\n        projectCreator = msg.sender;\n        minters[projectCreator].weight = 1;\n        for (uint i = 0; i < projectUris.length; i++){\n            projects.push(Project({\n                uri: projectUris[i],\n                tokenCount: 0\n            }));\n        }\n    }\n    function giveRightToMint(address minter) public{\n        require(\n            msg.sender == projectCreator,\n            'Only the project creator can give right to mint.'\n        );\n        require(\n            !minters[mint].minted,\n            'The minter already minted.'\n        );\n        require(minters[minter].weight == 0);\n        minters[minter].weight = 1;\n    }\n    function assignKeeper(address to) public{\n        Minter storage sender = minters[msg.sender];\n        require(!sender.minted, \"You already minted.\");\n        require(to != msg.sender, \"You can't keep your own project.\");\n\n        while(minters[to].keeper != address(0)) {\n            to = minters[to].keeper;\n            require(to != msg.sender, \"Oops that is a loop.\");\n        }\n        sender.minted = true;\n        sender.keeper = to;\n        Minter storage keeper_ = minters[to];\n        if(keeper_.minted){\n            projects[keeper_.mint].tokenCount += sender.weight;\n        }else{\n            keeper_.weight += sender.weight;\n        }\n    }\n    function mintToProject(uint project) public{\n        Minter storage sender = minters[msg.sender];\n        require(sender.weight != 0, \"Has no right to mint\");\n        //require(!sender.minted, \"Already minted\");\n        sender.minted = true;\n        sender.mint = project;\n\n        projects[project].tokenCount += sender.weight;\n    }\n\n\n}*/\n\n\ncontract W3irdsTokens is   Initializable, ERC721Upgradeable, W3irds {\n    using CountersUpgradeable for CountersUpgradeable.Counter;\n    CountersUpgradeable.Counter private _tokenIds;\n\n    \n\n    //constructor() public ERC721('Web3Art Project Tokens', 'W3A') {}\n    function initialize() initializer public{\n        __ERC721_init(\"Web3Art Projects Tokens\", \"W3A\");\n    }\n\n    function awardMainProject(address keeper, string memory tokenURI)\n        public //onlyOwner()\n        returns (uint256)\n        {\n            //addToken(projectId);\n            projectCount++;\n\n            _tokenIds.increment();\n\n            uint256 newItemId = _tokenIds.current();\n            projects.push(Project(projectCount, tokenURI, msg.sender, keeper, newItemId));\n            _safeMint(keeper, newItemId);\n            _setTokenURI(newItemId, tokenURI);\n\n            return newItemId;\n        }\n    function awardProjectToken(address keeper, string memory tokenURI)\n        public\n        returns (uint256)\n        {\n            \n            _tokenIds.increment();\n            uint256 newItemId = _tokenIds.current();\n            //Project storage _project = projects[newItemId];//\n           // _project.tokens += newItemId;////////////////////>>>>>>These three lines are throwing an error, I don't \n           // projects[newItemId] = _project; ////////////////       know what's wrong. I will stick to inheritting parent URI\n            _mint(keeper, newItemId);\n            _setTokenURI(newItemId, tokenURI);\n            return newItemId;\n        }\n    \n    //function tossCoin(address creator, uint256 amount)\n    //public\n    //{\n\n   // }\n}\n\n\n\n\n\n",
  "sourcePath": "/Applications/Ampps/www/W3irds/artwork/src/contracts/w3irds.sol",
  "compiler": {
    "name": "solc",
    "version": "0.7.6+commit.7338295f.Emscripten.clang"
  },
  "schemaVersion": "3.3.3",
  "updatedAt": "2021-02-07T10:14:22.023Z",
  "networkType": "ethereum",
  "devdoc": {
    "kind": "dev",
    "methods": {
      "approve(address,uint256)": {
        "details": "See {IERC721-approve}."
      },
      "balanceOf(address)": {
        "details": "See {IERC721-balanceOf}."
      },
      "baseURI()": {
        "details": "Returns the base URI set via {_setBaseURI}. This will be automatically added as a prefix in {tokenURI} to each token's URI, or to the token ID if no specific URI is set for that token ID."
      },
      "getApproved(uint256)": {
        "details": "See {IERC721-getApproved}."
      },
      "isApprovedForAll(address,address)": {
        "details": "See {IERC721-isApprovedForAll}."
      },
      "name()": {
        "details": "See {IERC721Metadata-name}."
      },
      "owner()": {
        "details": "Returns the address of the current owner."
      },
      "ownerOf(uint256)": {
        "details": "See {IERC721-ownerOf}."
      },
      "renounceOwnership()": {
        "details": "Leaves the contract without owner. It will not be possible to call `onlyOwner` functions anymore. Can only be called by the current owner. NOTE: Renouncing ownership will leave the contract without an owner, thereby removing any functionality that is only available to the owner."
      },
      "safeTransferFrom(address,address,uint256)": {
        "details": "See {IERC721-safeTransferFrom}."
      },
      "safeTransferFrom(address,address,uint256,bytes)": {
        "details": "See {IERC721-safeTransferFrom}."
      },
      "setApprovalForAll(address,bool)": {
        "details": "See {IERC721-setApprovalForAll}."
      },
      "supportsInterface(bytes4)": {
        "details": "See {IERC165-supportsInterface}. Time complexity O(1), guaranteed to always use less than 30 000 gas."
      },
      "symbol()": {
        "details": "See {IERC721Metadata-symbol}."
      },
      "tokenByIndex(uint256)": {
        "details": "See {IERC721Enumerable-tokenByIndex}."
      },
      "tokenOfOwnerByIndex(address,uint256)": {
        "details": "See {IERC721Enumerable-tokenOfOwnerByIndex}."
      },
      "tokenURI(uint256)": {
        "details": "See {IERC721Metadata-tokenURI}."
      },
      "totalSupply()": {
        "details": "See {IERC721Enumerable-totalSupply}."
      },
      "transferFrom(address,address,uint256)": {
        "details": "See {IERC721-transferFrom}."
      },
      "transferOwnership(address)": {
        "details": "Transfers ownership of the contract to a new account (`newOwner`). Can only be called by the current owner."
      }
    },
    "version": 1
  },
  "userdoc": {
    "kind": "user",
    "methods": {},
    "version": 1
  }
}